:100000000C9471010C9499010C9499010C94990130
:100010000C9499010C9499010C9499010C949901F8
:100020000C9499010C9499010C94E7090C94B30871
:100030000C9499010C9499010C9499010C949901D8
:100040000C9499010C9499010C9499010C949901C8
:100050000C9499010C9499010C9499010C9444040A
:100060000C9499010C9499010C9499010C949901A8
:100070000C9499010C9499010C9499010C94990198
:100080000C9499010C9499010C9499010C94990188
:100090000C9417030C9499010C9499010C949901F8
:1000A0000C9499010C9499010C9499015E056305D7
:1000B000680572057C05C605C605C605860590055A
:1000C0009A05A405B105C605B905E705EA05D905F0
:1000D000DD05E3050B060B060B06EE05F205F6053E
:1000E000FC0500060B0606060000000200090F00D2
:1000F00000030401000C00000408020110408040CD
:10010000102040804080080204018040201002013D
:10011000108010204040040404040403040502027B
:100120000202040302020202060606060606040490
:100130000202020400000000250028002B002E000F
:10014000310000000000240027002A002D003000AC
:1001500000C18081C112010002020000404F1B6DEE
:100160005100010102000112010002000000404F95
:100170001B6D51000101020001537061726B4675E5
:100180006E0051746563686B6E6F7720516475699A
:100190006E6F204D696E690004030904080B0002AC
:1001A000020201000904000001020200000524000F
:1001B00010010524010101042402060524060001A2
:1001C0000705810310004009040100020A00000035
:1001D00007050202400000070583024000000000FE
:1001E0000000000000002A2B280000000000000092
:1001F00000000000000000000000000000002C9E35
:10020000B4A0A1A2A434A6A7A5AE362D3738271EC8
:100210001F20212223242526B333B62EB7B89F846E
:1002200085868788898A8B8C8D8E8F909192939406
:1002300095969798999A9B9C9D2F3130A3AD350444
:1002400005060708090A0B0C0D0E0F1011121314E6
:1002500015161718191A1B1C1DAFB1B0B5000904EB
:1002600002000103000000092101010001226500D4
:100270000705840340000105010902A1010901A14C
:10028000008501050919012903150025019503754C
:1002900001810295017505810305010930093109C4
:1002A000381581257F750895038106C0C0050109B1
:1002B00006A1018502050719E029E715002501754A
:1002C0000195088102950175088103950675081549
:1002D0000025650507190029658100C0EA02600B49
:1002E000B30C11241FBECFEFDAE0DEBFCDBF11E0AB
:1002F000A0E0B1E0E6E6FAE102C005900D92A2347A
:10030000B107D9F722E0A2E4B1E001C01D92A13704
:10031000B207E1F712E0C2EED2E004C02297FE017C
:100320000E94130DCC3DD107C9F70E947C060C94A6
:10033000310D0C94000082E491E00C94A50161E081
:1003400070E082E491E00C94BD0161E08DE00E94D8
:100350000C0661E08DE00E94450661E08BE00E94A2
:100360000C0661E08BE00E94450661E08AE00E9495
:100370000C0661E08AE00C9445064F925F926F9202
:100380007F928F929F92AF92BF92CF92DF92EF9225
:10039000FF920F931F93CF93DF9300D000D000D034
:1003A000CDB7DEB7882777FD8095982F1F921F92D3
:1003B0002BE02F9328EB2F9354EFA52EBB24B3945F
:1003C000C12CD12C15E0E12EF12C00E010E021E051
:1003D00030E040E050E00E945B0A2B013C018FEFCF
:1003E00090E09A8389831C821B821E821D82CE012B
:1003F00001967C010F900F900F900F9000E010E09D
:100400004C010230110529F068019FEFC91AD90A81
:1004100002C0C12CD12CAA24AA94B12CCC0CDD1C76
:10042000C80CD91CF7018081918101979183808349
:10043000F6018081918101969183808369817A811F
:100440008AE00E9438056B817C818BE00E94380530
:100450006D817E818DE00E943805C2010E94D90421
:10046000F1E0AF1AB108F1F60F5F1F4F82E0E80E1E
:10047000F11C0330110529F626960FB6F894DEBF5D
:100480000FBECDBFDF91CF911F910F91FF90EF90E5
:10049000DF90CF90BF90AF909F908F907F906F90A4
:1004A0005F904F9008958091720190E020917301C8
:1004B000821B910908952091730180917201281780
:1004C00050F4E22FF0E0EC58FE4F808190E02F5F77
:1004D0002093730108958FEF9FEF0895E0917301CA
:1004E00080917201E81730F4F0E0EC58FE4F808103
:1004F00090E008958FEF9FEF08950895CF92DF92D7
:10050000EF92FF920F931F93CF93DF937C01CB0168
:100510008A0120914F01222389F0EB016B01C40E67
:10052000D51ECC15DD0569F06991D701ED91FC91DF
:100530000190F081E02DC7010995F3CF642F0E944F
:10054000EE02C801DF91CF911F910F91FF90EF90C4
:10055000DF90CF900895CF93DF931F92CDB7DEB792
:10056000698320914F012223D1F020915001203244
:1005700040F021E030E0FC013383228380E090E012
:1005800015C080915101E82FF0E0EE5AFE4F99819D
:1005900090838F5F809351018093500105C061E08B
:1005A000CE0101960E94EE0281E090E00F90DF9173
:1005B000CF910895FC011382128248EE53E060E06F
:1005C00070E0448355836683778388E191E091836B
:1005D0008083089583E491E00C94DA02613298F408
:1005E00020910102243089F46093B601FC0188EB6C
:1005F00091E0DC012A2F281B261718F421912D9356
:10060000F9CF80E0089581E0089582E0089585EDB6
:100610008093BC008091BC0084FDFCCF109201024D
:10062000089585EC8093BC001092010208951F92FA
:100630000F920FB60F9211242F933F934F935F9316
:100640006F937F938F939F93AF93BF93EF93FF939A
:100650008091B900887F803609F49CC068F58832A3
:1006600009F45BC090F4803109F454C038F4882355
:1006700009F4F5C0883009F44DC0F5C0883109F49B
:100680004CC0803209F45DC0EEC0803409F468C00B
:1006900048F4803309F455C0883309F0E4C08093EE
:1006A0009401A8C0803509F44FC0883509F45DC0B5
:1006B000883409F0D8C0D5C0883909F4C6C0A8F478
:1006C000883709F467C038F4883609F463C0803786
:1006D00009F460C0C8C0883809F4B7C0803909F48B
:1006E0005FC0803809F0BFC05BC0803B09F485C0A3
:1006F00038F4803A09F466C0883A09F47EC0B3C081
:10070000803C09F4A6C0883C09F4A3C0883B09F4E6
:1007100089C0A9C08091000210C09091D901809138
:10072000D801981770F5E091D90181E08E0F809380
:10073000D901F0E0E652FE4F80818093BB0085EC4A
:1007400085C0809394018DC0E091D90181E08E0F26
:100750008093D9018091BB00F0E0E652FE4F808388
:100760009091D9018091D8016DC0E091D90181E0CB
:100770008E0F8093D9018091BB00F0E0E652FE4FCE
:1007800080838091FF0181116CC081E08093FE0124
:1007900084EA60C083E08093010210929501CFCF7C
:1007A00080919501803208F050C0E091950181E080
:1007B0008E0F809395018091BB00F0E0EA56FE4FCA
:1007C0008083BDCF80919501803230F4E091950116
:1007D000F0E0EA56FE4F10820E94070360919501F7
:1007E00070E0E091FA01F091FB0186E991E0099552
:1007F000109295010E94110336C084E0809301029B
:100800001092B7011092B601E091FC01F091FD0148
:1008100009958091B601811105C081E08093B601F0
:100820001092B801E091B70181E08E0F8093B7017B
:10083000F0E0E854FE4F80818093BB009091B701B7
:100840008091B601981708F47ACF85E88093BC00B0
:100850000AC085EC8093BC001092010204C0109283
:1008600094010E940703FF91EF91BF91AF919F9177
:100870008F917F916F915F914F913F912F910F9049
:100880000FBE0F901F9018951F920F920FB60F92E8
:1008900011242F933F938F939F93AF93BF93809196
:1008A000030290910402A0910502B09106023091DA
:1008B000020226E0230F2D3720F40296A11DB11D60
:1008C00005C029E8230F0396A11DB11D2093020244
:1008D0008093030290930402A0930502B093060252
:1008E0008091070290910802A0910902B0910A023A
:1008F0000196A11DB11D8093070290930802A09359
:100900000902B0930A02BF91AF919F918F913F91DD
:100910002F910F900FBE0F901F9018953FB7F8942E
:100920008091070290910802A0910902B0910A02F9
:1009300026B5A89B05C02F3F19F00196A11DB11D3A
:100940003FBF6627782F892F9A2F620F711D811D57
:10095000911D43E0660F771F881F991F4A95D1F7B5
:100960000895CF92DF92EF92FF92CF93DF936B01C6
:100970007C010E948E04EB01C114D104E104F10456
:1009800089F00E94A20A0E948E046C1B7D0B683EB7
:10099000734090F381E0C81AD108E108F108C8510A
:1009A000DC4FEACFDF91CF91FF90EF90DF90CF90B7
:1009B00008958330910528F0880F991F04970197B7
:1009C000F1F70895789484B5826084BD84B5816020
:1009D00084BD85B5826085BD85B5816085BDEEE647
:1009E000F0E0808181608083E1E8F0E01082808126
:1009F00082608083808181608083E0E8F0E0808194
:100A000081608083E1E9F0E0808182608083808181
:100A100081608083E0E9F0E0808181608083E1ECA7
:100A2000F0E0808184608083808182608083808127
:100A300081608083E3ECF0E0808181608083E0EC82
:100A4000F0E0808182608083E2ECF0E08081816070
:100A50008083EAE7F0E08081846080838081826027
:100A6000808380818E7F80838081806880830895E9
:100A70001F93CF93DF93182FEB0161E00E940C06C8
:100A8000209711F460E004C0CF3FD10539F461E054
:100A9000812FDF91CF911F910C944506E12FF0E05B
:100AA000E851FF4F449150E0FA013197EF30F105E2
:100AB00008F06CC0EA5AFF4F0C94110D84B58068A1
:100AC00084BDC7BD68C084B5806284BDC8BD63C035
:100AD00080918000806880938000D0938900C093CB
:100AE000880059C080918000806280938000D093FC
:100AF0008B00C0938A004FC08091800088608093F3
:100B00008000D0938D00C0938C0045C080919000F0
:100B1000806880939000D0939900C09398003BC068
:100B200080919000806280939000D0939B00C0934E
:100B30009A0031C080919000886080939000D0939B
:100B40009D00C0939C0027C08091C0008068809366
:100B5000C0008091C0008F7B8093C000C093CF0005
:100B60001AC08091C00080628093C000C093D00002
:100B700012C08091C20088608093C2008091C20040
:100B80008B7F8093C200C093D20005C0C038D105CE
:100B90000CF07DCF77CFDF91CF911F91089590E03A
:100BA000FC013197EF30F105B0F5EB59FF4F0C9494
:100BB000110D809180008F7703C0809180008F7D20
:100BC00080938000089580918000877FF9CF84B55D
:100BD0008F7702C084B58F7D84BD08958091900089
:100BE0008F7707C0809190008F7D03C08091900027
:100BF000877F8093900008958091C0008F7703C015
:100C00008091C0008F7D8093C00008958091C200C4
:100C1000877F8093C2000895CF93DF9390E0FC011B
:100C2000E850FF4F2491FC01EA5EFE4F8491882337
:100C300049F190E0880F991FFC01EE5BFE4FA591F2
:100C4000B4918C5C9E4FFC01C591D4919FB761110A
:100C500008C0F8948C91209582238C9388818223FC
:100C60000AC0623051F4F8948C91322F309583236E
:100C70008C938881822B888304C0F8948C91822B7A
:100C80008C939FBFDF91CF9108950F931F93CF93C4
:100C9000DF931F92CDB7DEB7282F30E0F901E8517E
:100CA000FF4F8491F901E850FF4F1491F901EA5E7A
:100CB000FE4F04910023C9F0882321F069830E942C
:100CC000CF056981E02FF0E0EE0FFF1FEC5CFE4FD7
:100CD000A591B4919FB7F8948C91611103C01095C0
:100CE000812301C0812B8C939FBF0F90DF91CF9107
:100CF0001F910F91089508950E94E2040E947B06BF
:100D00008BE092E00E943D0A0E949B01C0E0D0E08F
:100D10000E949F012097E1F30E940000F9CFCF923B
:100D2000DF92EF92FF920F931F93CF93DF936C01AB
:100D30007A01EB01E60EF71E00E010E0CE15DF05AC
:100D400061F06991D601ED91FC910190F081E02D67
:100D5000C6010995080F191FF1CFC801DF91CF9186
:100D60001F910F91FF90EF90DF90CF9008954091E9
:100D70000F025091100220910D0230910E02421785
:100D80005307B4F49091E8009570E1F39091E80076
:100D900092FD19C08093F10080910F029091100292
:100DA00001968F739927892B19F48EEF8093E800B1
:100DB00080910F02909110020196909310028093FF
:100DC0000F0281E0089580E00895CF92DF92FF92B4
:100DD0000F931F93CF93DF931F92CDB7DEB7082FEA
:100DE000162F862F880F8E5F99830E94B70683E0A7
:100DF0000E94B706F02EC02E9981D92E8C2D8F1906
:100E0000811778F4F60184910E94B706082F80E0DC
:100E10000E94B7068023FFEFCF1ADF0A8111EECFC1
:100E200001C081E00F90DF91CF911F910F91FF9052
:100E3000DF90CF900895615030F02091F100FC01D7
:100E400020830196F8CF289884E6809312020895B3
:100E50002FB7FC012083F89467706093E900089530
:100E6000CF93DF931F92CDB7DEB7682FCE010196E7
:100E70000E9428078091F20099819FBF0F90DF9117
:100E8000CF910895FF920F931F93CF93DF9300D0DC
:100E9000CDB7DEB7F62E8A0190911102992311F099
:100EA00057FF03C08FEF9FEF2BC0682FCE01019635
:100EB0007A830E9428078091F20090E0A8017A814D
:100EC000801791070CF4AC01EF2DF72FF40E84E698
:100ED000FE1639F02898809312029091F1009193B8
:100EE000F7CF4115510521F08091F200882321F0C0
:100EF00089818FBFCA0104C08BE68093E800F8CFD8
:100F00000F900F90DF91CF911F910F91FF90089557
:100F1000CF93DF931F92CDB7DEB741E050E0BE0123
:100F20006F5F7F4F0E944207019719F4898190E01B
:100F300002C08FEF9FEF0F90DF91CF910895CF9375
:100F4000DF931F92CDB7DEB7682FCE0101960E94C6
:100F500028079091E800892F807295FF04C0909136
:100F6000F20080E4891B99819FBF0F90DF91CF91A0
:100F700008956F927F928F929F92AF92BF92CF927D
:100F8000DF92EF92FF920F931F93CF93DF931F9205
:100F9000CDB7DEB7782E7B01C42EB52E809111021D
:100FA000882369F0042F152F8AEFD82E872D8072A1
:100FB000982E9AE3A92E872D8074882E11C08FEF6A
:100FC0009FEF57C0872D0E949F07682E81110CC08C
:100FD000DA94A9F361E070E080E090E00E94B1044F
:100FE0000115110579F73BC0282F30E002171307D0
:100FF0000CF4602E672DCE0101960E942807809187
:10100000E80085FF29C0262D30E0021B130B992034
:1010100039F06A948FEF6816B1F01092F100F9CFB1
:10102000F701862D77FE07C0815058F09491909378
:10103000F1003196F9CF815020F091919093F10019
:10104000FACFE20EF31E8091E80085FF0FC0011574
:10105000110511F481100AC089818FBFC1CF5D983D
:1010600084E6809313028C2D9B2D03C0A092E80090
:10107000F3CF0F90DF91CF911F910F91FF90EF90E1
:10108000DF90CF90BF90AF909F908F907F906F90A8
:1010900008951092E9001092100210920F0290939E
:1010A0000E0280930D020895CF92DF92FF920F936C
:1010B0001F93CF93DF9300D0CDB7DEB7F82E8A0110
:1010C0006B0101151105B1F0F601F7FE02C0849124
:1010D00001C0808149835A830E94B70601501109DB
:1010E000FFEFCF1ADF0A49815A818111EACF8FEFD2
:1010F0009FEF01C0CA010F900F90DF91CF911F9118
:101100000F91FF90DF90CF9008951F93CF93DF93BF
:101110001F92CDB7DEB7162F2091E80022FFFCCF3B
:10112000612F79830E941B078BEF8093E800812F4A
:101130007981972F0F90DF91CF911F910895CF93D1
:10114000DF931F92CDB7DEB71982CE0101960E94C0
:10115000000BCE0101960E949B0B898190E00F90BD
:10116000DF91CF9108951F920F920FB60F92112425
:10117000EF92FF920F931F932F933F934F935F93A1
:101180006F937F938F939F93AF93BF93EF93FF934F
:10119000CF93DF93CDB7DEB76297DEBFCDBF10929E
:1011A000E9008091E80083FFEBC068E0CE010A9679
:1011B0000E941B0782EF8093E8009A8597FF05C085
:1011C0008091E80080FFFCCF03C08EEF8093E800A1
:1011D000892F807609F0B9C08B85811105C01092E6
:1011E000F1001092F100C5C0282F2D7F213009F4A5
:1011F000C0C0853049F48091E80080FFFCCF8C8529
:1012000080688093E300B5C0863009F076C02D85F4
:10121000E888F988223071F580E090E02A8B0E94FE
:1012200049080E949F0899E08E010F5F1F4FF80147
:10123000392F11923A95E9F799832A892A8391E007
:101240009E8390E898879AEF998720910F023091BA
:101250001002275F3F4F3C832B838D83C7010E9481
:10126000490849E050E0B80180E00E9454080E941B
:101270009F087FC0C7012A8B0E9449082A89223211
:1012800041F482E290E00E94A60B892B09F071C024
:1012900074C0213069F488899989089711F42093E2
:1012A0000C0280910C02811118C067E671E01AC02F
:1012B000233009F062C08C85882391F0823021F4BC
:1012C00065E182E891E006C0813009F056C068E02F
:1012D00089E791E00E94E5064AC065E571E002C039
:1012E00068E971E06115710509F447C0FB0144919B
:1012F00050E080E80E9454083CC0873009F43DC0AB
:10130000883021F481E08093F10033C0893089F581
:10131000937099F5E1E5F1E081E021E096E38093B7
:10132000E9002093EB0034913093EC009093ED00B2
:101330008F5F3196853099F78EE78093EA0010929F
:10134000EA008C858093110214C0888999890E94D3
:1013500049088E85811105C0CE010A960E940B0BAB
:1013600006C0823051F4CE010A960E94CE0B88232B
:1013700021F08EEF8093E80003C081E28093EB00C0
:1013800062960FB6F894DEBF0FBECDBFDF91CF914E
:10139000FF91EF91BF91AF919F918F917F916F914D
:1013A0005F914F913F912F911F910F91FF90EF907F
:1013B0000F900FBE0F901F9018958093E9008091B9
:1013C000F200882319F08AE38093E80008951F92C1
:1013D0000F920FB60F9211242F933F934F935F9369
:1013E0006F937F938F939F93AF93BF93EF93FF93ED
:1013F0008091E1001092E10083FF0FC01092E9009C
:1014000091E09093EB001092EC0092E39093ED004A
:101410001092110298E09093F00082FF1DC083E0CB
:101420000E94DD0980911302882339F08091130214
:10143000815080931302882369F0809112028823DF
:1014400059F080911202815080931202811104C0E0
:10145000289A02C05D9AF1CFFF91EF91BF91AF91B1
:101460009F918F917F916F915F914F913F912F91BC
:101470000F900FBE0F901F9018951092110281E0EF
:101480008093D70080EA8093D80082E089BD09B4B8
:1014900000FEFDCF61E070E080E090E00E94B104CA
:1014A00080E98093D8008CE08093E2001092E00005
:1014B000559A209A08954F925F926F927F92AF92C1
:1014C000BF92CF92DF92EF92FF920F931F93CF9331
:1014D000DF93CDB7DEB729013A01621B730B840B92
:1014E000950B29893A894B895C892A193B094C0952
:1014F0005D09298B3A8B4B8B5C8B9B01AC01698915
:101500007A898B899C890E94C00CE418F508060929
:101510001709A80197010E94F20C2A0D3B1D4C1DD2
:101520005D1DCA01B901DF91CF911F910F91FF900D
:10153000EF90DF90CF90BF90AF907F906F905F90D3
:101540004F9008950895CF93DF931F92CDB7DEB7E4
:101550006983DC01ED91FC910280F381E02D41E093
:1015600050E0BE016F5F7F4F09950F90DF91CF91E3
:101570000895CF93DF93EC018C859D8597FF05C07F
:1015800082E00E9488079D878C878C859D85DF91EE
:10159000CF91089583E00C94DD09FC018485958545
:1015A00097FD06C082E00E94300790E00196089502
:1015B00082E00E94300790E00895FC0184859585C3
:1015C00097FD05C02FEF3FEF35872487089582E010
:1015D0000C948807CF93DF93EC018091110188234D
:1015E00031F083E00E94B9071816190634F081E043
:1015F00090E09B838A8380E090E0DF91CF91089513
:10160000FC0120812E5F208342E450E06CE971E010
:1016100080E80C945408FC0181819081913A59F43E
:10162000813209F03CC047E050E06AE071E080E0C0
:101630000E94540843C0913291F5803239F467E03A
:1016400070E08AE091E00E94850806C0823209F0CD
:1016500035C082818093110180910A0190910B0124
:10166000A0910C01B0910D01803B9440A105B10502
:10167000C1F48091110180FD14C087E797E7909332
:101680000108809300082BE088E190E00FB6F89401
:10169000A895809360000FBE209360000FC080E08B
:1016A000089588E10FB6F89480936000109260006E
:1016B0000FBEA895109201081092000881E00895CD
:1016C000109217021092160288EE93E0A0E0B0E0AC
:1016D0008093180290931902A0931A02B0931B02F0
:1016E00088E291E090931502809314028FEF9FEFB0
:1016F00090932102809320020895FF920F931F93ED
:10170000CF93DF93EC01F62EE881F9810480F58117
:10171000E02D09958C01E881F9810680F781E02DA3
:101720006F2DCE010995C8019927DF91CF911F91A7
:101730000F91FF900895FC0120812F5F208349E1E4
:1017400050E06EE572E080E80C94540845E650E005
:1017500067E772E080E80C945408EF92FF920F93D1
:101760001F93CF93DF931F92CDB7DEB789838B0191
:101770007A0141E050E0BE016F5F7F4F84E00E943C
:10178000B907A701B80184E40E94B9070F90DF915F
:10179000CF911F910F91FF90EF900895FC019181DF
:1017A0008081813A31F481E0913091F0933089F475
:1017B00011C0813271F49B3021F482818093130136
:1017C00005C09A3031F482818093120181E008953E
:1017D000089580E0089548E050E082E00C94AD0B5D
:1017E000CF93DF93DC01683818F0E8E7E60F25C0F7
:1017F000E62FF0E067FF11C0E058F10981E090E0CA
:1018000001C0880FEA95EAF714969C911497982BDB
:1018100014969C931497E0E010C0E252FE4FE491BE
:10182000EE2309F440C0E7FF08C014968C9114978A
:10183000826014968C931497EF7716968C91169776
:101840008E1741F117968C9117978E1719F11896EC
:101850008C9118978E17F1F019968C9119978E1715
:10186000C9F01A968C911A978E17A1F01B968C913D
:101870001B978E1779F080E090E0ED01C80FD91F1B
:101880002E81211102C0EE8305C00196863091059C
:10189000A1F709C0BD016C5F7F4FCD010E94EB0B2A
:1018A00081E090E008C081E090E013969C938E93D5
:1018B000129780E090E0DF91CF910895683818F09A
:1018C000E8E7E60F25C0E62FF0E067FF12C0E0581A
:1018D000F10921E030E001C0220FEA95EAF72095F6
:1018E000DC0114963C911497322314963C93E0E06B
:1018F0000FC0E252FE4FE491EE2329F1E7FF08C04A
:10190000DC0114962C9114972D7F14962C93EF776D
:1019100020E030E0EE2351F0DC01A20FB31F169659
:101920004C9116974E1302C016961C922F5F3F4F94
:101930002630310579F7BC016C5F7F4F0E94EB0BBD
:1019400081E090E0089580E090E00895FC01168227
:10195000178210861186128613861482BC016C5F72
:101960007F4F0C94EB0B1092700210926702109252
:10197000660288E391E09093650280936402089583
:10198000DB018F939F930E94170DBF91AF91A29F90
:10199000800D911DA39F900DB29F900D112408956D
:1019A000A1E21A2EAA1BBB1BFD010DC0AA1FBB1F63
:1019B000EE1FFF1FA217B307E407F50720F0A21BD5
:1019C000B30BE40BF50B661F771F881F991F1A9442
:1019D00069F760957095809590959B01AC01BD016C
:1019E000CF010895052E97FB1EF400940E94090D67
:1019F00057FD07D00E94D00C07FC03D04EF40C9486
:101A0000090D50954095309521953F4F4F4F5F4FB1
:101A1000089590958095709561957F4F8F4F9F4F5A
:101A20000895EE0FFF1F0590F491E02D09940E9498
:101A3000220DA59F900DB49F900DA49F800D911D28
:101A400011240895A29FB001B39FC001A39F700D00
:101A5000811D1124911DB29F700D811D1124911DB6
:061A60000895F894FFCF89
:101A66000000710280000100000000E1000000009B
:101A76000000010100000000AB027E0253025B027F
:101A86006E027D0200000000A30AEA0ACD0ADD0A02
:101A9600B90ACA0A000000007D0B8F06F00B5E0C27
:021AA600A60C8C
:00000001FF
