:100000000C9493010C94BB010C94BB010C94BB01A8
:100010000C94BB010C94BB010C94BB010C94BB0170
:100020000C94BB010C94BB010C94B11A0C947D1977
:100030000C94BB010C94BB010C94BB010C94BB0150
:100040000C94BB010C94360A0C94BB010C94BB01BC
:100050000C94BB010C94BB010C94BB010C94E712F3
:100060000C94BB010C94BB010C94BB010C94BB0120
:100070000C94BB010C94BB010C94BB010C94BB0110
:100080000C94BB010C94BB010C94BB010C94BB0100
:100090000C94FA0D0C94BB010C94BB010C94BB01A5
:1000A0000C94BB010C94BB010C94BB017C09980916
:1000B000BC0898092D0998099A08490898099809CF
:1000C000980998099809600798092F0898098108E4
:1000D000401445144A1454145E14A814A814A81407
:1000E000681472147C1486149314A8149B14C914F5
:1000F000CC14BB14BF14C514ED14ED14ED14D014BE
:10010000D414D814DE14E214ED14E8140706050420
:100110000100080A0B0C0D090000000200090F0085
:1001200000030401000C000004080201104080409C
:10013000102040804080080204018040201002010D
:10014000108010204040040404040403040502024B
:100150000202040302020202060606060606040460
:1001600002020204000000002300260029002C00E7
:100170002F0000000000250028002B002E00310079
:1001800000000000240027002A002D003000080B8A
:100190000002020201000904000001020200000541
:1001A000240010010524010101042402060524068F
:1001B00000010705810310004009040100020A0044
:1001C000000007050202400000070583024000000E
:1001D00000C18081C112010002020000404F1B06D5
:1001E0009200010102000112010002000000404FD4
:1001F0001B0692000101020001537061726B46758B
:100200006E00537061726B46756E2050726F204D98
:100210006963726F0004030904000000000000001D
:10022000002A2B2800000000000000000000000051
:100230000000000000000000002C9EB4A0A1A2A4B9
:1002400034A6A7A5AE362D3738271E1F202122231E
:10025000242526B333B62EB7B89F84858687888930
:100260008A8B8C8D8E8F9091929394959697989976
:100270009A9B9C9D2F3130A3AD35040506070809D4
:100280000A0B0C0D0E0F1011121314151617181956
:100290001A1B1C1DAFB1B0B5000904020001030018
:1002A00000000921010100012265000705840340C7
:1002B000000105010902A1010901A100850105094B
:1002C0001901290315002501950375018102950186
:1002D0007505810305010930093109381581257F2C
:1002E000750895038106C0C005010906A1018502B4
:1002F000050719E029E71500250175019508810218
:100300009501750881039506750815002565050793
:10031000190029658100C000C506180DD812DC122D
:100320004916AC16A31C11241FBECFEFDAE0DEBFC6
:10033000CDBF11E0A0E0B1E0E4E1FDE302C0059033
:100340000D92A43FB107D9F724E0A4EFB1E001C0BA
:100350001D92A83BB207E1F713E0C6E2D3E004C068
:100360002297FE010E940F1DC831D107C9F70E94D4
:10037000BC160C94881E0C9400001F93CF93DF933F
:10038000162F843008F06CC0982F990F990F990F91
:10039000985F9F3108F09EE1D82FDD0FDD0FDD0F54
:1003A0008D2FC0E041E08917C8F4E82FF0E0DF01AD
:1003B000A053BD4F2C91223070F4C42BEE0FFF1FC1
:1003C000E057FD4F21E030E0542F512311F420E09D
:1003D00030E031832083440F8F5FE5CFC0FF05C03D
:1003E000612F61708D2F0E942715C1FF06C0612FFC
:1003F000627081E08D0F0E942715C2FF06C0612F39
:10040000647082E08D0F0E942715C3FF06C0612F24
:10041000687083E08D0F0E942715C4FF06C0612F0E
:10042000607184E08D0F0E942715C5FF06C0612F03
:10043000607285E08D0F0E942715C6FF06C0612FF0
:10044000607486E08D0F0E942715C7FF09C0612FD9
:10045000607887E08D0FDF91CF911F910C94271565
:10046000DF91CF911F9108950F931F93CF93DF9347
:10047000EB018E3178F5082F10E0F801E053FD4FC5
:100480009081933089F0943029F5F801ED5FFD4FAC
:10049000208130E0C901880F991F820F931F8F5D63
:1004A0009D4F0E94D30B0FC0833051F09BEF980FEC
:1004B000923030F097EF980F933010F08D3019F4A0
:1004C000BE010E941A14F801EE0FFF1FE057FD4F06
:1004D000D183C083DF91CF911F910F910895CF9366
:1004E000C82F8C3058F54091F6025091F70221E068
:1004F00030E0082E02C0220F331F0A94E2F7672B68
:1005000049F420953095242335233093F702209326
:10051000F60214C0242B352B3093F7022093F602F9
:100520008091F40181110AC08C2F0E94E913AC0163
:100530006C2F8EED93E0CF910C94A210CF91089583
:10054000DB019A019091F5019C30D0F54091F601C4
:10055000682F70E0442369F0E42FF0E0EA50FE4F8A
:100560008081FB01ED5FFD4F808341504093F60198
:1005700007C0FB01ED5FFD4F90839F5F9093F501F6
:10058000FB01ED5FFD4F1A161B067CF412161306D5
:1005900064F4408150E0CA01880F991F840F951FB1
:1005A000AD018F5D9D4F0C940E0B208130E0C90191
:1005B000880F991F820F931F8F5D9D4F0C948C0B9A
:1005C00068E171E08EED93E00C943111CF93DF93ED
:1005D000C82FD0E0CD5FDD4F288130E0C901880F02
:1005E000991F820F931F8F5D9D4F0E94920B8881F0
:1005F0009091F501891306C0882379F0815080938A
:10060000F5010BC0992349F0E091F601EF5FE0930B
:10061000F601F0E0EA50FE4F80838FEF8883DF9190
:10062000CF9108951F93CF93DF93162FC82FD0E05B
:10063000FE01E453FD4F90811923C251DD4F41115A
:1006400003C09881911741F0412F50E0682F8EED43
:1006500093E00E94BB101883DF91CF911F91089502
:10066000EF92FF920F931F93CF93DF93E82E83E0D7
:100670008E1508F475C02E2D30E0F901EE50FD4FB7
:100680006083672B09F46CC0F901E453FD4FF080DF
:100690000E2D000F000F000FF0FE52C0802F0E94A1
:1006A0005D15892B09F44CC011E0C02FD0E0F1FE9C
:1006B00007C081E0800F0E945D15892B09F042C0C0
:1006C000F2FE06C082E0800F0E945D15892BE1F5E5
:1006D000F3FE06C083E0800F0E945D15892BB1F503
:1006E000F4FE06C084E0800F0E945D15892B81F521
:1006F000F5FE06C085E0800F0E945D15892B51F53F
:10070000C831D10541F0F6FE06C086E0800F0E9498
:100710005D15892B09F5679744F4F7FE06C087E05D
:10072000800F0E945D15892BC9F441E0612F8E2D49
:10073000DF91CF911F910F91FF90EF900C941203D6
:1007400010E0B3CF1260BCCF1460C2CF1860C8CF26
:100750001061CECF1062D4CF1064DDCF1068E5CF2A
:10076000DF91CF911F910F91FF90EF900895CF935C
:10077000DF938091F202882309F448C0D091CC0223
:10078000D0FF1DC180E00E945D15892B09F417C1BF
:10079000C1E0D1FF06C081E00E945D15892B09F000
:1007A00010C1D2FF06C082E00E945D15892B09F0BE
:1007B0000AC1D3FF06C083E00E945D15892B09F0B2
:1007C00004C1D4FF06C084E00E945D15892B09F0A6
:1007D000FEC0D5FF06C085E00E945D15892B09F09B
:1007E000F8C0D6FF06C086E00E945D15892B09F08F
:1007F000F2C0D7FF06C087E00E945D15892B09F083
:10080000ECC040E06C2F80E00E9412038091F30264
:10081000882309F448C0D091CD02D0FFE0C088E021
:100820000E945D15892B09F4DAC0C1E0D1FF06C032
:1008300089E00E945D15892B09F0D3C0D2FF06C064
:100840008AE00E945D15892B09F0CDC0D3FF06C058
:100850008BE00E945D15892B09F0C7C0D4FF06C04C
:100860008CE00E945D15892B09F0C1C0D5FF06C040
:100870008DE00E945D15892B09F0BBC0D6FF06C034
:100880008EE00E945D15892B09F0B5C0D7FF06C028
:100890008FE00E945D15892B09F0AFC040E06C2FFE
:1008A00081E00E9412038091F402882309F448C079
:1008B000D091CE02D0FFA3C080E10E945D15892BAC
:1008C00009F49DC0C1E0D1FF06C081E10E945D1521
:1008D000892B09F096C0D2FF06C082E10E945D1507
:1008E000892B09F090C0D3FF06C083E10E945D15FB
:1008F000892B09F08AC0D4FF06C084E10E945D15EF
:10090000892B09F084C0D5FF06C085E10E945D15E2
:10091000892B09F07EC0D6FF06C086E10E945D15D6
:10092000892B09F078C0D7FF06C087E10E945D15CA
:10093000892B09F072C040E06C2F82E00E94120304
:100940008091F502882309F476C0D091CF02D0FFC0
:1009500066C088E10E945D15892B09F460C0C1E082
:10096000D1FF06C089E10E945D15892B09F059C0AD
:10097000D2FF06C08AE10E945D15892B09F053C0A1
:10098000D3FF06C08BE10E945D15892B09F04DC095
:10099000D4FF06C08CE10E945D15892B09F047C089
:1009A000D5FF06C08DE10E945D15892B09F041C07D
:1009B00040E06C2F83E0DF91CF910C941203C0E0F4
:1009C000E8CEC260EECEC460F4CEC860FACEC0619C
:1009D00000CFC06206CFC0640CCFC06812CFC0E0A9
:1009E00025CFC2602BCFC46031CFC86037CFC06184
:1009F0003DCFC06243CFC06449CFC0684FCFC0E095
:100A000062CFC26068CFC4606ECFC86074CFC0616F
:100A10007ACFC06280CFC06486CFC0688CCFC0E080
:100A20009FCFC260A5CFC460ABCFC860B1CFC0615B
:100A3000B7CFC062BDCFDF91CF910895109247022A
:100A40008FEF80930A010895CF92DF92EF92FF9289
:100A50000F931F93CF93DF93182FEB01E82EF12C08
:100A6000C70180539D4F6C01FC0180818F3709F4D1
:100A7000EEC0863051F480914702882331F0663011
:100A8000710509F4E0C00E941E051E31A8F4C430AF
:100A9000D10591F0F701ED5FFD4F20812C3060F41E
:100AA00030E0C901880F991F820F931F8F5D9D4F02
:100AB0000E94380C8111B4C00EEE010F0C3058F4B6
:100AC00061E070E0C230D10511F060E070E0802F8D
:100AD0000E946F0202C01E31D0F4E12FE695E69528
:100AE000E695812F8770F0E0E453FD4F21E030E080
:100AF000082E01C0220F0A94EAF7209721F4808182
:100B0000822B808304C02095808128232083F701D5
:100B1000EE0FFF1FE057FD4F11821082C230D1054A
:100B200079F02CF42097C9F0219729F16BC0C430DB
:100B3000D10509F445C064F1269709F45BC062C091
:100B40000C3008F084C060E0812F0E94EE1460E059
:100B5000812F0E94271582E052C01E3108F077C015
:100B600060E0812F0E94EE1460E0812F0E94271523
:100B7000F60110826CC01E3108F069C060E0812F60
:100B80000E94271561E0812F0E94EE1481E037C09A
:100B9000133059F08BEF810F823038F087EF810FDF
:100BA000833018F01D3009F052C061E0812F0E949F
:100BB000EE1460E070E0812F0E941A1483E01FC0E1
:100BC0001E3108F044C084E0F6018083F701ED5F38
:100BD000FD4F80818F3F41F190E09C01220F331F38
:100BE000280F391FC9018F5D9D4F0E94380C81115C
:100BF0002EC01AC08EEF810F823048F586E0F601D4
:100C0000808325C06CE271E08EED93E0DF91CF919F
:100C10001F910F91FF90EF90DF90CF900C943111C6
:100C2000812F0E94E60248CF4FEF5FEF6FEF7FEF1B
:100C3000812FDF91CF911F910F91FF90EF90DF9067
:100C4000CF900C94A0021E3108F424CF35CFDF9151
:100C5000CF911F910F91FF90EF90DF90CF9008956B
:100C6000CF93C0E08EEF8C0F823028F466E070E006
:100C70008C2F0E942405CF5FCE31A1F781E08093B5
:100C800047028EE193E0CF910C94DE0C0F931F93FB
:100C9000CF93DF9381E08093F4018091470281112B
:100CA0000E941E05E2EFF2E0CCECD2E0AEEEB2E044
:100CB000119219921D9282E0E63FF807C9F7C3E04E
:100CC000D2E010E00FEF8EEE810F8C3018F462E06E
:100CD00070E002C061E070E0812F0E94240509935A
:100CE0001F5F1E3181F71092F7021092F6021092E8
:100CF000F6011092F5011092F401DF91CF911F914E
:100D00000F91089524E042E06DE371E08EED93E0F1
:100D10000E94C90F44E352E060EE8EED93E00E9422
:100D20003F114DEB51E060E98EED93E00E943F11E1
:100D30004FE652E060EC8EED93E00E943F1140E3FD
:100D400053E060ED8EED93E00E943F1144E255E0E8
:100D500064EF8EED93E00E943F114CE457E060EFAA
:100D60008EED93E00E946A1146E456E06FEF8EED3F
:100D700093E00E94621140E051EE60E070E08EED81
:100D800093E00E94C2120C944606CF93DF93C1E217
:100D9000D2E0CE010E94F20A239682E0C534D80741
:100DA000C1F7DF91CF910895682F8EE193E00C9405
:100DB0009F0C8EE193E00E944F0C0895DF92EF921A
:100DC000FF920F931F93CF93DF93F82EEB01D42E56
:100DD0006F3F8FEF7807A9F06F2D8EE193E00E94AF
:100DE000F80C8C2F0E94D4068EE193E00E94150D22
:100DF0008091450290914602009729F00E94881345
:100E000002C0C0E0D0E04D2D6F2D8EE193E00E9436
:100E1000F50C0D2D10E08EE193E00E94470C0817B1
:100E200019071CF461E571E009C08EE193E00E94AE
:100E3000470C8017910734F46EE671E08EED93E075
:100E40000E943111F0924802C09349028AE4E82ED0
:100E500082E0F82EC0E0D0E0C017D10784F042E075
:100E60004D0D28E432E067E78EED93E0DF91CF91FE
:100E70001F910F91FF90EF90DF900C94E9108EE19D
:100E800093E00E94470C892B51F30E94D906F70189
:100E900081937F012196E0CFEF92FF920F931F93F2
:100EA000CF93DF93162FEA0190E0FC01E956F10998
:100EB000E231F10508F03CC2EA5AFF4F0C940D1DD7
:100EC0008981982F987185FF03C06AE871E056C048
:100ED0008881983071F148F491112AC2682F8EE10F
:100EE00093E00E94F80C02E007C0903109F440C082
:100EF000983109F471C01CC2011768F4FE01E00FBB
:100F0000F11D9181808120E8929F801911240E9417
:100F1000D4060E5FF1CF8EE193E00E94150D86E4BA
:100F200090E0DF91CF911F910F91FF90EF900C9483
:100F300088134A816B81163069F430E8639FB001F1
:100F40001124640F711D9D814C8150E8959F4019BB
:100F5000112406C090E8699F401911246FEF7FEFBC
:100F6000DF91CF911F910F91FF90EF900C94DE06CF
:100F7000E0910A01E73064F06AEA71E08EED93E0F7
:100F8000DF91CF911F910F91FF90EF900C94311151
:100F90009A812B81F0E8663061F42F9F9001112433
:100FA000290F311D4D819C8150E8459F90191124D6
:100FB00005C02F9F901911242FEF3FEFEF5FE093B3
:100FC0000A0144E0E402F0011124E859FD4F808356
:100FD000328321839383ACC150910A01151634F4F6
:100FE00040E0252F332727FD30950EC08FEF8093EB
:100FF0000A019EC1EE0FFF1FEE0FFF1FE859FD4FC4
:101000009081981719F14F5FE42FF0E02E173F07FA
:101010008CF740E01BC04830C0F4DF01AA0FBB1FB3
:10102000AA0FBB1FA459BD4F8C91EE0FFF1FEE0FEF
:10103000FF1FE859FD4F808311968D919C91129767
:101040009283818313968C9183834F5FE42FF0E02A
:101050002E173F0704F7515050930A0169C12881A8
:10106000898150E8859FC0011124820F911D00974E
:1010700021F09093460280934502809147028111AE
:1010800057C1DF91CF911F910F91FF90EF900C947A
:101090003006653008F44CC118810981FA80EB8074
:1010A000CC811E3108F044C1E12FF0E0ED5FFD4F2F
:1010B000E081EC3060F4F0E0CF01880F991F8E0FD3
:1010C0009F1F8F5D9D4F0E94380C81112DC180E8BC
:1010D000C89FA00111244E0D511D90E8F99EB0014A
:1010E0001124600F711D812F0E94A00264E070E046
:1010F000812FDF91CF911F910F91FF90EF900C9472
:101100002405623008F414C128818981E0E88E9FAB
:10111000C0011124820F911D90930C0180930B014B
:101120000A9708F005C18AE090E090930C01809343
:101130000B01FEC0623008F4FBC0698170E0123020
:1011400091F08A81F0E88F9FC0011124682B792BE0
:10115000133049F08B8190E090E4899F902D88278F
:101160001124682B792B8881DF91CF911F910F91EA
:10117000FF90EF900C94340260EF8EED93E00E94AC
:1011800035116CE68EED93E00E943511C0E060E011
:101190008EED93E00E94351161E08EED93E00E94A8
:1011A000351161E08EED93E00E94351161E08EED26
:1011B00093E00E9435118EEE8C0F8C3058F462E073
:1011C0008EED93E00E9435116AE08EED93E00E946F
:1011D00035110DC0C33059F463E08EED93E00E94E9
:1011E000351168E08EED93E00E9435110AC08BEF57
:1011F0008C0F823088F387EF8C0F833068F3CD300B
:1012000059F364E08EED93E00E9435116EE08EEDAF
:1012100093E00E9435118EEF8C0F823050F466E01F
:101220008EED93E00E94351161E08EED93E00E9417
:1012300035116FE78EED93E00E943511CF5FCE310F
:1012400009F0A5CF67EF8EED93E0DF91CF911F916D
:101250000F91FF90EF900C943511662309F468C04C
:10126000C88160EF8EED93E00E9435116EE68EED41
:1012700093E00E9435116C2F8EED93E00E943511A2
:10128000CE3100F7D0E0FE01E053FD4F60818EEDDE
:1012900093E00E943511CC0FDD1F8E0100571D4FCA
:1012A000F80160816F778EED93E00E943511F801AF
:1012B00060817181CB018078892B49F0660F672F9F
:1012C000661F770B6F778EED93E00E943511C05744
:1012D000DD4F68817981CB018827907C892B09F4C7
:1012E000B1CF770F660B770F762F661F6F778EED76
:1012F00093E00E943511A6CF60EF8EED93E00E943F
:1013000035116AE68EED93E00E943511CEEECC30B9
:1013100010F06FE701C06C2F8EED93E00E94351145
:10132000CF5FCC30A1F78ECF812F0E94E602CFCEC7
:10133000DF91CF911F910F91FF90EF9008958F92C1
:101340009F92AF92BF92CF92DF92EF92FF920F9354
:101350001F93CF93DF930E94B7038EED93E00E941B
:101360002910892B29F08EED93E00E949511F5CF7D
:101370000E94311360938C0270938D0280938E02D1
:1013800090938F02C0908802D0908902E0908A02E8
:10139000F0908B0240910B0150910C014A01A12C5D
:1013A000B12C8B019C010C191D092E093F098016D7
:1013B0009106A206B30608F04CC0D501C4018C0DFD
:1013C0009D1DAE1DBF1D8093880290938902A0933E
:1013D0008A02B0938B02C0EDD2E01EEE1C30C0F446
:1013E00088818230A9F42091F6023091F702012E13
:1013F00002C0359527950A94E2F720FF09C0812F96
:101400000E94E913AC01612F8EED93E00E94A210BF
:101410001F5F21961C3011F780910A0187FD19C0CA
:10142000C0E0EC2FF0E080910A01992787FD9095AC
:101430008E179F0774F0EE0FFF1FEE0FFF1FE85986
:10144000FD4F61817281438180810E94DE06CF5F02
:10145000E8CFDF91CF911F910F91FF90EF90DF9038
:10146000CF90BF90AF909F908F9008951F920F9252
:101470000FB60F9211242F933F934F935F936F9367
:101480007F938F939F93AF93BF93EF93FF9380913D
:10149000F90287FF05C010928500109284001AC0DF
:1014A0002091F902332727FD30958091F80290E0D2
:1014B000281739077CF48091F902992787FD9095C8
:1014C000FC01EE0FFF1FE80FF91FE650FD4F808172
:1014D00086FD15C08091F9028F5F8093F9022091FB
:1014E000F902332727FD30958091F80290E0281704
:1014F0003907BCF48091F9028C305CF112C0809104
:10150000F902992787FD9095FC01EE0FFF1FE80F68
:10151000F91FE650FD4F808160E08F730E94271510
:10152000D9CF8091840090918500049680349C49A5
:1015300018F480E49CE905C08091840090918500B6
:10154000049690938900809388008FEF8093F9022E
:1015500038C020918400309185008091F90299274C
:1015600087FD9095FC01EE0FFF1FE80FF91FE65075
:10157000FD4F81819281820F931F90938900809308
:1015800088008091F902992787FD9095FC01EE0F64
:10159000FF1FE80FF91FE650FD4F808186FF11C045
:1015A0008091F902992787FD9095FC01EE0FFF1FAE
:1015B000E80FF91FE650FD4F808161E08F730E94B4
:1015C0002715FF91EF91BF91AF919F918F917F91DF
:1015D0006F915F914F913F912F910F900FBE0F90A0
:1015E0001F9018952091F8022C30A0F431E0320FB2
:1015F0003093F802FC012083822F90E0FC01EE0F73
:10160000FF1FE80FF91FE650FD4F88EB9BE0928328
:10161000818308952FEFFC0120830895DF92EF92DC
:10162000FF920F931F93CF93DF93EC01D62E7A0195
:10163000890188818C3008F066C061E08D2D0E94A0
:10164000EE148881A82FB0E0FD01EE0FFF1FEA0F16
:10165000FB1FE650FD4F2D2D2F739081907C922B18
:10166000908360E272E06E197F0977FF02C06D5FC0
:101670007F4F7595679575956795698340E659E045
:10168000401B510B57FF02C04D5F5F4F559547956B
:10169000559547954A836CE00E94C01C9CE0899F49
:1016A000B001112420E030E0A901460F571FFA01D4
:1016B000EE0FFF1FE40FF51FE650FD4F908196FDE2
:1016C00016C02F5F3F4F2C30310571F781110FC0CD
:1016D0001092800082E08093810010928500109229
:1016E0008400B19A80916F00826080936F0088813E
:1016F00090E0FC01EE0FFF1FE80FF91FE650FD4FD1
:101700008081806480838881DF91CF911F910F91C8
:10171000FF90EF90DF90089520E639E040E252E03C
:101720000C940E0BFC01808190E0FC01EE0FFF1F7A
:10173000E80FF91FE650FD4F80818F7B808308956D
:10174000FC0180818C3070F5918128E830E0291B04
:10175000310997FD3395220F331F220F331F621774
:1017600073077CF0928128E532E0291B310997FD4F
:101770003395220F331F220F331F621773070CF4A8
:101780009B0122503109220F331F4FB7F89490E08C
:10179000FC01EE0FFF1FE80FF91FE650FD4F3283EB
:1017A00021834FBF08954F925F926F927F92AF92C5
:1017B000BF92CF92DF92EF92FF920F931F93CF933E
:1017C000DF93EC01603282E078070CF040C077FDD7
:1017D00006C0653B71052CF064EB70E002C060E070
:1017E00070E0898128E830E0281B310987FD3395B6
:1017F000220F331F220F331F5901CC24B7FCC09492
:10180000DC2C882777FD8095982F2A8148E552E0C7
:10181000421B510927FD5395440F551F440F551F77
:101820002A01662457FC6094762C7F926F925F9217
:101830004F9214EBE12EF12C00E010E020E030E0BC
:10184000A9010E94251B0F900F900F900F90CE01C1
:10185000DF91CF911F910F91FF90EF90DF90CF908C
:10186000BF90AF907F906F905F904F900C94A00BC3
:10187000FC01808190E0FC01EE0FFF1FE80FF91FD3
:10188000E650FD4F808186FB882780F9089580917E
:101890004E0390E020914F03821B910908952091FF
:1018A0004F0380914E03281750F4E22FF0E0E05BE5
:1018B000FC4F808190E02F5F20934F0308958FEFBE
:1018C0009FEF0895E0914F0380914E03E81730F4A5
:1018D000F0E0E05BFC4F808190E008958FEF9FEF98
:1018E00008950895CF92DF92EF92FF920F931F9386
:1018F000CF93DF937C01CB018A0120912A0322231D
:1019000089F0EB016B01C40ED51ECC15DD0569F025
:101910006991D701ED91FC910190F081E02DC70113
:101920000995F3CF642F0E94D10DC801DF91CF91AB
:101930001F910F91FF90EF90DF90CF900895CF937C
:10194000DF931F92CDB7DEB7698320912A0322234C
:10195000D1F020912B03203240F021E030E0FC0157
:101960003383228380E090E015C080912C03E82F20
:10197000F0E0E35DFC4F998190838F5F80932C03AF
:1019800080932B0305C061E0CE0101960E94D10D2A
:1019900081E090E00F90DF91CF910895FC011382D8
:1019A000128248EE53E060E070E044835583668322
:1019B00077838FEB91E091838083089510924F039A
:1019C00010924E0310922C0310922B030C941C0DBA
:1019D000862F413208F040E260E573E00E943A0D44
:1019E00010924F0380934E03089521E00C94E80C6D
:1019F00081E080932A0360934D0310922C03109290
:101A00002B0308950F93062F21E040912B036DE2E5
:101A100073E080914D030E947E0D10922C03109272
:101A20002B0310922A030F91089561E00C94020D8C
:101A30008EE193E00C94CE0C1092DD0381E0809354
:101A4000DB031092DA0361E082E00E94271561E077
:101A500083E00E942715E9EBF0E080818E7F808390
:101A600080818D7F808388E48093B80085E48093B3
:101A7000BC000895413208F03FC09091DD03911100
:101A8000FCCF91E09093DD032093DB032FEF2093B5
:101A900070031092B503240F2093B4039093DC03DA
:101AA0009091DC03880F892B8093DC038091DA030B
:101AB000813041F41092DA038091DC038093BB0003
:101AC00085EC01C085EE8093BC008091DD03813000
:101AD000E1F38091B503841710F44091B50326EB30
:101AE00033E0FB01D9018A2F821B841718F48D91F2
:101AF0008193F9CF842F089580E008950F934132A8
:101B000008F046C09091DD039111FCCF92E09093D4
:101B1000DD030093DB039FEF909370031092B503F6
:101B20004093B403FB0166EB73E0DB019A2F961B35
:101B3000941718F491919D93F9CF1092DC03909132
:101B4000DC03880F892B8093DC038091DA038130DA
:101B500041F41092DA038091DC038093BB0085ECA2
:101B600001C085EE8093BC00222321F08091DD032B
:101B70008230E1F3809170038F3F61F080917003B8
:101B8000803251F080917003803341F483E007C0CC
:101B900081E005C080E003C082E001C084E00F91D5
:101BA0000895613298F42091DD03243089F4609324
:101BB0009203FC0184E993E0DC012A2F281B2617FD
:101BC00018F421912D93F9CF80E0089581E00895D4
:101BD00082E0089585ED8093BC008091BC0084FD77
:101BE000FCCF1092DD03089585EC8093BC00109229
:101BF000DD0308951F920F920FB60F9211242F93B9
:101C00003F934F935F936F937F938F939F93AF9384
:101C1000BF93EF93FF938091B900887F803609F4DA
:101C20009CC068F5883209F45BC090F4803109F4F7
:101C300054C038F4882309F4F5C0883009F44DC045
:101C4000F5C0883109F44CC0803209F45DC0EEC0A3
:101C5000803409F468C048F4803309F455C08833EF
:101C600009F0E4C080937003A8C0803509F44FC028
:101C7000883509F45DC0883409F0D8C0D5C08839EA
:101C800009F4C6C0A8F4883709F467C038F4883668
:101C900009F463C0803709F460C0C8C0883809F40B
:101CA000B7C0803909F45FC0803809F0BFC05BC09D
:101CB000803B09F485C038F4803A09F466C0883A5C
:101CC00009F47EC0B3C0803C09F4A6C0883C09F486
:101CD000A3C0883B09F489C0A9C08091DC0310C06F
:101CE0009091B5038091B403981770F5E091B50316
:101CF00081E08E0F8093B503F0E0EA54FC4F8081C1
:101D00008093BB0085EC85C0809370038DC0E0910B
:101D1000B50381E08E0F8093B5038091BB00F0E0A6
:101D2000EA54FC4F80839091B5038091B4036DC059
:101D3000E091B50381E08E0F8093B5038091BB00E5
:101D4000F0E0EA54FC4F80838091DB0381116CC08A
:101D500081E08093DA0384EA60C083E08093DD034E
:101D600010927103CFCF80917103803208F050C080
:101D7000E091710381E08E0F809371038091BB002D
:101D8000F0E0EE58FC4F8083BDCF8091710380322C
:101D900030F4E0917103F0E0EE58FC4F10820E94A5
:101DA000EA0D6091710370E0E091D603F091D703E2
:101DB00082E793E00995109271030E94F40D36C0FA
:101DC00084E08093DD031092930310929203E091DC
:101DD000D803F091D903099580919203811105C030
:101DE00081E08093920310929403E091930381E049
:101DF0008E0F80939303F0E0EC56FC4F808180932C
:101E0000BB009091930380919203981708F47ACFC6
:101E100085E88093BC000AC085EC8093BC001092DA
:101E2000DD0304C0109270030E94EA0DFF91EF9150
:101E3000BF91AF919F918F917F916F915F914F91E2
:101E40003F912F910F900FBE0F901F9018950F93F9
:101E50001F93CF93DF93EC018B0188819981DC0183
:101E6000ED91FC916F770190F081E02D09958881CB
:101E70009981DC01ED91FC91B801660F672F661F17
:101E8000770B6F770190F081E02DDF91CF911F915B
:101E90000F910994DC018D919C91DC01ED91FC91F5
:101EA0000190F081E02D60EF0994DC018D919C910F
:101EB000DC01ED91FC910190F081E02D67EF099438
:101EC000CF93DF93EC0188819981DC01ED91FC9146
:101ED0000190F081E02D69EF099588819981DC01FD
:101EE000ED91FC910190F081E02D62E009958881EF
:101EF0009981DC01ED91FC910190F081E02D64E08D
:101F0000DF91CF9109941F93CF93DF93EC018A81E6
:101F10008823D9F1CE010E944A0F88819981DC0182
:101F2000ED91FC910190F081E02D69E709958881A0
:101F30009981DC01ED91FC91AB81BC810190F08134
:101F4000E02D6C91099588819981DC01ED91FC91DE
:101F5000AB81BC810190F081E02D11966C910995C7
:101F600012E08A81181758F4EB81FC81E10FF11D12
:101F7000608170E0CE010E94270F1F5FF2CFCE017B
:101F8000DF91CF911F910C94550FDF91CF911F914D
:101F90000895CF92DF92EF92FF920F931F93CF930A
:101FA000DF938C01EB01C42ED22E6BEC71E0CE01DD
:101FB0000E946E1E7C016FE270E0CE010E94631EE3
:101FC000009739F46CE570E0CE010E94631E009723
:101FD00011F0EC012196E114F10451F4FE0101909D
:101FE0000020E9F7EC1BEF5FD8011296EC9306C0D6
:101FF000EC1AFD0AE394E394F801E282D801139607
:102000008D919C9114970E94C51DF801E280F12CDE
:10201000C70101960E942D1DD80114969C938E93A2
:102020001397FC01EE0DFF1D1082FC01C082D182CE
:1020300012964C9150E042505109BE010296DF9138
:10204000CF911F910F91FF90EF90DF90CF900C9464
:10205000541EDC018D919C91DC01ED91FC9104807A
:10206000F581E02D09940F931F93CF93DF93FC012B
:102070002085213749F0293709F049C0DF91CF91F8
:102080001F910F910C94830FFC01E95AFF4F0190AF
:10209000F081E02D309709F450C0DC01A75BBF4F01
:1020A0004D915C919A012150310937FD9A01B90196
:1020B00075956795062F40E050E020E030E04E5FD8
:1020C0005F4F2017A0F4EC01C40FD51F1F81DC0166
:1020D000A20FB31F18961C931897C885D0E8CD9F00
:1020E0001019112418961C932F5F3F4FE8CFDC0185
:1020F000A60FB11D17962C911797222311F0189651
:102100001C920896DF91CF911F910F910994FC01C9
:10211000E75AFF4F0190F081E02D309771F0AC014C
:10212000475F5F4FDC01A75BBF4F6C916150822F0F
:10213000DF91CF911F910F910994DF91CF911F9162
:102140000F9108950F931F93CF93DF93EC018A01B2
:1021500088819981DC01ED91FC916F70606E019036
:10216000F081E02D0995B801CE01DF91CF911F914B
:102170000F910C94270F0F931F93CF93DF93EC01D4
:102180008A0188819981DC01ED91FC916F70606911
:102190000190F081E02D099588819981DC01ED9114
:1021A000FC91602F6F770190F081E02D0995888177
:1021B0009981DC01ED91FC91B801660F672F661FD4
:1021C000770B0190F081E02DDF91CF911F910F915E
:1021D0000994CF92DF92EF92FF920F931F93CF93C8
:1021E000DF9300D01F92CDB7DEB78C01F42E2A8387
:1021F0003B8369830E944A0FD8018D919C91DC0139
:10220000ED91FC910190F081E02D698109952A8181
:10221000E22EC22E3B81D32E8C2D8E198F1540F4C9
:10222000F60161916F0170E0C8010E94270FF4CFA1
:10223000C8010F900F900F90DF91CF911F910F91D8
:10224000FF90EF90DF90CF900C94550F9A01FA0118
:1022500001900020E9F73197E41BF50B4E2F0C9409
:10226000E910AB0161E70C942611DC018D919C9182
:10227000DC01ED91FC910190F081E02D0994603D2D
:10228000B9F028F4603961F0603C71F00895603E67
:1022900019F0643F89F00895FC01E55BFF4F0FC022
:1022A000FC01E35BFF4F0BC0FC01E15BFF4F07C08C
:1022B000FC01EF5AFF4F03C0FC01ED5AFF4F518361
:1022C000408308956F3F29F4FC01EB5AFF4F51837F
:1022D00040830895875A9F4FFC015183408308959E
:1022E000FC0115821682178280E090E0DF01A80FC2
:1022F000B91F18961C92019680349105B9F7DF0139
:10230000A85BBF4F1C9211961D921C92EB5AFF4F77
:102310000190F081E02D309709F009940895FC01B7
:102320001282148213820C947011CF93DF93EC010C
:1023300088819981DC01ED91FC910680F781E02D87
:102340000995FE01E85BFF4F20812223B1F0873F12
:10235000910531F41082CE01DF91CF910C943310AE
:10236000FE01E75BFF4F20813181C20FD31F8887B9
:102370002F5F3F4F318320839DC02D81222309F49D
:102380005EC0803891050CF05AC09FEF920F9D837C
:10239000FE01E90FF11D808791118CC08E81882389
:1023A00009F488C0803DE9F148F48039E9F0803CC7
:1023B00009F043C0FE01E15BFF4F36C0803E19F0DB
:1023C000843F19F13AC0FE01E55BFF4F0190F081B7
:1023D000E02D309791F18885698570E0B0E88B9F9A
:1023E000600D711D112427C0FE01E35BFF4F0190BA
:1023F000F081E02D309709F18885698570E090E8DB
:10240000899F600D711D112416C0FE01ED5AFF4F0A
:102410000190F081E02D309781F0688570E089852A
:102420000BC0FE01EF5AFF4F0190F081E02D309775
:1024300021F0688570E08F8109951E823BC0803F46
:1024400091052CF4282F2F702F83807F9927803EB1
:10245000910521F154F4803C910511F1803D9105E5
:10246000F9F08039910531F519C0843F9105B1F03B
:1024700054F4803F9105F1F481E08083C75BDF4F26
:102480001982188217C0893F910571F08F3F91051D
:1024900089F4CE01DF91CF910C94701192E001C0CC
:1024A00091E09D838E8306C08EED93E0DF91CF9106
:1024B0000C94600FDF91CF9108958F929F92AF920D
:1024C000BF92CF92DF92EF92FF921F93CF93DF9351
:1024D000EB014A01690161E08DE00E94EE1410E019
:1024E000EE24D7FCE094FE2CAA2497FCA094BA2CEE
:1024F000812F90E08C179D0794F4C701B6010E94CC
:10250000601361E08DE00E942715C501B4010E94AF
:10251000601360E08DE00E9427151F5FE9CFDF9117
:10252000CF911F91FF90EF90DF90CF90BF90AF9031
:102530009F908F900895CF93DF93EC0161E08DE041
:102540000E94EE1422ED30E048E250E062E070E0DC
:10255000CE010E945D126AEF70E080E090E00E9480
:10256000601322ED30E048E250E064E070E0CE011C
:102570000E945D126DE770E080E090E0DF91CF9106
:102580000C946013CF93DF93EC0188E494E00E94F5
:10259000431688E494E099838883CE010E949B12BD
:1025A000CE010E94600FCE01DF91CF910C94830F7A
:1025B0008EED93E00C948F110F9300E020E040E04B
:1025C00060E089E394E00E94A0160F9108951F92A5
:1025D0000F920FB60F9211242F933F938F939F93D7
:1025E000AF93BF938091400490914104A091420425
:1025F000B091430430913F0423E0230F2D3720F4A2
:102600000196A11DB11D05C026E8230F0296A11D4C
:10261000B11D20933F048093400490934104A09304
:102620004204B09343048091440490914504A091E6
:102630004604B09147040196A11DB11D8093440446
:1026400090934504A0934604B0934704BF91AF9183
:102650009F918F913F912F910F900FBE0F901F90E0
:1026600018952FB7F89460914004709141048091BF
:102670004204909143042FBF08953FB7F89480918E
:10268000440490914504A0914604B091470426B5B6
:10269000A89B05C02F3F19F00196A11DB11D3FBF9A
:1026A0006627782F892F9A2F620F711D811D911D2A
:1026B00042E0660F771F881F991F4A95D1F708954A
:1026C000CF92DF92EF92FF92CF93DF936B017C0169
:1026D0000E943D13EB01C114D104E104F10489F01F
:1026E0000E946C1B0E943D136C1B7D0B683E734067
:1026F00090F381E0C81AD108E108F108C851DC4F15
:10270000EACFDF91CF91FF90EF90DF90CF900895C7
:102710008230910538F0880F991F880F991F05970F
:102720000197F1F70895789484B5826084BD84B5EB
:10273000816084BD85B5826085BD85B5816085BDBC
:10274000EEE6F0E0808181608083E1E8F0E01082D5
:10275000808182608083808181608083E0E8F0E016
:10276000808181608083E1E9F0E080818260808304
:10277000808181608083E0E9F0E0808181608083F6
:10278000E1ECF0E0808184608083808182608083DE
:10279000808181608083E3ECF0E0808181608083D0
:1027A000E0ECF0E0808182608083E2ECF0E0808108
:1027B00081608083EAE7F0E08081846080838081AB
:1027C0008260808380818160808380818068808353
:1027D0000895823108F08251E82FF0E0E45FFE4F67
:1027E000E49180917B00E3FB222720F930E095E023
:1027F000220F331F9A95E1F78F7D822B80937B0008
:10280000E77080910D0120E4829FC0011124E82B24
:10281000E0937C0080917A00806480937A008091BC
:102820007A0086FDFCCF809178002091790090E0BD
:10283000922B08951F93CF93DF93182FEB0161E044
:102840000E94EE14209711F460E004C0CF3FD10540
:1028500039F461E0812FDF91CF911F910C942715FE
:10286000E12FF0E0E85EFE4F449150E0FA0131972D
:10287000EF30F10508F06CC0E859FF4F0C940D1DC6
:1028800084B5806884BDC7BD68C084B5806284BDDE
:10289000C8BD63C080918000806880938000D09321
:1028A0008900C093880059C0809180008062809325
:1028B0008000D0938B00C0938A004FC0809180002D
:1028C000886080938000D0938D00C0938C0045C0B9
:1028D00080919000806880939000D0939900C0937D
:1028E00098003BC080919000806280939000D093CC
:1028F0009B00C0939A0031C08091900088608093C3
:102900009000D0939D00C0939C0027C08091C00090
:1029100080688093C0008091C0008F7B8093C0004E
:10292000C093CF001AC08091C00080628093C00025
:10293000C093D00012C08091C20088608093C20012
:102940008091C2008B7F8093C200C093D20005C0EB
:10295000C038D1050CF07DCF77CFDF91CF911F919B
:10296000089590E0FC013197EF30F105B0F5E9589A
:10297000FF4F0C940D1D809180008F7703C08091D4
:1029800080008F7D80938000089580918000877FF4
:10299000F9CF84B58F7702C084B58F7D84BD08954B
:1029A000809190008F7707C0809190008F7D03C049
:1029B00080919000877F8093900008958091C0005F
:1029C0008F7703C08091C0008F7D8093C0000895F1
:1029D0008091C200877F8093C2000895CF93DF93D8
:1029E00090E0FC01E85DFE4F2491FC01EA5BFE4FA4
:1029F0008491882349F190E0880F991FFC01E058E9
:102A0000FE4FA591B4918E589E4FFC01C591D49173
:102A10009FB7611108C0F8948C91209582238C9304
:102A2000888182230AC0623051F4F8948C91322F4D
:102A3000309583238C938881822B888304C0F894FB
:102A40008C91822B8C939FBFDF91CF9108950F9330
:102A50001F93CF93DF931F92CDB7DEB7282F30E0BF
:102A6000F901E85EFE4F8491F901E85DFE4F149193
:102A7000F901EA5BFE4F04910023C9F0882321F09D
:102A800069830E94B1146981E02FF0E0EE0FFF1F0F
:102A9000EE58FE4FA591B4919FB7F8948C916111B7
:102AA00003C01095812301C0812B8C939FBF0F9091
:102AB000DF91CF911F910F910895CF93DF93282F2E
:102AC00030E0F901E85EFE4F8491F901E85DFE4FC8
:102AD000D491F901EA5BFE4FC491CC2391F08111AE
:102AE0000E94B114EC2FF0E0EE0FFF1FEC59FE4FE7
:102AF000A591B4912C912D2381E090E021F480E008
:102B000002C080E090E0DF91CF910895CF93DF93F2
:102B10001F92CDB7DEB76983DC01ED91FC91028095
:102B2000F381E02D41E050E0BE016F5F7F4F0995DA
:102B30000F90DF91CF910895CF93DF93EC018C85B7
:102B40009D8597FF05C082E00E9452189D878C8763
:102B50008C859D85DF91CF91089583E00C94A71A11
:102B6000FC018485958597FD06C082E00E94FA17D6
:102B700090E00196089582E00E94FA1790E008958F
:102B8000FC018485958597FD05C02FEF3FEF3587C4
:102B90002487089582E00C945218CF93DF93EC01C0
:102BA00080911501882331F083E00E948318181664
:102BB000190634F081E090E09B838A8380E090E006
:102BC000DF91CF910895FC0120812E5F208342E4A4
:102BD00050E06EE871E080E80C941E19FC018181E0
:102BE0009081913A59F4813209F03CC047E050E0BD
:102BF0006EE071E080E00E941E1943C0913291F5B1
:102C0000803239F467E070E08EE091E00E944F1965
:102C100006C0823209F035C082818093150180910F
:102C20000E0190910F01A0911001B0911101803B14
:102C30009440A105B105C1F48091150180FD14C037
:102C400087E797E790930108809300082BE088E1DD
:102C500090E00FB6F894A895809360000FBE209383
:102C600060000FC080E0089588E10FB6F89480936B
:102C70006000109260000FBEA8951092010810929B
:102C8000000881E008952FEF3FEFFC01358724878E
:102C9000089510924B0410924A0488EE93E0A0E04D
:102CA000B0E080934C0490934D04A0934E04B093F5
:102CB0004F0484ED91E090934904809348048FEF92
:102CC0009FEF90935504809354040895AF92BF9260
:102CD000CF92DF92EF92FF920F931F93CF93DF93E8
:102CE0006C017B01C0E0D0E000E010E0F601EC0FE9
:102CF000FD1F4AE050E06281C7010E947A175C0123
:102D00006EE2C7010E940D178A0D9B1D080F191F47
:102D10002196C330D10551F74AE050E0F6016581B4
:102D2000C7010E947A17800F911FDF91CF911F91E9
:102D30000F91FF90EF90DF90CF90BF90AF900895EC
:102D40000F93FC0184EE91E091838083628343833F
:102D5000248305830F91089584EE91E09093990464
:102D60008093980410929A0410929B0410929C04F1
:102D700010929D04089508950E9493130E94BB161B
:102D80008EE994E00E94071B0E948206C0E0D0E01A
:102D90000E949F092097E1F30E940000F9CFCF9293
:102DA000DF92EF92FF920F931F93CF93DF936C010B
:102DB0007A01EB01E60EF71E00E010E0CE15DF050C
:102DC00061F06991D601ED91FC910190F081E02DC7
:102DD000C6010995080F191FF1CFC801DF91CF91E6
:102DE0001F910F91FF90EF90DF90CF9008956115A4
:102DF000710581F0DB010D900020E9F7AD01415034
:102E00005109461B570BDC01ED91FC910280F381C7
:102E1000E02D099480E090E00895DC01ED91FC91B3
:102E20000190F081E02D09948F929F92AF92BF9212
:102E3000CF92DF92EF92FF920F931F93CF93DF9386
:102E4000CDB7DEB7A1970FB6F894DEBF0FBECDBFEA
:102E50007C01C42EE52FCB01D22E19A221E02D1525
:102E600010F02AE0D22E8E010F5D1F4F8D2C912C79
:102E7000A12CB12C6C2D7E2FA50194010E94CC1C9D
:102E80008C2DD29E80191124015011098A3014F41E
:102E9000805D01C0895CF801808321153105410501
:102EA000510521F0C22EE32FCA01E4CFB801C701BA
:102EB0000E94F716A1960FB6F894DEBF0FBECDBFE5
:102EC000DF91CF911F910F91FF90EF90DF90CF9006
:102ED000BF90AF909F908F9008952115310541F4D8
:102EE000DC01ED91FC910190F081E02D642F0994BB
:102EF0000C9414179A01462F50E060E070E00C9497
:102F00006D174091A2045091A3042091A004309128
:102F1000A10442175307B4F49091E8009570E1F3CF
:102F20009091E80092FD19C08093F1008091A20475
:102F30009091A30401968F739927892B19F48EEF32
:102F40008093E8008091A2049091A304019690934D
:102F5000A3048093A20481E0089580E00895CF92B5
:102F6000DF92FF920F931F93CF93DF931F92CDB702
:102F7000DEB7082F162F862F880F8E5F99830E9449
:102F8000811783E00E948117F02EC02E9981D92EDF
:102F90008C2D8F19811778F4F60184910E94811786
:102FA000082F80E00E9481178023FFEFCF1ADF0AED
:102FB0008111EECF01C081E00F90DF91CF911F9181
:102FC0000F91FF90DF90CF900895615030F02091E5
:102FD000F100FC0120830196F8CF289884E68093C5
:102FE000A50408952FB7FC012083F89467706093BF
:102FF000E9000895CF93DF931F92CDB7DEB7682F16
:10300000CE0101960E94F2178091F20099819FBF34
:103010000F90DF91CF910895FF920F931F93CF935D
:10302000DF9300D0CDB7DEB7F62E8A019091A404CD
:10303000992311F057FF03C08FEF9FEF2BC0682F2C
:10304000CE0101967A830E94F2178091F20090E0FF
:10305000A8017A81801791070CF4AC01EF2DF72FAE
:10306000F40E84E6FE1639F028988093A50490911A
:10307000F1009193F7CF4115510521F08091F200B5
:10308000882321F089818FBFCA0104C08BE6809319
:10309000E800F8CF0F900F90DF91CF911F910F9123
:1030A000FF900895CF93DF931F92CDB7DEB741E035
:1030B00050E0BE016F5F7F4F0E940C18019719F41A
:1030C000898190E002C08FEF9FEF0F90DF91CF9149
:1030D0000895CF93DF931F92CDB7DEB7682FCE014F
:1030E00001960E94F2179091E800892F807295FF57
:1030F00004C09091F20080E4891B99819FBF0F90DA
:10310000DF91CF9108956F927F928F929F92AF92AD
:10311000BF92CF92DF92EF92FF920F931F93CF93C4
:10312000DF931F92CDB7DEB7782E7B01C42EB52E6C
:103130008091A404882369F0042F152F8AEFD82EDC
:10314000872D8072982E9AE3A92E872D8074882E61
:1031500011C08FEF9FEF57C0872D0E946918682E0E
:1031600081110CC0DA94A9F361E070E080E090E096
:103170000E9460130115110579F73BC0282F30E03C
:10318000021713070CF4602E672DCE0101960E94E2
:10319000F2178091E80085FF29C0262D30E0021B40
:1031A000130B992039F06A948FEF6816B1F01092E2
:1031B000F100F9CFF701862D77FE07C0815058F056
:1031C00094919093F1003196F9CF815020F0919134
:1031D0009093F100FACFE20EF31E8091E80085FF94
:1031E0000FC00115110511F481100AC089818FBF2C
:1031F000C1CF5D9884E68093A6048C2D9B2D03C0DF
:10320000A092E800F3CF0F90DF91CF911F910F9123
:10321000FF90EF90DF90CF90BF90AF909F908F90F6
:103220007F906F9008951092E9001092A30410927D
:10323000A2049093A1048093A0040895CF92DF92FA
:10324000FF920F931F93CF93DF9300D0CDB7DEB7DC
:10325000F82E8A016B0101151105B1F0F601F7FE98
:1032600002C0849101C0808149835A830E948117E2
:1032700001501109FFEFCF1ADF0A49815A818111EC
:10328000EACF8FEF9FEF01C0CA010F900F90DF913F
:10329000CF911F910F91FF90DF90CF9008951F93D2
:1032A000CF93DF931F92CDB7DEB7162F2091E800A2
:1032B00022FFFCCF612F79830E94E5178BEF80936B
:1032C000E800812F7981972F0F90DF91CF911F9187
:1032D0000895CF93DF931F92CDB7DEB71982CE0149
:1032E00001960E94E315CE0101960E948B1B8981F5
:1032F00090E00F90DF91CF9108951F920F920FB63B
:103300000F921124EF92FF920F931F932F933F93ED
:103310004F935F936F937F938F939F93AF93BF93DD
:10332000EF93FF93CF93DF93CDB7DEB76297DEBF06
:10333000CDBF1092E9008091E80083FFEBC068E008
:10334000CE010A960E94E51782EF8093E8009A85E5
:1033500097FF05C08091E80080FFFCCF03C08EEF8F
:103360008093E800892F807609F0B9C08B858111A0
:1033700005C01092F1001092F100C5C0282F2D7FDA
:10338000213009F4C0C0853049F48091E80080FF05
:10339000FCCF8C8580688093E300B5C0863009F04F
:1033A00076C02D85E888F988223071F580E090E0BC
:1033B0002A8B0E9413190E94691999E08E010F5FF0
:1033C0001F4FF801392F11923A95E9F799832A890D
:1033D0002A8391E09E8390E898879AEF99872091BD
:1033E000A2043091A304275F3F4F3C832B838D833E
:1033F000C7010E94131949E050E0B80180E00E9423
:103400001E190E9469197FC0C7012A8B0E941319D7
:103410002A89223241F482E290E00E94961B892B95
:1034200009F071C074C0213069F4888999890897BE
:1034300011F420939F0480919F04811118C067EEBE
:1034400071E01AC0233009F062C08C85882391F0A6
:10345000823021F462E182E092E006C0813009F01E
:1034600056C068E089EF91E00E94AF174AC065ED51
:1034700071E002C065E172E06115710509F447C0B1
:10348000FB01449150E080E80E941E193CC0873047
:1034900009F43DC0883021F481E08093F10033C00D
:1034A000893089F5937099F5E1EDF1E081E021E053
:1034B00096E38093E9002093EB0034913093EC0085
:1034C0009093ED008F5F3196853099F78EE780936A
:1034D000EA001092EA008C858093A40414C08889C5
:1034E00099890E9413198E85811105C0CE010A9613
:1034F0000E94EE1506C0823051F4CE010A960E9459
:10350000BE1B882321F08EEF8093E80003C081E288
:103510008093EB0062960FB6F894DEBF0FBECDBF6E
:10352000DF91CF91FF91EF91BF91AF919F918F91DB
:103530007F916F915F914F913F912F911F910F91CB
:10354000FF90EF900F900FBE0F901F9018958093F3
:10355000E9008091F200882319F08AE38093E80063
:1035600008951F920F920FB60F9211242F933F933D
:103570004F935F936F937F938F939F93AF93BF937B
:10358000EF93FF938091E1001092E10083FF0FC061
:103590001092E90091E09093EB001092EC0092E31E
:1035A0009093ED001092A40498E09093F00082FFB5
:1035B0001DC083E00E94A71A8091A604882339F0D9
:1035C0008091A60481508093A604882369F080919D
:1035D000A504882359F08091A50481508093A50407
:1035E000811104C0289A02C05D9AF1CFFF91EF913A
:1035F000BF91AF919F918F917F916F915F914F910B
:103600003F912F910F900FBE0F901F901895109221
:10361000A40481E08093D70080EA8093D80082E1FF
:1036200089BD09B400FEFDCF61E070E080E090E06C
:103630000E94601380E98093D8008CE08093E200C0
:103640001092E000559A209A08954F925F926F92DF
:103650007F92AF92BF92CF92DF92EF92FF920F9341
:103660001F93CF93DF93CDB7DEB729013A01621BD9
:10367000730B840B950B29893A894B895C892A192C
:103680003B094C095D09298B3A8B4B8B5C8B9B0169
:10369000AC0169897A898B899C890E94B01CE418E5
:1036A000F50806091709A80197010E94EE1C2A0DCA
:1036B0003B1D4C1D5D1DCA01B901DF91CF911F91CA
:1036C0000F91FF90EF90DF90CF90BF90AF907F90E1
:1036D0006F905F904F9008950895FF920F931F93FE
:1036E000CF93DF93EC01F62EE881F9810480F58118
:1036F000E02D09958C01E881F9810680F781E02DA4
:103700006F2DCE010995C8019927DF91CF911F91A7
:103710000F91FF900895FC0120812F5F208349E1E4
:1037200050E069E972E080E80C941E1945E650E02B
:1037300062EB72E080E80C941E19EF92FF920F93F7
:103740001F93CF93DF931F92CDB7DEB789838B0191
:103750007A0141E050E0BE016F5F7F4F84E00E943C
:103760008318A701B80184E40E9483180F90DF91A9
:10377000CF911F910F91FF90EF900895FC019181DF
:103780008081813A31F481E0913091F0933089F475
:1037900011C0813271F49B3021F482818093170132
:1037A00005C09A3031F482818093160181E008953A
:1037B000089580E0089548E050E082E00C949D1B5D
:1037C000CF93DF93DC01683818F0E8E7E60F25C0F7
:1037D000E62FF0E067FF11C0E058F10981E090E0CA
:1037E00001C0880FEA95EAF714969C911497982BDC
:1037F00014969C931497E0E010C0E75EFD4FE491AF
:10380000EE2309F440C0E7FF08C014968C9114978A
:10381000826014968C931497EF7716968C91169776
:103820008E1741F117968C9117978E1719F11896EC
:103830008C9118978E17F1F019968C9119978E1715
:10384000C9F01A968C911A978E17A1F01B968C913D
:103850001B978E1779F080E090E0ED01C80FD91F1B
:103860002E81211102C0EE8305C00196863091059C
:10387000A1F709C0BD016C5F7F4FCD010E94DB1B2A
:1038800081E090E008C081E090E013969C938E93D5
:10389000129780E090E0DF91CF910895683818F09A
:1038A000E8E7E60F25C0E62FF0E067FF12C0E0581A
:1038B000F10921E030E001C0220FEA95EAF72095F6
:1038C000DC0114963C911497322314963C93E0E06B
:1038D0000FC0E75EFD4FE491EE2329F1E7FF08C03A
:1038E000DC0114962C9114972D7F14962C93EF776E
:1038F00020E030E0EE2351F0DC01A20FB31F16965A
:103900004C9116974E1302C016961C922F5F3F4F94
:103910002630310579F7BC016C5F7F4F0E94DB1BBD
:1039200081E090E0089580E090E00895FC01168227
:10393000178210861186128613861482BC016C5F72
:103940007F4F0C94DB1B1092B3041092AA041092C8
:10395000A9048AEE91E09093A8048093A7040895A7
:10396000DB018F939F930E94131DBF91AF91A29F84
:10397000800D911DA39F900DB29F900D112408956D
:10398000991B79E004C0991F961708F0961B881FB1
:103990007A95C9F780950895A1E21A2EAA1BBB1B40
:1039A000FD010DC0AA1FBB1FEE1FFF1FA217B3070B
:1039B000E407F50720F0A21BB30BE40BF50B661F21
:1039C000771F881F991F1A9469F7609570958095E5
:1039D00090959B01AC01BD01CF010895052E97FB89
:1039E0001EF400940E94051D57FD07D00E94CC1CB8
:1039F00007FC03D04EF40C94051D5095409530956E
:103A000021953F4F4F4F5F4F08959095809570954A
:103A100061957F4F8F4F9F4F0895EE0FFF1F0590C9
:103A2000F491E02D09940E941E1DA59F900DB49F56
:103A3000900DA49F800D911D11240895A29FB001A7
:103A4000B39FC001A39F700D811D1124911DB29FD2
:103A5000700D811D1124911D0895CF93DF93823045
:103A6000910510F482E090E0E091B604F091B70483
:103A700020E030E0A0E0B0E0309739F140815181A2
:103A800048175907B8F04817590771F48281938194
:103A9000109729F013969C938E9312972CC09093B5
:103AA000B7048093B60427C02115310531F04217C1
:103AB000530718F0A901DB0101C0EF019A01BD0114
:103AC000DF010280F381E02DD7CF21153105F9F018
:103AD000281B390B2430310580F48A819B816115C4
:103AE000710521F0FB019383828304C09093B70496
:103AF0008093B604FE01329644C0FE01E20FF31F2C
:103B00008193919322503109398328833AC02091BF
:103B1000B4043091B504232B41F42091020130917B
:103B200003013093B5042093B40420910001309137
:103B300001012115310541F42DB73EB74091040133
:103B400050910501241B350BE091B404F091B504AC
:103B5000E217F307A0F42E1B3F0B2817390778F064
:103B6000AC014E5F5F4F2417350748F04E0F5F1FC3
:103B70005093B5044093B4048193919302C0E0E064
:103B8000F0E0CF01DF91CF910895CF93DF930097BD
:103B900009F487C0FC01329713821282C091B604E7
:103BA000D091B704209781F420813181280F391FEB
:103BB0008091B4049091B5048217930779F5F0933E
:103BC000B504E093B4046DC0DE0120E030E0AE1730
:103BD000BF0750F412964D915C9113979D014115CA
:103BE000510509F1DA01F3CFB383A28340815181FA
:103BF000840F951F8A179B0771F48D919C911197E3
:103C0000840F951F02969183808312968D919C91CB
:103C10001397938382832115310529F4F093B70418
:103C2000E093B6043EC0D9011396FC93EE9312972D
:103C30004D915D91A40FB51FEA17FB0779F48081C0
:103C40009181840F951F0296D90111969C938E93B2
:103C50008281938113969C938E931297E0E0F0E01B
:103C60008A819B81009719F0FE01EC01F9CFCE010A
:103C7000029628813981820F931F2091B4043091DC
:103C8000B5042817390769F4309729F41092B7045E
:103C90001092B60402C013821282D093B504C0936E
:103CA000B404DF91CF910895FB01DC0141505040F5
:103CB00048F001900D920020C9F701C01D924150BB
:103CC0005040E0F70895FC0181E090E00190061675
:103CD00009F4CF010020D1F701970895FB0151911C
:103CE0005523A9F0BF01DC014D9145174111E1F7C2
:103CF00059F4CD010190002049F04D91401541113A
:103D0000C9F3FB014111EFCF81E090E001970895E5
:043D1000F894FFCF55
:103D14000000B804800001000000FF13000100E16E
:103D240000000000000001014D6178207365727687
:103D34006F7320617474616368656400556E6B6EA3
:103D44006F776E2070696E206D6F646500537461C7
:103D54006E646172644669726D6174612E696E6F1E
:103D6400004932433A20546F6F206D616E792062AE
:103D74007974657320726563656976656400493298
:103D8400433A20546F6F20666577206279746573B7
:103D94002072656365697665640031302D626974EB
:103DA4002061646472657373696E67206E6F74203A
:103DB400737570706F7274656400746F6F206D61D9
:103DC4006E79207175657269657300000000009F4B
:103DD4000C720C470C4F0C620C710C2E637070004B
:103DE400000000008615CD15B015C0159C15AD1545
:103DF400000000006616000000006D1BCF16E01BDB
:043E04004E1C961C9E
:00000001FF
