:100000000C9416010C943E010C943E010C943E019C
:100010000C943E010C943E010C943E010C943E0164
:100020000C943E010C94E9120C945A1D0C94EC1B98
:100030000C943E010C943E010C943E010C943E0144
:100040000C943E010C94B9090C943E010C943E01B1
:100050000C943E010C943E010C943E010C946313ED
:100060000C943E010C9409180C943B180C943E011E
:100070000C943E010C943E010C943E010C943E0104
:100080000C943E010C943E010C943E010C943E01F4
:100090000C94D70D0C943E010C943E010C943E013F
:1000A0000C943E010C943E010C943E01FF081B0988
:1000B0003F081B09B0081B091D08CC071B091B09B9
:1000C0001B091B091B09E3061B09B2071B090408CE
:1000D000CC14D114D614E014EA14341534153415A4
:1000E000F414FE14081512151F153415271555158F
:1000F000581547154B1551157915791579155C1556
:10010000601564156A156E157915741507060504D2
:100110000100080A0B0C0D090000000200090F0085
:1001200000030401000C00000000000000000000BB
:100130000000000000000004080201104080401090
:1001400020408040800802040180402010020110FD
:10015000801020404020040404040403040502022B
:100160000202040302020202060606060606040450
:100170000202020404000000002300260029002CD3
:10018000002F0000000000250028002B002E003169
:100190000000000000240027002A002D0030000885
:1001A0000B0002020201000904000001020200002B
:1001B0000524001001052401010104240206052480
:1001C0000600010705810310004009040100020A2E
:1001D00000000007050202400000070583024000FE
:1001E0000012010002EF0201404F1B0892000101C2
:1001F00002030112010002000000404F1B089200A0
:100200000101020301537061726B46756E004C6907
:100210006C79506164205553420004030904480678
:10022000ED0CDA12DE1209176B18F41811241FBE38
:10023000CFEFDAE0DEBFCDBF12E0A0E0B1E0E6E94B
:10024000F1E402C005900D92A033B107D9F726E082
:10025000A0E3B2E001C01D92A433B207E1F712E0BF
:10026000CCE2D2E004C02297FE010E94501FCE31A2
:10027000D107C9F70E94421E0C94C9200C940000BB
:100280001F93CF93DF93162F843008F06CC0982F04
:10029000990F990F990F985F9F3108F09EE1D82F21
:1002A000DD0FDD0FDD0F8D2FC0E041E08917C8F4B1
:1002B000E82FF0E0DF01A45FBC4F2C91223070F4F6
:1002C000C42BEE0FFF1FE453FD4F21E030E0542F0D
:1002D000512311F420E030E031832083440F8F5FFD
:1002E000E5CFC0FF05C0612F61708D2F0E94B3154F
:1002F000C1FF06C0612F627081E08D0F0E94B315AF
:10030000C2FF06C0612F647082E08D0F0E94B3159A
:10031000C3FF06C0612F687083E08D0F0E94B31584
:10032000C4FF06C0612F607184E08D0F0E94B31579
:10033000C5FF06C0612F607285E08D0F0E94B31566
:10034000C6FF06C0612F607486E08D0F0E94B31552
:10035000C7FF09C0612F607887E08D0FDF91CF91D3
:100360001F910C94B315DF91CF911F9108950F93B6
:100370001F93CF93DF93EB018E3178F5082F10E0B8
:10038000F801E45FFC4F9081933089F0943029F5B7
:10039000F801E15CFD4F208130E0C901880F991F11
:1003A000820F931F835A9D4F0E94540B0FC08330BE
:1003B00051F09BEF980F923030F097EF980F9330F9
:1003C00010F08D3019F4BE010E94A614F801EE0F52
:1003D000FF1FE453FD4FD183C083DF91CF911F9165
:1003E0000F910895CF93C82F8C3058F54091320368
:1003F0005091330321E030E0082E02C0220F331F5A
:100400000A94E2F7672B49F420953095242335238D
:10041000309333032093320314C0242B352B3093B5
:100420003303209332038091300281110AC08C2F54
:100430000E947514AC016C2F8AE194E0CF910C946A
:100440007F10CF910895DB019A01909131029C3089
:10045000D0F540913202682F70E0442369F0E42F18
:10046000F0E0EE5CFD4F8081FB01E15CFD4F80839D
:1004700041504093320207C0FB01E15CFD4F908385
:100480009F5F90933102FB01E15CFD4F1A161B0642
:100490007CF41216130664F4408150E0CA01880F00
:1004A000991F840F951FAD01835A9D4F0C94910A9B
:1004B000208130E0C901880F991F820F931F835A52
:1004C0009D4F0C940F0B61E271E08AE194E00C9473
:1004D0001111CF93DF93C82FD0E0C15CDD4F28818D
:1004E00030E0C901880F991F820F931F835A9D4FD7
:1004F0000E94150B888190913102891306C08823D0
:1005000079F08150809331020BC0992349F0E0913A
:100510003202EF5FE0933202F0E0EE5CFD4F808349
:100520008FEF8883DF91CF9108951F93CF93DF934F
:10053000162FC82FD0E0FE01E85FFC4F90811923F1
:10054000C65DDC4F411103C09881911741F0412FE6
:1005500050E0682F8AE194E00E9498101883DF91A0
:10056000CF911F910895EF92FF920F931F93CF9316
:10057000DF93E82E83E08E1508F475C02E2D30E051
:10058000F901E25DFC4F6083672B09F46CC0F9014F
:10059000E85FFC4FF0800E2D000F000F000FF0FE03
:1005A00052C0802F0E94E915892B09F44CC011E03C
:1005B000C02FD0E0F1FE07C081E0800F0E94E91556
:1005C000892B09F042C0F2FE06C082E0800F0E9433
:1005D000E915892BE1F5F3FE06C083E0800F0E9448
:1005E000E915892BB1F5F4FE06C084E0800F0E9466
:1005F000E915892B81F5F5FE06C085E0800F0E9484
:10060000E915892B51F5C831D10541F0F6FE06C038
:1006100086E0800F0E94E915892B09F5679744F45D
:10062000F7FE06C087E0800F0E94E915892BC9F408
:1006300041E0612F8E2DDF91CF911F910F91FF909F
:10064000EF900C94950210E0B3CF1260BCCF146011
:10065000C2CF1860C8CF1061CECF1062D4CF106463
:10066000DDCF1068E5CFDF91CF911F910F91FF9003
:10067000EF900895CF93DF9380912E03882309F4A0
:1006800048C0D0910803D0FF1DC180E00E94E91549
:10069000892B09F417C1C1E0D1FF06C081E00E9497
:1006A000E915892B09F010C1D2FF06C082E00E9433
:1006B000E915892B09F00AC1D3FF06C083E00E9427
:1006C000E915892B09F004C1D4FF06C084E00E941B
:1006D000E915892B09F0FEC0D5FF06C085E00E9410
:1006E000E915892B09F0F8C0D6FF06C086E00E9404
:1006F000E915892B09F0F2C0D7FF06C087E00E94F8
:10070000E915892B09F0ECC040E06C2F80E00E94D5
:10071000950280912F03882309F448C0D0910903E2
:10072000D0FFE0C088E00E94E915892B09F4DAC007
:10073000C1E0D1FF06C089E00E94E915892B09F0CC
:10074000D3C0D2FF06C08AE00E94E915892B09F0C8
:10075000CDC0D3FF06C08BE00E94E915892B09F0BC
:10076000C7C0D4FF06C08CE00E94E915892B09F0B0
:10077000C1C0D5FF06C08DE00E94E915892B09F0A4
:10078000BBC0D6FF06C08EE00E94E915892B09F098
:10079000B5C0D7FF06C08FE00E94E915892B09F08C
:1007A000AFC040E06C2F81E00E9495028091300341
:1007B000882309F448C0D0910A03D0FFA3C080E188
:1007C0000E94E915892B09F49DC0C1E0D1FF06C044
:1007D00081E10E94E915892B09F096C0D2FF06C07D
:1007E00082E10E94E915892B09F090C0D3FF06C071
:1007F00083E10E94E915892B09F08AC0D4FF06C065
:1008000084E10E94E915892B09F084C0D5FF06C058
:1008100085E10E94E915892B09F07EC0D6FF06C04C
:1008200086E10E94E915892B09F078C0D7FF06C040
:1008300087E10E94E915892B09F072C040E06C2F16
:1008400082E00E94950280913103882309F476C0EA
:10085000D0910B03D0FF66C088E10E94E915892B77
:1008600009F460C0C1E0D1FF06C089E10E94E9152A
:10087000892B09F059C0D2FF06C08AE10E94E91510
:10088000892B09F053C0D3FF06C08BE10E94E91504
:10089000892B09F04DC0D4FF06C08CE10E94E915F8
:1008A000892B09F047C0D5FF06C08DE10E94E915EC
:1008B000892B09F041C040E06C2F83E0DF91CF919C
:1008C0000C949502C0E0E8CEC260EECEC460F4CED7
:1008D000C860FACEC06100CFC06206CFC0640CCF42
:1008E000C06812CFC0E025CFC2602BCFC46031CF2B
:1008F000C86037CFC0613DCFC06243CFC06449CF2D
:10090000C0684FCFC0E062CFC26068CFC4606ECF16
:10091000C86074CFC0617ACFC06280CFC06486CF18
:10092000C0688CCFC0E09FCFC260A5CFC460ABCF02
:10093000C860B1CFC061B7CFC062BDCFDF91CF91EA
:100940000895109283028FEF80930A010895CF9249
:10095000DF92EF92FF920F931F93CF93DF93182FA5
:10096000EB01E82EF12CC701845F9C4F6C01FC0168
:1009700080818F3709F4EEC0863051F48091830274
:10098000882331F06630710509F4E0C00E94A104AB
:100990001E31A8F4C430D10591F0F701E15CFD4FA0
:1009A00020812C3060F430E0C901880F991F820F3C
:1009B000931F835A9D4F0E94B90B8111B4C00EEE54
:1009C000010F0C3058F461E070E0C230D10511F035
:1009D00060E070E0802F0E94F20102C01E31D0F46E
:1009E000E12FE695E695E695812F8770F0E0E85FC8
:1009F000FC4F21E030E0082E01C0220F0A94EAF7F4
:100A0000209721F48081822B808304C020958081EF
:100A100028232083F701EE0FFF1FE453FD4F1182BF
:100A20001082C230D10579F02CF42097C9F02197BB
:100A300029F16BC0C430D10509F445C064F1269793
:100A400009F45BC062C00C3008F084C060E0812F04
:100A50000E947A1560E0812F0E94B31582E052C097
:100A60001E3108F077C060E0812F0E947A1560E0A7
:100A7000812F0E94B315F60110826CC01E3108F060
:100A800069C060E0812F0E94B31561E0812F0E9450
:100A90007A1581E037C0133059F08BEF810F823027
:100AA00038F087EF810F833018F01D3009F052C005
:100AB00061E0812F0E947A1560E070E0812F0E9432
:100AC000A61483E01FC01E3108F044C084E0F60184
:100AD0008083F701E15CFD4F80818F3F41F190E021
:100AE0009C01220F331F280F391FC901835A9D4FC4
:100AF0000E94B90B81112EC01AC08EEF810F823077
:100B000048F586E0F601808325C065E371E08AE15F
:100B100094E0DF91CF911F910F91FF90EF90DF90C4
:100B2000CF900C941111812F0E94690248CF4FEF92
:100B30005FEF6FEF7FEF812FDF91CF911F910F91CB
:100B4000FF90EF90DF90CF900C9423021E3108F4B9
:100B500024CF35CFDF91CF911F910F91FF90EF9070
:100B6000DF90CF900895CF93C0E08EEF8C0F82304E
:100B700028F466E070E08C2F0E94A704CF5FCE318E
:100B8000A1F781E0809383028AE593E0CF910C94F2
:100B90005F0C0F931F93CF93DF9381E0809330021C
:100BA0008091830281110E94A104EEE2F3E0C8E08B
:100BB000D3E0AAE2B3E0119219921D9283E0E233EE
:100BC000F807C9F7CFE3D2E010E00FEF8EEE810F08
:100BD0008C3018F462E070E002C061E070E0812FB8
:100BE0000E94A70409931F5F1E3181F710923303FF
:100BF000109232031092320210923102109230029F
:100C0000DF91CF911F910F91089525E042E066E4B6
:100C100071E08AE194E00E94A60F47EB51E060EE9C
:100C20008AE194E00E941F1140E451E060E98AE10A
:100C300094E00E941F1142EF51E060EC8AE194E0E1
:100C40000E941F1143EB52E060ED8AE194E00E94A4
:100C50001F1147EA54E064EF8AE194E00E941F11FB
:100C60004FEC56E060EF8AE194E00E944F1149ECAE
:100C700055E06FEF8AE194E00E94471140E051EEA9
:100C800060E070E08AE194E00E94C4120C94C9050F
:100C9000CF93DF93CDE5D2E0CE010E94750A239673
:100CA00082E0C138D807C1F7DF91CF910895682F4E
:100CB0008AE593E00C94200C8AE593E00E94D00B27
:100CC0000895DF92EF92FF920F931F93CF93DF93DC
:100CD000F82EEB01D42E6F3F8FEF7807A9F06F2D20
:100CE0008AE593E00E94690C8C2F0E9457068AE5E2
:100CF00093E00E94EA0C8091810290918202009719
:100D000029F00E94161402C0C0E0D0E04D2D6F2DD6
:100D10008AE593E00E94E70C0D2D10E08AE593E050
:100D20000E94C80B081719071CF46BE871E009C092
:100D30008AE593E00E94C80B8017910734F468EAB3
:100D400071E08AE194E00E941111F0928402C09354
:100D5000850286E8E82E82E0F82EC0E0D0E0C017D9
:100D6000D10784F042E04D0D24E832E067E78AE1E4
:100D700094E0DF91CF911F910F91FF90EF90DF9062
:100D80000C94C6108AE593E00E94C80B892B51F39E
:100D90000E945C06F70181937F012196E0CFEF92DC
:100DA000FF920F931F93CF93DF93162FEA0190E0EA
:100DB000FC01E956F109E231F10508F03CC2EA5ABA
:100DC000FF4F0C944E1F8981982F987185FF03C0A7
:100DD00064EC71E056C08881983071F148F491114B
:100DE0002AC2682F8AE593E00E94690C02E007C0DE
:100DF000903109F440C0983109F471C01CC2011748
:100E000068F4FE01E00FF11D9181808120E8929F3E
:100E1000801911240E9457060E5FF1CF8AE593E0F6
:100E20000E94EA0C86E490E0DF91CF911F910F9130
:100E3000FF90EF900C9416144A816B81163069F480
:100E400030E8639FB0011124640F711D9D814C81B6
:100E500050E8959F4019112406C090E8699F4019F9
:100E600011246FEF7FEFDF91CF911F910F91FF90D2
:100E7000EF900C946106E0910A01E73064F064EEB3
:100E800071E08AE194E0DF91CF911F910F91FF9083
:100E9000EF900C9411119A812B81F0E8663061F487
:100EA0002F9F90011124290F311D4D819C8150E805
:100EB000459F9019112405C02F9F901911242FEFE1
:100EC0003FEFEF5FE0930A0144E0E402F0011124F8
:100ED000EC55FD4F8083328321839383ACC15091C5
:100EE0000A01151634F440E0252F332727FD3095ED
:100EF0000EC08FEF80930A019EC1EE0FFF1FEE0F11
:100F0000FF1FEC55FD4F9081981719F14F5FE42FAB
:100F1000F0E02E173F078CF740E01BC04830C0F4CC
:100F2000DF01AA0FBB1FAA0FBB1FA855BD4F8C9195
:100F3000EE0FFF1FEE0FFF1FEC55FD4F8083119644
:100F40008D919C9112979283818313968C918383C8
:100F50004F5FE42FF0E02E173F0704F751505093F6
:100F60000A0169C12881898150E8859FC001112447
:100F7000820F911D009721F090938202809381024D
:100F800080918302811157C1DF91CF911F910F9101
:100F9000FF90EF900C94B305653008F44CC11881B4
:100FA0000981FA80EB80CC811E3108F044C1E12F29
:100FB000F0E0E15CFD4FE081EC3060F4F0E0CF0167
:100FC000880F991F8E0F9F1F835A9D4F0E94B90B48
:100FD00081112DC180E8C89FA00111244E0D511D23
:100FE00090E8F99EB0011124600F711D812F0E94BD
:100FF000230264E070E0812FDF91CF911F910F9168
:10100000FF90EF900C94A704623008F414C128817B
:101010008981E0E88E9FC0011124820F911D909379
:101020000C0180930B010A9708F005C18AE090E05B
:1010300090930C0180930B01FEC0623008F4FBC05A
:10104000698170E0123091F08A81F0E88F9FC001D1
:101050001124682B792B133049F08B8190E090E4B8
:10106000899F902D88271124682B792B8881DF9107
:10107000CF911F910F91FF90EF900C94B70160EF0B
:101080008AE194E00E9415116CE68AE194E00E94E6
:101090001511C0E060E08AE194E00E94151161E062
:1010A0008AE194E00E94151161E08AE194E00E94D7
:1010B000151161E08AE194E00E9415118EEE8C0F0B
:1010C0008C3058F462E08AE194E00E9415116AE0E5
:1010D0008AE194E00E9415110DC0C33059F463E019
:1010E0008AE194E00E94151168E08AE194E00E9490
:1010F00015110AC08BEF8C0F823088F387EF8C0FAD
:10110000833068F3CD3059F364E08AE194E00E94C3
:1011100015116EE08AE194E00E9415118EEF8C0F9C
:10112000823050F466E08AE194E00E94151161E09B
:101130008AE194E00E9415116FE78AE194E00E9431
:101140001511CF5FCE3109F0A5CF67EF8AE194E0AA
:10115000DF91CF911F910F91FF90EF900C9415119B
:10116000662309F468C0C88160EF8AE194E00E94B8
:1011700015116EE68AE194E00E9415116C2F8AE148
:1011800094E00E941511CE3100F7D0E0FE01E45F3B
:10119000FC4F60818AE194E00E941511CC0FDD1FA5
:1011A0008E0104531D4FF80160816F778AE194E04E
:1011B0000E941511F80160817181CB018078892B23
:1011C00049F0660F672F661F770B6F778AE194E00F
:1011D0000E941511C453DD4F68817981CB018827A6
:1011E000907C892B09F4B1CF770F660B770F762FA0
:1011F000661F6F778AE194E00E941511A6CF60EF19
:101200008AE194E00E9415116AE68AE194E00E9466
:101210001511CEEECC3010F06FE701C06C2F8AE1D3
:1012200094E00E941511CF5FCC30A1F78ECF812FB3
:101230000E946902CFCEDF91CF911F910F91FF9055
:10124000EF9008958F929F92AF92BF92CF92DF92CC
:10125000EF92FF920F931F93CF93DF930E943A0375
:101260008AE194E00E940610892B29F08AE194E03B
:101270000E943612F5CF0E94AD136093C80270939E
:10128000C9028093CA029093CB02C090C402D0904E
:10129000C502E090C602F090C70240910B01509148
:1012A0000C014A01A12CB12C8B019C010C191D09C8
:1012B0002E093F0980169106A206B30608F04CC01D
:1012C000D501C4018C0D9D1DAE1DBF1D8093C402B0
:1012D0009093C502A093C602B093C702CCE0D3E0BE
:1012E0001EEE1C30C0F488818230A9F420913203B4
:1012F00030913303012E02C0359527950A94E2F709
:1013000020FF09C0812F0E947514AC01612F8AE172
:1013100094E00E947F101F5F21961C3011F780918E
:101320000A0187FD19C0C0E0EC2FF0E080910A01AE
:10133000992787FD90958E179F0774F0EE0FFF1F7A
:10134000EE0FFF1FEC55FD4F61817281438180815B
:101350000E946106CF5FE8CFDF91CF911F910F917F
:10136000FF90EF90DF90CF90BF90AF909F908F90C5
:1013700008951F920F920FB60F9211242F933F934F
:101380004F935F936F937F938F939F93AF93BF938D
:10139000EF93FF938091350387FF05C0109285007E
:1013A000109284001AC020913503332727FD309511
:1013B0008091340390E0281739077CF4809135033D
:1013C000992787FD9095FC01EE0FFF1FE80FF91F8D
:1013D000EA5CFC4F808186FD15C0809135038F5FEC
:1013E0008093350320913503332727FD3095809175
:1013F000340390E028173907BCF4809135038C3012
:101400005CF112C080913503992787FD9095FC010E
:10141000EE0FFF1FE80FF91FEA5CFC4F808160E0D0
:101420008F730E94B315D9CF80918400909185006D
:10143000049680329E4418F480E29EE405C08091B8
:101440008400909185000496909389008093880091
:101450008FEF8093350338C0209184003091850050
:1014600080913503992787FD9095FC01EE0FFF1FB2
:10147000E80FF91FEA5CFC4F81819281820F931F74
:10148000909389008093880080913503992787FD88
:101490009095FC01EE0FFF1FE80FF91FEA5CFC4F6F
:1014A000808186FF11C080913503992787FD909533
:1014B000FC01EE0FFF1FE80FF91FEA5CFC4F808173
:1014C00061E08F730E94B315FF91EF91BF91AF91CF
:1014D0009F918F917F916F915F914F913F912F914C
:1014E0000F900FBE0F901F901895209134032C3051
:1014F000A0F431E0320F30933403FC012083822FBB
:1015000090E0FC01EE0FFF1FE80FF91FEA5CFC4FB3
:101510008CED95E09283818308952FEFFC01208369
:101520000895DF92EF92FF920F931F93CF93DF9373
:10153000EC01D62E7A01890188818C3008F066C0D2
:1015400061E08D2D0E947A158881A82FB0E0FD0101
:10155000EE0FFF1FEA0FFB1FEA5CFC4F2D2D2F73D0
:101560009081907C922B908360E272E06E197F09EB
:1015700077FF02C06D5F7F4F75956795759567958D
:10158000698340E659E0401B510B57FF02C04D5F95
:101590005F4F55954795559547954A836CE00E9456
:1015A000011F9CE0899FB001112420E030E0A901D7
:1015B000460F571FFA01EE0FFF1FE40FF51FEA5CFD
:1015C000FC4F908196FD16C02F5F3F4F2C303105A8
:1015D00071F781110FC01092800082E0809381002A
:1015E0001092850010928400B19A80916F00826001
:1015F00080936F00888190E0FC01EE0FFF1FE80FE1
:10160000F91FEA5CFC4F8081806480838881DF91D0
:10161000CF911F910F91FF90EF90DF90089520E6FA
:1016200039E040E252E00C94910AFC01808190E0A4
:10163000FC01EE0FFF1FE80FF91FEA5CFC4F8081F1
:101640008F7B80830895FC0180818C3060F59181CF
:1016500028E830E0291B310997FD3395220F331F0D
:10166000220F331F621773077CF0928128E532E066
:10167000291B310997FD3395220F331F220F331F8A
:10168000621773070CF49B014FB7F89490E0225057
:101690003109FC01EE0FFF1FE80FF91FEA5CFC4F58
:1016A000328321834FBF08954F925F926F927F9252
:1016B000AF92BF92CF92DF92EF92FF920F931F9360
:1016C000CF93DF93EC01603282E078070CF040C0EA
:1016D00077FD06C0653B71052CF064EB70E002C03D
:1016E00060E070E0898128E830E0281B310987FD3F
:1016F0003395220F331F220F331F5901CC24B7FC1F
:10170000C094DC2C882777FD8095982F2A8148E5A6
:1017100052E0421B510927FD5395440F551F440FBA
:10172000551F2A01662457FC6094762C7F926F9295
:101730005F924F9214EBE12EF12C00E010E020E0DC
:1017400030E0A9010E94FA1D0F900F900F900F90AA
:10175000CE01DF91CF911F910F91FF90EF90DF901D
:10176000CF90BF90AF907F906F905F904F900C9410
:10177000230BFC01808190E0FC01EE0FFF1FE80FBE
:10178000F91FEA5CFC4F808186FB882780F9089569
:1017900080918A0390E020918B03821B9109089528
:1017A00020918B0380918A03281750F4E22FF0E0F8
:1017B000E457FC4F808190E02F5F20938B030895C6
:1017C0008FEF9FEF0895E0918B0380918A03E817D4
:1017D00030F4F0E0E457FC4F808190E008958FEF03
:1017E0009FEF08950895CF92DF92EF92FF920F93AB
:1017F0001F93CF93DF937C01CB018A012091660375
:10180000222389F0EB016B01C40ED51ECC15DD053A
:1018100069F06991D701ED91FC910190F081E02D83
:10182000C7010995F3CF642F0E94AE0DC801DF9167
:10183000CF911F910F91FF90EF90DF90CF9008957F
:10184000CF93DF931F92CDB7DEB7698320916603F4
:101850002223D1F020916703203240F021E030E0D4
:10186000FC013383228380E090E015C080916803FF
:10187000E82FF0E0E759FC4F998190838F5F8093C8
:1018800068038093670305C061E0CE0101960E9462
:10189000AE0D81E090E00F90DF91CF910895FC01B3
:1018A0001382128248EE53E060E070E04483558377
:1018B0006683778389EF91E0918380830895109206
:1018C0008B0310928A0310926803109267030C94A2
:1018D000F10C81E0809366036093890310926803A2
:1018E0001092670308950F93062F21E0409167033C
:1018F00069E673E0809189030E94570D1092680396
:1019000010926703109266030F9108958F929F9231
:10191000AF92BF92CF92DF92EF92FF920F931F93FD
:10192000CF93DF93EC01F62ED42E48015901EE201F
:1019300019F10E94690C1E2D143008F013E01150AB
:10194000B8F0E881F98128E0129FB0011124A501C7
:10195000940104C056954795379527956A95D2F717
:10196000CA01B9010190F081E02DCE010995E7CFC0
:1019700060E0CE010E94730C4D2D413208F040E230
:101980002C2D6CE873E08F2D0E940F0D10928B03AD
:1019900080938A03DF91CF911F910F91FF90EF9079
:1019A000DF90CF90BF90AF909F908F900895CF928F
:1019B000EF920F931F93C22EE12C00E010E09801EC
:1019C0000E94860C1F910F91EF90CF90089521E017
:1019D0000C94D70C61E00C94730C8AE593E00C94A2
:1019E0004F0C1092190481E0809317041092160492
:1019F00061E082E00E94B31561E083E00E94B315CC
:101A0000E9EBF0E080818E7F808380818D7F808311
:101A100080E28093B80085E48093BC000895413251
:101A200008F043C0909119049111FCCF91E090937C
:101A30001904209317042FEF2093AC031092F103A5
:101A4000240F2093F0039093180490911804880FAA
:101A5000892B8093180480911604813061F41092D0
:101A60001604809118048093BB008091BC0083FD14
:101A7000F8CF85EC01C085EE8093BC0080911904FD
:101A80008130E1F38091F103841710F44091F10368
:101A900022EF33E0FB01D9018A2F821B841718F44F
:101AA0008D918193F9CF842F089580E008950F934D
:101AB000413208F04AC0909119049111FCCF92E094
:101AC00090931904009317049FEF9093AC03109226
:101AD000F1034093F003FB0162EF73E0DB019A2F07
:101AE000961B941718F491919D93F9CF10921804B6
:101AF00090911804880F892B809318048091160404
:101B0000813061F410921604809118048093BB0018
:101B10008091BC0083FDF8CF85EC01C085EE8093F9
:101B2000BC00222321F0809119048230E1F38091DE
:101B3000AC038F3F61F08091AC03803251F0809113
:101B4000AC03803341F483E007C081E005C080E04E
:101B500003C082E001C084E00F910895613298F4DF
:101B600020911904243089F46093CE03FC0180EDA8
:101B700093E0DC012A2F281B261718F421912D93BE
:101B8000F9CF80E0089581E0089582E0089585ED21
:101B90008093BC008091BC0084FDFCCF109219049E
:101BA000089585EC8093BC001092190408951F924B
:101BB0000F920FB60F9211242F933F934F935F9381
:101BC0006F937F938F939F93AF93BF93EF93FF9305
:101BD0008091B900887F803609F49EC078F58832FC
:101BE00009F45DC090F4803109F456C038F48823BC
:101BF00009F4F5C0883009F44FC0F5C0883109F404
:101C00004EC0803209F45FC0EEC0803409F46AC06F
:101C100058F4803309F457C0883309F0E4C0809346
:101C2000AC030E94D10DDFC0803509F44FC0883568
:101C300009F45DC0883409F0D6C0D3C0883909F4EE
:101C4000C4C0A8F4883709F467C038F4883609F4AA
:101C500063C0803709F460C0C6C0883809F4B5C0D5
:101C6000803909F45FC0803809F0BDC05BC0803B9B
:101C700009F483C038F4803A09F466C0883A09F45C
:101C80007CC0B1C0803C09F4A4C0883C09F4A1C068
:101C9000883B09F487C0A7C08091180410C09091B8
:101CA000F1038091F003981770F5E091F10381E062
:101CB0008E0F8093F103F0E0EE50FC4F8081809313
:101CC000BB0085EC83C08093AC038BC0E091F10333
:101CD00081E08E0F8093F1038091BB00F0E0EE5025
:101CE000FC4F80839091F1038091F0036BC0E091F1
:101CF000F10381E08E0F8093F1038091BB00F0E04F
:101D0000EE50FC4F80838091170481116AC081E0FE
:101D10008093160484EA5EC083E0809319041092D5
:101D2000AD03CFCF8091AD03803208F04EC0E0917B
:101D3000AD0381E08E0F8093AD038091BB00F0E096
:101D4000E255FC4F8083BDCF0E94D10D8091AD0341
:101D5000803230F4E091AD03F0E0E255FC4F1082A8
:101D60006091AD0370E0E0911204F09113048EEAEB
:101D700093E009951092AD0336C084E08093190476
:101D80001092CF031092CE03E0911404F091150449
:101D900009958091CE03811105C081E08093CE0327
:101DA0001092D003E091CF0381E08E0F8093CF0398
:101DB000F0E0E053FC4F80818093BB009091CF0313
:101DC0008091CE03981708F47CCF85E88093BC00FF
:101DD0000AC085EC8093BC001092190404C01092D4
:101DE000AC030E94C70DFF91EF91BF91AF919F91FE
:101DF0008F917F916F915F914F913F912F910F90B4
:101E00000FBE0F901F9018950F931F93CF93DF93E2
:101E1000EC018B0188819981DC01ED91FC916F7758
:101E20000190F081E02D099588819981DC01ED9187
:101E3000FC91B801660F672F661F770B6F770190D3
:101E4000F081E02DDF91CF911F910F910994DC017A
:101E50008D919C91DC01ED91FC910190F081E02D40
:101E600060EF0994DC018D919C91DC01ED91FC9176
:101E70000190F081E02D67EF0994CF93DF93EC019F
:101E800088819981DC01ED91FC910190F081E02D38
:101E900069EF099588819981DC01ED91FC910190B0
:101EA000F081E02D62E0099588819981DC01ED9156
:101EB000FC910190F081E02D65E0DF91CF910994D4
:101EC0001F93CF93DF93EC018A818823D9F1CE0150
:101ED0000E94270F88819981DC01ED91FC9101908E
:101EE000F081E02D69E7099588819981DC01ED9108
:101EF000FC91AB81BC810190F081E02D6C91099542
:101F000088819981DC01ED91FC91AB81BC810190CC
:101F1000F081E02D11966C91099512E08A811817D5
:101F200058F4EB81FC81E10FF11D608170E0CE017E
:101F30000E94040F1F5FF2CFCE01DF91CF911F915E
:101F40000C94320FDF91CF911F910895CF92DF92C1
:101F5000EF92FF920F931F93CF93DF938C01EB01CE
:101F6000C42ED22E65E072E0CE010E94AF207C012B
:101F70006FE270E0CE010E94A420009739F46CE576
:101F800070E0CE010E94A420009711F0EC01219690
:101F9000E114F10451F4FE0101900020E9F7EC1B7B
:101FA000EF5FD8011296EC9306C0EC1AFD0AE39499
:101FB000E394F801E282D80113968D919C911497D5
:101FC0000E940620F801E280F12CC70101960E94D0
:101FD0006E1FD80114969C938E931397FC01EE0DFF
:101FE000FF1D1082FC01C082D18212964C9150E0FC
:101FF00042505109BE010296DF91CF911F910F917E
:10200000FF90EF90DF90CF900C949520DC018D91A4
:102010009C91DC01ED91FC910480F581E02D099407
:102020000F931F93CF93DF93FC012085213749F055
:10203000293709F049C0DF91CF911F910F910C947E
:10204000600FFC01ED54FF4F0190F081E02D3097BF
:1020500009F450C0DC01A75BBF4F4D915C919A0120
:102060002150310937FD9A01B90175956795062F01
:1020700040E050E020E030E04E5F5F4F2017A0F4DA
:10208000EC01C40FD51F1F81DC01A20FB31F1896EE
:102090001C931897C885D0E8CD9F10191124189665
:1020A0001C932F5F3F4FE8CFDC01A60FB11D1796A1
:1020B0002C911797222311F018961C920896DF9105
:1020C000CF911F910F910994FC01EB54FF4F0190A8
:1020D000F081E02D309771F0AC01475F5F4FDC017C
:1020E000A75BBF4F6C916150822FDF91CF911F9101
:1020F0000F910994DF91CF911F910F9108950F9344
:102100001F93CF93DF93EC018A0188819981DC01D1
:10211000ED91FC916F70606E0190F081E02D09955A
:10212000B801CE01DF91CF911F910F910C94040F54
:102130000F931F93CF93DF93EC018A0188819981DC
:10214000DC01ED91FC916F7060690190F081E02DF0
:10215000099588819981DC01ED91FC91602F6F7761
:102160000190F081E02D099588819981DC01ED9144
:10217000FC91B801660F672F661F770B0190F08105
:10218000E02DDF91CF911F910F910994CF92DF92B3
:10219000EF92FF920F931F93CF93DF9300D01F9284
:1021A000CDB7DEB78C01F42E2A833B8369830E946E
:1021B000270FD8018D919C91DC01ED91FC9101904C
:1021C000F081E02D698109952A81E22EC22E3B81A2
:1021D000D32E8C2D8E198F1540F4F60161916F016D
:1021E00070E0C8010E94040FF4CFC8010F900F9057
:1021F0000F90DF91CF911F910F91FF90EF90DF90A3
:10220000CF900C94320F9A01613751F4FA0101908A
:102210000020E9F73197E41BF50B4E2F0C94C61004
:102220000895AB0161E70C940311DC018D919C9141
:10223000DC01ED91FC910190F081E02D0994603D6D
:10224000C1F028F4603969F0603C79F00895643F8A
:10225000A1F0653FB1F0603EC9F4FC01EB55FF4FC2
:1022600013C0FC01E955FF4F0FC0FC01E755FF4FBC
:102270000BC0FC01E555FF4F07C0FC01E355FF4FC4
:1022800003C0FC01E155FF4F5183408308956F3F28
:1022900029F4FC01EF54FF4F5183408308958B5480
:1022A0009F4FFC01518340830895FC0115821682E3
:1022B000178280E090E0DF01A80FB91F18961C92EA
:1022C000019680349105B9F7DF01A85BBF4F1C92DE
:1022D00011961D921C92EF54FF4F0190F081E02D5A
:1022E000309709F009940895FC01E954FF4F1082DA
:1022F000FC011282148213820C945511CF93DF9348
:10230000EC01FC01E85BFF4F80818823A1F0673F6F
:1023100031F41082CE01DF91CF910C941010FE01A8
:10232000E75BFF4F80819181C80FD91F68870196B5
:102330009183808398C08D81882309F452C067FD02
:1023400050C081508D83FE01E80FF11D608781111F
:102350008AC08E81882309F486C0803DA1F140F4B3
:10236000803981F0803CD9F5FE01E755FF4F2EC042
:10237000843FC9F0853FD9F0803E89F5FE01EB55D9
:10238000FF4F03C0FE01E955FF4F0190F081E02DA2
:10239000309729F18885698570E090E8899F600D04
:1023A000711D11241AC0FE01E355FF4F03C0FE0149
:1023B000E155FF4F0190F081E02D309781F0688565
:1023C00070E089850BC0FE01E555FF4F0190F0815B
:1023D000E02D309721F0688570E08F8109951E828D
:1023E00042C0862F603F28F4807F90E06F706F833B
:1023F00001C090E0803F910549F17CF4803C91055B
:1024000009F124F480399105D9F02DC0803D910562
:10241000C9F0803E9105A1F026C0893F9105E9F001
:102420003CF49C01245F31092230310548F01BC087
:102430008F3F9105C1F4CE01DF91CF910C945511DE
:1024400092E001C091E09D838E830DC081E0808386
:10245000C75BDF4F1982188206C08AE194E0DF91E2
:10246000CF910C943D0FDF91CF910895CF93DF93DF
:10247000EC0188819981DC01ED91FC910680F78166
:10248000E02D09958F3FBFEF9B0731F0682FCE01FC
:10249000DF91CF910C947E11DF91CF9108957F92BF
:1024A0008F929F92AF92BF92CF92DF92EF92FF9264
:1024B0000F931F93CF93DF93762EEA01680110E00C
:1024C000EE24D7FCE094FE2C4901AA2497FCA094AA
:1024D000BA2C212F30E02C173D0794F4C701B60128
:1024E0000E94DC1361E0872D0E94B315C501B40181
:1024F0000E94DC1360E0872D0E94B3151F5FE9CFB7
:10250000DF91CF911F910F91FF90EF90DF90CF90CF
:10251000BF90AF909F908F907F9008950F931F93DF
:10252000CF93DF93EC01FC01E954FF4F80818111CF
:1025300026C061E08DE00E947A1502ED10E028E2ED
:1025400030E042E050E06DE0CE010E944F126AEFB1
:1025500070E080E090E00E94DC1328E230E045E08B
:1025600050E06DE0CE010E944F126DE770E080E018
:1025700090E0DF91CF911F910F910C94DC13DF91CC
:10258000CF911F910F910895CF93DF93EC0185E2D6
:1025900095E00E94031785E295E099838883CE0138
:1025A0000E948E12CE010E943D0FCE01DF91CF918D
:1025B0000C94600F8AE194E00C9474110F9300E086
:1025C00020E040E060E082ED94E00E94E8180F9186
:1025D00008951F920F920FB60F9211242F933F93DD
:1025E0004F935F936F937F938F939F93AF93BF931B
:1025F000EF93FF93E0911A05F0911B05309709F4D2
:1026000051C0868DA685B785958581FF04C08C91C4
:10261000892329F447C08C91892309F043C0A389F9
:10262000B4899C918589809589238C938689978923
:102630000197F1F7208D318DA685B785758558E016
:1026400040E0C9010197F1F7842F90E095958795B7
:10265000482F6C91672309F04068515091F7868D9F
:1026600081FD40958091D90490E001968F73992760
:102670002091D804281749F0A091D904B0E0A652BF
:10268000BB4F4C938093D90403C0868D8160868FA5
:10269000828D938D0197F1F7A389B4898C919589E7
:1026A000892B8C93FF91EF91BF91AF919F918F9167
:1026B0007F916F915F914F913F912F910F900FBE3E
:1026C0000F901F9018951F920F920FB60F92112422
:1026D0002F933F938F939F93AF93BF9380911D054B
:1026E00090911E05A0911F05B091200530911C0509
:1026F00026E0230F2D3720F40296A11DB11D05C041
:1027000029E8230F0396A11DB11D20931C0580937A
:102710001D0590931E05A0931F05B0932005809181
:10272000210590912205A0912305B09124050196E1
:10273000A11DB11D8093210590932205A09323052F
:10274000B0932405BF91AF919F918F913F912F91AD
:102750000F900FBE0F901F9018952FB7F8946091AF
:102760001D0570911E0580911F05909120052FBFBA
:1027700008953FB7F8948091210590912205A0918A
:102780002305B091240526B5A89B05C02F3F19F05D
:102790000196A11DB11D3FBF6627782F892F9A2F63
:1027A000620F711D811D911D43E0660F771F881F09
:1027B000991F4A95D1F708958F929F92AF92BF9239
:1027C000CF92DF92EF92FF926B017C010E94B913CE
:1027D0004B015C01C114D104E104F104F1F00E9449
:1027E000551E0E94B913681979098A099B09683E28
:1027F00073408105910570F321E0C21AD108E10808
:10280000F10888EE880E83E0981EA11CB11CC1144B
:10281000D104E104F10429F7DDCFFF90EF90DF90C0
:10282000CF90BF90AF909F908F9008958330910587
:1028300028F0880F991F04970197F1F7089578946D
:1028400084B5826084BD84B5816084BD85B58260B5
:1028500085BD85B5816085BDEEE6F0E08081816053
:102860008083E1E8F0E01082808182608083808153
:1028700081608083E0E8F0E0808181608083E1E92D
:10288000F0E0808182608083808181608083E0E9E4
:10289000F0E0808181608083E1ECF0E08081846001
:1028A0008083808182608083808181608083E3EC8B
:1028B000F0E0808181608083E0ECF0E080818260E4
:1028C0008083E2ECF0E0808181608083EAE7F0E0E1
:1028D00080818460808380818260808380818E7F1C
:1028E00080838081806880830895823108F08251DE
:1028F000E82FF0E0E45FFE4FE49180917B00E3FB82
:10290000222720F930E095E0220F331F9A95E1F756
:102910008F7D822B80937B00E77080910D0120E4F6
:10292000829FC0011124E82BE0937C0080917A0003
:10293000806480937A0080917A0086FDFCCF80913C
:1029400078002091790090E0922B08951F93CF9307
:10295000DF93182FEB0161E00E947A15209711F4A4
:1029600060E004C0CF3FD10539F461E0812FDF91F1
:10297000CF911F910C94B315E12FF0E0E85EFE4F6C
:10298000449150E0FA013197EF30F10508F06CC046
:10299000E859FF4F0C944E1F84B5806884BDC7BDB5
:1029A00068C084B5806284BDC8BD63C0809180006A
:1029B000806880938000D0938900C093880059C0BC
:1029C00080918000806280938000D0938B00C093C0
:1029D0008A004FC080918000886080938000D093EF
:1029E0008D00C0938C0045C08091900080688093DA
:1029F0009000D0939900C09398003BC080919000C4
:102A0000806280939000D0939B00C0939A0031C065
:102A100080919000886080939000D0939D00C09337
:102A20009C0027C08091C00080688093C000809186
:102A3000C0008F7B8093C000C093CF001AC08091EC
:102A4000C00080628093C000C093D00012C080910B
:102A5000C20088608093C2008091C2008B7F809307
:102A6000C200C093D20005C0C038D1050CF07DCFA4
:102A700077CFDF91CF911F91089590E0FC013197BE
:102A8000EF30F105B0F5E958FF4F0C944E1F8091DF
:102A900080008F7703C0809180008F7D80938000BD
:102AA000089580918000877FF9CF84B58F7702C029
:102AB00084B58F7D84BD0895809190008F7707C085
:102AC000809190008F7D03C080919000877F8093DC
:102AD000900008958091C0008F7703C08091C0005E
:102AE0008F7D8093C00008958091C200877F80937E
:102AF000C2000895CF93DF9390E0FC01E95CFE4FA4
:102B00002491FC01EA5AFE4F8491882349F190E018
:102B1000880F991FFC01EF56FE4FA591B4918D5778
:102B20009E4FFC01C591D4919FB7611108C0F894E4
:102B30008C91209582238C93888182230AC06230F5
:102B400051F4F8948C91322F309583238C938881A3
:102B5000822B888304C0F8948C91822B8C939FBF26
:102B6000DF91CF9108950F931F93CF93DF931F921F
:102B7000CDB7DEB7282F30E0F901E85EFE4F849133
:102B8000F901E95CFE4F1491F901EA5AFE4F0491F4
:102B90000023C9F0882321F069830E943D156981D3
:102BA000E02FF0E0EE0FFF1FED57FE4FA591B4911F
:102BB0009FB7F8948C91611103C01095812301C0D7
:102BC000812B8C939FBF0F90DF91CF911F910F911D
:102BD0000895CF93DF93282F30E0F901E85EFE4F90
:102BE0008491F901E95CFE4FD491F901EA5AFE4F54
:102BF000C491CC2391F081110E943D15EC2FF0E09F
:102C0000EE0FFF1FEB58FE4FA591B4912C912D2391
:102C100081E090E021F480E002C080E090E0DF916C
:102C2000CF910895CF93DF931F92CDB7DEB769831D
:102C3000DC01ED91FC910280F381E02D41E050E058
:102C4000BE016F5F7F4F09950F90DF91CF9108957F
:102C5000CF93DF93EC018C859D8597FF05C082E0C3
:102C60000E94BC1A9D878C878C859D85DF91CF91B2
:102C7000089583E00C94501DFC018485958597FD93
:102C800006C082E00E94641A90E00196089582E0F6
:102C90000E94641A90E00895FC018485958597FD53
:102CA00005C02FEF3FEF35872487089582E00C940D
:102CB000BC1ACF93DF93EC0180911901882331F086
:102CC00083E00E94ED1A1816190634F081E090E0B6
:102CD0009B838A8380E090E0DF91CF910895FC018F
:102CE00020812E5F208342E450E06FE971E080E8AC
:102CF0000C94881BFC0121818081813A59F4213296
:102D000009F04BC047E050E062E171E080E00E94D2
:102D1000881B5EC0813209F040C0233289F4838170
:102D200090E0982F88273281832BA0E0B0E0809339
:102D30000E0190930F01A0931001B09311010FC0E9
:102D4000203239F467E070E082E191E00E94B91B23
:102D500009C0223221F482818093190103C02D7FA2
:102D60002032B1F580917505811103C0E0E0F8E0F3
:102D700002C0EEEFFAE08091120190911301A09150
:102D80001401B0911501803B9440A105B10511F5E6
:102D90008091190180FF03C01DC080E00895EE3FBF
:102DA0002AE0F20731F0808191819093FF0A8093AD
:102DB000FE0A87E797E7918380832BE088E190E024
:102DC0000FB6F894A895809360000FBE2093600022
:102DD00081E0089588E10FB6F89480936000109226
:102DE00060000FBEA895EE3F8AE0F80739F08091A9
:102DF000FE0A9091FF0A91838083EACF1092FF0A26
:102E00001092FE0AE5CF2FEF3FEFFC0135872487B4
:102E10000895109228051092270588EE93E0A0E00F
:102E2000B0E08093290590932A05A0932B05B093D9
:102E30002C058EE092E090932605809325058FEF78
:102E40009FEF90933205809331050895FC01818DA9
:102E5000228D90E0805C9F4F821B91098F73992790
:102E60000895FC01918D828D981731F0828DE80FC5
:102E7000F11D858D90E008958FEF9FEF0895FC017F
:102E8000918D828D981761F0828DDF01A80FB11DA1
:102E90005D968C91928D9F5F9F73928F90E00895C5
:102EA0008FEF9FEF089581E698E1892B49F080E04C
:102EB00090E0892B29F00E94611881110C94000088
:102EC0000895FC01848DDF01A80FB11DA35ABF4FE7
:102ED0002C91848D90E001968F739927848FA68919
:102EE000B7892C93A089B1898C9180648C93938D40
:102EF000848D981306C00288F389E02D80818F7D30
:102F000080830895CF93DF93EC01888D8823C9F0E7
:102F1000EA89FB89808185FD05C0A889B9898C91E2
:102F200086FD0FC00FB607FCF5CF808185FFF2CF7D
:102F3000A889B9898C9185FFEDCFCE010E946117D8
:102F4000E7CFDF91CF910895CF92DF92FF920F9359
:102F50001F93CF93DF931F92CDB7DEB76C0181E053
:102F6000D60158968C9358975B969C915B975C968C
:102F70008C915C97981307C05096ED91FC915197F6
:102F8000808185FD2EC0F601038D10E00F5F1F4F7D
:102F90000F731127F02EF601848DF81211C00FB6B1
:102FA00007FCF9CFD6015096ED91FC9151978081A5
:102FB00085FFF1CFC60169830E9461176981EBCF5C
:102FC000838DE80FF11DE35AFF4F6083D6015B96B6
:102FD0000C935B975296ED91FC91539780818062A0
:102FE0000CC0D6015696ED91FC9157976083509690
:102FF000ED91FC91519780818064808381E090E025
:103000000F90DF91CF911F910F91FF90DF90CF90A4
:1030100008951F920F920FB60F9211242F938F9342
:103020009F93EF93FF93E0918605F0918705808150
:10303000E0918C05F0918D0582FD12C09081809108
:103040008F058F5F8F7320919005821751F0E0916B
:103050008F05F0E0EA58FA4F958F80938F0501C0F5
:103060008081FF91EF919F918F912F910F900FBED3
:103070000F901F9018951F920F920FB60F92112468
:103080002F933F934F935F936F937F938F939F9370
:10309000AF93BF93EF93FF9386E795E00E9461178C
:1030A000FF91EF91BF91AF919F918F917F916F9120
:1030B0005F914F913F912F910F900FBE0F901F90F6
:1030C000189586E795E00E94261721E0892B09F4E0
:1030D00020E0822F0895109279051092780588EEED
:1030E00093E0A0E0B0E080937A0590937B05A093F5
:1030F0007C05B0937D058EE192E0909377058093F7
:1031000076058DEC90E090938305809382058CEC9E
:1031100090E0909385058093840588EC90E09093EF
:1031200087058093860589EC90E0909389058093CC
:1031300088058AEC90E090938B0580938A058EEC4D
:1031400090E090938D0580938C0510928F051092DE
:10315000900510929105109292050895AF92BF923A
:10316000CF92DF92EF92FF920F931F93CF93DF9353
:103170006C017B01C0E0D0E000E010E0F601EC0F54
:10318000FD1F4AE050E06281C7010E94A4195C0162
:103190006EE2C7010E9441198A0D9B1D080F191F7D
:1031A0002196C330D10551F74AE050E0F601658120
:1031B000C7010E94A419800F911FDF91CF911F9129
:1031C0000F91FF90EF90DF90CF90BF90AF90089558
:1031D0000F93FC018EE292E09183808362834383AC
:1031E000248305830F9108958EE292E09093140654
:1031F0008093130610921506109216061092170669
:10320000109218060895CF92DF92EF92FF920F93DB
:103210001F93CF93DF937C016A01EB0100E010E084
:103220000C151D0571F06991D701ED91FC9101908C
:10323000F081E02DC7010995892B19F00F5F1F4F11
:10324000EFCFC801DF91CF911F910F91FF90EF90C9
:10325000DF90CF9008956115710581F0DB010D902D
:103260000020E9F7AD0141505109461B570BDC0125
:10327000ED91FC910280F381E02D099480E090E0D3
:103280000895DC01ED91FC910190F081E02D09940D
:103290008F929F92AF92BF92DF92EF92FF920F9325
:1032A0001F93CF93DF93CDB7DEB7A1970FB6F894F6
:1032B000DEBF0FBECDBF7C01F42FD52ECB0119A2EE
:1032C000223008F42AE08E010F5D1F4F822E912CD0
:1032D000A12CB12C6F2F7D2DA50194010E940D1FF3
:1032E000F22FD32ECA01015011096A3014F4E0E321
:1032F00001C0E7E3E60FD801EC93232B242B252B09
:1033000049F7B801C7010E942B19A1960FB6F8948E
:10331000DEBF0FBECDBFDF91CF911F910F91FF9008
:10332000EF90DF90BF90AF909F908F900895211500
:10333000310541F4DC01ED91FC910190F081E02D2B
:10334000642F09940C9448199A01462F50E060E0CC
:1033500070E00C949719615030F02091F100FC015D
:1033600020830196F8CF289884E68093220608955A
:1033700040911D0650911E0620911B0630911C069F
:1033800042175307B4F49091E8009570E1F39091DF
:10339000E80092FD19C08093F10080911D06909184
:1033A0001E0601968F739927892B19F48EEF80934F
:1033B000E80080911D0690911E06019690931E06CE
:1033C00080931D0681E0089580E00895CF92DF92FA
:1033D000EF92FF920F931F93CF93DF931F92CDB77E
:1033E000DEB7082F162FF42E862F880F8E5F998355
:1033F0000E94B81983E00E94B819E02EC02E99816E
:10340000D92E8C2D8E19811798F4F601F7FE02C083
:10341000849101C080810E94B819082F80E00E9429
:10342000B8198023FFEFCF1ADF0A8111EACF01C05C
:1034300081E00F90DF91CF911F910F91FF90EF905E
:10344000DF90CF9008958091D70081608093D7005E
:1034500080EA8093D80089B58F7E89BD89B5826066
:1034600089BD09B400FEFDCF61E070E080E090E02E
:103470000E94DC138091D8008F7C80618093D800FB
:103480008091E000807F8093E0000895CF93DF93E8
:103490001F92CDB7DEB71982CE0101960E946F163A
:1034A0000E94DD1EBE016F5F7F4F0E94561E898104
:1034B0000F90DF91CF9108952FB7FC012083F894EE
:1034C00067706093E9000895CF93DF931F92CDB7A3
:1034D000DEB7682FCE0101960E945C1A8091F2003F
:1034E00099819FBF0F90DF91CF910895FF920F9325
:1034F0001F93CF93DF9300D0CDB7DEB7F62E8A01AE
:1035000090912106992311F057FF03C08FEF9FEF91
:103510002BC0682FCE0101967A830E945C1A80919D
:10352000F20090E0A8017A81801791070CF4AC01B9
:10353000EF2DF72FF40E84E6FE1639F028988093CD
:1035400022069091F1009193F7CF4115510521F09A
:103550008091F200882321F089818FBFCA0104C0C5
:103560008BE68093E800F8CF0F900F90DF91CF911A
:103570001F910F91FF900895CF93DF931F92CDB7C6
:10358000DEB741E050E0BE016F5F7F4F0E94761AC8
:10359000019719F4898190E002C08FEF9FEF0F909F
:1035A000DF91CF910895CF93DF931F92CDB7DEB710
:1035B000682FCE0101960E945C1A9091E800892F35
:1035C000807295FF04C09091F20080E4891B99817C
:1035D0009FBF0F90DF91CF9108956F927F928F924E
:1035E0009F92AF92BF92CF92DF92EF92FF920F9392
:1035F0001F93CF93DF931F92CDB7DEB7782E7B0159
:10360000C42EB52E80912106882369F0042F152F32
:103610008AEFD82E872D8072982E9AE3A92E872DB7
:103620008074882E11C08FEF9FEF57C0872D0E94A6
:10363000D31A682E81110CC0DA94A9F361E070E00E
:1036400080E090E00E94DC130115110579F73BC082
:10365000282F30E0021713070CF4602E672DCE01DF
:1036600001960E945C1A8091E80085FF29C0262DF2
:1036700030E0021B130B992039F06A948FEF681623
:10368000B1F01092F100F9CFF701862D77FE07C057
:10369000815058F094919093F1003196F9CF815078
:1036A00020F091919093F100FACFE20EF31E8091F9
:1036B000E80085FF0FC00115110511F481100AC043
:1036C00089818FBFC1CF5D9884E6809323068C2DBE
:1036D0009B2D03C0A092E800F3CF0F90DF91CF9114
:1036E0001F910F91FF90EF90DF90CF90BF90AF9020
:1036F0009F908F907F906F9008951092E9001092A4
:103700001E0610921D0690931C0680931B060895BA
:10371000CF92DF92FF920F931F93CF93DF9300D04E
:10372000CDB7DEB7F82E8A016B0101151105B1F096
:10373000F601F7FE02C0849101C0808149835A835B
:103740000E94B81901501109FFEFCF1ADF0A498111
:103750005A818111EACF8FEF9FEF01C0CA010F900C
:103760000F90DF91CF911F910F91FF90DF90CF903D
:103770000895BF92CF92DF92EF92FF920F931F9323
:10378000CF93DF936C018B01EB013BEFB32E2097BE
:10379000C1F07E01C134D1051CF020E4E22EF12CF1
:1037A0008091E80082FFFCCFC8018C1B9D0B6E2D21
:1037B0008C0D9D1D0E94AB19B092E800CE19DF0957
:1037C000E6CFC801DF91CF911F910F91FF90EF904D
:1037D000DF90CF90BF9008951F920F920FB60F9277
:1037E0001124DF92EF92FF920F931F932F933F9339
:1037F0004F935F936F937F938F939F93AF93BF93F9
:10380000EF93FF93CF93DF93CDB7DEB76C97DEBF17
:10381000CDBF1092E9008091E80083FF23C168E0EA
:10382000CE0145960E94AB1982EF8093E8003D8956
:1038300037FF05C08091E80080FFFCCF03C08EEF0A
:103840008093E800832F807609F0F0C02E894F899D
:10385000D88C21110CC0303829F480912006809337
:10386000F10002C01092F1001092F100F4C0842F18
:1038700090E09D29213049F43111EDC0019709F004
:10388000EAC0809120068D7F0AC0233059F431119F
:10389000E2C0019709F0DFC080912006826080932A
:1038A0002006D9C0253041F48091E80080FFFCCF8C
:1038B00040684093E300CFC0263009F08DC0EB8C08
:1038C000FC8C22E0D2122CC080E090E00E947D1B94
:1038D0000E94461A99E08E010F5F1F4FF801292FB1
:1038E00011922A95E9F79983DA8291E09E8390EA12
:1038F00098879AEF998720911D0630911E06275FC1
:103900003F4F3C832B838D83C7010E947D1B49E081
:1039100050E0B80180E00E94881B0E94461A9BC0BC
:10392000C7010E947D1B0E94DD1EBE016B5E7F4FA2
:103930000E947F1E009719F00CF08DC090C081E0AE
:10394000D8120EC08B8D9C8D089719F481E080935E
:103950001A0680911A0681112FC063EF71E031C001
:10396000E3E0DE127CC08F89882349F1823029F49C
:1039700040E86BE08EE092E01CC0813029F440E822
:1039800068E085E092E015C0833009F068C00E94CD
:10399000DD1E8E010F5F1F4FB8010E949E1EF801B1
:1039A00001900020E9F73197E01BF10B40E06E2F0A
:1039B000C8010E94E6194DC061EE71E002C06AE1E3
:1039C00072E06115710509F44AC0FB01449150E0B1
:1039D00080E80E94881B3FC0273009F440C028308F
:1039E00021F481E08093F10036C02930A1F53370D5
:1039F000B1F5EBE1F1E081E021E036E3908199233C
:103A000061F08093E9002093EB0091919093EC009A
:103A10003093ED008F5F873089F78EE78093EA005F
:103A20001092EA008F898093210615C08B8D9C8DA2
:103A30000E947D1B898D811105C0CE0145960E9493
:103A40007A1607C00E94DD1EBE016B5E7F4F0E948A
:103A5000BD1E882321F08EEF8093E80003C081E231
:103A60008093EB006C960FB6F894DEBF0FBECDBF0F
:103A7000DF91CF91FF91EF91BF91AF919F918F9186
:103A80007F916F915F914F913F912F911F910F9176
:103A9000FF90EF90DF900F900FBE0F901F90189542
:103AA0008093E9008091F200882319F08AE38093E3
:103AB000E80008951F920F920FB60F9211242F93D2
:103AC0003F934F935F936F937F938F939F93AF93A6
:103AD000BF93CF93EF93FF93C091E1008091E100FA
:103AE000837F8093E1008093E100C3FF0FC01092B9
:103AF000E90081E08093EB001092EC0082E3809378
:103B0000ED001092210688E08093F000C2FF19C0FA
:103B100083E00E94501D80912306882339F0809114
:103B20002306815080932306882389F18091220601
:103B3000882339F0809122068150809322068823C1
:103B400041F1C4FF10C08091E2008E7E81608093BD
:103B5000E2008091E1008F7E8093E10080911F065A
:103B60008E7E806111C0C0FF16C08091E2008E7E03
:103B700080618093E2008091E1008E7E8093E1007D
:103B800080911F068E7E816080931F0604C05D9A1F
:103B9000CDCF289AD6CFFF91EF91CF91BF91AF9122
:103BA0009F918F917F916F915F914F913F912F9155
:103BB0000F900FBE0F901F90189510922106109233
:103BC000200610921F060E94231A8091E1008E7E2B
:103BD0008093E1008DE08093E200559A209AEEEF09
:103BE000FFE7859194918B3F9C4D19F481E0809380
:103BF000750508954F925F926F927F92AF92BF9238
:103C0000CF92DF92EF92FF920F931F93CF93DF93A8
:103C1000CDB7DEB729013A01621B730B840B950BFC
:103C200029893A894B895C892A193B094C095D0924
:103C3000298B3A8B4B8B5C8B9B01AC0169897A8910
:103C40008B899C890E94F11EE418F5080609170962
:103C5000A80197010E942F1F2A0D3B1D4C1D5D1DC1
:103C6000CA01B901DF91CF911F910F91FF90EF90A1
:103C7000DF90CF90BF90AF907F906F905F904F900C
:103C8000089508950E941F140E94411E89E196E044
:103C90000E94DD1D0E940506C3E5D7E10E942209AE
:103CA0002097E1F30E945317F9CF0895EF92FF9206
:103CB0000F931F93CF93DF937B01FC01C281D381CC
:103CC00000E010E0209781F0E881F9810280F38123
:103CD000E02DB701CE01099597FD08C0080F191F07
:103CE0000884D985C02DEECFC80102C08FEF9FEFA9
:103CF000DF91CF911F910F91FF90EF9008950F9357
:103D00001F93CF93DF938B01FC01C281D381209756
:103D100071F0E881F9810480F581E02DB801CE01D0
:103D20000995009731F40884D985C02DF0CF80E043
:103D300090E0DF91CF911F910F9108950F931F9302
:103D4000CF93DF938B01FC01C281D381209771F067
:103D5000E881F9810680F781E02DB801CE0109954F
:103D6000080F111D0884D985C02DF0CFF8011082ED
:103D7000DF91CF911F910F9108950F931F93CF93D0
:103D8000DF938B01FC01C281D381209771F0E88120
:103D9000F9810190F081E02DB801CE0109958111E2
:103DA00006C00884D985C02DF0CF80E001C081E035
:103DB000DF91CF911F910F91089580912806811175
:103DC0000DC082E08093240684E080932506109243
:103DD00027061092260681E08093280684E296E06A
:103DE0000895DB018F939F930E94541FBF91AF9161
:103DF000A29F800D911DA39F900DB29F900D112445
:103E00000895991B79E004C0991F961708F0961B36
:103E1000881F7A95C9F780950895A1E21A2EAA1BEA
:103E2000BB1BFD010DC0AA1FBB1FEE1FFF1FA2176A
:103E3000B307E407F50720F0A21BB30BE40BF50B67
:103E4000661F771F881F991F1A9469F760957095F0
:103E5000809590959B01AC01BD01CF010895052E81
:103E600097FB1EF400940E94461F57FD07D00E9446
:103E70000D1F07FC03D04EF40C94461F509540953F
:103E8000309521953F4F4F4F5F4F08959095809506
:103E9000709561957F4F8F4F9F4F0895EE0FFF1FD5
:103EA0000590F491E02D09940E945F1FA59F900D4D
:103EB000B49F900DA49F800D911D11240895A29F81
:103EC000B001B39FC001A39F700D811D1124911DEE
:103ED000B29F700D811D1124911D0895CF93DF9322
:103EE0008230910510F482E090E0E0913206F0918A
:103EF000330620E030E0A0E0B0E0309739F14081B7
:103F0000518148175907B8F04817590771F4828151
:103F10009381109729F013969C938E9312972CC03F
:103F2000909333068093320627C02115310531F076
:103F30004217530718F0A901DB0101C0EF019A01F4
:103F4000BD01DF010280F381E02DD7CF21153105BE
:103F5000F9F0281B390B2430310580F48A819B81CC
:103F60006115710521F0FB019383828304C0909356
:103F7000330680933206FE01329644C0FE01E20F02
:103F8000F31F8193919322503109398328833AC0DA
:103F90002091300630913106232B41F4209102010B
:103FA00030910301309331062093300620910001B7
:103FB000309101012115310541F42DB73EB74091F3
:103FC000040150910501241B350BE0913006F0915E
:103FD0003106E217F307A0F42E1B3F0B2817390711
:103FE00078F0AC014E5F5F4F2417350748F04E0F55
:103FF0005F1F50933106409330068193919302C026
:10400000E0E0F0E0CF01DF91CF910895CF93DF930F
:10401000009709F487C0FC01329713821282C09185
:104020003206D0913306209781F420813181280F08
:10403000391F80913006909131068217930779F5E8
:10404000F0933106E09330066DC0DE0120E030E0F1
:10405000AE17BF0750F412964D915C9113979D01D6
:104060004115510509F1DA01F3CFB383A2834081F1
:104070005181840F951F8A179B0771F48D919C9134
:104080001197840F951F02969183808312968D91CC
:104090009C911397938382832115310529F4F09322
:1040A0003306E09332063EC0D9011396FC93EE939B
:1040B00012974D915D91A40FB51FEA17FB0779F494
:1040C00080819181840F951F0296D90111969C934E
:1040D0008E938281938113969C938E931297E0E046
:1040E000F0E08A819B81009719F0FE01EC01F9CF85
:1040F000CE01029628813981820F931F20913006CC
:10410000309131062817390769F4309729F4109255
:1041100033061092320602C013821282D093310607
:10412000C0933006DF91CF910895FB01DC0141502F
:10413000504048F001900D920020C9F701C01D9237
:1041400041505040E0F70895FC0181E090E001907B
:10415000061609F4CF010020D1F701970895FB015D
:1041600051915523A9F0BF01DC014D914517411133
:10417000E1F759F4CD010190002049F04D9140152F
:104180004111C9F3FB014111EFCF81E090E00197AC
:064190000895F894FFCF32
:1041960000003406800001000000FF130001FFFF4D
:1041A600FFFF00E100000000000000C18081000068
:1041B600004D617820736572766F73206174746147
:1041C6006368656400556E6B6E6F776E2070696EFE
:1041D600206D6F6465002F746D702F617672706943
:1041E6007A7A612F30646330333634302D6261342D
:1041F600312D313165362D613737642D35623264A4
:1042060066313233653563632F736B657463682F6C
:10421600736B657463682E696E6F004932433A208A
:10422600546F6F206D616E792062797465732072A8
:1042360065636569766564004932433A20546F6F59
:104246002066657720627974657320726563656997
:104256007665640031302D6269742061646472652C
:104266007373696E67206E6F7420737570706F72EA
:1042760074656400746F6F206D616E792071756569
:10428600726965730000000000200CF30BC80BD0A8
:104296000BE30BF20B2E6370700000000000121689
:1042A60059163C164C162816391600000000A4179D
:1042B600031926173F173117821700000000AE18A2
:00000001FF
