:100000000C9418010C942C010C942C010C942C01D0
:100010000C942C010C942C010C942C010C942C01AC
:100020000C942C010C942C010C942C010C942C019C
:100030000C942C010C942C010C942C010C942C018C
:100040000C942C010C942C010C942C010C942C017C
:100050000C942C010C942C010C942C010C94460152
:100060000C942C010C942C010C942C010C942C015C
:100070000C942C010C942C010C942C010C942C014C
:100080000C942C010C942C010C942C010C942C013C
:100090000C942C010C942C010C942C010C942C012C
:1000A0000C942C010C942C010C942C010C942C011C
:1000B0000C942C010C942C010C942C010C942C010C
:1000C0000C942C010C942C010C942C010C942C01FC
:1000D0000C942C010C942C010C942C010C942C01EC
:1000E0000C942C010C942C010C942C010C942C01DC
:1000F0000C942C010C942C010C942C010C942C01CC
:100100000C942C010C942C010C942C010C942C01BB
:100110000C942C010C942C010C942C010C942C01AB
:100120000C942C010C942C010C942C010C942C019B
:100130000C942C015602590248024C0252029002C1
:100140005D02610267026B026F02750279027D0235
:100150009002830287028B020C9461020C94870246
:100160000C9490020C9459020C944C020C9483024F
:100170000C946F020C9456020C9448020C948B025F
:100180000C946B020C9467020C947D020C945D023B
:100190000C9475020C9452020C947902000001092F
:1001A0000A0B00000000000000000000000000003A
:1001B00000070304000000000000000001028008A6
:1001C00010200440200104080204080102108040AD
:1001D000801020400102040810204080050502051F
:1001E00005050505040202020204040404040504D2
:1001F00004020202060606060606060600000000C5
:10020000250000002B002E0031003400000000000B
:1002100000000000000000000000240000002A0090
:100220002D0030003300000000000000000000003E
:1002300011241FBECFEFD1E8DEBFCDBF00E00CBF61
:1002400022E0A0E0B2E001C01D92A930B207E1F7C0
:100250000E9401030C9417030C94000061E087E1F5
:100260000C94910261E087E10E94CA0268EE73E09B
:1002700080E090E00E94B30160E087E10E94CA0242
:1002800068EE73E080E090E00C94B3011F920F924F
:100290000FB60F9211242F933F938F939F93AF9399
:1002A000BF938091010290910202A0910302B0914C
:1002B00004023091000223E0230F2D3720F4019631
:1002C000A11DB11D05C026E8230F0296A11DB11D79
:1002D000209300028093010290930202A0930302F4
:1002E000B09304028091050290910602A09107024A
:1002F000B09108020196A11DB11D80930502909353
:100300000602A0930702B0930802BF91AF919F919C
:100310008F913F912F910F900FBE0F901F901895C6
:100320003FB7F8948091050290910602A0910702D0
:10033000B091080226B5A89B05C02F3F19F0019681
:10034000A11DB11D3FBF6627782F892F9A2F620FFD
:10035000711D811D911D42E0660F771F881F991F37
:100360004A95D1F70895CF92DF92EF92FF92CF9303
:10037000DF936B017C010E949001EB01C114D10459
:10038000E104F10489F00E9410030E9490016C1BAB
:100390007D0B683E734090F381E0C81AD108E108F4
:1003A000F108C851DC4FEACFDF91CF91FF90EF9079
:1003B000DF90CF900895789484B5826084BD84B531
:1003C000816084BD85B5826085BD85B5816085BD50
:1003D000EEE6F0E0808181608083E1E8F0E0108269
:1003E000808182608083808181608083E0E8F0E0AA
:1003F000808181608083E1EBF0E080818460808394
:10040000E0EBF0E0808181608083E1E9F0E08081D1
:1004100082608083808181608083E0E9F0E0808178
:1004200081608083E1EAF0E0808182608083808166
:1004300081608083E0EAF0E0808181608083E1E296
:10044000F1E0808182608083808181608083E0E24E
:10045000F1E0808181608083EAE7F0E08081846060
:1004600080838081826080838081816080838081BD
:10047000806880831092C100089590E0FC0131975C
:10048000E231F10508F04CC0E656FF4F0C94110321
:10049000809180008F7703C0809180008F7D809352
:1004A0008000089580918000877FF9CF84B58F7791
:1004B00002C084B58F7D84BD08958091B0008F7790
:1004C00003C08091B0008F7D8093B000089580912B
:1004D00090008F7707C0809190008F7D03C080913E
:1004E0009000877F8093900008958091A0008F777F
:1004F00007C08091A0008F7D03C08091A000877FFE
:100500008093A0000895809120018F7707C080918B
:1005100020018F7D03C080912001877F809320017F
:100520000895CF93DF9390E0FC01E454FE4F2491B3
:10053000FC01E452FE4F8491882349F190E0880F3A
:10054000991FFC01EA5EFD4FA591B49184509E4F26
:10055000FC01C591D4919FB7611108C0F8948C91AA
:10056000209582238C93888182230AC0623051F4C3
:10057000F8948C91322F309583238C938881822B31
:10058000888304C0F8948C91822B8C939FBFDF9159
:10059000CF9108950F931F93CF93DF931F92CDB701
:1005A000DEB7282F30E0F901E456FE4F8491F901BF
:1005B000E454FE4F1491F901E452FE4F04910023DC
:1005C000C9F0882321F069830E943D026981E02FF0
:1005D000F0E0EE0FFF1FE450FE4FA591B4919FB7DE
:1005E000F8948C91611103C01095812301C0812B77
:1005F0008C939FBF0F90DF91CF911F910F91089522
:1006000008950E94DB010E9400030E942E01C0E0B9
:10061000D0E00E9432012097E1F30E940000F9CF60
:100620000895EE0FFF1F0590F491E02D1994F894B2
:02063000FFCFFA
:00000001FF
