:100000000C94D9000C9401010C9401010C94010191
:100010000C9401010C9401010C9401010C94010158
:100020000C9401010C94AA260C9467230C94D623FB
:100030000C9401010C9401010C9401010C94010138
:100040000C9401010C94D3270C9401010C94010130
:100050000C9401010C9401010C9401010C94602694
:100060000C9401010C942E260C9408260C9401018A
:100070000C9401010C9401010C9401010C940101F8
:100080000C9401010C9401010C9401010C940101E8
:100090000C94B4260C9401010C9401010C94010100
:1000A0000C9401010C9401010C9401010706050454
:1000B0000100080A0B0C0D090000000023002600B7
:1000C00029002C002F000000000200090F0000038F
:1000D0000401000C0000000000000000000000000F
:1000E0000000000000080B000202020000090400EA
:1000F0000001020200000524001001052401010195
:1001000004240206052406000107058103100040AF
:1001100009040100020A0000000705020240000075
:10012000070583024000000403090412010002EFE6
:100130000201404123418000010102030141726438
:1001400075696E6F204C4C430041726475696E6F27
:100150002059756E0000000000250028002B002E9D
:1001600000310000000000240027002A002D00308C
:1001700000040802011040804010204080408008A8
:100180000204018040201002011080102040402015
:10019000040404040403040502020202040302022C
:1001A0000202060606060606040402020204040011
:1001B000C22811241FBECFEFDAE0DEBFCDBF12E0B0
:1001C000A0E0B1E0E0E9F2E602C005900D92A43BA8
:1001D000B107D9F727E0A4EBB2E001C01D92A53129
:1001E000B207E1F710E0C9EDD0E004C02197FE01AD
:1001F0000E940530C83DD107C9F70E94C22A0C945D
:1002000046310C940000862FE091AF03F091B003CB
:10021000309711F0BA0109940895862FE091AD034B
:10022000F091AE03309711F0BA0109940895862F2A
:10023000E091AB03F091AC03309711F0BA0109944F
:100240000895862FE091A903F091AA03309711F049
:10025000BA0109940895862FE091A703F091A803AD
:10026000309711F0BA0109940895862FE091A50303
:10027000F091A603309711F0BA01099408950895FA
:10028000862F642FE091B103F091B203309711F003
:10029000A90109940895E091B303F091B403309754
:1002A00009F0099408958CBD9DBD0895CF93DF9307
:1002B000FC01A081B181109701F1EC01ED91FC915D
:1002C00011970190F081E02D69EFCD0109958881AA
:1002D0009981DC01ED91FC910190F081E02D62E0CB
:1002E000099588819981DC01ED91FC910190F08163
:1002F000E02D65E0DF91CF910994DF91CF910895D2
:10030000A0912406B0912506ED91FC9111970190E2
:10031000F081E02D682FCD010994982F20917B0466
:1003200081E0213208F043C0809157048111FCCF55
:1003300080917A0432E030935704909356049FEFF3
:10034000909355041092540420935304AAE5B4E00A
:10035000E3E3F4E090E0291331C01092320490916D
:100360003204880F892B80933204809131048130CC
:1003700049F510923104809132048093BB00809142
:10038000BC0083FDF8CF85EC8093BC0080915704BE
:100390008230E1F3809155048F3FB1F08091550494
:1003A0008032A1F080915504803391F084E0109266
:1003B000590410927B041092580408953D91319392
:1003C0009F5FC9CF85EEE0CF80E0F1CF82E0EFCF35
:1003D00083E0EDCF1F93CF93DF93182FEB01809134
:1003E000EB059091EC056817790760F48091E905B9
:1003F0009091EA05C80FD91F188380E0DF91CF9153
:100400001F910895E0911806F0911906309711F4A4
:1004100081E0F4CF81E08093E8058091040690911B
:10042000050609958091EB059091EC05C817D90751
:1004300078F7DCCFCF93DF93EC01FB0130E020E0D5
:10044000C901880F991F8C179D0778F44081DB0143
:100450004D93BD0111979181979599279795942B6D
:100460009C932F5F3F4F3296EBCFC901DF91CF9125
:100470000895FC01818D928D08950895FC0180916D
:10048000F803882311F13FB7F89482E08093E900E4
:100490002091F200822F90E01816190614F481E0E2
:1004A00090E0882339F0289844E64093F703409180
:1004B000F1004083222339F02091F200211103C082
:1004C0002BE62093E8003FBF08958FEF9FEF08953C
:1004D0002FB7F89483E08093E9009091E800892F8A
:1004E000807295FF04C09091F20080E4891B2FBFB9
:1004F00008958091EF0381110DC082E08093EB039A
:1005000084E08093EC031092EE031092ED0381E0FF
:100510008093EF038BEE93E00895009721F0805CC9
:100520009F4F0C945601089540919F035091A00352
:1005300020919D0330919E0342175307B4F490918C
:10054000E8009570E1F39091E80092FD19C0809366
:10055000F10080919F039091A00301968F739927DA
:10056000892B19F48EEF8093E80080919F0390917E
:10057000A00301969093A00380939F0381E00895C8
:1005800080E00895DF92EF92FF920F931F93CF9335
:10059000DF93D82E8A01EB017B01E40EF51ECE1508
:1005A000DF0559F0D7FE12C0FE0184910E9494022B
:1005B00021968111F4CF0FEF1FEFC801DF91CF918A
:1005C0001F910F91FF90EF90DF9008958881EECFFB
:1005D0000F931F93CF93DF931F92CDB7DEB782E0C7
:1005E000898342E450E065EE70E080E80E94C20238
:1005F0000E947902DC0112960D911C9101151105E2
:1006000089F0D801ED91FC910280F381E02DBE01CB
:100610006F5F7F4FC801099597FD04C0F801008501
:100620001185ECCF89810F90DF91CF911F910F91B0
:100630000895615030F02091F100FC012083019673
:10064000F8CF289884E68093F7030895AF92BF927D
:10065000CF92DF92EF92FF920F931F93CF93DF938E
:100660006C017B018B01040F151FEB015E01AE18BD
:10067000BF08C017D10759F06991D601ED91FC91DF
:100680000190F081E02DC6010995892B79F7C5010C
:10069000DF91CF911F910F91FF90EF90DF90CF905E
:1006A000BF90AF900895FC01538D448D252F30E00D
:1006B000842F90E0821B930B541710F0CF9608956F
:1006C00001970895FC01918D828D981761F0A28D9C
:1006D000AE0FBF2FB11D5D968C91928D9F5F9F7362
:1006E000928F90E008958FEF9FEF0895FC01918D18
:1006F000828D981731F0828DE80FF11D858D90E085
:1007000008958FEF9FEF0895FC01918D228D892F21
:1007100090E0805C9F4F821B91098F739927089509
:1007200083E894E00E94840321E0892B09F420E00F
:10073000822F089580E090E0892B29F00E94900399
:1007400081110C9400000895FC01A48DA80FB92F0D
:10075000B11DA35ABF4F2C91848D90E001968F73E9
:100760009927848FA689B7892C93A089B1898C9108
:1007700082748C93938D848D981306C00288F389BC
:10078000E02D80818F7D80830895EF92FF920F93FB
:100790001F93CF93DF93EC0181E0888F9B8D8C8D2D
:1007A000981319C0E889F989808185FF14C09FB723
:1007B000F894EE89FF896083E889F98980818274E1
:1007C00080839FBF81E090E0DF91CF911F910F91D7
:1007D000FF90EF900895F62E0B8D10E00F5F1F4FE6
:1007E0000F731127E02E8C8D8E110CC00FB607FCF5
:1007F000FACFE889F989808185FFF5CFCE010E9483
:10080000A403F1CFEB8DEC0FFD2FF11DE35AFF4F49
:10081000F0829FB7F8940B8FEA89FB898081806210
:10082000CFCFCF93DF93EC01888D8823B9F0AA89CD
:10083000BB89E889F9898C9185FD03C0808186FD9B
:100840000DC00FB607FCF7CF8C9185FFF2CF8081EA
:1008500085FFEDCFCE010E94A403E9CFDF91CF91B8
:100860000895CF93DF931F92CDB7DEB76983DC0184
:10087000ED91FC910280F381E02D41E050E0BE015A
:100880006F5F7F4F09950F90DF91CF91089583E0BF
:100890008093E9008091F200882319F08AE3809325
:1008A000E80008950E94680290E00895CF93DF93D6
:1008B0001F92CDB7DEB7FC018485958597FD08C0F2
:1008C0002FEF3FEF358724870F90DF91CF91089569
:1008D000CE0101960E943E02019719F4898190E0B1
:1008E000F3CF8FEF9FEFF0CF0F931F93CF93DF9353
:1008F0001F92CDB7DEB78C01FC018485958597FFEB
:100900000BC0CE0101960E943E02019771F48981CD
:1009100090E0F80195878487F801848595850F908C
:10092000DF91CF911F910F9108958FEF9FEFF1CF3E
:10093000FC018485958597FD0BC09FB7F89482E0F4
:100940008093E9008091F2009FBF90E001960895A6
:100950009FB7F89482E08093E9008091F2009FBFF6
:1009600090E0089581508F3008F047C0E82FF0E004
:10097000E454FB4F0C940530D904DD04CB04D104BE
:10098000D504FD04FD04FD04E004E604EA04EE04DD
:10099000F404FD04F804809180008F778093800038
:1009A0000895809180008F7DF9CF80918000877FAE
:1009B000F5CF84B58F7784BD089584B58F7DFBCF47
:1009C000809190008F77809390000895809190009F
:1009D0008F7DF9CF80919000877FF5CF8091C00007
:1009E0008F778093C00008958091C0008F7DF9CFEC
:1009F0008091C200877F8093C2000895CF93DF93D8
:100A0000282F30E0F901EA53FF4F8491F901EF58A4
:100A1000FE4FD491F901E057FE4FC491CC23A1F0D1
:100A200081110E94B204EC2FF0E0EE0FFF1FE8549A
:100A3000FF4FA591B491EC91ED2381E090E009F492
:100A400080E0DF91CF91089580E090E0FACF1F938E
:100A5000CF93DF93282F30E0F901EA53FF4F8491C1
:100A6000F901EF58FE4FD491F901E057FE4FC491C0
:100A7000CC23A9F0162F81110E94B204EC2FF0E0D4
:100A8000EE0FFF1FEB5AFE4FA591B4918FB7F8946C
:100A9000EC91111108C0D095DE23DC938FBFDF915C
:100AA000CF911F910895DE2BF8CFCF93DF9390E085
:100AB000FC01EF58FE4F249180579E4FFC0184911A
:100AC0008823C9F090E0880F991FFC01ED59FE4F73
:100AD000A591B491FC01EB5AFE4FC591D4916111DF
:100AE0000DC09FB7F8948C91209582238C938881B8
:100AF000282328839FBFDF91CF910895623051F45E
:100B00009FB7F8943C91822F809583238C93E88142
:100B10002E2BEFCF8FB7F894EC912E2B2C938FBF09
:100B2000EACF823108F08251E82FF0E0E455FF4F20
:100B3000E49190917B008E2F880F880F80729F7DAB
:100B4000892B80937B00E770E064E0937C008091C8
:100B50007A00806480937A0080917A0086FDFCCFD1
:100B6000809178009091790008953FB7F894809132
:100B7000990390919A03A0919B03B0919C0326B591
:100B8000A89B05C02F3F19F00196A11DB11D3FBFC5
:100B9000BA2FA92F982F8827BC01CD01620F711D94
:100BA000811D911D42E0660F771F881F991F4A958E
:100BB000D1F708958F929F92AF92BF92CF92DF921A
:100BC000EF92FF924B015C010E94B5056B017C0125
:100BD0000E94B5056C197D098E099F09683E734016
:100BE00081059105A8F321E0821A9108A108B108B6
:100BF00088EEC80E83E0D81EE11CF11C811491041C
:100C0000A104B10429F7FF90EF90DF90CF90BF903F
:100C1000AF909F908F9008958F929F92AF92BF92C6
:100C2000CF92DF92EF92FF920F931F93CF93DF93B8
:100C30006C017B018A0180910B01882309F45CC05F
:100C40008091F803882309F457C08091A30380FFA3
:100C500005C08091E00082608093E000E801B12C43
:100C60008AEFA82E93E0892E2AE3922E209711F482
:100C7000BB20D9F10E94680281110AC0AA94AA205F
:100C8000D9F161E070E080E090E00E94DA05EECFFB
:100C90008C171D0611F00CF08C2F9FB7F8948092E2
:100CA000E9002091E80025FD02C09FBFDFCF282F7B
:100CB00030E0C21BD30BF701815020F041914093EB
:100CC000F100FACFE20EF31EBB2021F09092E80073
:100CD000B12CEBCF8091E80085FDE7CF9092E80042
:100CE000BB24B394209709F3F3CF5D9884E68093F7
:100CF000A203101611063CF081E090E0F601938308
:100D0000828310E000E0C801DF91CF911F910F9125
:100D1000FF90EF90DF90CF90BF90AF909F908F901B
:100D200008952FB7F8946091950370919603809180
:100D30009703909198032FBF0895FC0120812EBD49
:100D40009B012150310941F051810DB407FEFDCFC7
:100D50004EB55EBD4193F5CF61507109860F971F67
:100D60000DB407FEFDCF2EB5FC0120830895E09160
:100D70007D04F0917E04808190917C04892B808396
:100D80000895E0917D04F0917E04908180917C042F
:100D900080958923808308958EBD00000DB407FEE1
:100DA000FDCF8EB50895AF92BF92CF92DF92EF92B2
:100DB000FF920F931F93CF93DF93CDB7DEB72897A2
:100DC0000FB6F894DEBF0FBECDBF8C017B016A0168
:100DD000809180048333E1F45801A40EB51EA0165F
:100DE000B10609F46FC00E94C10680EF0E94CC06D4
:100DF000812F0E94CC06802F0E94CC060F5F1F4FD0
:100E0000F70181917F010E94CC060E94B706E7CFCF
:100E10005B01A40EB51E8433C1F40E94C106198380
:100E20000A838D2D80688B83CC8264E070E0CE01D4
:100E300001960E949D06AE14BF0409F441C0F7015B
:100E400081917F010E94CC06F6CF0E94C1060F3F20
:100E5000110509F028F419820A8384E08B830CC001
:100E600017FD17C019820A8333E0169507953A9546
:100E7000E1F7007E0C600B8386E0C816D104A0F574
:100E8000F701DE011496EA15FB0599F081918D9327
:100E9000FACFC80126E0969587952A95E1F7807EDE
:100EA00019830A830115104C10F48461D7CF8C612B
:100EB000D5CFB6016D5F7F4FCE0101960E949D0692
:100EC0000E94B706C60128960FB6F894DEBF0FBE83
:100ED000CDBFDF91CF911F910F91FF90EF90DF90E9
:100EE000CF90BF90AF90089563E070E0CE0101967F
:100EF0000E949D06F70181917F010E94CC06AE14ED
:100F0000BF04C1F7DDCFCF93DF931F92CDB7DEB71C
:100F1000898341E050E0BE016F5F7F4F90E080E049
:100F20000E94D3060F90DF91CF91089590E0209119
:100F30008004233339F40C96982F990F990F990F49
:100F400080E008954896F8CFDA01E0918104F0E05E
:100F5000FE2FEE27E60FF71F90E0982F8827A901B4
:100F6000BD018E0F9F1F0C94D306CF93DF9300D04B
:100F7000CDB7DEB779836A8322E030E0AE014F5F00
:100F80005F4F60E170E00E94A4070F900F90DF9127
:100F9000CF910895CF93DF9300D0CDB7DEB779839B
:100FA0006A8322E030E0AE014F5F5F4F64E070E0A3
:100FB0000E94A4070F900F90DF91CF910895CF93D7
:100FC000DF931F92CDB7DEB72091810430E0322F3E
:100FD0002227260F371F90E0982F8827498341E06A
:100FE00050E0BE016F5F7F4F820F931F0E94D306B8
:100FF0000F90DF91CF910895CF93DF931F92CDB7DC
:10100000DEB76983DC01ED91FC910280F381E02D74
:1010100041E050E0BE016F5F7F4F09950F90DF9177
:10102000CF910895FC019485FB018485981303C03A
:1010300081E0983008F080E00895CF93DF931F920D
:10104000CDB7DEB76983DC01ED91FC910280F381BD
:10105000E02D41E050E0BE016F5F7F4F09950F909A
:10106000DF91CF9108950895FF920F931F93CF932F
:10107000DF93EB01FC01178A168A2A81211109C02E
:101080002B81211106C02C81211103C02D81222327
:1010900001F141155105E9F08A01FC01F08C80E570
:1010A00091E00E945301AE014E5F5F4F24E030E0BB
:1010B0006CE070E08F2D0E94A407B8018F2D0E9474
:1010C000B50781E090E0DF91CF911F910F91FF90E4
:1010D000089580E0F7CFFC01848595850895FC0193
:1010E0008489958908952EEC31E0FC0131832083B9
:1010F000FB014089518962897389FC0142835383D2
:10110000648375830895DC01ED91FC91048CF58D69
:10111000E02D09945F926F927F928F929F92AF928F
:10112000BF92CF92DF92EF92FF920F931F93CF93D4
:10113000DF935C016901DA015C90232B19F4CC2464
:10114000CA94DC2C8A013A01660E771ED0E0C0E01A
:10115000F12CE12C87E0882E912CF5018081918182
:10116000D8016C910C2E01C0660F0A94EAF765292C
:101170006F77DC01ED91FC910190F081E02D0995F4
:10118000BFEFEB1AFB0AF801608170E0C4018C1B11
:101190009D0B02C0759567958A95E2F7562E2196AC
:1011A000C730D10558F1CE14DF0441F1D5018D913E
:1011B0009C91652D6F77DC01ED91FC910190F081A0
:1011C000E02D0995BFEFEB1AFB0A551C5524551C61
:1011D0002797E6CFEC14FD0408F4BFCFDF91CF9141
:1011E0001F910F91FF90EF90DF90CF90BF90AF9045
:1011F0009F908F907F906F905F9008950F5F1F4F2B
:101200006016710639F7209749F3EC14FD0430F7A6
:10121000F5018081918161E070E001C0660FCA959F
:10122000EAF761506521DC01ED91FC910190F081BC
:10123000E02DDF91CF911F910F91FF90EF90DF9004
:10124000CF90BF90AF909F908F907F906F905F9066
:1012500009941F93CF93DF9300D0CDB7DEB7182F3B
:101260007A8369838091E6059091E7050097C9F03C
:10127000DC01ED91FC910190F081E02D1031B8F48A
:1012800061157044A0F4612F606E099522E030E092
:10129000AE014F5F5F4F62E070E086EE95E00E9426
:1012A0008A080F900F90DF91CF911F91089560EF02
:1012B00009958091E6059091E705DC01ED91FC919F
:1012C0000190F081E02D6FE609958091E6059091FF
:1012D000E705DC01ED91FC910190F081E02D612F9B
:1012E000099522E030E0AE014F5F5F4F62E070E0B1
:1012F00086EE95E00E948A088091E6059091E705C8
:10130000DC01ED91FC910190F081E02D67EF0995F2
:10131000C8CFEF92FF920F931F93CF93DF93C82F05
:101320008091E6059091E7050097C9F17A018B015C
:10133000DC01ED91FC910190F081E02D60EF0995C9
:101340008091E6059091E705DC01ED91FC9101901B
:10135000F081E02D6C2F0995E7010E0D1F1DC017C0
:10136000D10759F030E020E0AE0161E070E086EE98
:1013700095E00E948A082196F2CF8091E60590912F
:10138000E705DC01ED91FC910190F081E02D67EF24
:10139000DF91CF911F910F91FF90EF900994DF9112
:1013A000CF911F910F91FF90EF900895CF92DF9210
:1013B000EF92FF920F931F93CF93DF93FC01E058BE
:1013C000FF4FE080EE2009F45CC0EC01C05CDF4F11
:1013D000A881B981109709F454C0FC01EF57FF4F61
:1013E000C080D180F60111810081ED91FC911197AF
:1013F0000190F081E02D60EFCD0109958881998100
:10140000DC01ED91FC910190F081E02D69E70995F7
:1014100088819981DC01ED91FC910190F081E02DB2
:10142000602F099588819981DC01ED91FC910190F3
:10143000F081E02D612F0995F12C01E010E00F5FA4
:101440001F4FE016F10659F030E020E0A601400FF2
:10145000511F61E070E0CE010E948A08F0CF8881C0
:101460009981DC01ED91FC910190F081E02D67EF15
:10147000DF91CF911F910F91FF90EF90DF90CF9070
:101480000994DF91CF911F910F91FF90EF90DF9022
:10149000CF900895009711F00C94D609089585ED2A
:1014A0008093BC008091BC0084FDFCCF1092570457
:1014B000089520916D03260F3327331F2132310504
:1014C000ECF420915704FC0190E080E0243069F0B6
:1014D00082E00895A0916D032191AC01455B5C4FC2
:1014E000A40FB52FB11D2C930196861798F3809108
:1014F0006D03680F60936D0380E0089581E00895A7
:1015000008950895E0914A0380914903E81730F463
:10151000F0E0E75DFC4F808190E008958FEF9FEF52
:10152000089590914A03809149032FEF3FEF981758
:1015300048F4E92FF0E0E75DFC4F208130E09F5F49
:1015400090934A03C90108958091490390914A03F9
:10155000891B990B0895CF92DF92EF92FF920F9320
:101560001F93CF93DF937C01CB018A012091580414
:10157000222389F0EB016B01C40ED51ECC15DD05CD
:1015800069F06991D701ED91FC910190F081E02D16
:10159000C7010995F3CF642F0E94590AC801DF9152
:1015A000CF911F910F91FF90EF90DF90CF90089512
:1015B000CF93DF931F92CDB7DEB769832091580494
:1015C0002223F9F020917B04203258F021E030E012
:1015D000FC013383228390E080E00F90DF91CF9174
:1015E000089580915904E82FF0E0E65AFB4F998165
:1015F00090838F5F8093590480937B0481E090E017
:10160000ECCF61E0CE0101960E94590AF7CFDF923C
:10161000EF92FF920F931F93CF93DF93EC01D62E9F
:101620007A01890188818C3008F067C061E08D2DD6
:101630000E9455058881282F30E0F901EE0FFF1F29
:10164000E20FF31FE057F94F9D2D9F736081607C7F
:10165000692B608320E232E02E193F0937FF02C078
:101660002D5F3F4F3595279535952795298320E6A2
:1016700039E0201B310B37FF02C02D5F3F4F3595FE
:101680002795359527952A832CE0622F0E94F92F04
:10169000829FB001112430E020E0AB01420F531FC4
:1016A000FA01EE0FFF1FE40FF51FE057F94F90818D
:1016B00096FD16C02F5F3F4F2C30310571F7811119
:1016C0000FC01092800082E080938100109285000C
:1016D00010928400B19A80916F00826080936F00B5
:1016E000E8818E2F90E0FC01EE0FFF1FE80FF91F3D
:1016F000E057F94F8081806480838881DF91CF91AA
:101700001F910F91FF90EF90DF900895CF938C3051
:10171000B0F421E030E0082E02C0220F331F0A94FB
:10172000E2F74091E5035091E603672B51F42095D1
:101730003095242335233093E6032093E503CF919E
:101740000895242B352B3093E6032093E5039091E5
:1017500027039111F4CFC82F0E949105BC018C2F53
:10176000CF910C9429094F925F926F927F928F9242
:101770009F92AF92BF92CF92DF92EF92FF920F9320
:101780001F93CF93DF93843008F0A3C08F5FC82FDF
:10179000CC0FCC0FCC0F4C2ECF3110F05EE1452E8C
:1017A000D62F38EF532E5C0E852C912CC401880F58
:1017B000991F9C012A553A4F5901052DD12CC12C56
:1017C00010E0772473940415A8F5F601E80DF91DCF
:1017D000E75DF94F90819230B8F48D2F8721662410
:1017E0006394811101C0612C7601EE0CFF1C9130D5
:1017F00089F4172931EAE30EF11CF501EE0DFF1D06
:10180000862D90E091838083770C0F5F8FEFC81A4D
:10181000D80AD9CF882371F3F701EF55FF4FEA0DAE
:10182000FB1D80819181019729F362E0802F0E9446
:101830005505E0CF10FF05C06D2F6170852D0E940A
:10184000270511FF06C06D2F627089EF8C0F0E9473
:10185000270512FF06C06D2F64708AEF8C0F0E945F
:10186000270513FF06C06D2F68708BEF8C0F0E9449
:10187000270514FF06C06D2F60718CEF8C0F0E943E
:10188000270515FF06C06D2F60728DEF8C0F0E942B
:10189000270516FF06C06D2F60748EEF8C0F0E9417
:1018A000270517FF16C06D2F60788FEF8C0FDF9123
:1018B000CF911F910F91FF90EF90DF90CF90BF904D
:1018C000AF909F908F907F906F905F904F900C940F
:1018D0002705DF91CF911F910F91FF90EF90DF903F
:1018E000CF90BF90AF909F908F907F906F905F90C0
:1018F0004F9008958F929F92AF92BF92CF92DF92B6
:10190000EF92FF920F931F93CF93DF93EB018E31F2
:1019100008F094C0082F10E0F801E75DF94F9081BE
:10192000933009F498C0943009F088C0F801EC5F56
:10193000FC4FC080D12C7601EE0CFF1C4B016032B5
:1019400082E078070CF03EC0F701EC0DFD1DEB5472
:10195000F94F8181A8E88A2E912C881A910887FD79
:101960009394880C991C880C991C092C000CAA08CB
:10197000BB08828128E532E0281B310987FD3395B9
:10198000220F331F220F331F032E000C440B550B65
:10199000281939094A095B09DB01653B710514F017
:1019A000A4EBB0E0B7FF02C0B0E0A0E00E94C02FFF
:1019B00024EB30E040E050E00E94962F820E931E10
:1019C000A41EB51EF701EC0DFD1DEB54F94F20814F
:1019D0002C3068F5318188E890E0831B910937FD50
:1019E0009395880F991F880F991F881699067CF088
:1019F000328188E592E0831B910937FD9395880F2A
:101A0000991F880F991F881699060CF4C401029734
:101A1000880F991F4FB7F89430E0F901EE0FFF1FC0
:101A2000E20FF31FE057F94F928381834FBF000FFE
:101A3000111FF801E95BF94FD183C083DF91CF918A
:101A40001F910F91FF90EF90DF90CF90BF90AF90DC
:101A50009F908F900895F82E83E0081759F08BEF30
:101A6000800F823038F087EF800F833018F08DE0E0
:101A70000813DDCF61E08F2D0E945505209729F4D2
:101A800060E08F2D0E942705D2CFCF3FD10511F402
:101A900061E0F7CFF801EA53FF4FE491E150EF30F6
:101AA00008F07CC0F0E0E95AF24F0C940530660D66
:101AB0006B0D700D7A0D840DCE0DCE0DCE0D8E0DED
:101AC000980DA20DAC0DB90DCE0DC10D84B5806879
:101AD00084BDC7BDACCF84B5806284BDC8BDA7CF6F
:101AE00080918000806880938000D0938900C093AB
:101AF00088009DCF80918000806280938000D09389
:101B00008B00C0938A0093CF80918000886080937F
:101B10008000D0938D00C0938C0089CF809190007D
:101B2000806880939000D0939900C09398007FCFF5
:101B300080919000806280939000D0939B00C0932E
:101B40009A0075CF80919000886080939000D09328
:101B50009D00C0939C006BCF8091C00080688093F3
:101B6000C0008091C0008F7B8093C000C093CF00E5
:101B70005ECF8091C00080628093C000C093D0008F
:101B800056CF8091C20088608093C2008091C200CD
:101B90008B7F8093C200C093D20049CFC038D1055B
:101BA0000CF076CF6DCF8E3180F4E82FF0E0DF01BE
:101BB000A75DB94F9C91913041F4EE0FFF1FE95B97
:101BC000F94F608371830C9427050895FF920F935A
:101BD0001F93CF93DF9300D0CDB7DEB7082F10E06F
:101BE000F801EB54FC4F9081F62EF9220E5D1C4F4C
:101BF000411104C0F80190819F1511F12F2D30E0A3
:101C00003A832983A091E605B091E7051097B1F0DA
:101C1000682F6F706069ED91FC9111970190F081D0
:101C2000E02DCD01099522E030E0AE014F5F5F4F1E
:101C300062E070E086EE95E00E948A08F801F0828A
:101C40000F900F90DF91CF911F910F91FF9008950A
:101C50000F931F93CF93DF93843008F069C0282F30
:101C600030E0F901E754FC4F6083672B09F460C052
:101C7000082F2B543C4FF9011081D82FDD0FDD0FB9
:101C8000DD0FC12FC17010FF07C08D2F0E94FE0411
:101C9000C1E0892B09F4C0E011FF07C081E08D0F7E
:101CA0000E94FE04892B09F0C26012FF07C082E087
:101CB0008D0F0E94FE04892B09F0C46013FF07C03A
:101CC00083E08D0F0E94FE04892B09F0C86014FF89
:101CD00007C084E08D0F0E94FE04892B09F0C061CB
:101CE00015FF07C085E08D0F0E94FE04892B09F0C7
:101CF000C062D831A1F016FF07C086E08D0F0E94A8
:101D0000FE04892B09F0C064D73149F017FF07C0E2
:101D100087E08D0F0E94FE04892B09F0C06841E026
:101D20006C2F802FDF91CF911F910F910C94E60DB6
:101D3000DF91CF911F910F910895A82FB0E0AC5F74
:101D4000BC4F9C91292F30E0F901EE0FFF1FE20FED
:101D5000F31FEB54F94FE0812E2F30E0F901EE0F25
:101D6000FF1FE20FF31FE057F94F80818F7B8083C5
:101D700080910203981308C0992319F09150909311
:101D800002038FEF8C9308958823D9F3E091030326
:101D9000EF5FE0930303F0E0ED54FD4F9083F1CF4C
:101DA000CF92DF92EF92FF920F931F93CF93DF9327
:101DB00000D000D000D0CDB7DEB78C01DC011C967E
:101DC0008D919C91DC01ED91FC91008CF18DE02DC9
:101DD0000995F82E811137C0F801868D811151C007
:101DE0000E949106F801C78CD0A0E1A0F2A06C1966
:101DF0007D098E099F09683873418105910500F1BD
:101E0000D8015A966D917C915B971C968D919C910F
:101E1000DC01ED91FC91D8015C964D915C915D9750
:101E20006115710509F442C00088F189E02D09951A
:101E300021E0892B09F420E0F801268F222361F1AB
:101E4000F801F68C0EC0D8011C968D919C91DC0196
:101E5000ED91FC910688F789E02D0995882309F416
:101E6000BBCF8F2D26960FB6F894DEBF0FBECDBF29
:101E7000DF91CF911F910F91FF90EF90DF90CF9066
:101E8000089584859585DC01ED91FC910488F589A0
:101E9000E02D0995F801168E0E949106D8015F96F3
:101EA0006D937D938D939C939297CACF0684F7850B
:101EB000E02D2EEC31E03A8329835696CD90DD90CB
:101EC000ED90FC905997CB82DC82ED82FE82BE01C0
:101ED0006F5F7F4FACCF1F93CF93DF93EC01162F33
:101EE0000E94D00E882369F08C859D85DC01ED91E0
:101EF000FC910190F081E02D612FDF91CF911F9136
:101F0000099490E080E0DF91CF911F910895CF93E5
:101F1000DF93EC010E94D00E882359F08C859D85BB
:101F2000DC01ED91FC910680F781E02DDF91CF91EE
:101F30000994DF91CF910895CF93DF93EC010E9434
:101F4000D00E882359F08C859D85DC01ED91FC91A4
:101F50000484F585E02DDF91CF9109948FEF9FEFF9
:101F6000DF91CF910895CF93DF93EC010E94D00EC3
:101F7000882359F08C859D85DC01ED91FC910284CC
:101F8000F385E02DDF91CF9109948FEF9FEFDF91E3
:101F9000CF910895CF93DF93EC010E94D00E882358
:101FA00059F08C859D85DC01ED91FC910084F185D3
:101FB000E02DDF91CF91099490E080E0DF91CF9107
:101FC0000895FC01768765870895DC01ED91FC9109
:101FD000068CF78DE02D099591E089270895862FCD
:101FE000089581E08627089521E0FC0184858830EA
:101FF00008F020E0822F089590E080E00895FC0131
:1020000001900020E9F73197BF01681B790BAC0103
:1020100081E70C948909CF93DF93DB019091020350
:102020009C3078F530910303682F70E0FB01EC5F82
:10203000FC4F3323E1F0C32FD0E0CD54DD4F888136
:102040008083315030930303808123E0829FC0015D
:1020500011248B54994F1A161B0674F41416150686
:102060005CF49A01AD01DF91CF910C94070B908342
:102070009F5F90930203E8CF20E639E040E252E010
:10208000F2CF80ED91E0DF91CF910C94FF0F8F9212
:102090009F92AF92BF92EF92FF920F931F93CF93B5
:1020A000DF93CDB7DEB7A1970FB6F894DEBF0FBEB2
:1020B000CDBF7C01FA01CB0119A2223008F42AE03D
:1020C0008E010F5D1F4F822E912CB12CA12CBF01D0
:1020D000A50194010E94C82FF901CA016A3074F564
:1020E000605DD8016E938D01232B242B252B79F76E
:1020F00090E080E0109789F0FD0101900020E9F761
:102100003197AF014A1B5B0BD701ED91FC91028027
:10211000F381E02DB801C7010995A1960FB6F89497
:10212000DEBF0FBECDBFDF91CF911F910F91FF900A
:10213000EF90BF90AF909F908F900895695CD1CF42
:102140008F929F92AF92BF92CF92DF92EF92FF92C7
:102150000F931F93CF93DF937C01EB016C0182E01F
:10216000C80ED11C4701E5E08E0E911C10E000E086
:10217000F60141916F0150E070E060E02AE0CE018D
:102180000E9447105C01E881F9810190F081E02D07
:102190006EE2CE0109958A0D9B1D080F191FC81408
:1021A000D90431F7F701458150E070E060E02AE0A2
:1021B000CE010E944710800F911FDF91CF911F9198
:1021C0000F91FF90EF90DF90CF90BF90AF909F90D6
:1021D0008F900895AF92BF92CF92DF92EF92FF92CD
:1021E0000F931F93CF93DF93C82ED12CE601CA55CE
:1021F000DA4FFE01ED57FF4F90819F3709F49BC0E6
:102200007B01182F963069F480912603882349F0CA
:102210006630710509F437C1109226038FEF809361
:102220000C011E3110F584E0E816F104F1F0F6011E
:10223000EC5FFC4F80818C30C0F490E0FC01EE0F2D
:10224000FF1FE80FF91FEB54F94FE0818E2F90E04C
:10225000FC01EE0FFF1FE80FF91FE057F94F8081D7
:1022600086FF03C0812F0E949D0E0EEE010F0C30E1
:1022700028F561E070E032E0E316F10411F070E05F
:1022800060E0802F0E94860BE12FE695E695E695AB
:10229000F0E0EB54FC4F2081312F377081E090E06B
:1022A00001C0880F3A95EAF7E114F10421F03BE010
:1022B000E316F10419F5822B808302C01E3120F34E
:1022C0005601AA0CBB1CF501E95BF94F1182108283
:1022D0008CE0E816F10408F0C8C0F701EE58FE4E95
:1022E0000C9405308F11BB118111D211F3113512ED
:1022F00029123512351235129B11A61180958223B1
:10230000DBCF0C30C0F460E0812F0E945505CD5723
:10231000DF4F88818F3779F082E088830CC01E31CF
:1023200050F460E0812F0E945505CD57DF4F888122
:102330008F3709F01882DF91CF911F910F91FF9095
:10234000EF90DF90CF90BF90AF9008951E3198F737
:1023500062E0812F0E945505CD57DF4F88818F376E
:1023600011F08BE08883F501E95BF94F81E090E0A3
:1023700091838083E0CF1E31F0F6FE01ED57FF4FD1
:102380008081833021F460E0812F0E94270561E085
:10239000812F0E945505CD57DF4F88818F3759F225
:1023A00081E0BBCF133059F08BEF810F823038F0D2
:1023B00087EF810F833018F01D3009F0BCCF61E04A
:1023C000812F0E94550561E0812F0E94550560E034
:1023D000812F0E942705CD57DF4F88818F3709F461
:1023E000AACF83E09ACF1E3108F0A5CFCD57DF4F9B
:1023F00088818F3711F084E08883F601EC5FFC4F11
:1024000080818F3FA9F090E0FC01EE0FFF1FE80FE5
:10241000F91FEB54F94FE0818E2F90E0FC01EE0F95
:10242000FF1FE80FF91FE057F94F808186FD83CF2A
:102430004FEF5FEF6FEF7FEF812FDF91CF911F9114
:102440000F91FF90EF90DF90CF90BF90AF900C94E2
:102450000B101250123008F06ECFCD57DF4F88812D
:102460008F3709F468CF86E058CF84EE91E0DF9192
:10247000CF911F910F91FF90EF90DF90CF90BF9081
:10248000AF900C94FF0F1E3108F4D1CEEECE0F9317
:102490001F93CF93DF9381E08093270380912603DE
:1024A000882329F0109226038FEF80930C01E9EB2B
:1024B000F3E0C5EBD3E0A2E2B3E0119219921D92D2
:1024C00083E0ED3BF807C9F704E013E0C0E0DFEF7D
:1024D0008EEE8C0F62E070E08C3010F061E070E006
:1024E0008C2F0E94EA10F801D1938F01CF5FCE317B
:1024F00079F71092E6031092E5031092030310920D
:10250000020310922703DF91CF911F910F9108953D
:10251000EF92FF920F931F93CF93DF93D82F8B01EE
:10252000C42FF22E6F3F760709F488C081E08093B4
:102530005804D0937A041092590410927B0484E8D2
:1025400096E00E94D80A8F2D0E948D018091000391
:10255000909101038230910538F0880F991F880F00
:10256000991F05970197F1F7809157048111FCCFCE
:102570009C2FC13208F090E281E080935704809351
:1025800056042FEF2093550410925404290F2093E2
:10259000530480933204209132048D2F880F822BB4
:1025A0008093320480913104813009F049C0109247
:1025B0003104809132048093BB008091BC0083FD84
:1025C000F8CF85EC8093BC00809157048130E1F313
:1025D00080915404891710F490915404A3E3B4E05B
:1025E000E9E2F3E080E089132DC010924A03809362
:1025F0004903EC2EF12C90E0E816F9063CF585EF46
:1026000091E00E94FF0FD093C0020093C10200EC42
:1026100012E0C801805C92408E159F05ECF40F5FBC
:102620001F4F9091490380914A039817A9F084E8BD
:1026300096E00E94910AF8018183EBCF00E094CFED
:1026400085EEC0CF2D9121938F5FCDCF8E159F0545
:10265000D4F682E192E0D5CFCE5F6C2F70E040ECF3
:1026600052E087E7DF91CF911F910F91FF90EF909C
:102670000C948909EF92FF920F931F93CF93DF93EE
:102680008956823108F033C0EA01162FE82FF0E0B6
:10269000E45BFC4E0C940530AA15771313157713E1
:1026A00069157713F114971477137713771377134A
:1026B00077135E1377133F147713DB14998195FF1B
:1026C0000AC08EE292E0DF91CF911F910F91FF90AF
:1026D000EF900C94FF0F888131E096FB222720F9C0
:1026E000232798719830D1F148F49923A9F0DF910C
:1026F000CF911F910F91FF90EF900895903109F4C1
:102700004CC09831A1F720910C0112160CF472C044
:102710008FEF80930C01EBCF3093580480937A04B1
:102720001092590410927B0402E0011778F4FE0124
:10273000E00FF11D61816795662767958081680FBD
:1027400084E896E00E94D80A0E5FEFCF81E00E94F5
:102750008D0183E191E00197F1F7C9CF9A814B8117
:102760006630A1F430E8439FB0011124690F711D58
:102770004D814795442747959C81490FDF91CF9123
:102780001F910F91FF90EF900C948812479544276A
:102790004795490F6FEF7FEFF1CFE0910C01E730E4
:1027A0001CF08EE492E08FCF3A819B816630D9F4A1
:1027B00060E8969FA0011124430F511D9D819795BC
:1027C000992797953C81930FEF5FE0930C0135E0DB
:1027D000E302F0011124E354FC4F808352834183D0
:1027E0009383248384CF979599279795930F4FEFE1
:1027F0005FEFEACF90E0622F022E000C770B35E0FE
:10280000492F50E06417750764F0349FF001359F3D
:10281000F00D1124E354FC4F4081481719F09F5FDD
:10282000EFCF90E085E0492F50E0641775071CF169
:102830009830F8F4FA0131968E9FD0018F9FB00D39
:102840001124A354BC4F3C91849FF001859FF00D4F
:102850001124E354FC4F308311964D915C911297F3
:102860005283418313963C911397338314963C9182
:1028700034839F5FD8CF215020930C0138CF623032
:1028800078F0898160E8869F900111248881820F09
:10289000932F911D009721F09093010380930003E3
:1028A00080912603811123CFC0E08EEF8C0F823000
:1028B00028F466E070E08C2F0E94EA10CF5FCE31E2
:1028C000A1F781E08093260310924A0310924903F6
:1028D0001092590410927B0410925704809356046E
:1028E0001092310461E082E00E94270561E083E0FC
:1028F0000E9427058091B9008E7F8093B900809156
:10290000B9008D7F8093B90088E48093B80085E496
:102910008093BC0080E89AE090936C0380936B03F3
:1029200081E89AE09093700380936F03E0CE653066
:1029300008F4DDCE18811E3108F0D9CE0981EA8075
:10294000FB80CC81E12FF0E0EC5FFC4F80818C308C
:10295000C0F490E0FC01EE0FFF1FE80FF91FEB54ED
:10296000F94FE0818E2F90E0FC01EE0FFF1FE80F82
:10297000F91FE057F94F808186FF03C0812F0E9425
:102980009D0E80E8C89FA00111244F0D511D90E8B5
:10299000E99EB0011124600F711D812F0E940B1060
:1029A00064E070E0812FDF91CF911F910F91FF9034
:1029B000EF900C94EA10623008F499CE8981E0E837
:1029C0008E9F900111248881820F932F911D009773
:1029D00029F090930E0180930D0189CE81E090E063
:1029E000F8CF623008F483CE698170E0123091F044
:1029F0008A81F0E88F9FC0011124682B792B133056
:102A000049F08B8190E090E4899F902D88271124D4
:102A1000682B792B8881DF91CF911F910F91FF90C7
:102A2000EF900C947A0C80EF0E9480018CE60E945B
:102A30008001C0E080E00E94800181E00E9480016E
:102A40008BE00E94800181E00E94800181E00E9471
:102A5000800181E00E9480018EEE8C0F8C3088F422
:102A600082E00E9480018AE00E9480018BEF8C0F3F
:102A7000823048F087EF8C0F833028F0CD3049F456
:102A800002C0C33099F783E00E94800188E00E9471
:102A9000800184E00E9480018EE00E9480018EEF20
:102AA0008C0F823030F486E00E94800181E00E9429
:102AB00080018FE70E948001CF5FCE3109F0BACF4D
:102AC00087EFDF91CF911F910F91FF90EF900C94C2
:102AD0008001662309F40BCEC88180EF0E9480013B
:102AE0008EE60E9480018C2F0E948001CE3140F73B
:102AF000D0E0FE01E75DF94F80810E948001CC0F9C
:102B0000DD1F8E01095B194FF80180818F770E94CC
:102B10008001F801808191819C012078232B39F07C
:102B2000880F892F881F990B8F770E948001C95BBE
:102B3000D94F888199819C012227307C232B09F46D
:102B4000BFCF990F880B990F982F881F8F770E94FE
:102B50008001B6CF80EF0E9480018AE60E9480014A
:102B6000CEEE8FE7CC3008F48C2F0E948001CF5F2F
:102B7000CC30B9F7A5CFAF92BF92CF92DF92EF9250
:102B8000FF920F931F93CF93DF9300D000D0CDB768
:102B9000DEB78C016B017A01809180048333E9F404
:102BA0005B016801C40ED51EC016D106A9F10E94B2
:102BB000C1068FE00E94CC06812F0E94CC06802F98
:102BC0000E94CC060F5F1F4F80E00E94CC06F501EB
:102BD00081935F010E94B706E7CF843369F50E94B5
:102BE000C10619830A838F2D8F778B83EC8264E073
:102BF00070E0CE0101960E949D06A70170E060E0A2
:102C0000C6010E943031E114F10421F0B701C60180
:102C10000E949D060E94B706C7010F900F900F906B
:102C20000F90DF91CF911F910F91FF90EF90DF9068
:102C3000CF90BF90AF9008950E94C1060F3F11053D
:102C400009F030F419820A831B8263E070E0D1CF6F
:102C500017FD0BC019820A8333E0169507953A9544
:102C6000E1F7007E08600B83F0CFC80126E096955F
:102C700087952A95E1F7807E19830A830115104C08
:102C800018F480618B83E1CF8861FCCFCF93DF9311
:102C90001F92CDB7DEB72091810430E0322F22277A
:102CA000260F371F90E0982F882741E050E0BE01A3
:102CB0006F5F7F4F820F931F0E94BB1589810F901A
:102CC000DF91CF910895CF93C82F462F61E070E038
:102CD0000E94DF0761E070E08C2F0E944616811190
:102CE000F9CFCF910895CF93C82F80E591E00E944E
:102CF000530168E070E08C2FCF910C946316CF9352
:102D0000C82F80E591E00E94530160E170E08C2FB4
:102D1000CF910C946316CF93DF93EC01888D8830AC
:102D200020F40E947F1688E0888FDF91CF9108956C
:102D3000CF93C82F80E591E00E94530163E070E0DB
:102D40008C2FCF910C944616CF93DF93EC018C859A
:102D50008830D0F40E949816843189F0882379F065
:102D6000883169F021E08C3159F4E881F9810084DF
:102D7000F185E02DCE01099521E0892B09F420E0B1
:102D8000822FDF91CF91089580E0FBCFCF92DF9229
:102D9000EF92FF92CF93DF93EC018C85883068F43B
:102DA0000E9473160E9491066B017C018C850E9423
:102DB0009816811109C088E08C87DF91CF91FF9030
:102DC000EF90DF90CF90089561E070E080E090E0B8
:102DD0000E94DA050E949106AB01BC014C195D0905
:102DE0006E097F098D859E85B0E0A0E048175907E0
:102DF0006A077B07D8F28C850E947F16DCCFCF93C1
:102E0000FC01C08D80E591E00E94530160E270E01A
:102E10008C2F0E94631662E070E08C2F0E94461691
:102E200084FD16C062E070E08C2F0E94461683FF7E
:102E30000AC048E162E070E08C2F0E94DF0780E06A
:102E400090E0CF91089580E591E00E945301E3CF97
:102E500040E162E070E08C2F0E94DF0781E0F0CF5C
:102E6000CF93DF931F92CDB7DEB741E050E0BE01B4
:102E70006F5F7F4F90E080E00E94BB1589810F90CB
:102E8000DF91CF910895CF93DF93C4E1D0E00E940A
:102E90003017882361F061E070E080E090E00E94EC
:102EA000DA052197A1F780E0DF91CF91089581E0C5
:102EB000FBCFCF92DF92EF92FF920F931F93CF93AE
:102EC000DF93CDB7DEB7C454D1090FB6F894DEBF97
:102ED0000FBECDBFFC0182819381A481B581239671
:102EE0008CAF9DAFAEAFBFAF239721E023962FAF3E
:102EF000239723964CAD5DAD6EAD7FAD23974BAB65
:102F00005CAB6DAB7EAB89AF9AAFABAFBCAF8DA7FF
:102F10009EA7AFA7B8AB28AB4DA55EA56FA578A9B6
:102F20004FA358A769A77AA72EAB4BA95CA96DA997
:102F30007EA949A35AA36BA37CA38B8F9C8FAD8FD3
:102F4000BE8F4EEC51E05C8B4B8B3FEF3D8B3E8B4D
:102F50003F8B188E5E874D872AA7CFA0D8A4E9A4FF
:102F6000FAA4CF86D88AE98AFA8A2CA309A11AA1E1
:102F70002BA13CA109871A872B873C875A83498359
:102F80008B839C83AD83BE838091820481119DC01D
:102F900060E372E080E090E00E94DA051FB7F894E9
:102FA00080917F04811127C0E1EAF1E08491E2E899
:102FB000F1E09491E82FF0E0EE0FFF1FED59FE4F86
:102FC000A591B491EC91E92321F461E081E10E94A3
:102FD000270561E081E10E9455058CB580618CBDBB
:102FE0008CB580648CBD61E08FE00E94550561E086
:102FF00080E10E94550580917F048F5F80937F045C
:103000001FBFEAE9F1E0E491F0E0EE0FFF1FEB5A99
:10301000FE4F8591949190937E0480937D04EBE71D
:10302000F1E0E491E0937C0461E08AE00E945505C0
:103030000E94B70680E591E00E94530184E38093EB
:10304000800480E80E9483070E944317882309F4C4
:1030500072C088E00E9483070E943017883009F010
:103060006AC080E10E9483070E943017803109F016
:1030700062C080E00E9483070E943017182F8111E0
:103080005AC041E050E0BE016D5B7F4F8FE190E0A0
:103090000E94BB1524968FAD2497833009F04BC056
:1030A00080E48093810442E06EE170E0812F0E9411
:1030B000DF0742E06FE170E0812F0E94DF071F5FB2
:1030C000183089F781E08093820480E591E00E94C6
:1030D000530146E050E06EE471E089E090E00E9428
:1030E000D30644E050E0BE016D5F7F4F8FE090E07B
:1030F0000E94D30644E050E0BE01615F7F4F81E053
:1031000090E00E94D30644E050E0BE016B5E7F4F2A
:1031100085E090E00E94D30681E08C8789859A85BE
:10312000AB85BC858093900590939105A093920503
:10313000B09393056FC087E38093800480E80E947A
:1031400083070E944317882339F188E00E94830790
:103150000E943017883001F580E10E9483070E94A9
:103160003017182F8031C1F480E00E9483070E943D
:103170003017811111C041E050E0BE016D5B7F4FFF
:1031800089E390E00E94BB1524968FAD249784308C
:1031900019F41093810496CF83E38093800480E830
:1031A0000E9483070E944317882391F180E10E94C7
:1031B00083070E943017803159F582E10E9483070E
:1031C0000E943017823121F580E00E9483070E941F
:1031D000301781111DC084E08093810415E5259688
:1031E0001FAF259741E050E0BE016C5B7F4F8BE144
:1031F00090E00E94D30624961FAF249741E050E050
:10320000BE016D5B7F4F8AE190E00E94D3065ACFEA
:1032100010928004CC5BDF4F0FB6F894DEBF0FBE78
:10322000CDBFDF91CF911F910F91FF90EF90DF9075
:10323000CF9008951F93CF93DF931F92CDB7DEB742
:10324000182F80E591E00E945301812F0E9496077C
:1032500027E0129FF0011124E750FC4F22813381B7
:10326000377041E050E0BE016F5F7F4F820F931FC8
:103270000E94BB1589810F90DF91CF911F91089516
:10328000FC01808D883040F4218D328D232B21F07C
:103290000E941A1990E008958FEF9FEF0895CF9341
:1032A000DF93FC012485283028F08FEF9FEFDF911A
:1032B000CF910895EC010190F081E02D0084F1851B
:1032C000E02D0995892B89F38C850E941A1990E0CD
:1032D000EECFDA01E0918104F0E0FE2FEE27E60F59
:1032E000F71F90E0982F8827A901BD018E0F9F1F1F
:1032F0000C94BB158F929F92AF92BF92CF92DF92A8
:10330000EF92FF920F931F93CF93DF93CDB7DEB76A
:1033100060970FB6F894DEBF0FBECDBF7C019091D1
:103320008004911115C018E0812F60960FB6F894B3
:10333000DEBF0FBECDBFDF91CF911F910F91FF90E8
:10334000EF90DF90CF90BF90AF909F908F900895B7
:1033500008E0933309F404E06B0180E591E00E94FA
:1033600053019E012F5F3F4F5901490110E063E077
:1033700070E0812F0E944616F40181934F0188234B
:10338000C1F01F5F0113F3CF00E0F50181915F01F0
:103390008D3149F0883139F08A51823020F00F5F49
:1033A0001013F3CFC0CF60E170E0802F0E9463164E
:1033B000102FA12EB12C83EE93E00197F1F742E894
:1033C00070E060E0812F0E94DF074FEF62E070E065
:1033D000812F0E94DF07B601C114D10491F48091BE
:1033E0000F019091100101968115F0EC9F0708F4F0
:1033F0005CC09093100180930F0160910F01709158
:103400001001812F0E94CA0786E0E7E1F1E0DE01AA
:10341000199601900D928A95E1F7F70183818F77D4
:103420008C8784818D8785818E87A7014E5F5F4F52
:1034300024E030E06CE070E0812F0E94A407B60128
:10344000812F0E94B50726E030E0AE01475F5F4F55
:1034500066E070E0812F0E94A40761E070E0812F98
:103460000E94631627E02A9DC0012B9D900D112418
:103470009C0127503C4F7901F9011182108222E012
:1034800030E0AE01415F5F4F68E270E0812F0E9443
:1034900069198F859889982789279827F701938339
:1034A00082831682158214823FCF80E090ECA1CFF8
:1034B000CF92DF92EF92FF920F931F93CF93DF9300
:1034C00000D000D000D0CDB7DEB78C016B017A01FF
:1034D000FC01808D883010F40E947F168EEC91E004
:1034E0009A838983F60182819381A481B5818B833C
:1034F0009C83AD83BE83B701CE0101960E947A19E9
:10350000F801808F8830A0F4F586E486128E118E43
:1035100081E026960FB6F894DEBF0FBECDBFDF91D7
:10352000CF911F910F91FF90EF90DF90CF90089572
:1035300080E0EFCF7F928F929F92AF92BF92CF9217
:10354000DF92EF92FF920F931F93CF93DF9300D000
:10355000CDB7DEB7782E8B014A01590122E030E069
:10356000AE014F5F5F4F64E270E00E946919E9802D
:10357000FA80FE24EF24FE24E00EF11E970137703E
:1035800040918004072D10E0433309F042C0085FEA
:103590001F4F102F0027110F110F110FC901800F9E
:1035A000911F4733C9F1A9014A0D5B1D41305840B5
:1035B00098F160E078E06B01C21AD30AA601B40169
:1035C0000E94D306A5014C195D09B4016C0D7D1D47
:1035D000C8010E94D306EA0CFB1CF982EA8222E0B1
:1035E00030E0AE014F5F5F4F64E270E0872D0E94D4
:1035F000A4070F900F90DF91CF911F910F91FF9033
:10360000EF90DF90CF90BF90AF909F908F907F9082
:103610000895005F1F4FBDCFA501B401DACFEF922F
:10362000FF921F93CF93DF9300D0CDB7DEB7182F53
:1036300022E030E0AE014F5F5F4F60E270E00E9439
:103640006919E980FA80FE24EF24FE2422E030E0AC
:10365000AE014F5F5F4F60E270E0812F0E946919F9
:1036600089819A81982789279827E816F90689F48D
:1036700087E0189FF0011124E750FC4FF582E482A7
:10368000C7010F900F90DF91CF911F91FF90EF90A6
:1036900008957C01DBCF1F93CF93DF93182F80E534
:1036A00091E00E945301812F0E940F1BEC0163E007
:1036B00070E0812F0E944616873121F08C3111F085
:1036C000D0E0C0E0CE01DF91CF911F910895CF935C
:1036D000DF93EC018C85883060F40E949816873166
:1036E00011F08C3131F48C850E944B1B8115984070
:1036F00088F3DF91CF910895FC018485883010F420
:103700000C944B1B90E080E008959F92AF92BF9283
:10371000CF92DF92EF92FF920F931F93CF93DF939D
:103720008C015B01942EE52EFC01C688D788F08CB5
:1037300080E591E00E9453018F2D0E940F1BC92D3F
:10374000DE2D8C179D0708F4EC019E01A501B60142
:103750008F2D0E949A1AF801868997898C0F9D1FD8
:10376000978B868BCE01DF91CF911F910F91FF90A8
:10377000EF90DF90CF90BF90AF909F9008958F9281
:103780009F92AF92BF92CF92DF92EF92FF920F93F0
:103790001F93CF936C015B018A01FC01C485C83083
:1037A000F0F57A014130584018F0E12C88E0F82E0D
:1037B00080E591E00E9453018C2F0E940F1B4C0169
:1037C00063E070E08C2F0E944616873111F08C3137
:1037D00049F58E149F0460F380E591E00E94530147
:1037E0009701A50170E060E08C2F0E949A1A60E2B8
:1037F00070E08C2F0E94631662E070E08C2F0E94B4
:10380000461684FD17C063E070E08C2F0E944616B8
:1038100081110BC081E090E0F6019383828310E078
:1038200000E010C0F12CE12CD7CF80E591E00E94A0
:103830005301E2CF40E162E070E08C2F0E94DF078D
:10384000EF2841F3C801CF911F910F91FF90EF90A6
:10385000DF90CF90BF90AF909F908F900895FF9290
:103860000F931F93CF93DF9300D0CDB7DEB7F82E21
:1038700022E030E0AE014F5F5F4F66E270E00E94F1
:10388000691909811A8110270127102722E030E0E9
:10389000AE014F5F5F4F66E270E08F2D0E946919A5
:1038A00089819A819827892798270817190749F449
:1038B000C8010F900F90DF91CF911F910F91FF9052
:1038C00008958C01E3CF1F93CF93DF93182F87E0E8
:1038D000189FE0011124C750DC4F8881998100971F
:1038E00061F480E591E00E945301812F0E942F1C1A
:1038F0002E81821B910999838883DF91CF911F913B
:103900000895FC018485883010F40C94631C90E0C9
:1039100080E008954F925F927F928F929F92AF9234
:10392000BF92CF92DF92EF92FF920F931F93CF93AC
:10393000DF9300D0CDB7DEB7782E6B014A01A82EF9
:10394000B12C27E0829FC0011124FC01E750FC4FFD
:103950007F010081118180E591E00E9453010815EB
:10396000190554F4872D0E942F1CF70126818C0124
:10397000021B1109118300830115110529F563E06C
:1039800070E0872D0E944616843159F0882349F053
:1039900001E010E08C3111F410E000E01195019588
:1039A0001109C8010F900F90DF91CF911F910F91D6
:1039B000FF90EF90DF90CF90BF90AF909F908F904F
:1039C0007F905F904F900895801691060CF48401CB
:1039D00087E08A9DF0018B9DF00D1124E750FC4F8C
:1039E000E280F380C114D10451F12701F7E05F2296
:1039F000872D0E949607840D951D20918004273302
:103A000009F453C09801240D351D2130384008F4C5
:103A10004CC020E038E0490184189508A401B601A3
:103A20000E94BB152601480C591C6801C818D9080A
:103A3000872D0E949607A601B2010E94BB15E00ED9
:103A4000F11E87E08A9DF0018B9DF00D1124E75057
:103A5000FC4FF382E28220813181201B310B3183C4
:103A600020838681800F912F911D8A3F910510F44C
:103A7000232BF1F487E08A9DF0018B9DF00D11243A
:103A8000E750FC4F1682F982EA8222E030E0AE0174
:103A90004F5F5F4F68E270E0872D0E94A40760E4EB
:103AA00070E0872D0E9463167CCFA801B601C5CFB8
:103AB000868377CFCF93DF93FC01218D328D211543
:103AC000310529F48FEF9FEFDF91CF910895EC013D
:103AD000808D4217530708F0A9010E948A1C18160E
:103AE000190684F7298D3A8D281B390B3A8F298FB7
:103AF000EBCF0F931F93CF93DF931F92CDB7DEB71A
:103B0000FC01218D328D232B41F48FEF9FEF0F901D
:103B1000DF91CF911F910F9108958C0141E050E00A
:103B2000BE016F5F7F4FFC01808D0E948A1C1816BA
:103B300019065CF7F801818D928D0197928F818F24
:103B4000898190E0E4CFCF93DF931F92CDB7DEB7AA
:103B500041E050E0BE016F5F7F4FFC0184850E9411
:103B60008A1C1816190634F4898190E00F90DF91B1
:103B7000CF9108958FEF9FEFF9CFFC0184858830B6
:103B800010F40C948A1C90E080E008958F929F922C
:103B9000AF92BF92CF92DF92EF92FF920F931F935B
:103BA000CF93DF93CDB7DEB72A970FB6F894DEBF79
:103BB0000FBECDBF90918004911115C018E0812FE8
:103BC0002A960FB6F894DEBF0FBECDBFDF91CF911E
:103BD0001F910F91FF90EF90DF90CF90BF90AF902B
:103BE0009F908F90089528E0F22E933311F494E083
:103BF000F92E6B01082F80E591E00E9453019E0190
:103C00002F5F3F4F5901490110E063E070E0812FC1
:103C10000E944616F40181934F018823C1F01F5F73
:103C2000F112F3CFF12CF50191915F019D3149F033
:103C3000983139F09A51923020F0F3941F11F3CF5C
:103C4000BDCF60E170E08F2D0E9463161F2DE12E25
:103C5000F12C83EE93E00197F1F7402F70E060E0E4
:103C6000812F0E94DF074FEF62E070E0812F0E94FA
:103C7000DF07B601CD2889F480910F0190911001E2
:103C800001968115F0EC9F0798F1909310018093B5
:103C90000F0160910F0170911001812F0E94CA07DE
:103CA00061E070E0812F0E94631627E02E9DC00125
:103CB0002F9D900D11249C0127503C4F7901F90153
:103CC0001182108222E030E0AE01475F5F4F68E270
:103CD00070E0812F0E94691989859A859827892724
:103CE0009827F7019383828316821582148267CF07
:103CF00080E090ECCACF0F931F93CF93DF93EC013A
:103D00008B01888D883010F40E947F16B80182E004
:103D10000E94C61D888F883050F41D870C871A8E2C
:103D2000198E81E0DF91CF911F910F91089580E06E
:103D3000F9CFCF92DF92EF92FF921F93CF93DF9351
:103D4000EC017B016A018C85883048F40E9498164A
:103D5000882319F08C850E94731688E08C87F70100
:103D600082819381A481B5810097A105B10551F4A9
:103D700090E080E0DF91CF911F91FF90EF90DF9076
:103D8000CF9008958F3F9F4FAF4FBF4F89F370E0A3
:103D900060E081E20E94C61D182F8C87883040F7B2
:103DA00080E591E00E945301A7014E5F5F4F24E040
:103DB00030E06CE070E0812F0E94A407B601812FF3
:103DC0000E94B50764E070E0812F0E9463160E9494
:103DD00091066B017C018C850E949816873111F148
:103DE0008C3101F1882321F20E949106AB01BC01C4
:103DF0004C195D096E097F098D859E85B0E0A0E0B4
:103E000084179507A607B70738F061E070E080E0F7
:103E100090E00E94DA05DFCF8C850E947F1688E053
:103E20008C87A6CF81E090E0A5CF0F931F93CF930F
:103E3000DF9300D0CDB7DEB7FC0124852830E0F455
:103E40008C0180E591E00E94530122E030E0AE0158
:103E50004F5F5F4F60E170E0F80184850E9469194F
:103E600089819A819827892798270F900F90DF9151
:103E7000CF911F910F91089590E080E0F6CF0F93BE
:103E80001F93CF93DF9300D0CDB7DEB7FC0124851D
:103E90002830E0F48C0180E591E00E94530122E09B
:103EA00030E0AE014F5F5F4F64E070E0F801848561
:103EB0000E94691989819A819827892798270F90EC
:103EC0000F90DF91CF911F910F91089590E080E0C6
:103ED000F6CF0F931F93CF93DF93CDB7DEB728971D
:103EE0000FB6F894DEBF0FBECDBF8C01D801599636
:103EF0004D915C915A974115510551F0ED91FC910E
:103F0000048CF58DE02D70E060E0C8010995EECFDE
:103F1000F801808D0E94631C892BB1F148E050E0CC
:103F2000BE016F5F7F4FD80158968C910E948A1C0A
:103F300018161906F4F4D801509684E0FE01319663
:103F400001900D928A95E1F78D8190E0982F882756
:103F50002E81820F911DF801958B848B8F81282FE4
:103F600030E0322F22278885820F932F911D928F68
:103F7000818F28960FB6F894DEBF0FBECDBFDF91BC
:103F8000CF911F910F91089590E080E0F2CF4F9272
:103F90005F926F927F928F929F92AF92BF92CF92D9
:103FA000DF92EF92FF920F931F93CF93DF93CDB7E2
:103FB000DEB763970FB6F894DEBF0FBECDBF7C01AE
:103FC0006B013A01FB0120E090E080E06AE0319172
:103FD000332309F461C040ED430F4A3008F04DC06F
:103FE000689FA001699F500D1124CA01C097830FDB
:103FF000911D37FD9A958F3F910549F340F3F701E5
:10400000428153816481758180919C0590919D05C9
:10401000A0919E05B0919F05481759076A077B0735
:1040200009F40DC28701085F1F4F0E9491066F704F
:1040300077277C5FC8010E947B1E813009F004C293
:104040008EEC91E09A838983F70182819381A48128
:10405000B5818B839C83AD83BE8345E350E0BE0175
:104060006F5F7F4FC8010E943408892BA9F5D12CBE
:10407000C12CC8010E948B1617C03E3209F0BFCF79
:10408000233009F4BCCFD301A20FB11D12968C933B
:104090002F5F90E080E09BCF233009F0B0CFF30199
:1040A0008583CC24C394D12CC60163960FB6F894B3
:1040B000DEBF0FBECDBFDF91CF911F910F91FF905B
:1040C000EF90DF90CF90BF90AF909F908F907F90B8
:1040D0006F905F904F9008950E949106F70177834B
:1040E000668342E050E0B7016A5F7F4FC8010E94DB
:1040F000851B81E090E09A83898342E050E0BE0115
:104100006F5F7F4FC8010E94851B80E091E09A831A
:10411000898342E050E0BE016F5F7F4FC8010E947B
:10412000851B1A82198242E050E0BE016F5F7F4F0B
:10413000C8010E94851B42E050E0BE016F5F7F4FC7
:10414000C8010E94851B42E050E0BE016F5F7F4FB7
:10415000C8010E94851B5601F6018081882301F168
:104160006501F60181912F01882311F08E32B1F49F
:1041700046018A189B081814190474F48D8641E0CE
:1041800050E0BE01635F7F4FC8010E94851BA40100
:10419000B501C8010E94851B5201DECF6201E1CF4B
:1041A0001D8641E050E0BE01635F7F4FC8010E9461
:1041B000851BC12CDD24D394DA82C98242E050E011
:1041C000BE016F5F7F4FC8010E94851BDA82C982E2
:1041D00042E050E0BE016F5F7F4FC8010E94851B27
:1041E000C8010E94FF16892B09F441CFF3E0AF2EDE
:1041F000B12C230122E0420E511CD4C0F7014281B0
:10420000538164817581808D918DA28DB38D481706
:1042100059076A077B0709F008C1848D958DC597FA
:1042200009F003C181A192A15DEFC52EDD24DA94CE
:104230000C970CF4ADC04CE050E0BE016F5F7F4FB7
:10424000C8010E945A1D8B819C8198278927982735
:104250009A8B898BF7014681578129813A814217D0
:10426000530709F0E7C097FFE5C08F7092703BEFEE
:10427000C32EDD24DA94892B09F08AC06F807884FC
:104280007624672476242AEFC22EDD24DA94611482
:10429000710409F47DC0D12CC12C8D819E81982799
:1042A00089279827C816D906F8F441E050E0BE01E6
:1042B000635F7F4FC8010E945A1D4D85442331F032
:1042C00050E070E060E0C8010E945A1D8D858111A8
:1042D000ECCF44E050E070E060E0C8010E945A1D5D
:1042E000FFEFCF1ADF0AD9CF912C812C41E050E0AB
:1042F000BE016D5E7F4FC8010E945A1D4B89842FFD
:10430000807C09F06CC0442331F050E070E060E044
:10431000C8010E945A1D8B898111E8CF42E050E00C
:10432000BE01615F7F4FC8010E945A1D42E050E00C
:10433000BE01635F7F4FC8010E945A1D44E050E0F8
:1043400070E060E0C8010E945A1D42E050E0BE01EA
:104350006F5E7F4FC8010E945A1D8F8598894989D9
:104360005A898115914009F043C0CD84DE84DC2454
:10437000CD24DC2481E0C816D104D1F54115544088
:1043800009F04AC044E050E0B201C8010E945A1D41
:1043900021E0A21AB10809F46CCEFFEFCF16DF06B8
:1043A00009F067CE0E9491063B014C01C8010E94B2
:1043B000691F181619060CF421CF0E949106661980
:1043C000770988099909693873418105910548F58C
:1043D00062E370E080E090E00E94DA05E7CF41E020
:1043E00050E070E060E0C8010E945A1D1B8A93CF24
:1043F00054274527542770E060E0C8010E945A1DE9
:10440000FFEF8F1A9F0A6814790409F06FCF96EFB7
:10441000C92EDD24DA94BCCFE7EFCE2EDD24DA946A
:10442000B7CFCC24CA94DC2CB3CF6EEFC62EDD24DC
:10443000DA94AECF4CEFC42EDD24DA94A9CF8EEF00
:10444000C82EDD24DA9430CED12CC12C2DCECF92C3
:10445000DF92EF92FF920F931F93CF93DF93CDB72D
:10446000DEB7AF970FB6F894DEBF0FBECDBF7C01AD
:104470006A010EEC11E01A8309831C861B8688EE04
:1044800093E0A0E0B0E08D879E87AF87B88B81E294
:1044900091E09A878987188F0F8B198E1A8E1B8E41
:1044A0001C8E88E089A31BA70AA71CA61DA61EA612
:1044B0001FA68091900590919105A0919205B091D1
:1044C00093058EA39FA3A8A7B9A78B839C83AD83D5
:1044D000BE8318861F82AE01465D5F4FCE010196F6
:1044E0000E94C71F81309105B1F4D701ED91FC9175
:1044F0000488F589E02D1DA30CA38CA59DA5AEA570
:10450000BFA58EA39FA3A8A7B9A7A601BE016C5DF6
:104510007F4FC7010995AF960FB6F894DEBF0FBE67
:10452000CDBFDF91CF911F910F91FF90EF90DF9062
:10453000CF900895CF92DF92EF92FF920F931F9347
:10454000CF93DF93CDB7DEB7AF970FB6F894DEBF4A
:104550000FBECDBF8C016B017A018EEC91E09A8386
:1045600089831B821C821D821E821C861B8648EE4C
:1045700053E060E070E04D875E876F87788B21E2C3
:1045800031E03A872987988F8F8B198E1A8E1B8E70
:104590001C8E28E029A39BA78AA71CA61DA61EA6E1
:1045A0001FA6D8011C968C91883060F40E94981642
:1045B000882321F0F80184850E94731688E0D801D1
:1045C0001C968C938091900590919105A0919205F5
:1045D000B09193058EA39FA3A8A7B9A78B839C83B3
:1045E000AD83BE8318861F82AE01465D5F4FB60164
:1045F000CE0101960E94C71F0097C1F0D801ED912E
:10460000FC910684F785E02D8EEC91E09DA38CA3B0
:104610008CA59DA5AEA5BFA58EA39FA3A8A7B9A74E
:10462000A701BE016C5D7F4FC8010995AF960FB61B
:10463000F894DEBF0FBECDBFDF91CF911F910F91D8
:10464000FF90EF90DF90CF900895EF92FF920F933D
:104650001F93CF93DF9300D000D0CDB7DEB78C018E
:104660007B01FB0184858830A8F08EEC91E0F80195
:10467000918380831282138214821582C8010F9065
:104680000F900F900F90DF91CF911F910F91FF909E
:10469000EF90089580E591E00E94530124E030E01E
:1046A000AE014F5F5F4F6CE070E0F70184850E94C0
:1046B00069198EEC91E0F8019183808389819A8158
:1046C000AB81BC8182839383A483B583D7CF1F92B0
:1046D0000F920FB60F9211248F939F938091E10058
:1046E0009091E100937F9093E10083FF0FC01092BF
:1046F000E90091E09093EB001092EC0092E390932C
:10470000ED001092F80398E09093F00082FF22C031
:1047100093E09093E9009091F200992319F09AE3C5
:104720009093E8009091A203992341F09091A20305
:1047300091509093A203911101C05D9A9091F7035B
:10474000992341F09091F70391509093F7039111C1
:1047500001C0289A84FF18C08091E2008E7E81609B
:104760008093E2008091E1008F7E8093E100809150
:10477000A3038E7E80618093A3039F918F910F90FE
:104780000FBE0F901F90189580FFF7CF8091E20029
:104790008E7E80618093E2008091E1008E7E809326
:1047A000E1008091A3038E7E8160E5CF1F920F927E
:1047B0000FB60F921124CF92DF92EF92FF920F93D8
:1047C0001F932F933F934F935F936F937F938F9399
:1047D0009F93AF93BF93EF93FF93CF93DF93CDB7A7
:1047E000DEB76C97DEBFCDBF1092E9008091E80084
:1047F00083FF25C068E0CE0145960E94190382EF31
:104800008093E8008D8987FF39C09091E80090FF80
:10481000FCCF982F907609F034C19E894F89588D2E
:104820002F89F88C911131C0803861F58091A403F3
:104830008093F1001092F1008EEF8093E8006C9667
:104840000FB6F894DEBF0FBECDBFDF91CF91FF91C1
:10485000EF91BF91AF919F918F917F916F915F91F8
:104860004F913F912F911F910F91FF90EF90DF900B
:10487000CF900F900FBE0F901F9018959EEF9093C2
:10488000E800C7CF1092F100D5CF913059F48111D3
:10489000D3CF4130510581F68091A4038D7F809361
:1048A000A403CACF933049F48111C6CF41305105DA
:1048B00019F68091A4038260F2CF953041F4809183
:1048C000E80080FFFCCF20682093E300B5CF96304E
:1048D00009F0A9C00B8D1C8D22E01092E900109206
:1048E000A00310929F03F2122EC010929E0310920A
:1048F0009D030E94E8021F8299E09983FA8291E069
:104900009E8390EA98879AEF998720919F03309130
:10491000A003275F3F4F3C832B838D831092E900D8
:104920001092A00310929F0310939E0300939D0387
:1049300049E050E0BE016F5F7F4F80E00E94C202FD
:104940000E94E80279CF10939E0300939D030E947A
:104950007902DC0112960D911C910115110509F4E3
:1049600051C1D801ED91FC910480F581E02DBE018B
:104970006B5E7F4FC8010995009709F03EC1F801B1
:1049800000851185EACFF3E0FF120EC08F898823DE
:1049900009F440C0823061F440E86BE089E491E0C2
:1049A0000E948F28811148CF81E28093EB0047CF8E
:1049B000813029F440E86BE08DE391E0F1CF833062
:1049C00099F70E947902DC011296ED90FC908E011D
:1049D0000F5F1F4F6801E114F10479F0D701ED91E9
:1049E000FC910680F781E02DB801C7010995080FF9
:1049F000111DF701E084F184EECFD8011C92F6017D
:104A000001900020E9F73197BF016C197D0940E062
:104A1000C601C6CF67E271E0FB01449150E080E837
:104A20000E94C20209CF973009F4BECF983021F41A
:104A300081E08093F10000CF993009F0FDCE8370C2
:104A400009F0B2CFE8E4F1E081E031E096E32191B2
:104A5000222371F08093E9003093EB00DF0111977E
:104A60002C912093EC009093ED008F5F873079F7C5
:104A70008EE78093EA001092EA008F898093F80312
:104A8000DBCE8B8D9C8D1092E9001092A0031092CA
:104A90009F0390939E0380939D03898D811192C003
:104AA0008E899D89913A49F4813209F07DCF47E0A2
:104AB00050E064E071E080E0B3CF913209F074CF50
:104AC000833269F48F89988DB0E0A0E08093000173
:104AD00090930101A0930201B0930301ADCE803207
:104AE00069F48091E80082FFFCCF67E084E091E008
:104AF0000E9419038BEF8093E8009ECE823209F06A
:104B00009BCE8F8980930B01EEEFFFE78591949107
:104B10008B3F9C4D51F1E0E0F8E0809104019091D1
:104B20000501A0910601B0910701803B9440A105C9
:104B3000B105F1F480910B0180FD1AC0EE3F8AE0CF
:104B4000F80789F587E797E7918380838091600074
:104B50008093A10388E19BE00FB6F894A895809319
:104B600060000FBE9093600067CEEEEFFAE0D5CF05
:104B7000808191818737974709F05ECEA895809113
:104B800060008861809360008091A1038093600041
:104B9000EE3F2AE0F20789F08091FE0A9091FF0A29
:104BA0009183808349CE808191818737980751F224
:104BB0009093FF0A8093FE0AC5CF1092FF0A1092CD
:104BC000FE0A3ACE0E947902DC0112960D911C91E8
:104BD0000115110509F4E8CED801ED91FC91019081
:104BE000F081E02DBE016B5E7F4FC80109958111F8
:104BF00023CEF80100851185EBCF181619060CF4A9
:104C00001BCED2CEF1E0FF12BECE6BE271E004CF3C
:104C10001F920F920FB60F9211242F933F934F9331
:104C20005F936F937F938F939F93AF93BF93EF9314
:104C3000FF9383E894E00E94A403FF91EF91BF915A
:104C4000AF919F918F917F916F915F914F913F9124
:104C50002F910F900FBE0F901F9018951F920F92DB
:104C60000FB60F9211242F938F939F93EF93FF937F
:104C7000E0919304F09194048081E0919904F09183
:104C80009A0482FD1BC0908180919C048F5F8F737A
:104C900020919D04821741F0E0919C04F0E0ED57D3
:104CA000FB4F958F80939C04FF91EF919F918F9183
:104CB0002F910F900FBE0F901F9018958081F4CF09
:104CC0001F920F920FB60F9211242F933F938F9341
:104CD0009F93AF93BF938091950390919603A0917A
:104CE0009703B09198033091940323E0230F2D375D
:104CF00058F50196A11DB11D20939403809395034F
:104D000090939603A0939703B0939803809199038F
:104D100090919A03A0919B03B0919C030196A11DD1
:104D2000B11D8093990390939A03A0939B03B09332
:104D30009C03BF91AF919F918F913F912F910F90C5
:104D40000FBE0F901F90189526E8230F0296A11D05
:104D5000B11DD2CF1F920F920FB60F9211240F9058
:104D60000FBE0F901F9018951F920F920FB60F92C3
:104D700011242F933F934F935F936F937F938F9360
:104D80009F93AF93BF93EF93FF938091B900887F78
:104D9000803609F44AC0F0F5883209F4A7C018F546
:104DA000803109F49BC0B8F4882309F4F9C0883035
:104DB00009F494C0FF91EF91BF91AF919F918F91B2
:104DC0007F916F915F914F913F912F910F900FBE07
:104DD0000F901F901895883109F488C0803251F7E0
:104DE0008093550414C0803409F49DC040F480338E
:104DF000B9F38833F9F68093550485ECB0C080355B
:104E000009F485C0883509F496C0883499F60E9463
:104E10004F0AD0CF883909F48CC038F5883729F08B
:104E200050F4883611F0803729F683E080935704D8
:104E30001092910357C0883809F47BC0803919F06B
:104E4000803809F0B7CF80919103803208F071C0AB
:104E5000E091910381E08E0F809391038091BB00DC
:104E6000F0E0EF58FC4F80833DC0803B39F0E0F428
:104E7000803A09F479C0883A09F09CCF84E08093A5
:104E8000570410926E0310926D03E0916B03F09142
:104E90006C03099580916D0381110FC081E08093AF
:104EA0006D0310924B0309C0803C09F4A6CF883CE7
:104EB00009F4A3CF883B09F07DCFE0916E0381E038
:104EC0008E0F80936E03F0E0E55BFC4F8081809352
:104ED000BB0090916E0380916D0329C080913204D4
:104EE0008093BB0085EC8093BC0064CF9091540408
:104EF00080915304981758F5E091540481E08E0F87
:104F000080935404F0E0ED5CFB4F8081E9CFE091A9
:104F1000540481E08E0F809354048091BB00F0E034
:104F2000ED5CFB4F8083909154048091530498175B
:104F3000C8F285E8D8CFE091540481E08E0F8093C9
:104F400054048091BB00F0E0ED5CFB4F80838091C6
:104F5000560481115CCF81E08093310484EA809310
:104F6000BC001092570426CF85EC8093BC001092B1
:104F7000570480919103803230F4E0919103F0E086
:104F8000EF58FC4F10826091910370E0E0916F0345
:104F9000F091700381E793E00995109291030ACF95
:104FA0001092550434CF1F920F920FB60F92112416
:104FB0002F933F934F935F936F937F938F939F9321
:104FC000AF93BF93CF93DF93EF93FF938091280329
:104FD000C091B406D0E087FF24C0109285001092E3
:104FE0008400809128038F5F809328038091280399
:104FF000082E000C990B8C179D0724F48091280330
:105000008C30C4F1809184009091850004968034A6
:105010009C4908F47AC080918400909185000496A0
:1050200076C080912803082E000C990B8C179D07E1
:10503000C4F6E09128038E2FEE0F990BFC01EE0FC2
:10504000FF1FE80FF91FE057F94F808186FFC9CF96
:10505000E09128038E2FEE0F990BFC01EE0FFF1F3E
:10506000E80FF91FE057F94F808160E08F730E94CD
:105070002705B7CF2091840030918500E091280367
:105080008E2FEE0F990BFC01EE0FFF1FE80FF91F9B
:10509000E057F94F81819281820F931F909389008D
:1050A00080938800E09128038E2FEE0F990BFC016E
:1050B000EE0FFF1FE80FF91FE057F94F808186FFC1
:1050C00011C0E09128038E2FEE0F990BFC01EE0F1B
:1050D000FF1FE80FF91FE057F94F808161E08F73E0
:1050E0000E942705FF91EF91DF91CF91BF91AF9182
:1050F0009F918F917F916F915F914F913F912F91F0
:105100000F900FBE0F901F90189580E49CE990932C
:105110008900809388008FEF80932803E3CFEF927C
:10512000FF920F931F93CF93DF93F82E192FE62E44
:10513000042F81E0860F880F0E94940283E00E9472
:105140009402CF2DD12FEC0EFD2EF11CCE15DF05D4
:10515000B9F007FF13C0FE0184910E949402182F3A
:1051600080E00E949402812321968111EFCFDF918C
:10517000CF911F910F91FF90EF9008958881EDCF0F
:1051800081E0F5CF109286041092850448EE53E03A
:1051900060E070E040938704509388046093890432
:1051A00070938A0488E591E090938404809383044B
:1051B0008DEC90E09093900480938F048CEC90E0C1
:1051C000909392048093910488EC90E090939404DF
:1051D0008093930489EC90E09093960480939504D7
:1051E0008AEC90E090939804809397048EEC90E082
:1051F00090939A048093990410929C0410929D04B9
:1052000010929E0410929F04109223051092220582
:105210004093240550932505609326057093270538
:105220008AE691E090932105809320058FEF9FEF10
:1052300090932D0580932C058EEC91E09093710551
:105240008093700510927205109273051092740588
:1052500010927505909377058093760510927805E6
:105260001092790510927A0510927B0590937D0536
:1052700080937C0510927E0510927F051092800528
:105280001092810590938305809382051092840586
:1052900010928505109286051092870590938905D6
:1052A0008093880510928A0510928B0510928C05C8
:1052B00010928D0590939505809394051092960514
:1052C00010929705109298051092990590938F056A
:1052D00080938E0510929005109291051092920580
:1052E0001092930590939B0580939A0510929C05CC
:1052F00010929D0510929E0510929F059093A10516
:105300008093A0051092A2051092A3051092A40507
:105310001092A50526EA35E01092E7051092E60501
:105320003093EA052093E905E0E4F0E0F093EC0522
:10533000E093EB051092ED051092EE051092F0054A
:105340001092EF051092F1051092F3051092F205FC
:105350001092F5051092F4051092F7051092F605DB
:105360001092F9051092F8051092FB051092FA05BB
:105370001092FD051092FC051092FF051092FE059B
:105380001092050610920406109207061092060667
:10539000109209061092080610920B0610920A0647
:1053A00010921906109218061092E805109226061F
:1053B000109228061092270610928306E3E0F1E08F
:1053C000F0930D06E0930C06EDE0F1E0F0930F068C
:1053D000E0930E06E7E1F1E0F0931106E09310068A
:1053E000E1E2F1E0F0931306E0931206EBE2F1E064
:1053F000F0931506E0931406E5E3F1E0F093170649
:10540000E0931606EFE3F1E0F0931B06E0931A0633
:10541000E0E4F1E0F0931D06E0931C06EAE4FAE014
:10542000F0931F06E0931E063093010620930006BA
:10543000EDE8F2E0F0932106E093200630930306B6
:10544000209302062BE431E03093230620932206BA
:10545000109287061092860640938806509389061C
:1054600060938A0670938B062CE731E030938506B3
:105470002093840690930C0780930B0710920D07DE
:1054800010920E0710920F07109210071092FF064D
:105490001092FE06409300075093010760930207A5
:1054A0007093030720EA31E03093FD062093FC0659
:1054B00028E02093080728EE33E030930A07209372
:1054C00009071092DC061092DB064093DD0650932C
:1054D000DE066093DF067093E0062EE831E030933D
:1054E000DA062093D9062CEF36E03093E6062093B7
:1054F000E5069093E8068093E7062AE02093E90604
:105500001092EA061092EB063FE03093EC0690937F
:10551000EE068093ED062093EF061092F0061092AF
:10552000F10683E08093F2061092F4061092F306DF
:1055300086ED9BE09093F6068093F5061092F706B1
:10554000E5EBF6E02FEF48EB5BE08091B4068C30A2
:10555000B8F491E0980F9093B406808390E0DC015A
:10556000AA0FBB1FA80FB91FA057B94F12965C9383
:105570004E931197339686E0E93DF80731F7089589
:105580002083F8CFCF93DF9300D000D000D0CDB7E9
:10559000DEB7789484B5826084BD84B5816084BDB3
:1055A00085B5826085BD85B5816085BD80916E00C1
:1055B000816080936E0010928100809181008260F2
:1055C000809381008091810081608093810080912F
:1055D0008000816080938000809191008260809340
:1055E0009100809191008160809391008091900062
:1055F0008160809390008091C10084608093C1009D
:105600008091C10082608093C1008091C10081605F
:105610008093C1008091C30081608093C30080911A
:10562000C00082608093C0008091C200816080933E
:10563000C20080917A00846080937A0080917A0021
:10564000826080937A0080917A00816080937A00F2
:1056500080917A00806880937A001092F80310920B
:10566000A4031092A3038091D70081608093D70098
:1056700080EA8093D80089B5806189BD89B5826050
:1056800089BD09B400FEFDCF61E070E080E090E0EC
:105690000E94DA058091D8008F7C80618093D800C9
:1056A0008091E000807F8093E0008091E1008E7E19
:1056B0008093E1008DE08093E200559A209A0EECF1
:1056C00011E01A8309838AE08B831C821D828FE09C
:1056D0008E83CE0101960E9459171A8309831B827B
:1056E0001C821D821E8280E591E00E94530144E0ED
:1056F00050E0BE016D5F7F4F8FE090E00E94BB15D0
:105700008DE18093260680912706909128060E94BD
:10571000A7300091260610E0C80101960E940B30C8
:105720009093280680932706FC01E00FF11F10825A
:1057300022E0DC012C9325E011962C93A801425025
:10574000510968E972E002960E9437318AE79CE0CD
:105750009093B0038093AF0383EB9BE09093AE03F1
:105760008093AD0386E89BE09093AC038093AB03FA
:1057700088E29EE09093AA038093A9038AEE90E1C9
:105780009093A8038093A70383ED9DE09093A603D5
:105790008093A5038AE393E19093B2038093B103CE
:1057A00087E492E19093B4038093B30390E080E0A8
:1057B0003FE742EF480F443020F0843011F08A3048
:1057C00039F4FC01E75DF94F20812F3709F0308370
:1057D00001968E31910569F761E084E00E945505DC
:1057E00061E084E00E94270589ED96E0909325060C
:1057F000809324069093E7058093E60586EE95E076
:105800000E94560186EA95E00E94D6090E9447123E
:1058100095E0992E20E0E22E20E0F22E8824839459
:1058200032E0C32ED12CAA24A394B12C8091B903C9
:10583000882309F44AC00091B503102F117000FFAE
:1058400007C080E00E94FE0411E0892B09F410E0FB
:1058500001FF06C081E00E94FE04892B09F012605E
:1058600002FF06C082E00E94FE04892B09F014604A
:1058700003FF06C083E00E94FE04892B09F0186034
:1058800004FF06C084E00E94FE04892B09F0106129
:1058900005FF06C085E00E94FE04892B09F0106216
:1058A00006FF06C086E00E94FE04892B09F0106402
:1058B00007FF06C087E00E94FE04892B09F01068EC
:1058C00040E0612F80E00E94E60D8091BA038823BA
:1058D00009F44AC00091B603102F117000FF07C0F1
:1058E00088E00E94FE0411E0892B09F410E001FF1A
:1058F00006C089E00E94FE04892B09F0126002FFB5
:1059000006C08AE00E94FE04892B09F0146003FFA0
:1059100006C08BE00E94FE04892B09F0186004FF8A
:1059200006C08CE00E94FE04892B09F0106105FF7F
:1059300006C08DE00E94FE04892B09F0106206FF6C
:1059400006C08EE00E94FE04892B09F0106407FF58
:1059500006C08FE00E94FE04892B09F0106840E029
:10596000612F81E00E94E60D8091BB03882309F43A
:105970004AC00091B703102F117000FF07C080E1EB
:105980000E94FE0411E0892B09F410E001FF06C01B
:1059900081E10E94FE04892B09F0126002FF06C01B
:1059A00082E10E94FE04892B09F0146003FF06C007
:1059B00083E10E94FE04892B09F0186004FF06C0F1
:1059C00084E10E94FE04892B09F0106105FF06C0E6
:1059D00085E10E94FE04892B09F0106206FF06C0D3
:1059E00086E10E94FE04892B09F0106407FF06C0BF
:1059F00087E10E94FE04892B09F0106840E0612FC6
:105A000082E00E94E60D8091BC038823D1F10091D1
:105A1000B803102F117000FF07C088E10E94FE0438
:105A200011E0892B09F410E001FF06C089E10E9412
:105A3000FE04892B09F0126002FF06C08AE10E9471
:105A4000FE04892B09F0146003FF06C08BE10E945D
:105A5000FE04892B09F0186004FF06C08CE10E9447
:105A6000FE04892B09F0106105FF06C08DE10E943C
:105A7000FE04892B09F0106240E0612F83E00E9450
:105A8000E60D8091240690912506DC01ED91FC91B4
:105A90000084F185E02D0995892B09F4CEC1809110
:105AA000240690912506DC01ED91FC910284F3859A
:105AB000E02D09959C018F3F980719F3982F80914D
:105AC000F105882309F492C0973F09F07EC0109237
:105AD000F105A091E905B091EA056C916137C1F13A
