:1000000001C100001FC100001DC100001BC1000094
:1000100019C1000017C1000015C1000013C1000084
:1000200011C100000FC100000DC100000BC1000094
:1000300009C1000007C1000005C1000003C10000A4
:1000400001C10000FFC00000FDC00000FBC00000B7
:10005000F9C00000F7C00000F5C000000AC10000B0
:10006000F1C00000EFC00000EDC00000EBC00000D8
:10007000E9C00000E7C00000E5C00000E3C00000E8
:10008000E1C00000DFC00000DDC00000DBC00000F8
:10009000D9C00000D7C00000D5C00000D3C0000008
:1000A000D1C00000CFC00000CDC00000CBC0000018
:1000B000C9C00000C7C00000C5C00000C3C0000028
:1000C000C1C00000BFC00000BDC00000BBC0000038
:1000D000B9C00000B7C00000B5C00000B3C0000048
:1000E000B1C0000000002100240027002A002D00DC
:1000F0003000330001010000040107010A01000083
:100100002200250028002B002E00310034000201BF
:100110000000050108010B0100002000230026005B
:1001200029002C002F00320000010000030106010D
:10013000090105050505070508080808020202026D
:100140000A0A080804040404010101010101010173
:100150000303030303030303040707070C0C0C0C3E
:100160000C0C0C0C02020202060606060606060627
:100170000B0B0B0B0B0B0B0B0102102020080810B4
:100180002040102040800201020108040201010207
:1001900004081020408080402010080402018004E0
:1001A000020180402010080402010804020101023B
:1001B0000408102040800102040810204080000044
:1001C000090A02080B0C0D070603040100000000D9
:1001D000000000000000000000000000000000001F
:1001E0000000000000000000000011100F000000DF
:1001F00000000000000000000000000000000000FF
:100200000000000011241FBECFEFD1E2DEBFCDBF42
:1002100000E00CBF12E0A0E0B2E0EEE5F6E000E0A6
:100220000BBF02C007900D92A230B107D9F71BBED9
:1002300012E0A2E0B2E001C01D92AB30B107E1F7DD
:1002400000D20BC2DDCE8091000261E0C8D168EE21
:1002500073E080E090E055D08091000260E0BFD173
:1002600068EE73E080E090E04CC08091000261E0B5
:1002700003C11F920F920FB60F9211242F933F9339
:100280008F939F93AF93BF93809106029091070243
:10029000A0910802B091090230910A020196A11DB5
:1002A000B11D232F2D5F2D3720F02D570196A11D55
:1002B000B11D20930A028093060290930702A09337
:1002C0000802B09309028091020290910302A0916A
:1002D0000402B09105020196A11DB11D8093020296
:1002E00090930302A0930402B0930502BF91AF91D3
:1002F0009F918F913F912F910F900FBE0F901F9064
:1003000018959B01AC017FB7F894809102029091FF
:100310000302A0910402B091050266B5A89B05C036
:100320006F3F19F00196A11DB11D7FBFBA2FA92FF4
:10033000982F8827860F911DA11DB11D62E0880F9F
:10034000991FAA1FBB1F6A95D1F7BC012DC0FFB72B
:10035000F8948091020290910302A0910402B0915E
:100360000502E6B5A89B05C0EF3F19F00196A11D57
:10037000B11DFFBFBA2FA92F982F88278E0F911D6F
:10038000A11DB11DE2E0880F991FAA1FBB1FEA95AE
:10039000D1F7861B970B885E9340C8F221503040FE
:1003A0004040504068517C4F2115310541055105B1
:1003B00071F60895789484B5826084BD84B58160B7
:1003C00084BD85B5826085BD85B5816085BDEEE65D
:1003D000F0E0808181608083E1E8F0E0108280813C
:1003E00082608083808181608083E0E8F0E08081AA
:1003F00081608083E1EBF0E0808184608083E0EBCA
:10040000F0E0808181608083E1E9F0E080818260BA
:100410008083808181608083E0E9F0E08081816079
:100420008083E1EAF0E08081826080838081816066
:100430008083E0EAF0E0808181608083E1E2F1E0A6
:10044000808182608083808181608083E0E2F1E04E
:10045000808181608083EAE7F0E08081846080832E
:1004600080818260808380818160808380818068D8
:1004700080831092C1000895CF93DF93482F50E0FE
:10048000CA0188589E4FFC0134914E5C5E4FFA01C0
:100490008491882369F190E0880F991FFC01EC5149
:1004A000FF4FA591B491FC01E250FF4FC591D4914B
:1004B000662351F42FB7F8948C91932F909589234C
:1004C0008C93888189230BC0623061F42FB7F89434
:1004D0008C91932F909589238C938881832B88838B
:1004E0002FBF06C09FB7F8948C91832B8C939FBF2E
:1004F000DF91CF910895893009F449C08A30A0F482
:10050000843051F1853040F4823079F1833000F548
:10051000813009F063C026C0873079F1883098F5C2
:10052000863009F05BC025C08D3009F442C08E30A2
:1005300028F48B30B1F18C30C0F52DC0803109F436
:1005400042C0813109F445C08F3009F047C037C03F
:10055000809180008F7703C0809180008F7D809391
:100560008000089584B58F7702C084B58F7D84BDE7
:1005700008958091B0008F7703C08091B0008F7D87
:100580008093B0000895809190008F7707C080918C
:1005900090008F7D03C080919000877F80939000B2
:1005A00008958091A0008F7707C08091A0008F7D73
:1005B00003C08091A000877F8093A0000895809160
:1005C00020018F7703C0809120018F7D80932001CF
:1005D000089580912001877F809320010895FF92E4
:1005E0000F931F93F62E482F50E0CA0182549E4F5E
:1005F000FC012491CA0188589E4FFC0114914E5C65
:100600005E4FFA0104910023C1F0222311F0822FE2
:1006100072DFE02FF0E0EE0FFF1FE250FF4FA591D9
:10062000B4919FB7F894FF2021F48C911095812309
:1006300002C08C91812B8C939FBF1F910F91FF90D3
:100640000895CF93DF93B6DE10DEC0E0D0E0FBDD8F
:0E0650002097E9F30E940000FACFF894FFCF44
:02065E000D008D
:00000001FF
