:100000000C9474000C949C000C949C000C949C0028
:100010000C949C000C949C000C949C000C949C00F0
:100020000C949C000C949C000C949C000C949307E2
:100030000C949C000C949C000C949C000C949C00D0
:100040000C9445100C949C000C9485130C94B713DD
:100050000C949C000C949C000C949C000C949C00B0
:100060000C94570B0C949C00D906F5061706F50660
:100070008006F506F505A205F506F506F506F50672
:10008000F506B904F5068805F506DC05000000084C
:10009000000201000003040700000000000000004F
:1000A000010204081020408001020408102001020F
:1000B00004081020040404040404040402020202DC
:1000C00002020303030303030000000025002800CD
:1000D0002B0000000000240027002A001E04750ADF
:1000E00036103A10E713701411241FBECFEFD8E07A
:1000F000DEBFCDBF11E0A0E0B1E0E6ECFEE202C061
:1001000005900D92AC3DB107D9F724E0ACEDB1E01C
:1001100001C01D92AC3AB207E1F710E0C8EED0E0A2
:1001200004C02297FE010E94E815CC3DD107C9F713
:100130000E9480140C9461170C940000833008F026
:1001400062C0482F440F440F440F485F453108F008
:1001500044E1582F550F550F550F90E071E054179B
:10016000E8F42EEF250F2231B0F4E52FF0E0DF01A7
:10017000A756BD4F2C91223070F4972BEE0FFF1F26
:10018000E259FD4F21E030E0A72FA62311F420E033
:1001900030E031832083770F5F5FE1CF81110AC0A8
:1001A0009C7FF8942BB1892F809582239623892BED
:1001B0008BB928C08130C9F46923F89425B1892FFF
:1001C0008F7380958223262F2F73822B85B988B158
:1001D00062956695669563709295969596959370DF
:1001E00090959823692B68B90DC09F70F89428B139
:1001F000892F880F880F809582236923660F660FE9
:10020000862B88B9789408950F931F93CF93DF932B
:10021000EB01843180F5082F10E0F801E756FD4F1F
:1002200090819330A1F0943031F582508231E0F426
:10023000F801E551FE4F208130E0C901880F991F78
:10024000820F931F81509E4F0E9430090DC0833052
:1002500041F09BEF980F923020F097EF980F93307A
:1002600018F4BE010E944911F801EE0FFF1FE25978
:10027000FD4FD183C083DF91CF911F910F910895DE
:10028000CF93C82F863058F54091B3025091B402F5
:1002900021E030E0082E02C0220F331F0A94E2F75B
:1002A000672B49F420953095242335233093B402ED
:1002B0002093B30214C0242B352B3093B402209327
:1002C000B3028091DC0181110AC08C2F0E942C1195
:1002D000AC016C2F8BE993E0CF910C94FF0DCF9183
:1002E0000895DB019A019091DD019C30D0F5409199
:1002F000DE01682F70E0442369F0E42FF0E0E25261
:10030000FE4F8081FB01E551FE4F808341504093B9
:10031000DE0107C0FB01E551FE4F90839F5F909384
:10032000DD01FB01E551FE4F1A161B067CF4121687
:10033000130664F4408150E0CA01880F991F840FAE
:10034000951FAD0181509E4F0C946B08208130E0C9
:10035000C901880F991F820F931F81509E4F0C94E3
:10036000E9086EE071E08BE993E00C948E0ECF9378
:10037000DF93C82FD0E0C551DE4F288130E0C9019E
:10038000880F991F820F931F81509E4F0E94EF0884
:1003900088819091DD01891306C0882379F081500E
:1003A0008093DD010BC0992349F0E091DE01EF5FFE
:1003B000E093DE01F0E0E252FE4F80838FEF88830E
:1003C000DF91CF9108951F93CF93DF93162FC82FFE
:1003D000D0E0FE01EA56FD4F90811923C355DD4F51
:1003E000411103C09881911741F0412F50E0682FCF
:1003F0008BE993E00E94180E1883DF91CF911F9133
:100400000895833020F5282F30E0F901E055FD4FA5
:100410006083672BE1F0F901EA56FD4F908181116D
:1004200003C069B16C7F0FC0813049F463B126B15C
:1004300040E4249F900111246F73622B04C066B1C5
:100440006C7366956695692341E00C94E301089509
:100450008091B002882349F069B1809196026823A7
:100460006C7F40E080E00E94E3018091B10288232C
:1004700079F063B186B120E4829FC00111246F73CB
:10048000682B80919702682340E081E00E94E3019D
:100490008091B202882359F066B16C7366956695B7
:1004A00080919802682340E082E00C94E301089573
:1004B000109225028FEF80930A010895AF92BF92A8
:1004C000DF92EF92FF920F931F93CF93DF9300D0B1
:1004D000CDB7DEB7D82E5B01E82EF12C8701075689
:1004E0001D4FF80180818F3709F402C1863049F42D
:1004F00080912502882329F06630710511F00E9451
:1005000058024EEF4D0D4231C0F484E0A816B104FC
:10051000A1F0F701E551FE4F20812C3070F430E05E
:10052000C901880F991F820F931F81509E4F4A83E4
:100530000E9495094A818111C3C092EF9D0D9630AA
:1005400078F461E070E0E2E0AE16B10411F060E032
:1005500070E0892F4A8399830E94400199814A81E2
:100560004231D8F4ED2DE695E695E6958D2D877010
:10057000F0E0EA56FD4F21E030E0082E01C0220FE6
:100580000A94EAF7A114B10421F48081822B8083BC
:1005900004C02095808128232083F701EE0FFF1FE0
:1005A000E259FD4F11821082F2E0AF16B104A1F0C2
:1005B0003CF4A114B104F9F0AA94AB2851F16FC036
:1005C000F4E0AF16B10409F448C084F1E6E0AE16D9
:1005D000B10409F45CC063C0963008F089C04231B0
:1005E00040F460E08D2D0E94D11160E08D2D0E94BD
:1005F0000A1282E051C0423108F07AC060E08D2DCD
:100600000E94D11160E08D2D0E940A12F801108223
:100610006FC0423108F06CC060E08D2D0E940A125C
:1006200061E08D2D0E94D11181E036C0F3E0DF162C
:1006300049F08BEF8D0D823028F087EF8D0D8330E0
:1006400008F056C061E08D2D0E94D11160E070E08D
:100650008D2D0E94491183E01FC0423108F048C02F
:1006600084E0F8018083F701E551FE4F80818F3FE0
:1006700069F190E09C01220F331F280F391FC90137
:1006800081509E4F0E949509811132C01FC08EEE8D
:100690008D0D823068F586E0F801808329C062E222
:1006A00071E08BE993E00F900F90DF91CF911F9154
:1006B0000F91FF90EF90DF90BF90AF900C948E0E53
:1006C0008D2D4A830E94B7014A8137CF4FEF5FEFEC
:1006D0006FEF7FEF8D2D0F900F90DF91CF911F91D6
:1006E0000F91FF90EF90DF90BF90AF900C9471014D
:1006F0000F900F90DF91CF911F910F91FF90EF908E
:10070000DF90BF90AF900895CF93C0E08EEE8C0F36
:10071000823028F466E070E08C2F0E945E02CF5F8A
:10072000C431A1F781E0809325028BED92E0CF9157
:100730000C943B0A0F931F93CF93DF9381E0809338
:10074000DC018091250281110E9458021092B002B2
:10075000109296021092AD021092B102109297027E
:100760001092AE021092B202109298021092AF0252
:10077000CBEED1E010E00FEF82EF810F863018F45E
:1007800062E070E002C061E070E0812F0E945E02D2
:1007900009931F5F143181F71092B4021092B302D3
:1007A0001092DE011092DD011092DC01DF91CF91F9
:1007B0001F910F91089524E042E063E371E08BE91B
:1007C00093E00E94260D44E051E060EE8BE993E057
:1007D0000E949C0E4EE950E060E98BE993E00E9494
:1007E0009C0E40E451E060EC8BE993E00E949C0E8B
:1007F00041E052E060ED8BE993E00E949C0E4EE5F3
:1008000052E064EF8BE993E00E949C0E45EA54E0CD
:1008100060EF8BE993E00E94C70E4AE953E06FEF67
:100820008BE993E00E94BF0E40E051EE60E070E083
:100830008BE993E00E941F100C949A03CF93DF93EF
:10084000CFEFD1E0CE010E944F08239682E0C33261
:10085000D807C1F7DF91CF910895682F8BED92E013
:100860000C94FC098BED92E00E94AC090895DF9294
:10087000EF92FF920F931F93CF93DF93F82EEB012C
:10088000D42E6F3F8FEF7807A9F06F2D8BED92E09C
:100890000E94550A8C2F0E942D048BED92E00E943D
:1008A000720A8091230290912402009729F00E94FD
:1008B000E61002C0C0E0D0E04D2D6F2D8BED92E030
:1008C0000E94520A0D2D10E08BED92E00E94A409C7
:1008D000081719071CF467E471E009C08BED92E07A
:1008E0000E94A4098017910734F464E671E08BE953
:1008F00093E00E948E0EF0922602C093270268E2D7
:10090000E62E62E0F62EC0E0D0E0C017D10784F0FA
:1009100042E04D0D26E232E067E78BE993E0DF919C
:10092000CF911F910F91FF90EF90DF900C94460EA6
:100930008BED92E00E94A409892B51F30E943204AE
:10094000F70181937F012196E0CFEF92FF920F9301
:100950001F93CF93DF93162FEA0190E0FC01E95635
:10096000F109E231F10508F040C2EC5CFF4F0C9454
:10097000E6158981982F987185FF03C060E871E0C2
:1009800056C08881983071F148F491112EC2682FB9
:100990008BED92E00E94550A02E007C0903109F405
:1009A00040C0983109F471C020C2011768F4FE01FB
:1009B000E00FF11D9181808120E8929F8019112420
:1009C0000E942D040E5FF1CF8BED92E00E94720A1F
:1009D00086E490E0DF91CF911F910F91FF90EF900F
:1009E0000C94E6104A816B81163069F430E8639FFD
:1009F000B0011124640F711D9D814C8150E8959FB9
:100A00004019112406C090E8699F401911246FEF26
:100A10007FEFDF91CF911F910F91FF90EF900C949A
:100A20003704E0910A01E73064F060EA71E08BE995
:100A300093E0DF91CF911F910F91FF90EF900C9475
:100A40008E0E9A812B81F0E8663061F42F9F900121
:100A50001124290F311D4D819C8150E8459F90192B
:100A6000112405C02F9F901911242FEF3FEFEF5F46
:100A7000E0930A0144E0E402F0011124EA5BFD4F37
:100A80008083328321839383B0C150910A0115166C
:100A900034F440E0252F332727FD30950EC08FEF2B
:100AA00080930A01A2C1EE0FFF1FEE0FFF1FEA5B4A
:100AB000FD4F9081981719F14F5FE42FF0E02E174A
:100AC0003F078CF740E01BC04830C0F4DF01AA0F9D
:100AD000BB1FAA0FBB1FA65BBD4F8C91EE0FFF1F64
:100AE000EE0FFF1FEA5BFD4F808311968D919C9165
:100AF00012979283818313968C9183834F5FE42FA7
:100B0000F0E02E173F0704F7515050930A016DC1D2
:100B10002881898150E8859FC0011124820F911D91
:100B2000009721F090932402809323028091250264
:100B300081115BC1DF91CF911F910F91FF90EF90D9
:100B40000C948403653008F450C118810981FA803F
:100B5000EB80CC818EEF810F823108F046C1E12F0E
:100B6000F0E0E551FE4FE081EC3060F4F0E0CF01C1
:100B7000880F991F8E0F9F1F81509E4F0E949509CD
:100B800081112FC180E8C89FA00111244E0D511D75
:100B900090E8F99EB0011124600F711D812F0E9411
:100BA000710164E070E0812FDF91CF911F910F916F
:100BB000FF90EF900C945E02623008F416C1288119
:100BC0008981E0E88E9FC0011124820F911D9093CE
:100BD0000C0180930B010A9708F007C18AE090E0AE
:100BE00090930C0180930B0100C1623008F4FDC0AA
:100BF000698170E0123091F08A81F0E88F9FC00126
:100C00001124682B792B133049F08B8190E090E40C
:100C1000899F902D88271124682B792B8881DF915B
:100C2000CF911F910F91FF90EF900C94040160EF12
:100C30008BE993E00E94920E6CE68BE993E00E94B0
:100C4000920ECEEF84EF8C0F863058F462E08BE981
:100C500093E00E94920E6AE08BE993E00E94920E6C
:100C60000DC0C13059F463E08BE993E00E94920E0D
:100C700068E08BE993E00E94920E08C08DEF8C0F24
:100C8000823088F389EF8C0F833068F3C23150F4DF
:100C900064E08BE993E00E94920E6EE08BE993E0B2
:100CA0000E94920E80EF8C0F823050F466E08BE948
:100CB00093E00E94920E61E08BE993E00E94920E15
:100CC0006FE78BE993E00E94920ECF5FC23169F12A
:100CD000C23108F0B7CF60E08BE993E00E94920E3A
:100CE00061E08BE993E00E94920E61E08BE993E072
:100CF0000E94920E61E08BE993E00E94920EA2CFD7
:100D0000662309F472C0C88160EF8BE993E00E940A
:100D1000920E6EE68BE993E00E94920E6C2F8BE9A7
:100D200093E00E94920EC43158F067EF8BE993E094
:100D3000DF91CF911F910F91FF90EF900C94920E45
:100D4000D0E0FE01E756FD4F60818BE993E00E9401
:100D5000920ECC0FDD1F8E0102591D4FF8016081EC
:100D60006F778BE993E00E94920EF80160817181A8
:100D7000CB018078892B49F0660F672F661F770BB0
:100D80006F778BE993E00E94920EC259DD4F688124
:100D90007981CB018827907C892B39F2770F660BFC
:100DA000770F762F661F6F778BE993E00E94920E84
:100DB000BCCF60EF8BE993E00E94920E6AE68BE96C
:100DC00093E00E94920EC2EFC63010F06FE701C0B0
:100DD0006C2F8BE993E00E94920ECF5FC630A1F793
:100DE000A4CF812F0E94B701CDCEDF91CF911F916B
:100DF0000F91FF90EF9008958F929F92AF92BF92C4
:100E0000CF92DF92EF92FF920F931F93CF93DF93D6
:100E10000E9428028BE993E00E94860D892B29F01D
:100E20008BE993E00E94F20EF5CF0E948F10609341
:100E30006A0270936B0280936C0290936D02C09073
:100E40006602D0906702E0906802F09069024091DB
:100E50000B0150910C014A01A12CB12C8B019C017A
:100E60000C191D092E093F0980169106A206B3062A
:100E700008F04CC0D501C4018C0D9D1DAE1DBF1DD9
:100E80008093660290936702A0936802B093690210
:100E9000C9E9D2E012EF1630C0F488818230A9F49B
:100EA0002091B3023091B402012E02C035952795EE
:100EB0000A94E2F720FF09C0812F0E942C11AC0197
:100EC000612F8BE993E00E94FF0D1F5F2196163082
:100ED00011F780910A0187FD19C0C0E0EC2FF0E006
:100EE00080910A01992787FD90958E179F0774F0CE
:100EF000EE0FFF1FEE0FFF1FEA5BFD4F6181728156
:100F0000438180810E943704CF5FE8CFDF91CF918A
:100F10001F910F91FF90EF90DF90CF90BF90AF9017
:100F20009F908F9008951F920F920FB60F921124E9
:100F30002F933F934F935F936F937F938F939F93E1
:100F4000AF93BF93EF93FF938091B60287FF05C0E5
:100F500010928500109284001AC02091B6023327A7
:100F600027FD30958091B50290E0281739077CF471
:100F70008091B602992787FD9095FC01EE0FFF1F27
:100F8000E80FF91FE954FD4F808186FD15C080915F
:100F9000B6028F5F8093B6022091B602332727FDF9
:100FA00030958091B50290E028173907BCF4809104
:100FB000B6028C305CF112C08091B602992787FD91
:100FC0009095FC01EE0FFF1FE80FF91FE954FD4F4C
:100FD000808160E08F730E940A12D9CF80918400D3
:100FE00090918500049680349C4918F480E49CE933
:100FF00005C08091840090918500049690938900AB
:10100000809388008FEF8093B60238C020918400CF
:10101000309185008091B602992787FD9095FC015B
:10102000EE0FFF1FE80FF91FE954FD4F81819281F8
:10103000820F931F90938900809388008091B6025D
:10104000992787FD9095FC01EE0FFF1FE80FF91F10
:10105000E954FD4F808186FF11C08091B602992727
:1010600087FD9095FC01EE0FFF1FE80FF91FE95473
:10107000FD4F808161E08F730E940A12FF91EF9112
:10108000BF91AF919F918F917F916F915F914F91A0
:101090003F912F910F900FBE0F901F9018952091A8
:1010A000B5022C30A0F431E0320F3093B502FC01D0
:1010B0002083822F90E0FC01EE0FFF1FE80FF91F45
:1010C000E954FD4F88EB9BE09283818308952FEFD5
:1010D000FC0120830895DF92EF92FF920F931F93FC
:1010E000CF93DF93EC01D62E7A01890188818C3071
:1010F00008F066C061E08D2D0E94D1118881A82F73
:10110000B0E0FD01EE0FFF1FEA0FFB1FE954FD4F9A
:101110002D2D2F739081907C922B908360E272E052
:101120006E197F0977FF02C06D5F7F4F75956795D8
:1011300075956795698340E659E0401B510B57FF51
:1011400002C04D5F5F4F55954795559547954A832A
:101150006CE00E9499159CE0899FB001112420E069
:1011600030E0A901460F571FFA01EE0FFF1FE40FF1
:10117000F51FE954FD4F908196FD16C02F5F3F4F3C
:101180002C30310571F781110FC01092800082E080
:10119000809381001092850010928400B19A809112
:1011A0006F00826080936F00888190E0FC01EE0FF9
:1011B000FF1FE80FF91FE954FD4F80818064808391
:1011C0008881DF91CF911F910F91FF90EF90DF9079
:1011D000089520E639E040E252E00C946B08FC01EF
:1011E000808190E0FC01EE0FFF1FE80FF91FE9542A
:1011F000FD4F80818F7B80830895FC0180818C303E
:1012000070F5918128E830E0291B310997FD33956D
:10121000220F331F220F331F621773077CF0928156
:1012200028E532E0291B310997FD3395220F331F42
:10123000220F331F621773070CF49B0122503109F0
:10124000220F331F4FB7F89490E0FC01EE0FFF1F01
:10125000E80FF91FE954FD4F328321834FBF0895F2
:101260004F925F926F927F92AF92BF92CF92DF9236
:10127000EF92FF920F931F93CF93DF93EC016032B5
:1012800082E078070CF040C077FD06C0653B710531
:101290002CF064EB70E002C060E070E0898128E827
:1012A00030E0281B310987FD3395220F331F220FB1
:1012B000331F5901CC24B7FCC094DC2C882777FD60
:1012C0008095982F2A8148E552E0421B510927FD5D
:1012D0005395440F551F440F551F2A01662457FC90
:1012E0006094762C7F926F925F924F9214EBE12E76
:1012F000F12C00E010E020E030E0A9010E9441154F
:101300000F900F900F900F90CE01DF91CF911F9112
:101310000F91FF90EF90DF90CF90BF90AF907F90B4
:101320006F905F904F900C94FD08FC01808190E0DD
:10133000FC01EE0FFF1FE80FF91FE954FD4F8081FC
:1013400086FB882780F9089580910B0390E0209117
:101350000C03821B9109089520910C0380910B03CB
:10136000281750F4E22FF0E0E35FFC4F808190E01B
:101370002F5F20930C0308958FEF9FEF0895E09166
:101380000C0380910B03E81730F4F0E0E35FFC4FAF
:10139000808190E008958FEF9FEF08950895CF9298
:1013A000DF92EF92FF920F931F93CF93DF937C0115
:1013B000CB018A012091E702222389F0EB016B0126
:1013C000C40ED51ECC15DD0569F06991D701ED91EC
:1013D000FC910190F081E02DC7010995F3CF642FB6
:1013E0000E942E0BC801DF91CF911F910F91FF90AA
:1013F000EF90DF90CF900895CF93DF931F92CDB7FA
:10140000DEB769832091E7022223D1F02091E80220
:10141000203240F021E030E0FC013383228380E081
:1014200090E015C08091E902E82FF0E0E651FD4F11
:10143000998190838F5F8093E9028093E80205C0D1
:1014400061E0CE0101960E942E0B81E090E00F90AA
:10145000DF91CF910895FC011382128248EE53E090
:1014600060E070E0448355836683778385EB91E089
:1014700091838083089510920C0310920B031092B5
:10148000E9021092E8020C94790A862F413208F0A2
:1014900040E26DE073E00E94970A10920C03809383
:1014A0000B03089521E00C94450A81E08093E70244
:1014B00060930A031092E9021092E80208950F93D4
:1014C000062F21E04091E8026AEE72E080910A0363
:1014D0000E94DB0A1092E9021092E8021092E702E1
:1014E0000F91089561E00C945F0A8BED92E00C94EB
:1014F0002B0A10929A0381E080939803109297032D
:1015000061E082E10E940A1261E083E10E940A1216
:10151000E9EBF0E080818E7F808380818D7F808306
:1015200088E48093B80085E48093BC00089541323C
:1015300008F03FC090919A039111FCCF91E09093F5
:101540009A03209398032FEF20932D031092720398
:10155000240F209371039093990390919903880F1E
:10156000892B8093990380919703813041F41092E5
:101570009703809199038093BB0085EC01C085EEB1
:101580008093BC0080919A038130E1F380917203D3
:10159000841710F44091720323E733E0FB01D90173
:1015A0008A2F821B841718F48D918193F9CF842F91
:1015B000089580E008950F93413208F046C090915D
:1015C0009A039111FCCF92E090939A0300939803B1
:1015D0009FEF90932D031092720340937103FB01D0
:1015E00063E773E0DB019A2F961B941718F491912F
:1015F0009D93F9CF1092990390919903880F892BAD
:101600008093990380919703813041F4109297035E
:10161000809199038093BB0085EC01C085EE809397
:10162000BC00222321F080919A038230E1F3809163
:101630002D038F3F61F080912D03803251F0809116
:101640002D03803341F483E007C081E005C080E0D2
:1016500003C082E001C084E00F910895613298F4E4
:1016600020919A03243089F460934F03FC0181E5B3
:1016700093E0DC012A2F281B261718F421912D93C3
:10168000F9CF80E0089581E0089582E0089585ED26
:101690008093BC008091BC0084FDFCCF10929A0323
:1016A000089585EC8093BC0010929A0308951F92D0
:1016B0000F920FB60F9211242F933F934F935F9386
:1016C0006F937F938F939F93AF93BF93EF93FF930A
:1016D0008091B900887F803609F49CC068F5883213
:1016E00009F45BC090F4803109F454C038F48823C5
:1016F00009F4F5C0883009F44DC0F5C0883109F40B
:101700004CC0803209F45DC0EEC0803409F468C07A
:1017100048F4803309F455C0883309F0E4C080935D
:101720002D03A8C0803509F44FC0883509F45DC089
:10173000883409F0D8C0D5C0883909F4C6C0A8F4E7
:10174000883709F467C038F4883609F463C08037F5
:1017500009F460C0C8C0883809F4B7C0803909F4FA
:101760005FC0803809F0BFC05BC0803B09F485C012
:1017700038F4803A09F466C0883A09F47EC0B3C0F0
:10178000803C09F4A6C0883C09F4A3C0883B09F456
:1017900089C0A9C08091990310C090917203809173
:1017A0007103981770F5E091720381E08E0F8093BA
:1017B0007203F0E0ED58FC4F80818093BB0085EC14
:1017C00085C080932D038DC0E091720381E08E0F60
:1017D000809372038091BB00F0E0ED58FC4F808352
:1017E00090917203809171036DC0E091720381E06A
:1017F0008E0F809372038091BB00F0E0ED58FC4F98
:1018000080838091980381116CC081E0809397035D
:1018100084EA60C083E080939A0310922E03CFCFB6
:1018200080912E03803208F050C0E0912E0381E0B9
:101830008E0F80932E038091BB00F0E0E15DFC4FA2
:101840008083BDCF80912E03803230F4E0912E034F
:10185000F0E0E15DFC4F10820E94470B60912E0387
:1018600070E0E0919303F09194038FE293E0099587
:1018700010922E030E94510B36C084E080939A038D
:101880001092500310924F03E0919503F09196034C
:10189000099580914F03811105C081E080934F032A
:1018A00010925103E091500381E08E0F809350031A
:1018B000F0E0EF5AFC4F80818093BB009091500381
:1018C00080914F03981708F47ACF85E88093BC0085
:1018D0000AC085EC8093BC0010929A0304C0109259
:1018E0002D030E94470BFF91EF91BF91AF919F9104
:1018F0008F917F916F915F914F913F912F910F90B9
:101900000FBE0F901F9018950F931F93CF93DF93E7
:10191000EC018B0188819981DC01ED91FC916F775D
:101920000190F081E02D099588819981DC01ED918C
:10193000FC91B801660F672F661F770B6F770190D8
:10194000F081E02DDF91CF911F910F910994DC017F
:101950008D919C91DC01ED91FC910190F081E02D45
:1019600060EF0994DC018D919C91DC01ED91FC917B
:101970000190F081E02D67EF0994CF93DF93EC01A4
:1019800088819981DC01ED91FC910190F081E02D3D
:1019900069EF099588819981DC01ED91FC910190B5
:1019A000F081E02D62E0099588819981DC01ED915B
:1019B000FC910190F081E02D64E0DF91CF910994DA
:1019C0001F93CF93DF93EC018A818823D9F1CE0155
:1019D0000E94A70C88819981DC01ED91FC91019016
:1019E000F081E02D69E7099588819981DC01ED910D
:1019F000FC91AB81BC810190F081E02D6C91099547
:101A000088819981DC01ED91FC91AB81BC810190D1
:101A1000F081E02D11966C91099512E08A811817DA
:101A200058F4EB81FC81E10FF11D608170E0CE0183
:101A30000E94840C1F5FF2CFCE01DF91CF911F91E6
:101A40000C94B20CDF91CF911F910895CF92DF9249
:101A5000EF92FF920F931F93CF93DF938C01EB01D3
:101A6000C42ED22E61EC71E0CE010E9447177C019A
:101A70006FE270E0CE010E943C17009739F46CE5EC
:101A800070E0CE010E943C17009711F0EC01219606
:101A9000E114F10451F4FE0101900020E9F7EC1B80
:101AA000EF5FD8011296EC9306C0EC1AFD0AE3949E
:101AB000E394F801E282D80113968D919C911497DA
:101AC0000E949E16F801E280F12CC70101960E9447
:101AD0000616D80114969C938E931397FC01EE0D75
:101AE000FF1D1082FC01C082D18212964C9150E001
:101AF00042505109BE010296DF91CF911F910F9183
:101B0000FF90EF90DF90CF900C942D17DC018D911A
:101B10009C91DC01ED91FC910480F581E02D09940C
:101B20000F931F93CF93DF93FC012085213749F05A
:101B3000293709F049C0DF91CF911F910F910C9483
:101B4000E00CFC01E95AFF4F0190F081E02D309745
:101B500009F450C0DC01A75BBF4F4D915C919A0125
:101B60002150310937FD9A01B90175956795062F06
:101B700040E050E020E030E04E5F5F4F2017A0F4DF
:101B8000EC01C40FD51F1F81DC01A20FB31F1896F3
:101B90001C931897C885D0E8CD9F1019112418966A
:101BA0001C932F5F3F4FE8CFDC01A60FB11D1796A6
:101BB0002C911797222311F018961C920896DF910A
:101BC000CF911F910F910994FC01E75AFF4F0190AB
:101BD000F081E02D309771F0AC01475F5F4FDC0181
:101BE000A75BBF4F6C916150822FDF91CF911F9106
:101BF0000F910994DF91CF911F910F9108950F9349
:101C00001F93CF93DF93EC018A0188819981DC01D6
:101C1000ED91FC916F70606E0190F081E02D09955F
:101C2000B801CE01DF91CF911F910F910C94840CDC
:101C30000F931F93CF93DF93EC018A0188819981E1
:101C4000DC01ED91FC916F7060690190F081E02DF5
:101C5000099588819981DC01ED91FC91602F6F7766
:101C60000190F081E02D099588819981DC01ED9149
:101C7000FC91B801660F672F661F770B0190F0810A
:101C8000E02DDF91CF911F910F910994CF92DF92B8
:101C9000EF92FF920F931F93CF93DF9300D01F9289
:101CA000CDB7DEB78C01F42E2A833B8369830E9473
:101CB000A70CD8018D919C91DC01ED91FC910190D4
:101CC000F081E02D698109952A81E22EC22E3B81A7
:101CD000D32E8C2D8E198F1540F4F60161916F0172
:101CE00070E0C8010E94840CF4CFC8010F900F90DF
:101CF0000F90DF91CF911F910F91FF90EF90DF90A8
:101D0000CF900C94B20C9A01FA0101900020E9F7EF
:101D10003197E41BF50B4E2F0C94460EAB0161E797
:101D20000C94830EDC018D919C91DC01ED91FC9172
:101D30000190F081E02D0994603DB9F028F46039FC
:101D400061F0603C71F00895603E19F0643F89F0E5
:101D50000895FC01E55BFF4F0FC0FC01E35BFF4F03
:101D60000BC0FC01E15BFF4F07C0FC01EF5AFF4FC6
:101D700003C0FC01ED5AFF4F5183408308956F3F2C
:101D800029F4FC01EB5AFF4F518340830895875A91
:101D90009F4FFC01518340830895FC0115821682F8
:101DA000178280E090E0DF01A80FB91F18961C92FF
:101DB000019680349105B9F7DF01A85BBF4F1C92F3
:101DC00011961D921C92EB5AFF4F0190F081E02D6D
:101DD000309709F009940895FC011282148213824D
:101DE0000C94CD0ECF93DF93EC0188819981DC01B7
:101DF000ED91FC910680F781E02D0995FE01E85BED
:101E0000FF4F20812223B1F0873F910531F41082EA
:101E1000CE01DF91CF910C94900DFE01E75BFF4F57
:101E200020813181C20FD31F88872F5F3F4F3183BD
:101E300020839DC02D81222309F45EC08038910546
:101E40000CF05AC09FEF920F9D83FE01E90FF11D28
:101E5000808791118CC08E81882309F488C0803DD1
:101E6000E9F148F48039E9F0803C09F043C0FE0113
:101E7000E15BFF4F36C0803E19F0843F19F13AC054
:101E8000FE01E55BFF4F0190F081E02D309791F16D
:101E90008885698570E0B0E88B9F600D711D112405
:101EA00027C0FE01E35BFF4F0190F081E02D3097EA
:101EB00009F18885698570E090E8899F600D711D42
:101EC000112416C0FE01ED5AFF4F0190F081E02D64
:101ED000309781F0688570E089850BC0FE01EF5A6C
:101EE000FF4F0190F081E02D309721F0688570E080
:101EF0008F8109951E823BC0803F91052CF4282FCD
:101F00002F702F83807F9927803E910521F154F413
:101F1000803C910511F1803D9105F9F080399105E2
:101F200031F519C0843F9105B1F054F4803F91051B
:101F3000F1F481E08083C75BDF4F1982188217C0FC
:101F4000893F910571F08F3F910589F4CE01DF91B2
:101F5000CF910C94CD0E92E001C091E09D838E83D1
:101F600006C08BE993E0DF91CF910C94BD0CDF911B
:101F7000CF9108958F929F92AF92BF92CF92DF92AE
:101F8000EF92FF921F93CF93DF93EB014A01690118
:101F900061E08DE00E94D11110E0EE24D7FCE094C6
:101FA000FE2CAA2497FCA094BA2C812F90E08C17C9
:101FB0009D0794F4C701B6010E94BE1061E08DE058
:101FC0000E940A12C501B4010E94BE1060E08DE0BB
:101FD0000E940A121F5FE9CFDF91CF911F91FF90FE
:101FE000EF90DF90CF90BF90AF909F908F9008952B
:101FF000CF93DF93EC0161E08DE00E94D11122EDDF
:1020000030E048E250E062E070E0CE010E94BA0F9A
:102010006AEF70E080E090E00E94BE1022ED30E0B8
:1020200048E250E064E070E0CE010E94BA0F6DE734
:1020300070E080E090E0DF91CF910C94BE10CF93E0
:10204000DF93EC0126E085E094E00E94231385E015
:1020500094E099838883CE010E94F80FCE010E94FC
:10206000BD0CCE01DF91CF910C94E00C8BE993E095
:102070000C94EC0E0F9300E020E040E060E086EF6F
:1020800093E00E9464140F9108951F920F920FB66F
:102090000F9211242F933F938F939F93AF93BF93EE
:1020A0008091FD039091FE03A091FF03B091000485
:1020B0003091FC0323E0230F2D3720F40196A11D5E
:1020C000B11D05C026E8230F0296A11DB11D209366
:1020D000FC038093FD039093FE03A093FF03B09352
:1020E00000048091010490910204A0910304B09136
:1020F00004040196A11DB11D809301049093020474
:10210000A0930304B0930404BF91AF919F918F916A
:102110003F912F910F900FBE0F901F9018952FB7E2
:10212000F8946091FD037091FE038091FF039091FC
:1021300000042FBF08953FB7F89480910104909157
:102140000204A0910304B091040426B5A89B05C025
:102150002F3F19F00196A11DB11D3FBF6627782FB3
:10216000892F9A2F620F711D811D911D42E0660F0C
:10217000771F881F991F4A95D1F70895CF92DF9254
:10218000EF92FF92CF93DF936B017C010E949B1033
:10219000EB01C114D104E104F10489F00E94881517
:1021A0000E949B106C1B7D0B683E734090F381E096
:1021B000C81AD108E108F108C851DC4FEACFDF9115
:1021C000CF91FF90EF90DF90CF90089582309105EE
:1021D00038F0880F991F880F991F05970197F1F71D
:1021E0000895789484B5826084BD84B5816084BD8F
:1021F00085B5826085BD85B5816085BDEEE6F0E080
:10220000808181608083E1E8F0E0108280818260DB
:102210008083808181608083E0E8F0E0808181605C
:102220008083E1EBF0E0808184608083E0EBF0E08C
:10223000808181608083EAE7F0E080818460808330
:1022400080818260808380818160808380818068DA
:1022500080831092C10008958E3008F08E508770F0
:1022600020910D0190E4299F90011124822B8093ED
:102270007C0080917A00806480937A0080917A005B
:1022800086FDFCCF809178002091790090E0922B20
:1022900008951F93CF93DF93182FEB0161E00E9405
:1022A000D111209711F460E004C0CF3FD10539F47B
:1022B00061E0812FDF91CF911F910C940A12E12FE1
:1022C000F0E0E457FF4FE491E330F9F048F4E130F7
:1022D000B9F0E230A1F584B5806284BDC8BD34C0D8
:1022E000E730E9F0E83019F1E43049F580918000F9
:1022F000806280938000D0938B00C0938A0024C0BA
:1023000084B5806884BDC7BD1FC08091800080688F
:1023100080938000D0938900C093880015C080917D
:10232000B00080688093B000C093B3000DC080916E
:10233000B00080628093B000C093B40005C0C03884
:10234000D1050CF0B5CFAFCFDF91CF911F9108959C
:10235000833081F028F4813099F08230A1F0089523
:102360008730A9F08830B9F08430D1F480918000B2
:102370008F7D03C0809180008F77809380000895C7
:1023800084B58F7702C084B58F7D84BD0895809118
:10239000B0008F7703C08091B0008F7D8093B00034
:1023A0000895CF93DF9390E0FC01E056FF4F249116
:1023B000FC01EC54FF4F8491882349F190E0880F91
:1023C000991FFC01EE52FF4FA591B49188539F4F86
:1023D000FC01C591D4919FB7611108C0F8948C910C
:1023E000209582238C93888182230AC0623051F425
:1023F000F8948C91322F309583238C938881822B93
:10240000888304C0F8948C91822B8C939FBFDF91BA
:10241000CF9108950F931F93CF93DF931F92CDB762
:10242000DEB7282F30E0F901E457FF4F8491F9011E
:10243000E056FF4F1491F901EC54FF4F0491002333
:10244000C9F0882321F069830E94A8116981E02FD7
:10245000F0E0EE0FFF1FE853FF4FA591B4919FB737
:10246000F8948C91611103C01095812301C0812BD8
:102470008C939FBF0F90DF91CF911F910F91089583
:10248000FC01818D228D90E0805C9F4F821B910921
:102490008F7399270895FC01918D828D981731F0E3
:1024A000828DE80FF11D858D90E008958FEF9FEFED
:1024B0000895FC01918D828D981761F0828DDF0166
:1024C000A80FB11D5D968C91928D9F5F9F73928F27
:1024D00090E008958FEF9FEF08958DED93E1892BA4
:1024E00049F080E090E0892B29F00E94DD138111F2
:1024F0000C9400000895FC01848DDF01A80FB11D2C
:10250000A35ABF4F2C91848D90E001968F73992729
:10251000848FA689B7892C93A089B1898C91806416
:102520008C93938D848D981306C00288F389E02DD7
:1025300080818F7D80830895CF93DF93EC01888D18
:102540008823C9F0EA89FB89808185FD05C0A889B7
:10255000B9898C9186FD0FC00FB607FCF5CF80813D
:1025600085FFF2CFA889B9898C9185FFEDCFCE0187
:102570000E947B12E7CFDF91CF910895CF92DF9237
:10258000FF920F931F93CF93DF931F92CDB7DEB7C8
:102590006C0181E0D60158968C9358975B969C917C
:1025A0005B975C968C915C97981307C05096ED9161
:1025B000FC915197808185FD2EC0F601038D10E0BE
:1025C0000F5F1F4F0F731127F02EF601848DF81245
:1025D00011C00FB607FCF9CFD6015096ED91FC91D2
:1025E0005197808185FFF1CFC60169830E947B12DC
:1025F0006981EBCF838DE80FF11DE35AFF4F6083B4
:10260000D6015B960C935B975296ED91FC91539794
:10261000808180620CC0D6015696ED91FC9157974F
:1026200060835096ED91FC91519780818064808306
:1026300081E090E00F90DF91CF911F910F91FF907B
:10264000DF90CF900895BF92CF92DF92EF92FF92EA
:10265000CF93DF93EC016A017B01B22EE889F989FF
:1026600082E08083411581EE580761057105A1F074
:1026700060E079E08DE390E0A70196010E94A51546
:1026800021503109410951095695479537952795AC
:10269000211580E1380798F0E889F989108260E80F
:1026A00074E88EE190E0A70196010E94A5152150E3
:1026B0003109410951095695479537952795EC857C
:1026C000FD853083EE85FF852083188EEC89FD899A
:1026D000B082EA89FB89808180618083EA89FB89F5
:1026E000808188608083EA89FB898081806880831B
:1026F000EA89FB8980818F7D8083DF91CF91FF9074
:10270000EF90DF90CF90BF9008951F920F920FB679
:102710000F9211242F938F939F93EF93FF93E09148
:102720001504F09116048081E0911B04F0911C04C3
:1027300082FD12C0908180911E048F5F8F73209163
:102740001F04821751F0E0911E04F0E0EB5FFB4F95
:10275000958F80931E0401C08081FF91EF919F911E
:102760008F912F910F900FBE0F901F9018951F9271
:102770000F920FB60F9211242F933F934F935F93B5
:102780006F937F938F939F93AF93BF93EF93FF9339
:1027900085E094E00E947B12FF91EF91BF91AF9191
:1027A0009F918F917F916F915F914F913F912F9169
:1027B0000F900FBE0F901F90189585E094E00E9437
:1027C000401221E0892B09F420E0822F0895109215
:1027D00008041092070488EE93E0A0E0B0E0809334
:1027E000090490930A04A0930B04B0930C048AECA0
:1027F00091E0909306048093050485EC90E090931B
:1028000012048093110484EC90E09093140480935C
:10281000130480EC90E0909316048093150481ECEF
:1028200090E0909318048093170482EC90E09093CA
:102830001A048093190486EC90E090931C04809312
:102840001B0410921E0410921F0410922004109278
:1028500021040895AF92BF92CF92DF92EF92FF9240
:102860000F931F93CF93DF936C017B01C0E0D0E007
:1028700000E010E0F601EC0FFD1F4AE050E062813D
:10288000C7010E943A155C016EE2C7010E94CD1497
:102890008A0D9B1D080F191F2196C330D10551F7D2
:1028A0004AE050E0F6016581C7010E943A15800FA9
:1028B000911FDF91CF911F910F91FF90EF90DF90CB
:1028C000CF90BF90AF9008950F93FC018AED91E0F7
:1028D0009183808362834383248305830F910895CA
:1028E0008AED91E09093A3048093A2041092A40433
:1028F0001092A5041092A6041092A70408950895BA
:102900000E94F1100E947F140E94DB03CDE6D2E109
:102910000E94FC062097E1F30E946D12F9CFCF923E
:10292000DF92EF92FF920F931F93CF93DF936C018F
:102930007A01EB01E60EF71E00E010E0CE15DF0590
:1029400061F06991D601ED91FC910190F081E02D4B
:10295000C6010995080F191FF1CFC801DF91CF916A
:102960001F910F91FF90EF90DF90CF900895611528
:10297000710581F0DB010D900020E9F7AD014150B8
:102980005109461B570BDC01ED91FC910280F3814C
:10299000E02D099480E090E00895DC01ED91FC9138
:1029A0000190F081E02D09948F929F92AF92BF9297
:1029B000CF92DF92EF92FF920F931F93CF93DF930B
:1029C000CDB7DEB7A1970FB6F894DEBF0FBECDBF6F
:1029D0007C01C42EE52FCB01D22E19A221E02D15AA
:1029E00010F02AE0D22E8E010F5D1F4F8D2C912CFE
:1029F000A12CB12C6C2D7E2FA50194010E94A51550
:102A00008C2DD29E80191124015011098A3014F4A2
:102A1000805D01C0895CF801808321153105410585
:102A2000510521F0C22EE32FCA01E4CFB801C7013E
:102A30000E94B714A1960FB6F894DEBF0FBECDBFAB
:102A4000DF91CF911F910F91FF90EF90DF90CF908A
:102A5000BF90AF909F908F9008952115310541F45C
:102A6000DC01ED91FC910190F081E02D642F09943F
:102A70000C94D4149A01462F50E060E070E00C945E
:102A80002D154F925F926F927F92AF92BF92CF922D
:102A9000DF92EF92FF920F931F93CF93DF93CDB707
:102AA000DEB729013A01621B730B840B950B298950
:102AB0003A894B895C892A193B094C095D09298BA4
:102AC0003A8B4B8B5C8B9B01AC0169897A898B8932
:102AD0009C890E948915E418F50806091709A801C0
:102AE00097010E94C7152A0D3B1D4C1D5D1DCA0193
:102AF000B901DF91CF911F910F91FF90EF90DF907F
:102B0000CF90BF90AF907F906F905F904F9008955F
:102B10000895DB018F939F930E94EC15BF91AF91B5
:102B2000A29F800D911DA39F900DB29F900D112427
:102B30000895991B79E004C0991F961708F0961B19
:102B4000881F7A95C9F780950895A1E21A2EAA1BCD
:102B5000BB1BFD010DC0AA1FBB1FEE1FFF1FA2174D
:102B6000B307E407F50720F0A21BB30BE40BF50B4A
:102B7000661F771F881F991F1A9469F760957095D3
:102B8000809590959B01AC01BD01CF010895052E64
:102B900097FB1EF400940E94DE1557FD07D00E949B
:102BA000A51507FC03D04EF40C94DE155095409506
:102BB000309521953F4F4F4F5F4F089590958095E9
:102BC000709561957F4F8F4F9F4F0895EE0FFF1FB8
:102BD0000590F491E02D09940E94F715A59F900DA2
:102BE000B49F900DA49F800D911D11240895A29F64
:102BF000B001B39FC001A39F700D811D1124911DD1
:102C0000B29F700D811D1124911D0895CF93DF9304
:102C10008230910510F482E090E0E091AA04F091F6
:102C2000AB0420E030E0A0E0B0E0309739F1408123
:102C3000518148175907B8F04817590771F4828134
:102C40009381109729F013969C938E9312972CC022
:102C50009093AB048093AA0427C02115310531F06D
:102C60004217530718F0A901DB0101C0EF019A01D7
:102C7000BD01DF010280F381E02DD7CF21153105A1
:102C8000F9F0281B390B2430310580F48A819B81AF
:102C90006115710521F0FB019383828304C0909339
:102CA000AB048093AA04FE01329644C0FE01E20FF9
:102CB000F31F8193919322503109398328833AC0BD
:102CC0002091A8043091A904232B41F42091020102
:102CD000309103013093A9042093A80420910001AE
:102CE000309101012115310541F42DB73EB74091D6
:102CF000040150910501241B350BE091A804F091CB
:102D0000A904E217F307A0F42E1B3F0B281739077D
:102D100078F0AC014E5F5F4F2417350748F04E0F37
:102D20005F1F5093A9044093A8048193919302C01C
:102D3000E0E0F0E0CF01DF91CF910895CF93DF93F2
:102D4000009709F487C0FC01329713821282C09168
:102D5000AA04D091AB04209781F420813181280FFF
:102D6000391F8091A8049091A9048217930779F5DF
:102D7000F093A904E093A8046DC0DE0120E030E0E8
:102D8000AE17BF0750F412964D915C9113979D01B9
:102D90004115510509F1DA01F3CFB383A2834081D4
:102DA0005181840F951F8A179B0771F48D919C9117
:102DB0001197840F951F02969183808312968D91AF
:102DC0009C911397938382832115310529F4F09305
:102DD000AB04E093AA043EC0D9011396FC93EE9392
:102DE00012974D915D91A40FB51FEA17FB0779F477
:102DF00080819181840F951F0296D90111969C9331
:102E00008E938281938113969C938E931297E0E028
:102E1000F0E08A819B81009719F0FE01EC01F9CF67
:102E2000CE01029628813981820F931F2091A80438
:102E30003091A9042817390769F4309729F41092C2
:102E4000AB041092AA0402C013821282D093A90488
:102E5000C093A804DF91CF910895FB01DC0141509C
:102E6000504048F001900D920020C9F701C01D921A
:102E700041505040E0F70895FC0181E090E001905E
:102E8000061609F4CF010020D1F701970895FB0140
:102E900051915523A9F0BF01DC014D914517411116
:102EA000E1F759F4CD010190002049F04D91401512
:102EB0004111C9F3FB014111EFCF81E090E001978F
:062EC0000895F894FFCF15
:102EC6000000AC04800001000000FF1300014D610A
:102ED6007820736572766F732061747461636865B8
:102EE6006400556E6B6E6F776E2070696E206D6F25
:102EF6006465005374616E646172644669726D61E3
:102F060074612E696E6F004932433A20546F6F2008
:102F16006D616E7920627974657320726563656987
:102F2600766564004932433A20546F6F20666577B0
:102F360020627974657320726563656976656400DD
:102F460031302D6269742061646472657373696ED1
:102F560067206E6F7420737570706F72746564008D
:102F6600746F6F206D616E79207175657269657316
:102F76000000000000FC09CF09A409AC09BF09CE76
:102F8600092E6370700000000000BE128F144012FC
:0C2F960059124B129C12000000002A147B
:00000001FF
