:100000000C9499010C94C1010C94C1010C94C10190
:100010000C94C1010C94C1010C94C1010C94C10158
:100020000C94C1010C94C1010C94B71A0C9483195F
:100030000C94C1010C94C1010C94C1010C94C10138
:100040000C94C1010C943C0A0C94C1010C94C101A4
:100050000C94C1010C94C1010C94C1010C94ED12DB
:100060000C94C1010C94C1010C94C1010C94C10108
:100070000C94C1010C94C1010C94C1010C94C101F8
:100080000C94C1010C94C1010C94C1010C94C101E8
:100090000C94000E0C94C1010C94C1010C94C1018C
:1000A0000C94C1010C94C1010C94C10182099E09F8
:1000B000C2089E0933099E09A0084F089E099E099F
:1000C0009E099E099E0966079E0935089E098708B4
:1000D00046144B1450145A146414AE14AE14AE14D7
:1000E0006E14781482148C149914AE14A114CF14C5
:1000F000D214C114C514CB14F314F314F314D6148E
:10010000DA14DE14E414E814F314EE1407060504FC
:100110000100080A0B0C0D090000000200090F0085
:1001200000030401000C00000000000000000000BB
:100130000000000000000408020110408040102070
:10014000408040800802040180402010020110809D
:1001500010204040040404040403040502020202C7
:100160000403020202020606060606060404020250
:100170000204000000002300260029002C002F00AC
:1001800000000000250028002B002E003100000098
:100190000000240027002A002D003000080B000278
:1001A000020201000904000001020200000524000F
:1001B00010010524010101042402060524060001A2
:1001C0000705810310004009040100020A00000035
:1001D000070502024000000705830240000000C13D
:1001E0008081C112010002020000404123378000DB
:1001F000010102000112010002000000404123370A
:100200008000010102000141726475696E6F204C2B
:100210004C430041726475696E6F204D6963726F63
:10022000000403090400000000000000002A2B283D
:1002300000000000000000000000000000000000BE
:1002400000000000002C9EB4A0A1A2A434A6A7A583
:10025000AE362D3738271E1F20212223242526B312
:1002600033B62EB7B89F8485868788898A8B8C8D14
:100270008E8F909192939495969798999A9B9C9D26
:100280002F3130A3AD350405060708090A0B0C0D04
:100290000E0F101112131415161718191A1B1C1D06
:1002A000AFB1B0B50009040200010300000009214C
:1002B00001010001226500070584034000010501DA
:1002C0000902A1010901A1008501050919012903FC
:1002D00015002501950375018102950175058103BE
:1002E00005010930093109381581257F7508950305
:1002F0008106C0C005010906A1018502050719E0B4
:1003000029E71500250175019508810295017508F9
:1003100081039506750815002565050719002965EF
:100320008100C000CB061E0DDE12E2124F16B2167F
:10033000AB1C11241FBECFEFDAE0DEBFCDBF11E052
:10034000A0E0B1E0E4E2FDE302C005900D92A43F1D
:10035000B107D9F724E0A4EFB1E001C01D92A83B9A
:10036000B207E1F713E0C2E3D3E004C02297FE0135
:100370000E94171DC432D107C9F70E94C2160C94FF
:10038000901E0C9400001F93CF93DF93162F8430A0
:1003900008F06CC0982F990F990F990F985F9F31B3
:1003A00008F09EE1D82FDD0FDD0FDD0F8D2FC0E0AF
:1003B00041E08917C8F4E82FF0E0DF01A053BD4FFA
:1003C0002C91223070F4C42BEE0FFF1FE057FD4F2D
:1003D00021E030E0542F512311F420E030E031834C
:1003E0002083440F8F5FE5CFC0FF05C0612F617090
:1003F0008D2F0E942D15C1FF06C0612F627081E014
:100400008D0F0E942D15C2FF06C0612F647082E01F
:100410008D0F0E942D15C3FF06C0612F687083E009
:100420008D0F0E942D15C4FF06C0612F607184E0FE
:100430008D0F0E942D15C5FF06C0612F607285E0EB
:100440008D0F0E942D15C6FF06C0612F607486E0D7
:100450008D0F0E942D15C7FF09C0612F607887E0BE
:100460008D0FDF91CF911F910C942D15DF91CF91BE
:100470001F9108950F931F93CF93DF93EB018E315C
:1004800078F5082F10E0F801E053FD4F908193308C
:1004900089F0943029F5F801ED5FFD4F208130E0BF
:1004A000C901880F991F820F931F8F5D9D4F0E9476
:1004B000D90B0FC0833051F09BEF980F923030F082
:1004C00097EF980F933010F08D3019F4BE010E9411
:1004D0002014F801EE0FFF1FE057FD4FD183C083BA
:1004E000DF91CF911F910F910895CF93C82F8C303A
:1004F00058F54091F6025091F70221E030E0082EC5
:1005000002C0220F331F0A94E2F7672B49F42095AB
:100510003095242335233093F7022093F60214C03C
:10052000242B352B3093F7022093F6028091F401AF
:1005300081110AC08C2F0E94EF13AC016C2F8EED3D
:1005400093E0CF910C94A810CF910895DB019A010C
:100550009091F5019C30D0F54091F601682F70E044
:10056000442369F0E42FF0E0EA50FE4F8081FB0164
:10057000ED5FFD4F808341504093F60107C0FB01C2
:10058000ED5FFD4F90839F5F9093F501FB01ED5F61
:10059000FD4F1A161B067CF41216130664F44081F4
:1005A00050E0CA01880F991F840F951FAD018F5D20
:1005B0009D4F0C94140B208130E0C901880F991FC6
:1005C000820F931F8F5D9D4F0C94920B68E171E039
:1005D0008EED93E00C943711CF93DF93C82FD0E0CA
:1005E000CD5FDD4F288130E0C901880F991F820F50
:1005F000931F8F5D9D4F0E94980B88819091F5010C
:10060000891306C0882379F081508093F5010BC0CF
:10061000992349F0E091F601EF5FE093F601F0E0F5
:10062000EA50FE4F80838FEF8883DF91CF9108954A
:100630001F93CF93DF93162FC82FD0E0FE01E45312
:10064000FD4F90811923C251DD4F411103C09881A4
:10065000911741F0412F50E0682F8EED93E00E94FA
:10066000C1101883DF91CF911F910895EF92FF92EF
:100670000F931F93CF93DF93E82E83E08E1508F43A
:1006800075C02E2D30E0F901EE50FD4F6083672BD1
:1006900009F46CC0F901E453FD4FF0800E2D000FFA
:1006A000000F000FF0FE52C0802F0E946315892BAF
:1006B00009F44CC011E0C02FD0E0F1FE07C081E08A
:1006C000800F0E946315892B09F042C0F2FE06C01C
:1006D00082E0800F0E946315892BE1F5F3FE06C0CE
:1006E00083E0800F0E946315892BB1F5F4FE06C0EC
:1006F00084E0800F0E946315892B81F5F5FE06C00A
:1007000085E0800F0E946315892B51F5C831D10512
:1007100041F0F6FE06C086E0800F0E946315892B2B
:1007200009F5679744F4F7FE06C087E0800F0E9442
:100730006315892BC9F441E0612F8E2DDF91CF9194
:100740001F910F91FF90EF900C94180310E0B3CF1E
:100750001260BCCF1460C2CF1860C8CF1061CECF7A
:100760001062D4CF1064DDCF1068E5CFDF91CF9158
:100770001F910F91FF90EF900895CF93DF93809199
:10078000F202882309F448C0D091CC02D0FF1DC1E9
:1007900080E00E946315892B09F417C1C1E0D1FFE5
:1007A00006C081E00E946315892B09F010C1D2FFB9
:1007B00006C082E00E946315892B09F00AC1D3FFAD
:1007C00006C083E00E946315892B09F004C1D4FFA1
:1007D00006C084E00E946315892B09F0FEC0D5FF96
:1007E00006C085E00E946315892B09F0F8C0D6FF8A
:1007F00006C086E00E946315892B09F0F2C0D7FF7E
:1008000006C087E00E946315892B09F0ECC040E028
:100810006C2F80E00E9418038091F302882309F472
:1008200048C0D091CD02D0FFE0C088E00E9463159F
:10083000892B09F4DAC0C1E0D1FF06C089E00E942B
:100840006315892B09F0D3C0D2FF06C08AE00E944D
:100850006315892B09F0CDC0D3FF06C08BE00E9441
:100860006315892B09F0C7C0D4FF06C08CE00E9435
:100870006315892B09F0C1C0D5FF06C08DE00E9429
:100880006315892B09F0BBC0D6FF06C08EE00E941D
:100890006315892B09F0B5C0D7FF06C08FE00E9411
:1008A0006315892B09F0AFC040E06C2F81E00E94F6
:1008B00018038091F402882309F448C0D091CE0235
:1008C000D0FFA3C080E10E946315892B09F49DC06D
:1008D000C1E0D1FF06C081E10E946315892B09F0B8
:1008E00096C0D2FF06C082E10E946315892B09F0F1
:1008F00090C0D3FF06C083E10E946315892B09F0E5
:100900008AC0D4FF06C084E10E946315892B09F0D8
:1009100084C0D5FF06C085E10E946315892B09F0CC
:100920007EC0D6FF06C086E10E946315892B09F0C0
:1009300078C0D7FF06C087E10E946315892B09F0B4
:1009400072C040E06C2F82E00E9418038091F50293
:10095000882309F476C0D091CF02D0FF66C088E129
:100960000E946315892B09F460C0C1E0D1FF06C065
:1009700089E10E946315892B09F059C0D2FF06C096
:100980008AE10E946315892B09F053C0D3FF06C08A
:100990008BE10E946315892B09F04DC0D4FF06C07E
:1009A0008CE10E946315892B09F047C0D5FF06C072
:1009B0008DE10E946315892B09F041C040E06C2F46
:1009C00083E0DF91CF910C941803C0E0E8CEC260C1
:1009D000EECEC460F4CEC860FACEC06100CFC06273
:1009E00006CFC0640CCFC06812CFC0E025CFC26074
:1009F0002BCFC46031CFC86037CFC0613DCFC0625C
:100A000043CFC06449CFC0684FCFC0E062CFC2605F
:100A100068CFC4606ECFC86074CFC0617ACFC06247
:100A200080CFC06486CFC0688CCFC0E09FCFC2604B
:100A3000A5CFC460ABCFC860B1CFC061B7CFC06233
:100A4000BDCFDF91CF910895109247028FEF809331
:100A50000A010895CF92DF92EF92FF920F931F93B6
:100A6000CF93DF93182FEB01E82EF12CC7018053B1
:100A70009D4F6C01FC0180818F3709F4EEC08630F8
:100A800051F480914702882331F06630710509F4F2
:100A9000E0C00E9424051E31A8F4C430D10591F0B5
:100AA000F701ED5FFD4F20812C3060F430E0C9018B
:100AB000880F991F820F931F8F5D9D4F0E943E0CE0
:100AC0008111B4C00EEE010F0C3058F461E070E0FB
:100AD000C230D10511F060E070E0802F0E947502F5
:100AE00002C01E31D0F4E12FE695E695E695812F00
:100AF0008770F0E0E453FD4F21E030E0082E01C0A4
:100B0000220F0A94EAF7209721F48081822B8083B8
:100B100004C02095808128232083F701EE0FFF1F5A
:100B2000E057FD4F11821082C230D10579F02CF4CC
:100B30002097C9F0219729F16BC0C430D10509F481
:100B400045C064F1269709F45BC062C00C3008F020
:100B500084C060E0812F0E94F41460E0812F0E9425
:100B60002D1582E052C01E3108F077C060E0812F61
:100B70000E94F41460E0812F0E942D15F60110826E
:100B80006CC01E3108F069C060E0812F0E942D15F5
:100B900061E0812F0E94F41481E037C0133059F0D6
:100BA0008BEF810F823038F087EF810F833018F0A0
:100BB0001D3009F052C061E0812F0E94F41460E002
:100BC00070E0812F0E94201483E01FC01E3108F0C6
:100BD00044C084E0F6018083F701ED5FFD4F808122
:100BE0008F3F41F190E09C01220F331F280F391FE6
:100BF000C9018F5D9D4F0E943E0C81112EC01AC00D
:100C00008EEF810F823048F586E0F601808325C0A3
:100C10006CE271E08EED93E0DF91CF911F910F9127
:100C2000FF90EF90DF90CF900C943711812F0E94AE
:100C3000EC0248CF4FEF5FEF6FEF7FEF812FDF9137
:100C4000CF911F910F91FF90EF90DF90CF900C9478
:100C5000A6021E3108F424CF35CFDF91CF911F912A
:100C60000F91FF90EF90DF90CF900895CF93C0E069
:100C70008EEF8C0F823028F466E070E08C2F0E949B
:100C80002A05CF5FCE31A1F781E0809347028EE144
:100C900093E0CF910C94E40C0F931F93CF93DF93C9
:100CA00081E08093F4018091470281110E94240524
:100CB000E2EFF2E0CCECD2E0AEEEB2E011921992AB
:100CC0001D9282E0E63FF807C9F7C3E0D2E010E0EA
:100CD0000FEF8EEE810F8C3018F462E070E002C0EE
:100CE00061E070E0812F0E942A0509931F5F1E3189
:100CF00081F71092F7021092F6021092F60110920C
:100D0000F5011092F401DF91CF911F910F91089599
:100D100024E042E06DE371E08EED93E00E94CF0F9E
:100D20004AE352E060EE8EED93E00E94451143EC01
:100D300051E060E98EED93E00E94451145E752E0F5
:100D400060EC8EED93E00E94451146E353E060EDC8
:100D50008EED93E00E9445114AE255E064EF8EED7E
:100D600093E00E94451142E557E060EF8EED93E07D
:100D70000E9470114CE456E06FEF8EED93E00E94FC
:100D8000681140E051EE60E070E08EED93E00E946B
:100D9000C8120C944C06CF93DF93C1E2D2E0CE018F
:100DA0000E94F80A239682E0C534D807C1F7DF9184
:100DB000CF910895682F8EE193E00C94A50C8EE1FD
:100DC00093E00E94550C0895DF92EF92FF920F93EB
:100DD0001F93CF93DF93F82EEB01D42E6F3F8FEF4D
:100DE0007807A9F06F2D8EE193E00E94FE0C8C2F06
:100DF0000E94DA068EE193E00E941B0D809145026D
:100E000090914602009729F00E948E1302C0C0E024
:100E1000D0E04D2D6F2D8EE193E00E94FB0C0D2D47
:100E200010E08EE193E00E944D0C081719071CF4A6
:100E300061E571E009C08EE193E00E944D0C8017DE
:100E4000910734F46EE671E08EED93E00E94371165
:100E5000F0924802C09349028AE4E82E82E0F82E1C
:100E6000C0E0D0E0C017D10784F042E04D0D28E487
:100E700032E067E78EED93E0DF91CF911F910F9104
:100E8000FF90EF90DF900C94EF108EE193E00E94C2
:100E90004D0C892B51F30E94DF06F70181937F01EE
:100EA0002196E0CFEF92FF920F931F93CF93DF93A2
:100EB000162FEA0190E0FC01E956F109E231F10553
:100EC00008F03CC2EA5AFF4F0C94151D8981982FF7
:100ED000987185FF03C06AE871E056C08881983038
:100EE00071F148F491112AC2682F8EE193E00E94BB
:100EF000FE0C02E007C0903109F440C0983109F4BB
:100F000071C01CC2011768F4FE01E00FF11D918150
:100F1000808120E8929F801911240E94DA060E5FDA
:100F2000F1CF8EE193E00E941B0D86E490E0DF910B
:100F3000CF911F910F91FF90EF900C948E134A81E7
:100F40006B81163069F430E8639FB0011124640F9F
:100F5000711D9D814C8150E8959F4019112406C058
:100F600090E8699F401911246FEF7FEFDF91CF91D7
:100F70001F910F91FF90EF900C94E406E0910A010D
:100F8000E73064F06AEA71E08EED93E0DF91CF9193
:100F90001F910F91FF90EF900C9437119A812B8144
:100FA000F0E8663061F42F9F90011124290F311D64
:100FB0004D819C8150E8459F9019112405C02F9FB9
:100FC000901911242FEF3FEFEF5FE0930A0144E007
:100FD000E402F0011124E859FD4F8083328321831C
:100FE0009383ACC150910A01151634F440E0252FCB
:100FF000332727FD30950EC08FEF80930A019EC1E5
:10100000EE0FFF1FEE0FFF1FE859FD4F908198175D
:1010100019F14F5FE42FF0E02E173F078CF740E007
:101020001BC04830C0F4DF01AA0FBB1FAA0FBB1FB3
:10103000A459BD4F8C91EE0FFF1FEE0FFF1FE85913
:10104000FD4F808311968D919C911297928381839D
:1010500013968C9183834F5FE42FF0E02E173F07A8
:1010600004F7515050930A0169C12881898150E8E1
:10107000859FC0011124820F911D009721F090934C
:1010800046028093450280914702811157C1DF914A
:10109000CF911F910F91FF90EF900C943606653021
:1010A00008F44CC118810981FA80EB80CC811E3193
:1010B00008F044C1E12FF0E0ED5FFD4FE081EC303E
:1010C00060F4F0E0CF01880F991F8E0F9F1F8F5D96
:1010D0009D4F0E943E0C81112DC180E8C89FA00148
:1010E00011244E0D511D90E8F99EB0011124600F9E
:1010F000711D812F0E94A60264E070E0812FDF91B4
:10110000CF911F910F91FF90EF900C942A056230C0
:1011100008F414C128818981E0E88E9FC001112460
:10112000820F911D90930C0180930B010A9708F098
:1011300005C18AE090E090930C0180930B01FEC002
:10114000623008F4FBC0698170E0123091F08A814E
:10115000F0E88F9FC0011124682B792B133049F0E0
:101160008B8190E090E4899F902D88271124682B33
:10117000792B8881DF91CF911F910F91FF90EF9094
:101180000C943A0260EF8EED93E00E943B116CE606
:101190008EED93E00E943B11C0E060E08EED93E0A5
:1011A0000E943B1161E08EED93E00E943B1161E0F3
:1011B0008EED93E00E943B1161E08EED93E00E9482
:1011C0003B118EEE8C0F8C3058F462E08EED93E084
:1011D0000E943B116AE08EED93E00E943B110DC02E
:1011E000C33059F463E08EED93E00E943B1168E058
:1011F0008EED93E00E943B110AC08BEF8C0F823082
:1012000088F387EF8C0F833068F3CD3059F364E0B7
:101210008EED93E00E943B116EE08EED93E00E9414
:101220003B118EEF8C0F823050F466E08EED93E030
:101230000E943B1161E08EED93E00E943B116FE74D
:101240008EED93E00E943B11CF5FCE3109F0A5CF28
:1012500067EF8EED93E0DF91CF911F910F91FF909B
:10126000EF900C943B11662309F468C0C88160EFCD
:101270008EED93E00E943B116EE68EED93E00E94AE
:101280003B116C2F8EED93E00E943B11CE3100F7A5
:10129000D0E0FE01E053FD4F60818EED93E00E94AF
:1012A0003B11CC0FDD1F8E0100571D4FF8016081EF
:1012B0006F778EED93E00E943B11F80160817181A0
:1012C000CB018078892B49F0660F672F661F770B5B
:1012D0006F778EED93E00E943B11C057DD4F688120
:1012E0007981CB018827907C892B09F4B1CF770FC6
:1012F000660B770F762F661F6F778EED93E00E9457
:101300003B11A6CF60EF8EED93E00E943B116AE6A1
:101310008EED93E00E943B11CEEECC3010F06FE7E3
:1013200001C06C2F8EED93E00E943B11CF5FCC305B
:10133000A1F78ECF812F0E94EC02CFCEDF91CF910B
:101340001F910F91FF90EF9008958F929F92AF920F
:10135000BF92CF92DF92EF92FF920F931F93CF93A2
:10136000DF930E94BD038EED93E00E942F10892B26
:1013700029F08EED93E00E949B11F5CF0E94371368
:1013800060938C0270938D0280938E0290938F02F3
:10139000C0908802D0908902E0908A02F0908B027F
:1013A00040910B0150910C014A01A12CB12C8B01F1
:1013B0009C010C191D092E093F0980169106A206F1
:1013C000B30608F04CC0D501C4018C0D9D1DAE1DA7
:1013D000BF1D8093880290938902A0938A02B093E4
:1013E0008B02C0EDD2E01EEE1C30C0F4888182304A
:1013F000A9F42091F6023091F702012E02C0359532
:1014000027950A94E2F720FF09C0812F0E94EF136D
:10141000AC01612F8EED93E00E94A8101F5F219612
:101420001C3011F780910A0187FD19C0C0E0EC2F34
:10143000F0E080910A01992787FD90958E179F070C
:1014400074F0EE0FFF1FEE0FFF1FE859FD4F618193
:101450007281438180810E94E406CF5FE8CFDF91F3
:10146000CF911F910F91FF90EF90DF90CF90BF90A1
:10147000AF909F908F9008951F920F920FB60F928A
:1014800011242F933F934F935F936F937F938F9389
:101490009F93AF93BF93EF93FF938091F90287FFE0
:1014A00005C010928500109284001AC02091F902A4
:1014B000332727FD30958091F80290E028173907EF
:1014C0007CF48091F902992787FD9095FC01EE0F3D
:1014D000FF1FE80FF91FE650FD4F808186FD15C004
:1014E0008091F9028F5F8093F9022091F9023327EE
:1014F00027FD30958091F80290E028173907BCF459
:101500008091F9028C305CF112C08091F902992728
:1015100087FD9095FC01EE0FFF1FE80FF91FE650C5
:10152000FD4F808160E08F730E942D15D9CF80918F
:10153000840090918500049680349C4918F480E4DE
:101540009CE905C080918400909185000496909359
:101550008900809388008FEF8093F90238C0209132
:101560008400309185008091F902992787FD90953C
:10157000FC01EE0FFF1FE80FF91FE650FD4F8181C0
:101580009281820F931F90938900809388008091AD
:10159000F902992787FD9095FC01EE0FFF1FE80FD8
:1015A000F91FE650FD4F808186FF11C08091F9023E
:1015B000992787FD9095FC01EE0FFF1FE80FF91F9B
:1015C000E650FD4F808161E08F730E942D15FF91E1
:1015D000EF91BF91AF919F918F917F916F915F91AB
:1015E0004F913F912F910F900FBE0F901F90189524
:1015F0002091F8022C30A0F431E0320F3093F80241
:10160000FC012083822F90E0FC01EE0FFF1FE80F0A
:10161000F91FE650FD4F88EB9BE09283818308958C
:101620002FEFFC0120830895DF92EF92FF920F933A
:101630001F93CF93DF93EC01D62E7A018901888125
:101640008C3008F066C061E08D2D0E94F414888112
:10165000A82FB0E0FD01EE0FFF1FEA0FFB1FE650C1
:10166000FD4F2D2D2F739081907C922B908360E203
:1016700072E06E197F0977FF02C06D5F7F4F75952D
:10168000679575956795698340E659E0401B510B56
:1016900057FF02C04D5F5F4F55954795559547954C
:1016A0004A836CE00E94C81C9CE0899FB001112411
:1016B00020E030E0A901460F571FFA01EE0FFF1F8F
:1016C000E40FF51FE650FD4F908196FD16C02F5F89
:1016D0003F4F2C30310571F781110FC010928000FF
:1016E00082E0809381001092850010928400B19A6C
:1016F00080916F00826080936F00888190E0FC0190
:10170000EE0FFF1FE80FF91FE650FD4F8081806448
:1017100080838881DF91CF911F910F91FF90EF908F
:10172000DF90089520E639E040E252E00C94140B7B
:10173000FC01808190E0FC01EE0FFF1FE80FF91F14
:10174000E650FD4F80818F7B80830895FC0180816E
:101750008C3070F5918128E830E0291B310997FD24
:101760003395220F331F220F331F621773077CF04C
:10177000928128E532E0291B310997FD3395220F2C
:10178000331F220F331F621773070CF49B01225083
:101790003109220F331F4FB7F89490E0FC01EE0F90
:1017A000FF1FE80FF91FE650FD4F328321834FBF23
:1017B00008954F925F926F927F92AF92BF92CF92B5
:1017C000DF92EF92FF920F931F93CF93DF93EC0181
:1017D000603282E078070CF040C077FD06C0653BC0
:1017E00071052CF064EB70E002C060E070E089816C
:1017F00028E830E0281B310987FD3395220F331F7D
:10180000220F331F5901CC24B7FCC094DC2C88274D
:1018100077FD8095982F2A8148E552E0421B5109B7
:1018200027FD5395440F551F440F551F2A01662469
:1018300057FC6094762C7F926F925F924F9214EBDC
:10184000E12EF12C00E010E020E030E0A9010E9440
:101850002D1B0F900F900F900F90CE01DF91CF9125
:101860001F910F91FF90EF90DF90CF90BF90AF90BE
:101870007F906F905F904F900C94A60BFC0180813D
:1018800090E0FC01EE0FFF1FE80FF91FE650FD4F3F
:10189000808186FB882780F9089580914E0390E02F
:1018A00020914F03821B9109089520914F0380914D
:1018B0004E03281750F4E22FF0E0E05BFC4F8081EC
:1018C00090E02F5F20934F0308958FEF9FEF0895CF
:1018D000E0914F0380914E03E81730F4F0E0E05BB5
:1018E000FC4F808190E008958FEF9FEF0895089559
:1018F000CF92DF92EF92FF920F931F93CF93DF93DC
:101900007C01CB018A0120912A03222389F0EB017B
:101910006B01C40ED51ECC15DD0569F06991D701A8
:10192000ED91FC910190F081E02DC7010995F3CF75
:10193000642F0E94D70DC801DF91CF911F910F91A5
:10194000FF90EF90DF90CF900895CF93DF931F9299
:10195000CDB7DEB7698320912A032223D1F02091ED
:101960002B03203240F021E030E0FC01338322835E
:1019700080E090E015C080912C03E82FF0E0E35D5B
:10198000FC4F998190838F5F80932C0380932B036E
:1019900005C061E0CE0101960E94D70D81E090E084
:1019A0000F90DF91CF910895FC011382128248EECF
:1019B00053E060E070E044835583668377838FEB68
:1019C00091E091838083089510924F0310924E030B
:1019D00010922C0310922B030C94220D862F41326F
:1019E00008F040E260E573E00E94400D10924F0362
:1019F00080934E03089521E00C94EE0C81E08093D7
:101A00002A0360934D0310922C0310922B03089528
:101A10000F93062F21E040912B036DE273E080913C
:101A20004D030E94840D10922C0310922B031092F0
:101A30002A030F91089561E00C94080D8EE193E064
:101A40000C94D40C1092DD0381E08093DB031092A0
:101A5000DA0361E082E00E942D1561E083E00E94DC
:101A60002D15E9EBF0E080818E7F808380818D7F72
:101A7000808388E48093B80085E48093BC00089557
:101A8000413208F03FC09091DD039111FCCF91E00D
:101A90009093DD032093DB032FEF209370031092CC
:101AA000B503240F2093B4039093DC039091DC03DF
:101AB000880F892B8093DC038091DA03813041F415
:101AC0001092DA038091DC038093BB0085EC01C0A7
:101AD00085EE8093BC008091DD038130E1F380913D
:101AE000B503841710F44091B50326EB33E0FB01F6
:101AF000D9018A2F821B841718F48D918193F9CF15
:101B0000842F089580E008950F93413208F046C075
:101B10009091DD039111FCCF92E09093DD0300934F
:101B2000DB039FEF909370031092B5034093B403CF
:101B3000FB0166EB73E0DB019A2F961B941718F4F8
:101B400091919D93F9CF1092DC039091DC03880F63
:101B5000892B8093DC038091DA03813041F4109269
:101B6000DA038091DC038093BB0085EC01C085EE35
:101B70008093BC00222321F08091DD038230E1F3C9
:101B8000809170038F3F61F080917003803251F03B
:101B900080917003803341F483E007C081E005C089
:101BA00080E003C082E001C084E00F9108956132BB
:101BB00098F42091DD03243089F460939203FC01B2
:101BC00084E993E0DC012A2F281B261718F42191C1
:101BD0002D93F9CF80E0089581E0089582E0089583
:101BE00085ED8093BC008091BC0084FDFCCF1092F9
:101BF000DD03089585EC8093BC001092DD03089509
:101C00001F920F920FB60F9211242F933F934F9371
:101C10005F936F937F938F939F93AF93BF93EF9354
:101C2000FF938091B900887F803609F49CC068F5E5
:101C3000883209F45BC090F4803109F454C038F460
:101C4000882309F4F5C0883009F44DC0F5C0883107
:101C500009F44CC0803209F45DC0EEC0803409F450
:101C600068C048F4803309F455C0883309F0E4C0F3
:101C700080937003A8C0803509F44FC0883509F4FB
:101C80005DC0883409F0D8C0D5C0883909F4C6C011
:101C9000A8F4883709F467C038F4883609F463C0BB
:101CA000803709F460C0C8C0883809F4B7C08039EB
:101CB00009F45FC0803809F0BFC05BC0803B09F405
:101CC00085C038F4803A09F466C0883A09F47EC0C9
:101CD000B3C0803C09F4A6C0883C09F4A3C0883B8B
:101CE00009F489C0A9C08091DC0310C09091B503AC
:101CF0008091B403981770F5E091B50381E08E0FE1
:101D00008093B503F0E0EA54FC4F80818093BB00E0
:101D100085EC85C0809370038DC0E091B50381E0B0
:101D20008E0F8093B5038091BB00F0E0EA54FC4F26
:101D300080839091B5038091B4036DC0E091B503A9
:101D400081E08E0F8093B5038091BB00F0E0EA54F0
:101D5000FC4F80838091DB0381116CC081E0809314
:101D6000DA0384EA60C083E08093DD03109271039C
:101D7000CFCF80917103803208F050C0E0917103A1
:101D800081E08E0F809371038091BB00F0E0EE58EC
:101D9000FC4F8083BDCF80917103803230F4E0919D
:101DA0007103F0E0EE58FC4F10820E94F00D60913C
:101DB000710370E0E091D603F091D70382E793E0DE
:101DC0000995109271030E94FA0D36C084E0809349
:101DD000DD031092930310929203E091D803F091E7
:101DE000D903099580919203811105C081E0809308
:101DF000920310929403E091930381E08E0F8093FD
:101E00009303F0E0EC56FC4F80818093BB009091EF
:101E1000930380919203981708F47ACF85E8809312
:101E2000BC000AC085EC8093BC001092DD0304C0A6
:101E3000109270030E94F00DFF91EF91BF91AF914E
:101E40009F918F917F916F915F914F913F912F91D2
:101E50000F900FBE0F901F9018950F931F93CF9365
:101E6000DF93EC018B0188819981DC01ED91FC917C
:101E70006F770190F081E02D099588819981DC01CF
:101E8000ED91FC91B801660F672F661F770B6F7796
:101E90000190F081E02DDF91CF911F910F91099476
:101EA000DC018D919C91DC01ED91FC910190F08120
:101EB000E02D60EF0994DC018D919C91DC01ED91A6
:101EC000FC910190F081E02D67EF0994CF93DF93AF
:101ED000EC0188819981DC01ED91FC910190F08108
:101EE000E02D69EF099588819981DC01ED91FC91E4
:101EF0000190F081E02D62E0099588819981DC01F3
:101F0000ED91FC910190F081E02D64E0DF91CF91A3
:101F100009941F93CF93DF93EC018A818823D9F131
:101F2000CE010E94500F88819981DC01ED91FC91D6
:101F30000190F081E02D69E7099588819981DC01A4
:101F4000ED91FC91AB81BC810190F081E02D6C9111
:101F5000099588819981DC01ED91FC91AB81BC816F
:101F60000190F081E02D11966C91099512E08A8123
:101F7000181758F4EB81FC81E10FF11D608170E0CE
:101F8000CE010E942D0F1F5FF2CFCE01DF91CF91C6
:101F90001F910C945B0FDF91CF911F910895CF9209
:101FA000DF92EF92FF920F931F93CF93DF938C01F9
:101FB000EB01C42ED22E6BEC71E0CE010E94761E96
:101FC0007C016FE270E0CE010E946B1E009739F435
:101FD0006CE570E0CE010E946B1E009711F0EC01E1
:101FE0002196E114F10451F4FE0101900020E9F77B
:101FF000EC1BEF5FD8011296EC9306C0EC1AFD0AB9
:10200000E394E394F801E282D80113968D919C91B8
:1020100014970E94CD1DF801E280F12CC7010196B2
:102020000E94351DD80114969C938E931397FC0142
:10203000EE0DFF1D1082FC01C082D18212964C91E0
:1020400050E042505109BE010296DF91CF911F919D
:102050000F91FF90EF90DF90CF900C945C1EDC010D
:102060008D919C91DC01ED91FC910480F581E02D36
:1020700009940F931F93CF93DF93FC0120852137A1
:1020800049F0293709F049C0DF91CF911F910F9195
:102090000C94890FFC01E95AFF4F0190F081E02D6B
:1020A000309709F450C0DC01A75BBF4F4D915C91A4
:1020B0009A012150310937FD9A01B901759567954B
:1020C000062F40E050E020E030E04E5F5F4F2017E9
:1020D000A0F4EC01C40FD51F1F81DC01A20FB31FB8
:1020E00018961C931897C885D0E8CD9F1019112415
:1020F00018961C932F5F3F4FE8CFDC01A60FB11D50
:1021000017962C911797222311F018961C92089677
:10211000DF91CF911F910F910994FC01E75AFF4F76
:102120000190F081E02D309771F0AC01475F5F4F77
:10213000DC01A75BBF4F6C916150822FDF91CF9183
:102140001F910F910994DF91CF911F910F910895E5
:102150000F931F93CF93DF93EC018A0188819981BC
:10216000DC01ED91FC916F70606E0190F081E02DCB
:102170000995B801CE01DF91CF911F910F910C9479
:102180002D0F0F931F93CF93DF93EC018A0188816A
:102190009981DC01ED91FC916F7060690190F08193
:1021A000E02D099588819981DC01ED91FC91602FEA
:1021B0006F770190F081E02D099588819981DC018C
:1021C000ED91FC91B801660F672F661F770B0190A8
:1021D000F081E02DDF91CF911F910F910994CF9263
:1021E000DF92EF92FF920F931F93CF93DF9300D074
:1021F0001F92CDB7DEB78C01F42E2A833B8369830F
:102200000E94500FD8018D919C91DC01ED91FC91C1
:102210000190F081E02D698109952A81E22EC22E7C
:102220003B81D32E8C2D8E198F1540F4F6016191D0
:102230006F0170E0C8010E942D0FF4CFC8010F900C
:102240000F900F90DF91CF911F910F91FF90EF9022
:10225000DF90CF900C945B0F9A01FA01019000205F
:10226000E9F73197E41BF50B4E2F0C94EF10AB01FF
:1022700061E70C942C11DC018D919C91DC01ED91B6
:10228000FC910190F081E02D0994603DB9F028F4B3
:10229000603961F0603C71F00895603E19F0643F70
:1022A00089F00895FC01E55BFF4F0FC0FC01E35B83
:1022B000FF4F0BC0FC01E15BFF4F07C0FC01EF5A71
:1022C000FF4F03C0FC01ED5AFF4F51834083089537
:1022D0006F3F29F4FC01EB5AFF4F5183408308956F
:1022E000875A9F4FFC01518340830895FC0115825A
:1022F0001682178280E090E0DF01A80FB91F1896C0
:102300001C92019680349105B9F7DF01A85BBF4F9D
:102310001C9211961D921C92EB5AFF4F0190F08176
:10232000E02D309709F009940895FC01128214827F
:1023300013820C947611CF93DF93EC0188819981FD
:10234000DC01ED91FC910680F781E02D0995FE01FD
:10235000E85BFF4F20812223B1F0873F910531F4E4
:102360001082CE01DF91CF910C943910FE01E75B12
:10237000FF4F20813181C20FD31F88872F5F3F4FCE
:10238000318320839DC02D81222309F45EC08038D3
:1023900091050CF05AC09FEF920F9D83FE01E90F4B
:1023A000F11D808791118CC08E81882309F488C02B
:1023B000803DE9F148F48039E9F0803C09F043C000
:1023C000FE01E15BFF4F36C0803E19F0843F19F1FA
:1023D0003AC0FE01E55BFF4F0190F081E02D3097A0
:1023E00091F18885698570E0B0E88B9F600D711D63
:1023F000112427C0FE01E35BFF4F0190F081E02D27
:10240000309709F18885698570E090E8899F600DB3
:10241000711D112416C0FE01ED5AFF4F0190F0818D
:10242000E02D309781F0688570E089850BC0FE0152
:10243000EF5AFF4F0190F081E02D309721F0688531
:1024400070E08F8109951E823BC0803F91052CF47E
:10245000282F2F702F83807F9927803E910521F1AF
:1024600054F4803C910511F1803D9105F9F08039DB
:10247000910531F519C0843F9105B1F054F4803FC6
:102480009105F1F481E08083C75BDF4F19821882E8
:1024900017C0893F910571F08F3F910589F4CE01F6
:1024A000DF91CF910C94761192E001C091E09D8371
:1024B0008E8306C08EED93E0DF91CF910C94660F72
:1024C000DF91CF9108958F929F92AF92BF92CF925A
:1024D000DF92EF92FF921F93CF93DF93EB014A01BC
:1024E000690161E08DE00E94F41410E0EE24D7FC55
:1024F000E094FE2CAA2497FCA094BA2C812F90E0A3
:102500008C179D0794F4C701B6010E94661361E021
:102510008DE00E942D15C501B4010E94661360E094
:102520008DE00E942D151F5FE9CFDF91CF911F91A4
:10253000FF90EF90DF90CF90BF90AF909F908F90E3
:102540000895CF93DF93EC0161E08DE00E94F414D5
:1025500022ED30E048E250E062E070E0CE010E94FF
:1025600063126AEF70E080E090E00E94661322ED53
:1025700030E048E250E064E070E0CE010E94631277
:102580006DE770E080E090E0DF91CF910C946613EE
:10259000CF93DF93EC0188E494E00E94491688E42D
:1025A00094E099838883CE010E94A112CE010E94FB
:1025B000660FCE01DF91CF910C94890F8EED93E0E1
:1025C0000C9495110F9300E020E040E060E089E377
:1025D00094E00E94A6160F9108951F920F920FB6D5
:1025E0000F9211242F933F938F939F93AF93BF9399
:1025F0008091400490914104A0914204B091430421
:1026000030913F0423E0230F2D3720F40196A11DC4
:10261000B11D05C026E8230F0296A11DB11D209310
:102620003F048093400490934104A0934204B093EC
:1026300043048091440490914504A0914604B091D4
:1026400047040196A11DB11D809344049093450455
:10265000A0934604B0934704BF91AF919F918F918F
:102660003F912F910F900FBE0F901F9018952FB78D
:10267000F8946091400470914104809142049091DB
:1026800043042FBF08953FB7F8948091440490917C
:102690004504A0914604B091470426B5A89B05C007
:1026A0002F3F19F00196A11DB11D3FBF6627782F5E
:1026B000892F9A2F620F711D811D911D42E0660FB7
:1026C000771F881F991F4A95D1F70895CF92DF92FF
:1026D000EF92FF92CF93DF936B017C010E94431333
:1026E000EB01C114D104E104F10489F00E94741BD0
:1026F0000E9443136C1B7D0B683E734090F381E096
:10270000C81AD108E108F108C851DC4FEACFDF91BF
:10271000CF91FF90EF90DF90CF9008958230910598
:1027200038F0880F991F880F991F05970197F1F7C7
:102730000895789484B5826084BD84B5816084BD39
:1027400085B5826085BD85B5816085BDEEE6F0E02A
:10275000808181608083E1E8F0E010828081826086
:102760008083808181608083E0E8F0E08081816007
:102770008083E1E9F0E080818260808380818160F4
:102780008083E0E9F0E0808181608083E1ECF0E02B
:102790008081846080838081826080838081816089
:1027A0008083E3ECF0E0808181608083E0ECF0E006
:1027B000808182608083E2ECF0E0808181608083B0
:1027C000EAE7F0E08081846080838081826080839A
:1027D00080818160808380818068808308958231D8
:1027E00008F08251E82FF0E0E45FFE4FE491809121
:1027F0007B00E3FB222720F930E095E0220F331F16
:102800009A95E1F78F7D822B80937B00E770809112
:102810000D0120E4829FC0011124E82BE0937C008D
:1028200080917A00806480937A0080917A0086FD9E
:10283000FCCF809178002091790090E0922B089550
:102840001F93CF93DF93182FEB0161E00E94F414E4
:10285000209711F460E004C0CF3FD10539F461E066
:10286000812FDF91CF911F910C942D15E12FF0E076
:10287000E85EFE4F449150E0FA013197EF30F105E8
:1028800008F06CC0E859FF4F0C94151D84B58068A2
:1028900084BDC7BD68C084B5806284BDC8BD63C047
:1028A00080918000806880938000D0938900C093DD
:1028B000880059C080918000806280938000D0930E
:1028C0008B00C0938A004FC0809180008860809305
:1028D0008000D0938D00C0938C0045C08091900003
:1028E000806880939000D0939900C09398003BC07B
:1028F00080919000806280939000D0939B00C09361
:102900009A0031C080919000886080939000D093AD
:102910009D00C0939C0027C08091C0008068809378
:10292000C0008091C0008F7B8093C000C093CF0017
:102930001AC08091C00080628093C000C093D00014
:1029400012C08091C20088608093C2008091C20052
:102950008B7F8093C200C093D20005C0C038D105E0
:102960000CF07DCF77CFDF91CF911F91089590E04C
:10297000FC013197EF30F105B0F5E958FF4F0C94A9
:10298000151D809180008F7703C0809180008F7D1E
:1029900080938000089580918000877FF9CF84B56F
:1029A0008F7702C084B58F7D84BD0895809190009B
:1029B0008F7707C0809190008F7D03C08091900039
:1029C000877F8093900008958091C0008F7703C027
:1029D0008091C0008F7D8093C00008958091C200D7
:1029E000877F8093C2000895CF93DF9390E0FC012E
:1029F000EA5CFE4F2491FC01EC5AFE4F849188233F
:102A000049F190E0880F991FFC01E257FE4FA59114
:102A1000B49180589E4FFC01C591D4919FB761112C
:102A200008C0F8948C91209582238C93888182230E
:102A30000AC0623051F4F8948C91322F3095832380
:102A40008C938881822B888304C0F8948C91822B8C
:102A50008C939FBFDF91CF9108950F931F93CF93D6
:102A6000DF931F92CDB7DEB7282F30E0F901E85E83
:102A7000FE4F8491F901EA5CFE4F1491F901EC5A82
:102A8000FE4F04910023C9F0882321F069830E943E
:102A9000B7146981E02FF0E0EE0FFF1FE058FE4F02
:102AA000A591B4919FB7F8948C91611103C01095D2
:102AB000812301C0812B8C939FBF0F90DF91CF9119
:102AC0001F910F910895CF93DF93282F30E0F901E4
:102AD000E85EFE4F8491F901EA5CFE4FD491F90162
:102AE000EC5AFE4FC491CC2391F081110E94B7148F
:102AF000EC2FF0E0EE0FFF1FEE58FE4FA591B491C2
:102B00002C912D2381E090E021F480E002C080E050
:102B100090E0DF91CF910895CF93DF931F92CDB7CF
:102B2000DEB76983DC01ED91FC910280F381E02D39
:102B300041E050E0BE016F5F7F4F09950F90DF913C
:102B4000CF910895CF93DF93EC018C859D8597FFFE
:102B500005C082E00E9458189D878C878C859D85D2
:102B6000DF91CF91089583E00C94AD1AFC01848528
:102B7000958597FD06C082E00E94001890E00196BE
:102B8000089582E00E94001890E00895FC01848579
:102B9000958597FD05C02FEF3FEF35872487089572
:102BA00082E00C945818CF93DF93EC0180911501CB
:102BB000882331F083E00E9489181816190634F032
:102BC00081E090E09B838A8380E090E0DF91CF9169
:102BD0000895FC0120812E5F208342E450E06CE9DF
:102BE00071E080E80C942419FC0181819081913A74
:102BF00059F4813209F03CC047E050E06EE071E0EA
:102C000080E00E94241943C0913291F5803239F45A
:102C100067E070E08EE091E00E94551906C08232B4
:102C200009F035C082818093150180910E01909149
:102C30000F01A0911001B0911101803B9440A105BA
:102C4000B105C1F48091150180FD14C087E797E7B5
:102C500090930108809300082BE088E190E00FB684
:102C6000F894A895809360000FBE209360000FC079
:102C700080E0089588E10FB6F89480936000109288
:102C800060000FBEA895109201081092000881E024
:102C900008952FEF3FEFFC013587248708951092A8
:102CA0004B0410924A0488EE93E0A0E0B0E08093D9
:102CB0004C0490934D04A0934E04B0934F0484EDC4
:102CC00091E090934904809348048FEF9FEF909395
:102CD0005504809354040895AF92BF92CF92DF922F
:102CE000EF92FF920F931F93CF93DF936C017B01C1
:102CF000C0E0D0E000E010E0F601EC0FFD1F4AE07C
:102D000050E06281C7010E9480175C016EE2C7013A
:102D10000E9413178A0D9B1D080F191F2196C3309F
:102D2000D10551F74AE050E0F6016581C7010E94E4
:102D30008017800F911FDF91CF911F910F91FF900E
:102D4000EF90DF90CF90BF90AF9008950F93FC016C
:102D500084EE91E09183808362834383248305839F
:102D60000F91089584EE91E09093990480939804D4
:102D700010929A0410929B0410929C0410929D044D
:102D8000089508950E9499130E94C1168EE994E057
:102D90000E940D1B0E948806C0E0D0E00E94A50999
:102DA0002097E1F30E940000F9CFCF92DF92EF92DB
:102DB000FF920F931F93CF93DF936C017A01EB0186
:102DC000E60EF71E00E010E0CE15DF0561F0699118
:102DD000D601ED91FC910190F081E02DC60109959D
:102DE000080F191FF1CFC801DF91CF911F910F91EB
:102DF000FF90EF90DF90CF9008956115710581F0FD
:102E0000DB010D900020E9F7AD0141505109461B4F
:102E1000570BDC01ED91FC910280F381E02D0994C8
:102E200080E090E00895DC01ED91FC910190F0814B
:102E3000E02D09948F929F92AF92BF92CF92DF9232
:102E4000EF92FF920F931F93CF93DF93CDB7DEB72F
:102E5000A1970FB6F894DEBF0FBECDBF7C01C42E84
:102E6000E52FCB01D22E19A221E02D1510F02AE07A
:102E7000D22E8E010F5D1F4F8D2C912CA12CB12CC9
:102E80006C2D7E2FA50194010E94D41C8C2DD29E06
:102E900080191124015011098A3014F4805D01C099
:102EA000895CF8018083211531054105510521F028
:102EB000C22EE32FCA01E4CFB801C7010E94FD165C
:102EC000A1960FB6F894DEBF0FBECDBFDF91CF91B4
:102ED0001F910F91FF90EF90DF90CF90BF90AF9038
:102EE0009F908F9008952115310541F4DC01ED91FB
:102EF000FC910190F081E02D642F09940C941A1735
:102F00009A01462F50E060E070E00C9473174091F6
:102F1000A2045091A3042091A0043091A10442176F
:102F20005307B4F49091E8009570E1F39091E800B4
:102F300092FD19C08093F1008091A2049091A304A6
:102F400001968F739927892B19F48EEF8093E800EF
:102F50008091A2049091A30401969093A30480937E
:102F6000A20481E0089580E00895CF92DF92FF925D
:102F70000F931F93CF93DF931F92CDB7DEB7082F28
:102F8000162F862F880F8E5F99830E94871783E004
:102F90000E948717F02EC02E9981D92E8C2D8F1963
:102FA000811778F4F60184910E948717082F80E03A
:102FB0000E9487178023FFEFCF1ADF0A8111EECF1F
:102FC00001C081E00F90DF91CF911F910F91FF9091
:102FD000DF90CF900895615030F02091F100FC0116
:102FE00020830196F8CF289A84E68093A50408955B
:102FF0002FB7FC012083F89467706093E90008956F
:10300000CF93DF931F92CDB7DEB7682FCE01019625
:103010000E94F8178091F20099819FBF0F90DF9175
:10302000CF910895FF920F931F93CF93DF9300D01A
:10303000CDB7DEB7F62E8A019091A404992311F042
:1030400057FF03C08FEF9FEF2BC0682FCE01019673
:103050007A830E94F8178091F20090E0A8017A81AB
:10306000801791070CF4AC01EF2DF72FF40E84E6D6
:10307000FE1639F0289A8093A5049091F10091935F
:10308000F7CF4115510521F08091F200882321F0FE
:1030900089818FBFCA0104C08BE68093E800F8CF16
:1030A0000F900F90DF91CF911F910F91FF90089596
:1030B000CF93DF931F92CDB7DEB741E050E0BE0162
:1030C0006F5F7F4F0E941218019719F4898190E079
:1030D00002C08FEF9FEF0F90DF91CF910895CF93B4
:1030E000DF931F92CDB7DEB7682FCE0101960E9405
:1030F000F8179091E800892F807295FF04C0909195
:10310000F20080E4891B99819FBF0F90DF91CF91DE
:1031100008956F927F928F929F92AF92BF92CF92BB
:10312000DF92EF92FF920F931F93CF93DF931F9243
:10313000CDB7DEB7782E7B01C42EB52E8091A404C6
:10314000882369F0042F152F8AEFD82E872D8072DF
:10315000982E9AE3A92E872D8074882E11C08FEFA8
:103160009FEF57C0872D0E946F18682E81110CC0E9
:10317000DA94A9F361E070E080E090E00E946613C9
:103180000115110579F73BC0282F30E0021713070E
:103190000CF4602E672DCE0101960E94F8178091E5
:1031A000E80085FF29C0262D30E0021B130B992073
:1031B00039F06A948FEF6816B1F01092F100F9CFF0
:1031C000F701862D77FE07C0815058F094919093B7
:1031D000F1003196F9CF815020F091919093F10058
:1031E000FACFE20EF31E8091E80085FF0FC00115B3
:1031F000110511F481100AC089818FBFC1CF5D9A7A
:1032000084E68093A6048C2D9B2D03C0A092E80039
:10321000F3CF0F90DF91CF911F910F91FF90EF901F
:10322000DF90CF90BF90AF909F908F907F906F90E6
:1032300008951092E9001092A3041092A2049093B2
:10324000A1048093A0040895CF92DF92FF920F9380
:103250001F93CF93DF9300D0CDB7DEB7F82E8A014E
:103260006B0101151105B1F0F601F7FE02C0849162
:1032700001C0808149835A830E9487170150110938
:10328000FFEFCF1ADF0A49815A818111EACF8FEF10
:103290009FEF01C0CA010F900F90DF91CF911F9156
:1032A0000F91FF90DF90CF9008951F93CF93DF93FE
:1032B0001F92CDB7DEB7162F2091E80022FFFCCF7A
:1032C000612F79830E94EB178BEF8093E800812FA9
:1032D0007981972F0F90DF91CF911F910895CF9310
:1032E000DF931F92CDB7DEB71982CE0101960E94FF
:1032F000E915CE0101960E94931B898190E00F9001
:10330000DF91CF9108951F920F920FB60F92112463
:10331000EF92FF920F931F932F933F934F935F93DF
:103320006F937F938F939F93AF93BF93EF93FF938D
:10333000CF93DF93CDB7DEB76297DEBFCDBF1092DC
:10334000E9008091E80083FFEBC068E0CE010A96B7
:103350000E94EB1782EF8093E8009A8597FF05C0E3
:103360008091E80080FFFCCF03C08EEF8093E800DF
:10337000892F807609F0B9C08B85811105C0109224
:10338000F1001092F100C5C0282F2D7F213009F4E3
:10339000C0C0853049F48091E80080FFFCCF8C8567
:1033A00080688093E300B5C0863009F076C02D8533
:1033B000E888F988223071F580E090E02A8B0E943D
:1033C00019190E946F1999E08E010F5F1F4FF801C4
:1033D000392F11923A95E9F799832A892A8391E046
:1033E0009E8390E898879AEF99872091A204309164
:1033F000A304275F3F4F3C832B838D83C7010E942B
:10340000191949E050E0B80180E00E9424190E9497
:103410006F197FC0C7012A8B0E9419192A8922328D
:1034200041F482E290E00E949E1B892B09F071C05A
:1034300074C0213069F488899989089711F4209320
:103440009F0480919F04811118C065EF71E01AC03C
:10345000233009F062C08C85882391F0823021F4FA
:103460006DE083E192E006C0813009F056C06BE068
:1034700087E092E00E94B5174AC063EE71E002C097
:1034800061E272E06115710509F447C0FB014491E6
:1034900050E080E80E9424193CC0873009F43DC008
:1034A000883021F481E08093F10033C0893089F5C0
:1034B000937099F5EFEDF1E081E021E096E38093E0
:1034C000E9002093EB0034913093EC009093ED00F1
:1034D0008F5F3196853099F78EE78093EA001092DE
:1034E000EA008C858093A40414C0888999890E947D
:1034F00019198E85811105C0CE010A960E94F41516
:1035000006C0823051F4CE010A960E94C61B882361
:1035100021F08EEF8093E80003C081E28093EB00FE
:1035200062960FB6F894DEBF0FBECDBFDF91CF918C
:10353000FF91EF91BF91AF919F918F917F916F918B
:103540005F914F913F912F911F910F91FF90EF90BD
:103550000F900FBE0F901F9018958093E9008091F7
:10356000F200882319F08AE38093E80008951F92FF
:103570000F920FB60F9211242F933F934F935F93A7
:103580006F937F938F939F93AF93BF93EF93FF932B
:103590008091E1001092E10083FF0FC01092E900DA
:1035A00091E09093EB001092EC0092E39093ED0089
:1035B0001092A40498E09093F00082FF1DC083E075
:1035C0000E94AD1A8091A604882339F08091A60448
:1035D00081508093A604882369F08091A5048823F4
:1035E00059F08091A50481508093A504811104C0F5
:1035F000289802C05D98F1CFFF91EF91BF91AF91F4
:103600009F918F917F916F915F914F913F912F91FA
:103610000F900FBE0F901F9018951092A40481E098
:103620008093D70080EA8093D80082E189BD09B4F5
:1036300000FEFDCF61E070E080E090E00E94661344
:1036400080E98093D8008CE08093E2001092E00043
:10365000559A209A5D98289808954F925F926F929C
:103660007F92AF92BF92CF92DF92EF92FF920F9331
:103670001F93CF93DF93CDB7DEB729013A01621BC9
:10368000730B840B950B29893A894B895C892A191C
:103690003B094C095D09298B3A8B4B8B5C8B9B0159
:1036A000AC0169897A898B899C890E94B81CE418CD
:1036B000F50806091709A80197010E94F61C2A0DB2
:1036C0003B1D4C1D5D1DCA01B901DF91CF911F91BA
:1036D0000F91FF90EF90DF90CF90BF90AF907F90D1
:1036E0006F905F904F9008950895FF920F931F93EE
:1036F000CF93DF93EC01F62EE881F9810480F58108
:10370000E02D09958C01E881F9810680F781E02D93
:103710006F2DCE010995C8019927DF91CF911F9197
:103720000F91FF900895FC0120812F5F208349E1D4
:1037300050E065EA72E080E80C94241945E650E018
:103740006EEB72E080E80C942419EF92FF920F93D5
:103750001F93CF93DF931F92CDB7DEB789838B0181
:103760007A0141E050E0BE016F5F7F4F84E00E942C
:103770008918A701B80184E40E9489180F90DF918D
:10378000CF911F910F91FF90EF900895FC019181CF
:103790008081813A31F481E0913091F0933089F465
:1037A00011C0813271F49B3021F482818093170122
:1037B00005C09A3031F482818093160181E008952A
:1037C000089580E0089548E050E082E00C94A51B45
:1037D000CF93DF93DC01683818F0E8E7E60F25C0E7
:1037E000E62FF0E067FF11C0E058F10981E090E0BA
:1037F00001C0880FEA95EAF714969C911497982BCC
:1038000014969C931497E0E010C0EB5DFD4FE4919B
:10381000EE2309F440C0E7FF08C014968C9114977A
:10382000826014968C931497EF7716968C91169766
:103830008E1741F117968C9117978E1719F11896DC
:103840008C9118978E17F1F019968C9119978E1705
:10385000C9F01A968C911A978E17A1F01B968C912D
:103860001B978E1779F080E090E0ED01C80FD91F0B
:103870002E81211102C0EE8305C00196863091058C
:10388000A1F709C0BD016C5F7F4FCD010E94E31B12
:1038900081E090E008C081E090E013969C938E93C5
:1038A000129780E090E0DF91CF910895683818F08A
:1038B000E8E7E60F25C0E62FF0E067FF12C0E0580A
:1038C000F10921E030E001C0220FEA95EAF72095E6
:1038D000DC0114963C911497322314963C93E0E05B
:1038E0000FC0EB5DFD4FE491EE2329F1E7FF08C027
:1038F000DC0114962C9114972D7F14962C93EF775E
:1039000020E030E0EE2351F0DC01A20FB31F169649
:103910004C9116974E1302C016961C922F5F3F4F84
:103920002630310579F7BC016C5F7F4F0E94E31BA5
:1039300081E090E0089580E090E00895FC01168217
:10394000178210861186128613861482BC016C5F62
:103950007F4F0C94E31B1092B3041092AA041092B0
:10396000A9048AEE91E09093A8048093A704089597
:10397000DB018F939F930E941B1DBF91AF91A29F6C
:10398000800D911DA39F900DB29F900D112408955D
:10399000991B79E004C0991F961708F0961B881FA1
:1039A0007A95C9F780950895A1E21A2EAA1BBB1B30
:1039B000FD010DC0AA1FBB1FEE1FFF1FA217B307FB
:1039C000E407F50720F0A21BB30BE40BF50B661F11
:1039D000771F881F991F1A9469F7609570958095D5
:1039E00090959B01AC01BD01CF010895052E97FB79
:1039F0001EF400940E940D1D57FD07D00E94D41C98
:103A000007FC03D04EF40C940D1D50954095309555
:103A100021953F4F4F4F5F4F08959095809570953A
:103A200061957F4F8F4F9F4F0895EE0FFF1F0590B9
:103A3000F491E02D09940E94261DA59F900DB49F3E
:103A4000900DA49F800D911D11240895A29FB00197
:103A5000B39FC001A39F700D811D1124911DB29FC2
:103A6000700D811D1124911D0895CF93DF93823035
:103A7000910510F482E090E0E091B604F091B70473
:103A800020E030E0A0E0B0E0309739F14081518192
:103A900048175907B8F04817590771F48281938184
:103AA000109729F013969C938E9312972CC09093A5
:103AB000B7048093B60427C02115310531F04217B1
:103AC000530718F0A901DB0101C0EF019A01BD0104
:103AD000DF010280F381E02DD7CF21153105F9F008
:103AE000281B390B2430310580F48A819B816115B4
:103AF000710521F0FB019383828304C09093B70486
:103B00008093B604FE01329644C0FE01E20FF31F1B
:103B10008193919322503109398328833AC02091AF
:103B2000B4043091B504232B41F42091020130916B
:103B300003013093B5042093B40420910001309127
:103B400001012115310541F42DB73EB74091040123
:103B500050910501241B350BE091B404F091B5049C
:103B6000E217F307A0F42E1B3F0B2817390778F054
:103B7000AC014E5F5F4F2417350748F04E0F5F1FB3
:103B80005093B5044093B4048193919302C0E0E054
:103B9000F0E0CF01DF91CF910895CF93DF930097AD
:103BA00009F487C0FC01329713821282C091B604D7
:103BB000D091B704209781F420813181280F391FDB
:103BC0008091B4049091B5048217930779F5F0932E
:103BD000B504E093B4046DC0DE0120E030E0AE1720
:103BE000BF0750F412964D915C9113979D014115BA
:103BF000510509F1DA01F3CFB383A28340815181EA
:103C0000840F951F8A179B0771F48D919C911197D2
:103C1000840F951F02969183808312968D919C91BB
:103C20001397938382832115310529F4F093B70408
:103C3000E093B6043EC0D9011396FC93EE9312971D
:103C40004D915D91A40FB51FEA17FB0779F48081B0
:103C50009181840F951F0296D90111969C938E93A2
:103C60008281938113969C938E931297E0E0F0E00B
:103C70008A819B81009719F0FE01EC01F9CFCE01FA
:103C8000029628813981820F931F2091B4043091CC
:103C9000B5042817390769F4309729F41092B7044E
:103CA0001092B60402C013821282D093B504C0935E
:103CB000B404DF91CF910895FB01DC0141505040E5
:103CC00048F001900D920020C9F701C01D924150AB
:103CD0005040E0F70895FC0181E090E00190061665
:103CE00009F4CF010020D1F701970895FB0151910C
:103CF0005523A9F0BF01DC014D9145174111E1F7B2
:103D000059F4CD010190002049F04D914015411129
:103D1000C9F3FB014111EFCF81E090E001970895D5
:043D2000F894FFCF45
:103D24000000B804800001000000FF13000100E15E
:103D340000000000000001014D6178207365727677
:103D44006F7320617474616368656400556E6B6E93
:103D54006F776E2070696E206D6F646500537461B7
:103D64006E646172644669726D6174612E696E6F0E
:103D7400004932433A20546F6F206D616E7920629E
:103D84007974657320726563656976656400493288
:103D9400433A20546F6F20666577206279746573A7
:103DA4002072656365697665640031302D626974DB
:103DB4002061646472657373696E67206E6F74202A
:103DC400737570706F7274656400746F6F206D61C9
:103DD4006E7920717565726965730000000000A535
:103DE4000C780C4D0C550C680C770C2E637070001D
:103DF400000000008C15D315B615C615A215B31511
:103E0400000000006C1600000000751BD516E81BAE
:043E1400561C9E1C7E
:00000001FF
