:100000000C9474000C949C000C949C000C949C0028
:100010000C949C000C949C000C949C000C949C00F0
:100020000C949C000C949C000C949C000C949307E2
:100030000C949C000C949C000C949C000C949C00D0
:100040000C9443100C949C000C947B130C94AD13F3
:100050000C949C000C949C000C949C000C949C00B0
:100060000C94550B0C949C00D906F5061706F50662
:100070008006F506F505A205F506F506F506F50672
:10008000F506B904F5068805F506DC05000000084C
:10009000000201000003040700000000000000004F
:1000A000010204081020408001020408102001020F
:1000B00004081020040404040404040402020202DC
:1000C00002020303030303030000000025002800CD
:1000D0002B0000000000240027002A001E04730AE1
:1000E00034103810DD13661411241FBECFEFD8E092
:1000F000DEBFCDBF11E0A0E0B1E0E2EBFEE202C066
:1001000005900D92AC3DB107D9F724E0ACEDB1E01C
:1001100001C01D92A43BB207E1F710E0C8EED0E0A9
:1001200004C02297FE010E94DE15CC3DD107C9F71D
:100130000E9476140C9457170C940000833008F03A
:1001400062C0482F440F440F440F485F473108F006
:1001500046E1582F550F550F550F90E071E0541799
:10016000E8F42EEF250F2231B0F4E52FF0E0DF01A7
:10017000A156BD4F2C91223070F4972BEE0FFF1F2C
:10018000E059FD4F21E030E0A72FA62311F420E035
:1001900030E031832083770F5F5FE1CF81110AC0A8
:1001A0009C7FF8942BB1892F809582239623892BED
:1001B0008BB928C08130C9F46923F89425B1892FFF
:1001C0008F7380958223262F2F73822B85B988B158
:1001D00062956695669563709295969596959370DF
:1001E00090959823692B68B90DC09F70F89428B139
:1001F000892F880F880F809582236923660F660FE9
:10020000862B88B9789408950F931F93CF93DF932B
:10021000EB01863180F5082F10E0F801E156FD4F23
:1002200090819330A1F0943031F582508231E0F426
:10023000F801E551FE4F208130E0C901880F991F78
:10024000820F931F8F5F9D4F0E942E090DC0833038
:1002500041F09BEF980F923020F097EF980F93307A
:1002600018F4BE010E944511F801EE0FFF1FE0597E
:10027000FD4FD183C083DF91CF911F910F910895DE
:10028000CF93C82F883058F54091BB025091BC02E3
:1002900021E030E0082E02C0220F331F0A94E2F75B
:1002A000672B49F420953095242335233093BC02E5
:1002B0002093BB0214C0242B352B3093BC02209317
:1002C000BB028091DC0181110AC08C2F0E94281191
:1002D000AC016C2F83EA93E0CF910C94FD0DCF918C
:1002E0000895DB019A019091DD019C30D0F5409199
:1002F000DE01682F70E0442369F0E42FF0E0E25261
:10030000FE4F8081FB01E551FE4F808341504093B9
:10031000DE0107C0FB01E551FE4F90839F5F909384
:10032000DD01FB01E551FE4F1A161B067CF4121687
:10033000130664F4408150E0CA01880F991F840FAE
:10034000951FAD018F5F9D4F0C946B08208130E0AD
:10035000C901880F991F820F931F8F5F9D4F0C94C7
:10036000E9086EE071E083EA93E00C948C0ECF9381
:10037000DF93C82FD0E0C551DE4F288130E0C9019E
:10038000880F991F820F931F8F5F9D4F0E94EF0868
:1003900088819091DD01891306C0882379F081500E
:1003A0008093DD010BC0992349F0E091DE01EF5FFE
:1003B000E093DE01F0E0E252FE4F80838FEF88830E
:1003C000DF91CF9108951F93CF93DF93162FC82FFE
:1003D000D0E0FE01E456FD4F90811923CB54DD4F50
:1003E000411103C09881911741F0412F50E0682FCF
:1003F00083EA93E00E94160E1883DF91CF911F913C
:100400000895833020F5282F30E0F901E854FD4F9E
:100410006083672BE1F0F901E456FD4F9081811173
:1004200003C069B16C7F0FC0813049F463B126B15C
:1004300040E4249F900111246F73622B04C066B1C5
:100440006C7366956695692341E00C94E301089509
:100450008091B802882349F069B180919C02682399
:100460006C7F40E080E00E94E3018091B902882324
:1004700079F063B186B120E4829FC00111246F73CB
:10048000682B80919D02682340E081E00E94E30197
:100490008091BA02882359F066B16C7366956695AF
:1004A00080919E02682340E082E00C94E30108956D
:1004B000109227028FEF80930A010895AF92BF92A6
:1004C000DF92EF92FF920F931F93CF93DF9300D0B1
:1004D000CDB7DEB7D82E5B01E82EF12C870101568F
:1004E0001D4FF80180818F3709F402C1863049F42D
:1004F00080912702882329F06630710511F00E944F
:1005000058024EEF4D0D4231C0F484E0A816B104FC
:10051000A1F0F701E551FE4F20812C3070F430E05E
:10052000C901880F991F820F931F8F5F9D4F4A83C8
:100530000E9493094A818111C3C092EF9D0D9830AA
:1005400078F461E070E0E2E0AE16B10411F060E032
:1005500070E0892F4A8399830E94400199814A81E2
:100560004231D8F4ED2DE695E695E6958D2D877010
:10057000F0E0E456FD4F21E030E0082E01C0220FEC
:100580000A94EAF7A114B10421F48081822B8083BC
:1005900004C02095808128232083F701EE0FFF1FE0
:1005A000E059FD4F11821082F2E0AF16B104A1F0C4
:1005B0003CF4A114B104F9F0AA94AB2851F16FC036
:1005C000F4E0AF16B10409F448C084F1E6E0AE16D9
:1005D000B10409F45CC063C0983008F089C04231AE
:1005E00040F460E08D2D0E94CD1160E08D2D0E94C1
:1005F000061282E051C0423108F07AC060E08D2DD1
:100600000E94CD1160E08D2D0E940612F80110822B
:100610006FC0423108F06CC060E08D2D0E94061260
:1006200061E08D2D0E94CD1181E036C0F3E0DF1630
:1006300049F08BEF8D0D823028F087EF8D0D8330E0
:1006400008F056C061E08D2D0E94CD1160E070E091
:100650008D2D0E94451183E01FC0423108F048C033
:1006600084E0F8018083F701E551FE4F80818F3FE0
:1006700069F190E09C01220F331F280F391FC90137
:100680008F5F9D4F0E949309811132C01FC08EEE73
:100690008D0D823068F586E0F801808329C062E222
:1006A00071E083EA93E00F900F90DF91CF911F915B
:1006B0000F91FF90EF90DF90BF90AF900C948C0E55
:1006C0008D2D4A830E94B7014A8137CF4FEF5FEFEC
:1006D0006FEF7FEF8D2D0F900F90DF91CF911F91D6
:1006E0000F91FF90EF90DF90BF90AF900C9471014D
:1006F0000F900F90DF91CF911F910F91FF90EF908E
:10070000DF90BF90AF900895CF93C0E08EEE8C0F36
:10071000823028F466E070E08C2F0E945E02CF5F8A
:10072000C631A1F781E08093270283EE92E0CF915A
:100730000C94390A0F931F93CF93DF9381E080933A
:10074000DC018091270281110E9458021092B802A8
:1007500010929C021092B5021092B90210929D0262
:100760001092B6021092BA0210929E021092B70234
:10077000CBEED1E010E00FEF82EF810F883018F45C
:1007800062E070E002C061E070E0812F0E945E02D2
:1007900009931F5F163181F71092BC021092BB02C1
:1007A0001092DE011092DD011092DC01DF91CF91F9
:1007B0001F910F91089524E042E063E371E083EA22
:1007C00093E00E94240D44E051E060EE83EA93E060
:1007D0000E949A0E4EE950E060E983EA93E00E949D
:1007E0009A0E40E451E060EC83EA93E00E949A0E96
:1007F00041E052E060ED83EA93E00E949A0E4EE5FC
:1008000052E064EF83EA93E00E949A0E45EA54E0D6
:1008100060EF83EA93E00E94C50E4AE953E06FEF70
:1008200083EA93E00E94BD0E40E051EE60E070E08C
:1008300083EA93E00E941D100C949A03CF93DF93F8
:10084000C1E0D2E0CE010E944F08239682E0C5327B
:10085000D807C1F7DF91CF910895682F83EE92E01A
:100860000C94FA0983EE92E00E94AA090895DF929F
:10087000EF92FF920F931F93CF93DF93F82EEB012C
:10088000D42E6F3F8FEF7807A9F06F2D83EE92E0A3
:100890000E94530A8C2F0E942D0483EE92E00E9446
:1008A000700A8091250290912602009729F00E94FB
:1008B000E41002C0C0E0D0E04D2D6F2D83EE92E039
:1008C0000E94500A0D2D10E083EE92E00E94A209D2
:1008D000081719071CF467E471E009C083EE92E081
:1008E0000E94A2098017910734F464E671E083EA5C
:1008F00093E00E948C0EF0922802C09329026AE2D3
:10090000E62E62E0F62EC0E0D0E0C017D10784F0FA
:1009100042E04D0D28E232E067E783EA93E0DF91A1
:10092000CF911F910F91FF90EF90DF900C94440EA8
:1009300083EE92E00E94A209892B51F30E943204B7
:10094000F70181937F012196E0CFEF92FF920F9301
:100950001F93CF93DF93162FEA0190E0FC01E95635
:10096000F109E231F10508F040C2EC5CFF4F0C9454
:10097000DC158981982F987185FF03C060E871E0CC
:1009800056C08881983071F148F491112EC2682FB9
:1009900083EE92E00E94530A02E007C0903109F40E
:1009A00040C0983109F471C020C2011768F4FE01FB
:1009B000E00FF11D9181808120E8929F8019112420
:1009C0000E942D040E5FF1CF83EE92E00E94700A28
:1009D00086E490E0DF91CF911F910F91FF90EF900F
:1009E0000C94E4104A816B81163069F430E8639FFF
:1009F000B0011124640F711D9D814C8150E8959FB9
:100A00004019112406C090E8699F401911246FEF26
:100A10007FEFDF91CF911F910F91FF90EF900C949A
:100A20003704E0910A01E73064F060EA71E083EA9C
:100A300093E0DF91CF911F910F91FF90EF900C9475
:100A40008C0E9A812B81F0E8663061F42F9F900123
:100A50001124290F311D4D819C8150E8459F90192B
:100A6000112405C02F9F901911242FEF3FEFEF5F46
:100A7000E0930A0144E0E402F0011124E85BFD4F39
:100A80008083328321839383B0C150910A0115166C
:100A900034F440E0252F332727FD30950EC08FEF2B
:100AA00080930A01A2C1EE0FFF1FEE0FFF1FE85B4C
:100AB000FD4F9081981719F14F5FE42FF0E02E174A
:100AC0003F078CF740E01BC04830C0F4DF01AA0F9D
:100AD000BB1FAA0FBB1FA45BBD4F8C91EE0FFF1F66
:100AE000EE0FFF1FE85BFD4F808311968D919C9167
:100AF00012979283818313968C9183834F5FE42FA7
:100B0000F0E02E173F0704F7515050930A016DC1D2
:100B10002881898150E8859FC0011124820F911D91
:100B2000009721F09093260280932502809127025E
:100B300081115BC1DF91CF911F910F91FF90EF90D9
:100B40000C948403653008F450C118810981FA803F
:100B5000EB80CC818EEF810F823108F046C1E12F0E
:100B6000F0E0E551FE4FE081EC3060F4F0E0CF01C1
:100B7000880F991F8E0F9F1F8F5F9D4F0E949309B3
:100B800081112FC180E8C89FA00111244E0D511D75
:100B900090E8F99EB0011124600F711D812F0E9411
:100BA000710164E070E0812FDF91CF911F910F916F
:100BB000FF90EF900C945E02623008F416C1288119
:100BC0008981E0E88E9FC0011124820F911D9093CE
:100BD0000C0180930B010A9708F007C18AE090E0AE
:100BE00090930C0180930B0100C1623008F4FDC0AA
:100BF000698170E0123091F08A81F0E88F9FC00126
:100C00001124682B792B133049F08B8190E090E40C
:100C1000899F902D88271124682B792B8881DF915B
:100C2000CF911F910F91FF90EF900C94040160EF12
:100C300083EA93E00E94900E6CE683EA93E00E94C0
:100C4000900ECEEF84EF8C0F883058F462E083EA88
:100C500093E00E94900E6AE083EA93E00E94900E77
:100C60000DC0C13059F463E083EA93E00E94900E16
:100C700068E083EA93E00E94900E08C08DEF8C0F2D
:100C8000823088F389EF8C0F833068F3C23150F4DF
:100C900064E083EA93E00E94900E6EE083EA93E0C2
:100CA0000E94900E80EF8C0F823050F466E083EA51
:100CB00093E00E94900E61E083EA93E00E94900E20
:100CC0006FE783EA93E00E94900ECF5FC43169F131
:100CD000C23108F0B7CF60E083EA93E00E94900E43
:100CE00061E083EA93E00E94900E61E083EA93E082
:100CF0000E94900E61E083EA93E00E94900EA2CFE2
:100D0000662309F472C0C88160EF83EA93E00E9411
:100D1000900E6EE683EA93E00E94900E6C2F83EAB9
:100D200093E00E94900EC63158F067EF83EA93E09B
:100D3000DF91CF911F910F91FF90EF900C94900E47
:100D4000D0E0FE01E156FD4F608183EA93E00E940E
:100D5000900ECC0FDD1F8E0100591D4FF8016081F0
:100D60006F7783EA93E00E94900EF80160817181B1
:100D7000CB018078892B49F0660F672F661F770BB0
:100D80006F7783EA93E00E94900EC059DD4F68812F
:100D90007981CB018827907C892B39F2770F660BFC
:100DA000770F762F661F6F7783EA93E00E94900E8D
:100DB000BCCF60EF83EA93E00E94900E6AE683EA7C
:100DC00093E00E94900EC2EFC83010F06FE701C0B0
:100DD0006C2F83EA93E00E94900ECF5FC830A1F79A
:100DE000A4CF812F0E94B701CDCEDF91CF911F916B
:100DF0000F91FF90EF9008958F929F92AF92BF92C4
:100E0000CF92DF92EF92FF920F931F93CF93DF93D6
:100E10000E94280283EA93E00E94840D892B29F026
:100E200083EA93E00E94F00EF5CF0E948D1060934C
:100E30006C0270936D0280936E0290936F02C0906B
:100E40006802D0906902E0906A02F0906B024091D3
:100E50000B0150910C014A01A12CB12C8B019C017A
:100E60000C191D092E093F0980169106A206B3062A
:100E700008F04CC0D501C4018C0D9D1DAE1DBF1DD9
:100E80008093680290936902A0936A02B0936B0208
:100E9000CFE9D2E012EF1830C0F488818230A9F493
:100EA0002091BB023091BC02012E02C035952795DE
:100EB0000A94E2F720FF09C0812F0E942811AC019B
:100EC000612F83EA93E00E94FD0D1F5F2196183089
:100ED00011F780910A0187FD19C0C0E0EC2FF0E006
:100EE00080910A01992787FD90958E179F0774F0CE
:100EF000EE0FFF1FEE0FFF1FE85BFD4F6181728158
:100F0000438180810E943704CF5FE8CFDF91CF918A
:100F10001F910F91FF90EF90DF90CF90BF90AF9017
:100F20009F908F9008951F920F920FB60F921124E9
:100F30002F933F934F935F936F937F938F939F93E1
:100F4000AF93BF93EF93FF938091BE0287FF05C0DD
:100F500010928500109284001AC02091BE0233279F
:100F600027FD30958091BD0290E0281739077CF469
:100F70008091BE02992787FD9095FC01EE0FFF1F1F
:100F8000E80FF91FE154FD4F808186FD15C0809167
:100F9000BE028F5F8093BE022091BE02332727FDE1
:100FA00030958091BD0290E028173907BCF48091FC
:100FB000BE028C305CF112C08091BE02992787FD81
:100FC0009095FC01EE0FFF1FE80FF91FE154FD4F54
:100FD000808160E08F730E940612D9CF80918400D7
:100FE00090918500049680329E4418F480E29EE43D
:100FF00005C08091840090918500049690938900AB
:10100000809388008FEF8093BE0238C020918400C7
:10101000309185008091BE02992787FD9095FC0153
:10102000EE0FFF1FE80FF91FE154FD4F8181928100
:10103000820F931F90938900809388008091BE0255
:10104000992787FD9095FC01EE0FFF1FE80FF91F10
:10105000E154FD4F808186FF11C08091BE02992727
:1010600087FD9095FC01EE0FFF1FE80FF91FE1547B
:10107000FD4F808161E08F730E940612FF91EF9116
:10108000BF91AF919F918F917F916F915F914F91A0
:101090003F912F910F900FBE0F901F9018952091A8
:1010A000BD022C30A0F431E0320F3093BD02FC01C0
:1010B0002083822F90E0FC01EE0FFF1FE80FF91F45
:1010C000E154FD4F8CED95E09283818308952FEFDD
:1010D000FC0120830895DF92EF92FF920F931F93FC
:1010E000CF93DF93EC01D62E7A01890188818C3071
:1010F00008F066C061E08D2D0E94CD118881A82F77
:10110000B0E0FD01EE0FFF1FEA0FFB1FE154FD4FA2
:101110002D2D2F739081907C922B908360E272E052
:101120006E197F0977FF02C06D5F7F4F75956795D8
:1011300075956795698340E659E0401B510B57FF51
:1011400002C04D5F5F4F55954795559547954A832A
:101150006CE00E948F159CE0899FB001112420E073
:1011600030E0A901460F571FFA01EE0FFF1FE40FF1
:10117000F51FE154FD4F908196FD16C02F5F3F4F44
:101180002C30310571F781110FC01092800082E080
:10119000809381001092850010928400B19A809112
:1011A0006F00826080936F00888190E0FC01EE0FF9
:1011B000FF1FE80FF91FE154FD4F80818064808399
:1011C0008881DF91CF911F910F91FF90EF90DF9079
:1011D000089520E639E040E252E00C946B08FC01EF
:1011E000808190E0FC01EE0FFF1FE80FF91FE15432
:1011F000FD4F80818F7B80830895FC0180818C303E
:1012000060F5918128E830E0291B310997FD33957D
:10121000220F331F220F331F621773077CF0928156
:1012200028E532E0291B310997FD3395220F331F42
:10123000220F331F621773070CF49B014FB7F8940A
:1012400090E022503109FC01EE0FFF1FE80FF91F5B
:10125000E154FD4F328321834FBF08954F925F9237
:101260006F927F92AF92BF92CF92DF92EF92FF92F6
:101270000F931F93CF93DF93EC01603282E07807E6
:101280000CF040C077FD06C0653B71052CF064EBA7
:1012900070E002C060E070E0898128E830E0281B3F
:1012A000310987FD3395220F331F220F331F590158
:1012B000CC24B7FCC094DC2C882777FD8095982F30
:1012C0002A8148E552E0421B510927FD5395440FFE
:1012D000551F440F551F2A01662457FC6094762C35
:1012E0007F926F925F924F9214EBE12EF12C00E00F
:1012F00010E020E030E0A9010E9437150F900F9018
:101300000F900F90CE01DF91CF911F910F91FF9021
:10131000EF90DF90CF90BF90AF907F906F905F90F5
:101320004F900C94FD08FC01808190E0FC01EE0FD1
:10133000FF1FE80FF91FE154FD4F808186FB8827CE
:1013400080F908958091130390E020911403821B8B
:10135000910908952091140380911303281750F4E4
:10136000E22FF0E0EB5EFC4F808190E02F5F209356
:10137000140308958FEF9FEF0895E0911403809177
:101380001303E81730F4F0E0EB5EFC4F808190E04F
:1013900008958FEF9FEF08950895CF92DF92EF9217
:1013A000FF920F931F93CF93DF937C01CB018A01B0
:1013B0002091EF02222389F0EB016B01C40ED51EB0
:1013C000CC15DD0569F06991D701ED91FC91019093
:1013D000F081E02DC7010995F3CF642F0E942C0BFB
:1013E000C801DF91CF911F910F91FF90EF90DF9097
:1013F000CF900895CF93DF931F92CDB7DEB7698367
:101400002091EF022223D1F02091F002203240F00F
:1014100021E030E0FC013383228380E090E015C0BE
:101420008091F102E82FF0E0EE50FD4F998190831A
:101430008F5F8093F1028093F00205C061E0CE01DE
:1014400001960E942C0B81E090E00F90DF91CF91EC
:101450000895FC011382128248EE53E060E070E0D0
:10146000448355836683778385EB91E09183808302
:10147000089510921403109213031092F102109227
:10148000F0020C94770A862F413208F040E265E1C1
:1014900073E00E94950A1092140380931303089539
:1014A00021E00C94430A81E08093EF0260931203E1
:1014B0001092F1021092F00208950F93062F21E08E
:1014C0004091F00262EF72E0809112030E94D90A0B
:1014D0001092F1021092F0021092EF020F91089513
:1014E00061E00C945D0A83EE92E00C94290A10925C
:1014F000A20381E08093A00310929F0361E082E148
:101500000E94061261E083E10E940612E9EBF0E01E
:1015100080818E7F808380818D7F808380E2809335
:10152000B80085E48093BC000895413208F03FC0C4
:101530009091A2039111FCCF91E09093A20320938C
:10154000A0032FEF2093350310927A03240F2093EA
:1015500079039093A1039091A103880F892B809325
:10156000A10380919F03813041F410929F038091E9
:10157000A1038093BB0085EC01C085EE8093BC0085
:101580008091A2038130E1F380917A03841710F4F3
:1015900040917A032BE733E0FB01D9018A2F821BAC
:1015A000841718F48D918193F9CF842F089580E0EA
:1015B00008950F93413208F046C09091A203911113
:1015C000FCCF92E09093A2030093A0039FEF90932F
:1015D000350310927A0340937903FB016BE773E0C4
:1015E000DB019A2F961B941718F491919D93F9CFD4
:1015F0001092A1039091A103880F892B8093A103DE
:1016000080919F03813041F410929F038091A10348
:101610008093BB0085EC01C085EE8093BC00222343
:1016200021F08091A2038230E1F3809135038F3F56
:1016300061F080913503803251F080913503803321
:1016400041F483E007C081E005C080E003C082E090
:1016500001C084E00F910895613298F42091A203B3
:10166000243089F460935703FC0189E593E0DC01A1
:101670002A2F281B261718F421912D93F9CF80E0EB
:10168000089581E0089582E0089585ED8093BC007F
:101690008091BC0084FDFCCF1092A203089585ECDC
:1016A0008093BC001092A20308951F920F920FB670
:1016B0000F9211242F933F934F935F936F937F93D8
:1016C0008F939F93AF93BF93EF93FF938091B90054
:1016D000887F803609F49CC068F5883209F45BC0C5
:1016E00090F4803109F454C038F4882309F4F5C02B
:1016F000883009F44DC0F5C0883109F44CC08032FF
:1017000009F45DC0EEC0803409F468C048F4803349
:1017100009F455C0883309F0E4C080933503A8C0AC
:10172000803509F44FC0883509F45DC0883409F06C
:10173000D8C0D5C0883909F4C6C0A8F4883709F4E0
:1017400067C038F4883609F463C0803709F460C094
:10175000C8C0883809F4B7C0803909F45FC0803840
:1017600009F0BFC05BC0803B09F485C038F4803A03
:1017700009F466C0883A09F47EC0B3C0803C09F41D
:10178000A6C0883C09F4A3C0883B09F489C0A9C05D
:101790008091A10310C090917A03809179039817EA
:1017A00070F5E0917A0381E08E0F80937A03F0E088
:1017B000E558FC4F80818093BB0085EC85C0809309
:1017C00035038DC0E0917A0381E08E0F80937A0318
:1017D0008091BB00F0E0E558FC4F808390917A0344
:1017E000809179036DC0E0917A0381E08E0F809340
:1017F0007A038091BB00F0E0E558FC4F8083809134
:10180000A00381116CC081E080939F0384EA60C0D3
:1018100083E08093A20310923603CFCF80913603EA
:10182000803208F050C0E091360381E08E0F809343
:1018300036038091BB00F0E0E95CFC4F8083BDCFB4
:1018400080913603803230F4E0913603F0E0E95CB9
:10185000FC4F10820E94450B6091360370E0E091CE
:101860009B03F0919C0387E393E009951092360364
:101870000E944F0B36C084E08093A203109258035D
:1018800010925703E0919D03F0919E03099580917A
:101890005703811105C081E08093570310925903CB
:1018A000E091580381E08E0F80935803F0E0E75AEF
:1018B000FC4F80818093BB00909158038091570327
:1018C000981708F47ACF85E88093BC000AC085ECAD
:1018D0008093BC001092A20304C0109235030E94B2
:1018E000450BFF91EF91BF91AF919F918F917F91A8
:1018F0006F915F914F913F912F910F900FBE0F907D
:101900001F9018950F931F93CF93DF93EC018B01DA
:1019100088819981DC01ED91FC916F770190F081D4
:10192000E02D099588819981DC01ED91FC91B80148
:10193000660F672F661F770B6F770190F081E02DA0
:10194000DF91CF911F910F910994DC018D919C91B2
:10195000DC01ED91FC910190F081E02D60EF0994A4
:10196000DC018D919C91DC01ED91FC910190F08165
:10197000E02D67EF0994CF93DF93EC018881998183
:10198000DC01ED91FC910190F081E02D69EF09956A
:1019900088819981DC01ED91FC910190F081E02D2D
:1019A00062E0099588819981DC01ED91FC910190BB
:1019B000F081E02D64E0DF91CF9109941F93CF93E4
:1019C000DF93EC018A818823D9F1CE010E94A50C16
:1019D00088819981DC01ED91FC910190F081E02DED
:1019E00069E7099588819981DC01ED91FC91AB81D2
:1019F000BC810190F081E02D6C91099588819981DD
:101A0000DC01ED91FC91AB81BC810190F081E02D76
:101A100011966C91099512E08A81181758F4EB81A0
:101A2000FC81E10FF11D608170E0CE010E94820C0B
:101A30001F5FF2CFCE01DF91CF911F910C94B00CBC
:101A4000DF91CF911F910895CF92DF92EF92FF9295
:101A50000F931F93CF93DF938C01EB01C42ED22EF3
:101A600061EC71E0CE010E943D177C016FE270E0F5
:101A7000CE010E943217009739F46CE570E0CE0178
:101A80000E943217009711F0EC012196E114F10445
:101A900051F4FE0101900020E9F7EC1BEF5FD80143
:101AA0001296EC9306C0EC1AFD0AE394E394F80155
:101AB000E282D80113968D919C9114970E949416FE
:101AC000F801E280F12CC70101960E94FC15D801B3
:101AD00014969C938E931397FC01EE0DFF1D1082BC
:101AE000FC01C082D18212964C9150E042505109C3
:101AF000BE010296DF91CF911F910F91FF90EF9061
:101B0000DF90CF900C942317DC018D919C91DC0128
:101B1000ED91FC910480F581E02D09940F931F93C2
:101B2000CF93DF93FC012085213749F0293709F055
:101B300049C0DF91CF911F910F910C94DE0CFC01F5
:101B4000E95AFF4F0190F081E02D309709F450C021
:101B5000DC01A75BBF4F4D915C919A012150310987
:101B600037FD9A01B90175956795062F40E050E061
:101B700020E030E04E5F5F4F2017A0F4EC01C40F6F
:101B8000D51F1F81DC01A20FB31F18961C93189755
:101B9000C885D0E8CD9F1019112418961C932F5F8B
:101BA0003F4FE8CFDC01A60FB11D17962C91179778
:101BB000222311F018961C920896DF91CF911F9165
:101BC0000F910994FC01E75AFF4F0190F081E02D3D
:101BD000309771F0AC01475F5F4FDC01A75BBF4FEF
:101BE0006C916150822FDF91CF911F910F910994D9
:101BF000DF91CF911F910F9108950F931F93CF9372
:101C0000DF93EC018A0188819981DC01ED91FC91DF
:101C10006F70606E0190F081E02D0995B801CE01E2
:101C2000DF91CF911F910F910C94820C0F931F9312
:101C3000CF93DF93EC018A0188819981DC01ED91DA
:101C4000FC916F7060690190F081E02D09958881A9
:101C50009981DC01ED91FC91602F6F770190F0810B
:101C6000E02D099588819981DC01ED91FC91B80105
:101C7000660F672F661F770B0190F081E02DDF91D3
:101C8000CF911F910F910994CF92DF92EF92FF9223
:101C90000F931F93CF93DF9300D01F92CDB7DEB782
:101CA0008C01F42E2A833B8369830E94A50CD80102
:101CB0008D919C91DC01ED91FC910190F081E02DE2
:101CC000698109952A81E22EC22E3B81D32E8C2D6B
:101CD0008E198F1540F4F60161916F0170E0C80113
:101CE0000E94820CF4CFC8010F900F900F90DF91EB
:101CF000CF911F910F91FF90EF90DF90CF900C94B8
:101D0000B00C9A01FA0101900020E9F73197E41B29
:101D1000F50B4E2F0C94440EAB0161E70C94810E31
:101D2000DC018D919C91DC01ED91FC910190F081A1
:101D3000E02D0994603DB9F028F4603961F0603C11
:101D400071F00895603E19F0643F89F00895FC0138
:101D5000E55BFF4F0FC0FC01E35BFF4F0BC0FC01D5
:101D6000E15BFF4F07C0FC01EF5AFF4F03C0FC01CE
:101D7000ED5AFF4F5183408308956F3F29F4FC01D2
:101D8000EB5AFF4F518340830895875A9F4FFC01C0
:101D9000518340830895FC0115821682178280E0EA
:101DA00090E0DF01A80FB91F18961C9201968034AD
:101DB0009105B9F7DF01A85BBF4F1C9211961D92E8
:101DC0001C92EB5AFF4F0190F081E02D309709F003
:101DD00009940895FC011282148213820C94CB0E94
:101DE000CF93DF93EC0188819981DC01ED91FC9127
:101DF0000680F781E02D0995FE01E85BFF4F208109
:101E00002223B1F0873F910531F41082CE01DF919A
:101E1000CF910C948E0DFE01E75BFF4F2081318145
:101E2000C20FD31F88872F5F3F4F318320839DC010
:101E30002D81222309F45EC0803891050CF05AC030
:101E40009FEF920F9D83FE01E90FF11D8087911195
:101E50008CC08E81882309F488C0803DE9F148F464
:101E60008039E9F0803C09F043C0FE01E15BFF4F9F
:101E700036C0803E19F0843F19F13AC0FE01E55B9F
:101E8000FF4F0190F081E02D309791F188856985B1
:101E900070E0B0E88B9F600D711D112427C0FE011A
:101EA000E35BFF4F0190F081E02D309709F18885C9
:101EB000698570E090E8899F600D711D112416C03E
:101EC000FE01ED5AFF4F0190F081E02D309781F037
:101ED000688570E089850BC0FE01EF5AFF4F0190C5
:101EE000F081E02D309721F0688570E08F810995B1
:101EF0001E823BC0803F91052CF4282F2F702F832A
:101F0000807F9927803E910521F154F4803C910512
:101F100011F1803D9105F9F08039910531F519C035
:101F2000843F9105B1F054F4803F9105F1F481E0D4
:101F30008083C75BDF4F1982188217C0893F9105E4
:101F400071F08F3F910589F4CE01DF91CF910C9410
:101F5000CB0E92E001C091E09D838E8306C083EAA0
:101F600093E0DF91CF910C94BB0CDF91CF9108955A
:101F70008F929F92AF92BF92CF92DF92EF92FF9299
:101F80001F93CF93DF93EB014A01690161E08DE07C
:101F90000E94CD1110E0EE24D7FCE094FE2CAA2480
:101FA00097FCA094BA2C812F90E08C179D0794F495
:101FB000C701B6010E94BC1061E08DE00E940612CC
:101FC000C501B4010E94BC1060E08DE00E940612C1
:101FD0001F5FE9CFDF91CF911F91FF90EF90DF90CE
:101FE000CF90BF90AF909F908F900895CF93DF9345
:101FF000EC0161E08DE00E94CD1122ED30E048E27D
:1020000050E062E070E0CE010E94B80F6AEF70E02D
:1020100080E090E00E94BC1022ED30E048E250E009
:1020200064E070E0CE010E94B80F6DE770E080E0E0
:1020300090E0DF91CF910C94BC10CF93DF93EC0133
:1020400026E08DE094E00E941F138DE094E09983D8
:102050008883CE010E94F60FCE010E94BB0CCE01F8
:10206000DF91CF910C94DE0C83EA93E00C94EA0E9E
:102070000F9300E020E040E060E08EEF93E00E94EC
:102080005A140F9108951F920F920FB60F921124B8
:102090002F933F938F939F93AF93BF9380910504AA
:1020A00090910604A0910704B091080430910404B3
:1020B00026E0230F2D3720F40296A11DB11D05C087
:1020C00029E8230F0396A11DB11D209304048093DA
:1020D000050490930604A0930704B093080480912C
:1020E000090490910A04A0910B04B0910C0401968C
:1020F000A11DB11D8093090490930A04A0930B04C1
:10210000B0930C04BF91AF919F918F913F912F910C
:102110000F900FBE0F901F9018952FB7F8946091F5
:1021200005047091060480910704909108042FBF64
:1021300008953FB7F8948091090490910A04A09102
:102140000B04B0910C0426B5A89B05C02F3F19F0D5
:102150000196A11DB11D3FBF6627782F892F9A2FA9
:10216000620F711D811D911D43E0660F771F881F4F
:10217000991F4A95D1F70895CF92DF92EF92FF927F
:10218000CF93DF936B017C010E949910EB01C11486
:10219000D104E104F10489F00E947E150E94991097
:1021A0006C1B7D0B683E734090F381E0C81AD10828
:1021B000E108F108C851DC4FEACFDF91CF91FF90E1
:1021C000EF90DF90CF9008958330910528F0880F2D
:1021D000991F04970197F1F70895789484B5826068
:1021E00084BD84B5816084BD85B5826085BD85B5BB
:1021F000816085BDEEE6F0E0808181608083E1E86A
:10220000F0E01082808182608083808181608083A1
:10221000E0E8F0E0808181608083E1EBF0E08081A4
:1022200084608083E0EBF0E0808181608083EAE776
:10223000F0E08081846080838081826080838081FF
:102240008E7F80838081806880831092C100089592
:102250008E3008F08E50877020910D0190E4299FF8
:1022600090011124822B80937C0080917A008064FD
:1022700080937A0080917A0086FDFCCF809178006F
:102280002091790090E0922B08951F93CF93DF93D4
:10229000182FEB0161E00E94CD11209711F460E04E
:1022A00004C0CF3FD10539F461E0812FDF91CF9198
:1022B0001F910C940612E12FF0E0E457FF4FE491D8
:1022C000E330F9F048F4E130B9F0E230A1F584B53B
:1022D000806284BDC8BD34C0E730E9F0E83019F150
:1022E000E43049F580918000806280938000D09333
:1022F0008B00C0938A0024C084B5806884BDC7BDAC
:102300001FC080918000806880938000D0938900F6
:10231000C093880015C08091B00080688093B000A1
:10232000C093B3000DC08091B00080628093B00074
:10233000C093B40005C0C038D1050CF0B5CFAFCF05
:10234000DF91CF911F910895833081F028F481307F
:1023500099F08230A1F008958730A9F08830B9F063
:102360008430D1F4809180008F7D03C08091800003
:102370008F7780938000089584B58F7702C084B5ED
:102380008F7D84BD08958091B0008F7703C08091C8
:10239000B0008F7D8093B0000895CF93DF9390E0DD
:1023A000FC01E056FF4F2491FC01EC54FF4F849157
:1023B000882349F190E0880F991FFC01EE52FF4FEE
:1023C000A591B49188539F4FFC01C591D4919FB7BB
:1023D000611108C0F8948C91209582238C93888198
:1023E00082230AC0623051F4F8948C91322F3095D8
:1023F00083238C938881822B888304C0F8948C91EA
:10240000822B8C939FBFDF91CF9108950F931F93E1
:10241000CF93DF931F92CDB7DEB7282F30E0F901BD
:10242000E457FF4F8491F901E056FF4F1491F901F1
:10243000EC54FF4F04910023C9F0882321F06983F5
:102440000E94A4116981E02FF0E0EE0FFF1FE85316
:10245000FF4FA591B4919FB7F8948C91611103C07F
:102460001095812301C0812B8C939FBF0F90DF912A
:10247000CF911F910F910895FC01818D228D90E0E5
:10248000805C9F4F821B91098F7399270895FC01EF
:10249000918D828D981731F0828DE80FF11D858D19
:1024A00090E008958FEF9FEF0895FC01918D828D4C
:1024B000981761F0828DDF01A80FB11D5D968C9198
:1024C000928D9F5F9F73928F90E008958FEF9FEFA3
:1024D000089583ED93E1892B49F080E090E0892B0A
:1024E00029F00E94D31381110C9400000895FC017F
:1024F000848DDF01A80FB11DA35ABF4F2C91848D8D
:1025000090E001968F739927848FA689B7892C93C1
:10251000A089B1898C9180648C93938D848D98135C
:1025200006C00288F389E02D80818F7D8083089525
:10253000CF93DF93EC01888D8823C9F0EA89FB896A
:10254000808185FD05C0A889B9898C9186FD0FC061
:102550000FB607FCF5CF808185FFF2CFA889B98936
:102560008C9185FFEDCFCE010E947712E7CFDF91EE
:10257000CF910895CF92DF92FF920F931F93CF9345
:10258000DF931F92CDB7DEB76C0181E0D60158967C
:102590008C9358975B969C915B975C968C915C971B
:1025A000981307C05096ED91FC915197808185FD5D
:1025B0002EC0F601038D10E00F5F1F4F0F73112720
:1025C000F02EF601848DF81211C00FB607FCF9CF7A
:1025D000D6015096ED91FC915197808185FFF1CF06
:1025E000C60169830E9477126981EBCF838DE80F62
:1025F000F11DE35AFF4F6083D6015B960C935B9706
:102600005296ED91FC915397808180620CC0D60167
:102610005696ED91FC91579760835096ED91FC9101
:10262000519780818064808381E090E00F90DF91FA
:10263000CF911F910F91FF90DF90CF900895BF929F
:10264000CF92DF92EF92FF92CF93DF93EC016A017A
:102650007B01B22E60E874E88EE190E0A70196015C
:102660000E949B1521503109410951095695479502
:1026700037952795E889F98982E08083211580E1E3
:10268000380798F0E889F989108260E472E48FE0F5
:1026900090E0A70196010E949B1521503109410944
:1026A00051095695479537952795EC85FD853083DB
:1026B000EE85FF852083188EEC89FD89B082EA893A
:1026C000FB89808180618083EA89FB8980818860C1
:1026D0008083EA89FB89808180688083EA89FB891D
:1026E00080818F7D8083DF91CF91FF90EF90DF908D
:1026F000CF90BF9008951F920F920FB60F921124A2
:102700002F938F939F93EF93FF93E0911D04F0918C
:102710001E048081E0912304F091240482FD12C004
:102720009081809126048F5F8F73209127048217F8
:1027300051F0E0912604F0E0E35FFB4F958F80932A
:10274000260401C08081FF91EF919F918F912F917D
:102750000F900FBE0F901F9018951F920F920FB6FB
:102760000F9211242F933F934F935F936F937F9317
:102770008F939F93AF93BF93EF93FF938DE094E07C
:102780000E947712FF91EF91BF91AF919F918F912E
:102790007F916F915F914F913F912F910F900FBE5D
:1027A0000F901F9018958DE094E00E943C1221E05C
:1027B000892B09F420E0822F0895109210041092C2
:1027C0000F0488EE93E0A0E0B0E0809311049093B2
:1027D0001204A0931304B09314048AEC91E0909334
:1027E0000E0480930D0485EC90E090931A0480937E
:1027F000190484EC90E090931C0480931B0480ECFB
:1028000090E090931E0480931D0481EC90E09093DF
:10281000200480931F0482EC90E090932204809324
:10282000210486EC90E0909324048093230410927A
:102830002604109227041092280410922904089567
:10284000AF92BF92CF92DF92EF92FF920F931F93BE
:10285000CF93DF936C017B01C0E0D0E000E010E09B
:10286000F601EC0FFD1F4AE050E06281C7010E94B3
:1028700030155C016EE2C7010E94C3148A0D9B1DD6
:10288000080F191F2196C330D10551F74AE050E0D7
:10289000F6016581C7010E943015800F911FDF91FD
:1028A000CF911F910F91FF90EF90DF90CF90BF904D
:1028B000AF9008950F93FC018AED91E0918380839E
:1028C00062834383248305830F9108958AED91E009
:1028D0009093AB048093AA041092AC041092AD04C0
:1028E0001092AE041092AF04089508950E94ED1066
:1028F0000E9475140E94DB03C9E6D2E10E94FC0627
:102900002097E1F30E946912F9CFCF92DF92EF9204
:10291000FF920F931F93CF93DF936C017A01EB012A
:10292000E60EF71E00E010E0CE15DF0561F06991BC
:10293000D601ED91FC910190F081E02DC601099541
:10294000080F191FF1CFC801DF91CF911F910F918F
:10295000FF90EF90DF90CF9008956115710581F0A1
:10296000DB010D900020E9F7AD0141505109461BF4
:10297000570BDC01ED91FC910280F381E02D09946D
:1029800080E090E00895DC01ED91FC910190F081F0
:10299000E02D09948F929F92AF92BF92CF92DF92D7
:1029A000EF92FF920F931F93CF93DF93CDB7DEB7D4
:1029B000A1970FB6F894DEBF0FBECDBF7C01C42E29
:1029C000E52FCB01D22E19A221E02D1510F02AE01F
:1029D000D22E8E010F5D1F4F8D2C912CA12CB12C6E
:1029E0006C2D7E2FA50194010E949B158C2DD29EEB
:1029F00080191124015011098A3014F4805D01C03E
:102A0000895CF8018083211531054105510521F0CC
:102A1000C22EE32FCA01E4CFB801C7010E94AD1452
:102A2000A1960FB6F894DEBF0FBECDBFDF91CF9158
:102A30001F910F91FF90EF90DF90CF90BF90AF90DC
:102A40009F908F9008952115310541F4DC01ED919F
:102A5000FC910190F081E02D642F09940C94CA142C
:102A60009A01462F50E060E070E00C9423154F92DD
:102A70005F926F927F92AF92BF92CF92DF92EF926E
:102A8000FF920F931F93CF93DF93CDB7DEB729014A
:102A90003A01621B730B840B950B29893A894B8988
:102AA0005C892A193B094C095D09298B3A8B4B8BB0
:102AB0005C8B9B01AC0169897A898B899C890E9416
:102AC0007F15E418F50806091709A80197010E9467
:102AD000BD152A0D3B1D4C1D5D1DCA01B901DF91BD
:102AE000CF911F910F91FF90EF90DF90CF90BF900B
:102AF000AF907F906F905F904F9008950895DB01A5
:102B00008F939F930E94E215BF91AF91A29F800D7A
:102B1000911DA39F900DB29F900D11240895991BB4
:102B200079E004C0991F961708F0961B881F7A95C4
:102B3000C9F780950895A1E21A2EAA1BBB1BFD01BF
:102B40000DC0AA1FBB1FEE1FFF1FA217B307E4078C
:102B5000F50720F0A21BB30BE40BF50B661F771FE4
:102B6000881F991F1A9469F76095709580959095C4
:102B70009B01AC01BD01CF010895052E97FB1EF40A
:102B800000940E94D41557FD07D00E949B1507FCA6
:102B900003D04EF40C94D415509540953095219562
:102BA0003F4F4F4F5F4F0895909580957095619579
:102BB0007F4F8F4F9F4F0895EE0FFF1F0590F491A9
:102BC000E02D09940E94ED15A59F900DB49F900DE6
:102BD000A49F800D911D11240895A29FB001B39F61
:102BE000C001A39F700D811D1124911DB29F700D16
:102BF000811D1124911D0895CF93DF93823091059B
:102C000010F482E090E0E091B204F091B30420E08F
:102C100030E0A0E0B0E0309739F1408151814817B1
:102C20005907B8F04817590771F4828193811097BA
:102C300029F013969C938E9312972CC09093B30413
:102C40008093B20427C02115310531F04217530794
:102C500018F0A901DB0101C0EF019A01BD01DF01FC
:102C60000280F381E02DD7CF21153105F9F0281B23
:102C7000390B2430310580F48A819B8161157105FF
:102C800021F0FB019383828304C09093B30480936B
:102C9000B204FE01329644C0FE01E20FF31F81939D
:102CA000919322503109398328833AC02091B0048E
:102CB0003091B104232B41F42091020130910301A2
:102CC0003093B1042093B0042091000130910101B0
:102CD0002115310541F42DB73EB7409104015091C3
:102CE0000501241B350BE091B004F091B104E2170B
:102CF000F307A0F42E1B3F0B2817390778F0AC011F
:102D00004E5F5F4F2417350748F04E0F5F1F5093FB
:102D1000B1044093B0048193919302C0E0E0F0E0ED
:102D2000CF01DF91CF910895CF93DF93009709F4FE
:102D300087C0FC01329713821282C091B204D091F5
:102D4000B304209781F420813181280F391F8091AD
:102D5000B0049091B1048217930779F5F093B10410
:102D6000E093B0046DC0DE0120E030E0AE17BF0795
:102D700050F412964D915C9113979D0141155105A8
:102D800009F1DA01F3CFB383A28340815181840F2B
:102D9000951F8A179B0771F48D919C911197840F51
:102DA000951F02969183808312968D919C91139723
:102DB000938382832115310529F4F093B304E093C2
:102DC000B2043EC0D9011396FC93EE9312974D9135
:102DD0005D91A40FB51FEA17FB0779F480819181FB
:102DE000840F951F0296D90111969C938E93828130
:102DF000938113969C938E931297E0E0F0E08A8182
:102E00009B81009719F0FE01EC01F9CFCE010296EB
:102E100028813981820F931F2091B0043091B10431
:102E20002817390769F4309729F41092B3041092E7
:102E3000B20402C013821282D093B104C093B004D2
:102E4000DF91CF910895FB01DC014150504048F0E3
:102E500001900D920020C9F701C01D9241505040D1
:102E6000E0F70895FC0181E090E00190061609F476
:102E7000CF010020D1F701970895FB01519155230F
:102E8000A9F0BF01DC014D9145174111E1F759F45B
:102E9000CD010190002049F04D9140154111C9F339
:102EA000FB014111EFCF81E090E001970895F89484
:022EB000FFCF52
:102EB2000000B404800001000000FF1300014D6116
:102EC2007820736572766F732061747461636865CC
:102ED2006400556E6B6E6F776E2070696E206D6F39
:102EE2006465005374616E646172644669726D61F7
:102EF20074612E696E6F004932433A20546F6F201D
:102F02006D616E792062797465732072656365699B
:102F1200766564004932433A20546F6F20666577C4
:102F220020627974657320726563656976656400F1
:102F320031302D6269742061646472657373696EE5
:102F420067206E6F7420737570706F7274656400A1
:102F5200746F6F206D616E7920717565726965732A
:102F62000000000000FA09CD09A209AA09BD09CC96
:102F7200092E6370700000000000BA1285143C1222
:0C2F8200551247129812000000002014A5
:00000001FF
