:100000000C941C010C9444010C9444010C94440184
:100010000C9444010C9444010C9444010C9444014C
:100020000C9444010C9444010C94D90C0C94420D92
:100030000C9444010C9444010C9444010C9444012C
:100040000C9444010C94961F0C9444010C944401AC
:100050000C9444010C9444010C9444010C945C18DD
:100060000C9444010C9444010C9444010C944401FC
:100070000C9444010C9444010C9444010C944401EC
:100080000C94910F0C9444010C9444010C94440181
:100090000C94CB1D0C9444010C9444010C94440129
:1000A0000C9444010C9444010C9444013103360334
:1000B0003B0345034F0399039903990359036303D2
:1000C0006D037703840399038C039E04BA0495049B
:1000D000C704E2040C0505050C050C050C050C0510
:1000E000A80450055305560559056A056A055C05BF
:1000F0006A056A055F0562056A0565053E0C410CE7
:10010000300C340C3A0C620C620C620C450C490C3D
:100110004D0C530C570C620C5D0C070605040100D6
:10012000080A0B0C0D09000000002300260029001E
:100130002C002F000000000200090F000003040142
:10014000000C0000000000000000000000000000A3
:10015000000000080B000202020100090400000177
:1001600002020000052400100105240101010424FD
:10017000020605240600010705810310004009045A
:100180000100020A00000007050202400000070506
:1001900083024000000403090441646166727569CA
:1001A00074004369726375697420506C6179677279
:1001B0006F756E640012010002000000409A231166
:1001C0008000010102030112010002EF0201409AC6
:1001D0002311800001010203010408020110408084
:1001E000401020408040800802040180402010021E
:1001F0000110801020404020000000002500280051
:100200002B002E0031000404040404030405020240
:10021000020204030202020206060606060604049F
:1002200002020204040300000000240027002A0048
:100230002D003000BC286C2911241FBECFEFDAE05E
:10024000DEBFCDBF26E0A2E7B2E001C01D92A23F13
:10025000B207E1F712E0A0E0B1E0E2EEF9E502C09A
:1002600005900D92A237B107D9F711E0CBE1D1E0AB
:1002700004C02197FE010E949029CA31D107C9F715
:100280000E945A230C94E42C0C940000A82FB0E098
:10029000AD58B94F9C91292F30E0F901EE0FFF1FA7
:1002A0002E0F3F1FF901E15DF94FE081F0E09F0162
:1002B000220F331FE20FF31FE65FF94F80818F7B20
:1002C000808380917106981306C0992379F091502C
:1002D000909371060BC0882349F0E0917206EF5F9E
:1002E000E0937206F0E0EA58FD4F90838FEF8C9315
:1002F0000895CF938C3080F540912E0350912F03B9
:1003000021E030E0672B81F4B90102C0660F771F4E
:100310008A95E2F7CB01809590958423952390935D
:100320002F0380932E0318C0082E02C0220F331F04
:100330000A94E2F7242B352B30932F0320932E03BE
:1003400090919606911108C0C82F0E948B10BC0195
:100350008C2FCF910C94A211CF910895BF92CF9280
:10036000DF92EF92FF920F931F93CF93DF931F9231
:10037000CDB7DEB7843008F08FC0982F990F990F52
:10038000990F985F9F3108F09EE1E62EC82ECC0CA5
:10039000CC0CCC0CFC2CB12CDD24D394F916E0F45D
:1003A0000F2D10E0F801E05DFC4F8081823088F471
:1003B000000F111F2D2D2E2109F469C0813009F085
:1003C00054C021E0BD28F801ED53FD4F30E03183EA
:1003D0002083DD0CF394E2CFB0FE05C06E2D61707A
:1003E0008C2D0E941F10B1FE06C06E2D627081E040
:1003F0008C0D0E941F10B2FE06C06E2D647082E04C
:100400008C0D0E941F10B3FE06C06E2D687083E035
:100410008C0D0E941F10B4FE06C06E2D607184E02A
:100420008C0D0E941F10B5FE06C06E2D607285E017
:100430008C0D0E941F10B6FE06C06E2D607486E003
:100440008C0D0E941F10B7FE27C06E2D607887E0CC
:100450008C0D0F90DF91CF911F910F91FF90EF9036
:10046000DF90CF90BF900C941F10F801ED53FD4F1B
:10047000208131812130310541F062E08F2D998357
:100480000E944F1021E099819ECF21E09CCF20E077
:10049000813009F098CF96CF0F90DF91CF911F91C7
:1004A0000F91FF90EF90DF90CF90BF9008956F92E3
:1004B0007F928F929F92AF92BF92CF92DF92EF92F4
:1004C000FF920F931F93CF93DF931F92CDB7DEB7A9
:1004D000982F3B018E3108F039C1082F10E0F80148
:1004E000E05DFC4F8081833009F48AC0843009F0DC
:1004F0002DC1F801ED58F94FE080F12C6701CC0CCB
:10050000DD1C603282E078070CF042C077FD05C048
:10051000653B710524F4DB0104C0A0E001C0A4EB3D
:10052000B0E0F601EE0DFF1DE15DF94F818128E895
:1005300030E04901881A910887FD9394880C991C32
:10054000880C991C092C000CAA08BB08828128E59C
:1005500032E0281B310987FD3395220F331F220F0C
:10056000331FA901330F660B770B9A01AB012819D2
:1005700039094A095B090E94AB2C24EB30E040E0CA
:1005800050E00E94812C820E931EA41EB51E01C055
:100590004B01F601EE0DFF1DE15DF94F20812C307E
:1005A00008F0CDC0318188E890E0831B910937FDC8
:1005B0009395880F991F880F991F8816990684F0C4
:1005C000828148E552E0481B510987FD5395440F4D
:1005D000551F440F551FC401481559050CF4CA0195
:1005E0004FB7F89430E00297F901EE0FFF1F2E0F7E
:1005F0003F1FF901E65FF94F928381834FBF9FC090
:10060000933059F08BEF890F823038F087EF890FE4
:10061000833018F09D3009F092C061E0892F9983F2
:100620000E944F1099816114710411F460E005C0BB
:100630008FEF6816710429F461E0892F0E941F1062
:100640007EC0F801EC5CFE4FE4914E2F50E0FA01C1
:100650003197EF30F10508F06CC0EA5AFF4F0C9467
:10066000902984B5806884BD67BC69C084B5806208
:1006700084BD68BC64C080918000806880938000E5
:1006800070928900609288005AC0809180008062D8
:100690008093800070928B0060928A0050C080919D
:1006A000800088608093800070928D0060928C0042
:1006B00046C080919000806880939000709299006D
:1006C000609298003CC0809190008062809390007E
:1006D00070929B0060929A0032C080919000886076
:1006E0008093900070929D0060929C0028C0809141
:1006F000C00080688093C0008091C0008F7B809391
:10070000C0006092CF001BC08091C00080628093C7
:10071000C0006092D00013C08091C20088608093B6
:10072000C2008091C2008B7F8093C2006092D20091
:1007300006C080E8681671040CF07ECF77CF000FFA
:10074000111FF801ED53FD4F718260820F90DF9110
:10075000CF911F910F91FF90EF90DF90CF90BF90BE
:10076000AF909F908F907F906F9008958E3180F41E
:10077000E82FF0E0DF01A05DBC4F9C91913041F487
:10078000EE0FFF1FED53FD4F608371830C941F101C
:100790000895DB01909171069C30A8F530917206A6
:1007A000682F70E0332369F0E32FF0E0EA58FD4F43
:1007B0008081FB01ED58F94F8083315030937206F0
:1007C00007C0FB01ED58F94F90839F5F909371062E
:1007D000FB01ED58F94F808190E09C01220F331FFF
:1007E000820F931F1A161B0634F4141615061CF4F8
:1007F0009A01AD0104C020E639E040E252E0815D9B
:10080000994F0C94141F4DE651E063E181E70C947D
:10081000D111AF92BF92CF92DF92EF92FF920F93DE
:100820001F93CF93DF93C82ED12C9601205D3C4FB0
:100830007901F90190819F3709F415C18B01C82F07
:10084000963069F480919506882349F066307105E9
:1008500009F405C1109295068FEF80931801CE31EF
:10086000F8F404301105E1F0F601ED58F94F8081FC
:100870008C30B0F490E0FC01EE0FFF1F8E0F9F1F35
:10088000FC01E15DF94F808190E0FC01EE0FFF1F5C
:100890008E0F9F1FFC01E65FF94F808186FDCAC065
:1008A000DEEEDC0FDC3058F461E070E00230110560
:1008B00011F060E070E08D2F0E94790102C0CE310E
:1008C00018F5EC2FE695E695E6954C2F4770F0E08D
:1008D000EC5FFC4F0115110519F00B30110551F4B7
:1008E00081E090E001C0880F4A95EAF79081892B5A
:1008F00080830AC021E030E001C0220F4A95EAF768
:1009000020958081282320835601AA0CBB1CF50169
:10091000ED53FD4F118210820C30110508F07CC0A0
:10092000F801EB59FF4F0C949029DC3008F09BC084
:1009300060E08C2F0E944F1082E06BC0CE3108F037
:1009400092C060E08C2F0E944F10F70110828BC084
:10095000CE3108F088C062E08C2F0E944F108BE0EF
:10096000F7018083F501ED53FD4F81E090E0918325
:10097000808379C0CE3108F076C060E08C2F0E9471
:100980001F1061E08C2F0E944F1081E042C0C330E5
:1009900059F08BEF8C0F823038F087EF8C0F83305B
:1009A00018F0CD3009F05FC061E08C2F0E944F102D
:1009B00061E08C2F0E944F1060E08C2F0E941F106E
:1009C00083E027C0CE3108F04EC084E0F701808379
:1009D000F601ED58F94F80818F3F81F190E0FC01E5
:1009E000EE0FFF1F8E0F9F1FFC01E15DF94F80810D
:1009F00090E0FC01EE0FFF1F8E0F9F1FFC01E65FD2
:100A0000F94F808186FD2FC019C0C250C23058F501
:100A100086E0F701808327C081E891E0DF91CF91E4
:100A20001F910F91FF90EF90DF90CF90BF90AF900C
:100A30000C940A128C2F0E94460132CF4FEF5FEFC9
:100A40006FEF7FEF8C2FDF91CF911F910F91FF9070
:100A5000EF90DF90CF90BF90AF900C94C903CE3150
:100A600008F402CF1DCFDF91CF911F910F91FF901E
:100A7000EF90DF90CF90BF90AF9008951F93CF93EA
:100A8000DF9300D000D000D0CDB7DEB7182F90E0B4
:100A90008D309105F8F4FC01EF58FF4F0C9490292C
:100AA0008EE095E014C08CE295E011C08AE495E0F8
:100AB0000EC088E695E00BC086E895E008C084EAA1
:100AC00095E005C082EC95E002C080EE95E00E94C2
:100AD0001C1302C060E070E083E489831A83CB01B9
:100AE000A0E0B0E08B839C83AD83BE83AE014F5FFB
:100AF0005F4F66E080E40E94D11126960FB6F8940D
:100B0000DEBF0FBECDBFDF91CF911F910895CF9370
:100B1000DF9300D0CDB7DEB769E38EEE94E00E949C
:100B2000C51A97E399838A83AE014F5F5F4F62E0F6
:100B300080E40E94D1110F900F90DF91CF91089522
:100B4000CF93DF93CDB7DEB7E1970FB6F894DEBF52
:100B50000FBECDBFBE016F5F7F4F8EEE94E00E944F
:100B60000E1BAE014B5D5F4F8DE0FA0111928A952D
:100B7000E9F786E38DA38D899E89AF89B88D8EA311
:100B80009FA3A8A7B9A7898D9A8DAB8DBC8D8AA785
:100B90009BA7ACA7BDA78D8D9E8DAF8DB8A18EA74D
:100BA0009FA7A8ABB9AB6DE080E40E94D111E1969C
:100BB0000FB6F894DEBF0FBECDBFDF91CF91089581
:100BC0000F931F93CF93082F10E0F801EC5FFC4FB9
:100BD0009081C62FC9230F56194F411104C0D80167
:100BE0009C919C1771F1682F8091210490912204AF
:100BF000DC01ED91FC916F7060690190F081E02D56
:100C000009958091210490912204DC01ED91FC91E1
:100C10006C2F6F770190F081E02D09958091210470
:100C200090912204DC01ED91FC916C2F70E0660F35
:100C3000672F661F770B0190F081E02D0995F80171
:100C4000C083CF911F910F9108950F931F93CF935E
:100C5000DF93082F843008F06FC090E0FC01E85F5C
:100C6000FC4F6083672B09F467C0FC01EC5FFC4F0D
:100C70001081D02FDD0FDD0FDD0F10FF4DC08D2F48
:100C80000E94F60F892B09F447C0C1E011FF07C08D
:100C900081E08D0F0E94F60F892B09F03FC012FFF3
:100CA00006C082E08D0F0E94F60F892BC9F513FF55
:100CB00006C083E08D0F0E94F60F892B99F514FF73
:100CC00006C084E08D0F0E94F60F892B69F515FF91
:100CD00006C085E08D0F0E94F60F892B39F5D831BB
:100CE00091F016FF06C086E08D0F0E94F60F892B4B
:100CF000F9F4D73140F417FF06C087E08D0F0E944A
:100D0000F60F892BB9F441E06C2F802FDF91CF9142
:100D10001F910F910C94E005C0E0B8CFC260BFCF27
:100D2000C460C5CFC860CBCFC061D1CFC062D7CFC0
:100D3000C064DFCFC068E7CFDF91CF911F910F91E3
:100D40000895EF92FF920F931F93CF93DF93D82FC5
:100D50008B01C42F6F3F8FEF7807E1F081E0809324
:100D6000AD03D093CF031092AE031092D0038EEF59
:100D700095E00E942F1D0E947912E091FF02F091F0
:100D80000003E330F10540F0EE0FFF1F3497319779
:100D9000F1F702C000E010E06C2FC13208F060E211
:100DA0008D2F0E94D2121092650380936403EC2E63
:100DB000F12C282F30E0E216F3061CF482E991E0D2
:100DC00005C02E153F0524F48FEA91E00E940A1217
:100DD000D09383020093840200E010E00E151F05FB
:100DE00034F4909164038091650398130DC062E020
:100DF0006C0F43E852E087E7DF91CF911F910F918D
:100E0000FF90EF900C94D1118EEF95E00E94D61CCC
:100E1000F801ED57FD4F82830F5F1F4FDFCFBF9269
:100E2000CF92DF92EF92FF920F931F93CF93DF93B6
:100E300000D000D0CDB7DEB7162F7A018F3609F477
:100E400034C370F4893609F4E5C318F48034B9F07A
:100E5000F7C38B3609F44AC38D3609F499C3F0C33E
:100E6000863709F4CFC120F4803709F4CAC2E8C339
:100E7000883709F497C28A3709F401C3E1C36623AE
:100E800009F4DEC31150DA018C91883309F4ABC048
:100E9000E8F4833109F46DC040F4813109F45FC096
:100EA00008F062C0803189F1CBC3813209F495C06A
:100EB00020F4803209F469C0C3C3803309F490C0C0
:100EC000813309F0BDC30E948705BAC38D3309F48D
:100ED000E8C060F48A3309F48DC008F488C08B330D
:100EE00009F48CC08C3309F4CEC0AAC3813409F450
:100EF000A0C020F4803409F484C0A2C3823409F471
:100F0000AEC0803509F4EFC09BC3153008F498C318
:100F1000FA014381248105810F7702950F70F8E073
:100F20002F9FC0011124082B2F772295269527701B
:100F300034E0439FC0011124282B46FB882780F909
:100F4000D70112964C911297440F482B11966C9131
:100F50006F7770E089ED94E00E947D1971C389ED8F
:100F600094E00E94CE196CC389ED94E00E9433197D
:100F700067C3112309F464C3FA016181653608F07F
:100F80005FC389ED94E00E943C19143008F458C303
:100F9000D70112968C918F77B0E88B9FC0011124F6
:100FA000F70121812F77822B44814F77F0E84F9F03
:100FB000A0011124D70113962C912F77422B4115B4
:100FC000510521F440E050E0BA0104C0052E000CA8
:100FD000660B770B0E94F11433C30E947B1430C35D
:100FE0000E94A0052DC381E080930D0329C31092B8
:100FF0000D0326C381E080930C0322C310920C03DF
:101000001FC3112309F41CC3FA0181818F77F82EC5
:1010100000E010E0F801E85FFE4F81818F1103C00E
:101020008F2D0E943E050E5F1F4F0031110591F775
:1010300007C3112309F404C3DA0111962C912F7709
:1010400080E090E031E0FC01E85FFE4F4181421317
:1010500001C03083029680319105A9F7F1C21123B6
:1010600009F4EEC2FA0121812F7780E090E0FC01C3
:10107000E85FFE4F3181321301C010820296803149
:101080009105A9F7DDC2112309F4DAC2DA0111963C
:101090008C918F77843008F0D3C290E00E94DA14EC
:1010A000CFC2143000F1FA019281818190FB87F95F
:1010B0009481638190FB67F9811113C062E28EEE27
:1010C00094E00E94C51A482F4F7762E28EEE94E0BA
:1010D0000E94721C40E068E38EEE94E00E94721C55
:1010E00002C00E94A414B090E004BA946FEF89ED9E
:1010F00094E00E943C1900E020E04FEF61E070E0D6
:1011000089ED94E00E947D1989ED94E00E94CE194A
:1011100064E670E080E090E00E94B61087E10E94F3
:101120008B106C012FEF40E061E070E089ED94E0FE
:101130000E947D1989ED94E00E94CE1964E670E06A
:1011400080E090E00E94B61087E10E948B107C0145
:101150000FEF20E040E061E070E089ED94E00E9454
:101160007D1989ED94E00E94CE1964E670E080E07C
:1011700090E00E94B61087E10E948B108C01809154
:10118000DB049091DC04029738F040E050E0BA01B3
:1011900081E090E00E94161289ED94E00E94CE1941
:1011A0006B2D89ED94E00E943C19C114F4E0DF0638
:1011B00030F4D694C794D694C7942C2D01C02FEF49
:1011C000E11434E0F30630F4F694E794F694E794EF
:1011D0009E2D01C09FEF011544E0140728F41695D9
:1011E00007951695079501C00FEF81E589832A833E
:1011F0009B830C83AE014F5F5F4F64E080E40E94ED
:10120000D1111EC2DA0111968C91982F987185FF29
:1012100003C08BEC91E051C0FA018081983061F1FC
:1012200068F491110DC291E09093AD038093CF03C8
:101230001092AE031092D00302E006C09031B9F1D3
:10124000983109F46AC0FCC1011778F4F701E00F86
:10125000F11D81816081F0E88F9F601911248EEF6C
:1012600095E00E942F1D0E5FEFCF0E94791288E853
:1012700090E00197F1F7E4C163814281163071F487
:10128000B0E86B9FB0011124640F711DF7019581C7
:101290004481F0E89F9F4019112406C020E8629F16
:1012A000401911246FEF7FEF0E94A106C9C1E091A0
:1012B0001801E7302CF08BEE91E00E940A12C0C1B9
:1012C000DA0113962C91139712969C91663089F44B
:1012D000B0E82B9F90011124290F311DDA011596DA
:1012E0004C91159714969C91B0E84B9F901911243E
:1012F00006C0F0E82F9F901911242FEF3FEFEF5F0A
:10130000E093180144E0E402F0011124E25FFC4F95
:10131000808332832183938393C130911801131604
:1013200024F08FEF809318018BC120E0632F032EF0
:10133000000C770B422F50E06417750764F0440FE0
:10134000551F440F551FFA01E25FFC4F908198171B
:1013500001F12F5FEFCF20E01CC02830C8F4DC0182
:10136000AA0FBB1FAA0FBB1FAE5EBC4F4C91880FCC
:10137000991F880F991FFC01E25FFC4F4083119673
:101380008D919C9112979283818313968C91838384
:101390002F5F822F90E068177907FCF63150309369
:1013A00018014EC1DA012C9111968C91B0E88B9FF7
:1013B000C0011124820F911D009721F0909300032A
:1013C0008093FF028091950681113AC110E08EEF63
:1013D000810F823028F466E070E0812F0E940904BA
:1013E0001F5F1E31A1F781E080939506109265037F
:1013F000109264031092AE031092D0030E94F61E66
:101400001FC1653008F41CC1FA011081D18002812E
:10141000C380F4801E3108F013C1E12FF0E0ED58D5
:10142000F94F20812C30B0F430E0F901EE0FFF1FAE
:101430002E0F3F1FF901E15DF94F208130E0F901E6
:10144000EE0FFF1F2E0F3F1FF901E65FF94F80815E
:1014500086FDF2C0F0E8FF9EA00111244C0D511D45
:1014600020E8029FB00111246D0D711D812F0E9493
:10147000C90364E070E0812F0E940904E1C062307A
:1014800008F4DEC0DA012C9111968C91B0E88B9FA4
:10149000C0011124820F911D009711F481E090E0AA
:1014A00090931A0180931901CBC0623008F4C8C030
:1014B000FA01618170E01230A1F08281F0E88F9F23
:1014C000C0011124682B792B133059F0DA011396DF
:1014D0008C9190E090E4899F902D88271124682BAF
:1014E000792BF70180810E945702AAC080EF0E94E9
:1014F00010238CE60E94102310E080E00E9410234D
:1015000081E00E9410238BE00E94102381E00E9462
:10151000102381E00E94102381E00E9410238EEEB0
:10152000810F8C3038F482E00E9410238AE00E9400
:10153000102309C0133039F483E00E94102388E09F
:101540000E9410230AC08BEF810F8230A8F387EF2F
:10155000810F833088F31D3079F384E00E941023DB
:101560008EE00E9410238EEF810F823030F486E0EF
:101570000E94102381E00E9410238FE70E94102315
:101580001F5F1E3109F0B9CF87EF0E94102358C0AA
:10159000662309F455C0DA010C9180EF0E941023F4
:1015A0008EE60E941023802F0E9410230E3160F7D8
:1015B00010E0F801E05DFC4F80810E941023000FD5
:1015C000111FF801ED53FD4F7F0180818F770E943D
:1015D0001023D7018D919C919C012078232B39F009
:1015E000880F892F881F990B8F770E941023F8018D
:1015F000ED53FD4F808191819C012227307C232B6C
:1016000019F2990F880B990F982F881F8F770E94D6
:101610001023BACF80EF0E9410238AE60E94102385
:101620001EEE1C3010F4812F01C08FE70E941023A2
:101630001F5F1C30B1F7A8CF812F0E9446010ACF4F
:101640000F900F900F900F90DF91CF911F910F91FE
:10165000FF90EF90DF90CF90BF90089540915A0394
:1016600050915B032091580330915903421753075F
:10167000B4F49091E8009570E1F39091E80092FD48
:1016800019C08093F10080915A0390915B030196F9
:101690008F739927892B19F48EEF8093E80080913E
:1016A0005A0390915B03019690935B0380935A03D6
:1016B00081E0089580E00895CF92DF92EF92FF924B
:1016C0000F931F93CF93DF931F92CDB7DEB7182FE1
:1016D000062FE42E862F880F8E5F99830E942E0B93
:1016E00083E00E942E0BF12EC12E9981D92E8C2DD4
:1016F0008F19801798F4F601E7FE02C0849101C0AB
:1017000080810E942E0B182F80E00E942E0B8123D7
:10171000FFEFCF1ADF0A8111EACF01C081E00F90FD
:10172000DF91CF911F910F91FF90EF90DF90CF90BD
:101730000895DF92EF92FF920F931F93CF93DF9361
:10174000D82E8A017B01E40EF51EEB01CE15DF05D4
:1017500071F0D7FE03C0FE01849101C088810E9410
:101760002E0B21968111F2CF8FEF9FEF01C0C801A0
:10177000DF91CF911F910F91FF90EF90DF9008952F
:10178000CF92DF92EF92FF920F931F93CF93DF934D
:101790006C017A018B01C0E0D0E0CE15DF0589F045
:1017A000D8016D918D01D601ED91FC910190F081F0
:1017B000E02DC6010995892B11F47E0102C0219606
:1017C000ECCFC701DF91CF911F910F91FF90EF9068
:1017D000DF90CF900895CF93DF931F92CDB7DEB700
:1017E0006983DC01ED91FC910280F381E02D41E001
:1017F00050E0BE016F5F7F4F09950F90DF91CF9151
:10180000089583E08093E9008091F200882319F025
:101810008AE38093E8000895FC018485958597FD0F
:101820000BC09FB7F89482E08093E9008091F200AA
:101830009FBF90E0019608959FB7F89482E080934F
:10184000E9008091F2009FBF90E0089590E0FC01D4
:101850003197EF30F105B0F5E258FF4F0C94902925
:10186000809180008F7703C0809180008F7D80936E
:101870008000089580918000877FF9CF84B58F77AD
:1018800002C084B58F7D84BD0895809190008F77CC
:1018900007C0809190008F7D03C080919000877F6A
:1018A0008093900008958091C0008F7703C080914D
:1018B000C0008F7D8093C00008958091C200877F13
:1018C0008093C20008950E94662C0F931F93CF93BC
:1018D000DF931F92CDB7DEB782E0898342E450E008
:1018E00063E571E080E80E94990B0E944623DC01C9
:1018F00012960D911C9113970115110569F0D801ED
:10190000ED91FC910280F381E02DBE016F5F7F4F6E
:10191000C801099597FF07C089810F90DF91CF918A
:101920001F910F910895F80100851185E5CF0F9360
:101930001F93CF93DF931F92CDB7DEB78C01FC01CD
:101940008485958597FF0EC0CE0101960E941D23C8
:10195000019719F4298130E002C02FEF3FEFF80121
:1019600035872487F801848595850F90DF91CF9185
:101970001F910F910895CF93DF931F92CDB7DEB7DC
:10198000FC018485958597FD05C02FEF3FEF3587D6
:1019900024870BC0CE0101960E941D23019719F4E4
:1019A000898190E002C08FEF9FEF0F90DF91CF9180
:1019B00008951F920F920FB60F9211248F939F9349
:1019C0008091E1009091E100937F9093E10083FF8B
:1019D0000FC01092E90091E09093EB001092EC00A0
:1019E00092E39093ED001092E00698E09093F0005F
:1019F00082FF1CC093E09093E9009091F20099233C
:101A000019F09AE39093E80090915C03992329F0F0
:101A100090915C03915090935C039091DF06992321
:101A200029F09091DF0691509093DF0684FF10C05B
:101A30008091E2008E7E81608093E2008091E100DF
:101A40008F7E8093E100809102038E7E806111C0C1
:101A500080FF11C08091E2008E7E80618093E20061
:101A60008091E1008E7E8093E100809102038E7E62
:101A70008160809302039F918F910F900FBE0F9012
:101A80001F9018951F920F920FB60F921124CF92AC
:101A9000DF92EF92FF920F931F932F933F934F93F9
:101AA0005F936F937F938F939F93AF93BF93EF93C6
:101AB000FF93CF93DF93CDB7DEB76C97DEBFCDBF7B
:101AC0001092E9008091E80083FF0CC2FE01759638
:101AD000DE2ECF2E88E08E0F8E1729F09091F10028
:101AE00090833196F9CF84E68093DF0682EF80936E
:101AF000E8008D8987FF05C09091E80090FFFCCF3A
:101B000003C09EEF9093E800982F907609F0C5C02F
:101B10009E892F89188D91110CC0803829F48091ED
:101B200003038093F10002C01092F1001092F100C3
:101B30004EC1422F50E0512B913051F4811147C1D9
:101B40004130510509F043C1809103038D7F0BC0E3
:101B5000933061F481113BC14130510509F037C127
:101B60008091030382608093030331C1953041F477
:101B70008091E80080FFFCCF20682093E30027C11C
:101B8000963009F05EC0EB8CFC8C1092E90010924C
:101B90005B0310925A03123091F510925903109280
:101BA00058030E94650C99E0BE016F5F7F4FDB0117
:101BB000E92F1D92EA95E9F799831A8391E09E83B4
:101BC00090EA98879AEF998720915A0330915B03A6
:101BD000275F3F4F3C832B838D831092E900109247
:101BE0005B0310925A03F0925903E092580349E0C4
:101BF00050E080E00E94990B0E94650CE8C0F092D2
:101C00005903E09258030E944623DC011296ED909E
:101C1000FC901397E114F10409F4C7C0D701ED91CA
:101C2000FC910480F581E02D6D2D7C2DC701099577
:101C3000009719F00CF0CBC0CEC0F701E084F1841E
:101C4000E9CF973009F4C7C0983021F481E0809340
:101C5000F100BDC0993009F0BAC0837009F0BBC073
:101C6000EBE2F1E081E021E036E39081992361F03D
:101C70008093E9002093EB0091919093EC003093D6
:101C8000ED008F5F873089F78EE78093EA0010922E
:101C9000EA008F898093E0069AC08B8D9C8D10920C
:101CA000E90010925B0310925A03909359038093BA
:101CB0005803898D81115FC08E899D89913A59F4AD
:101CC000813209F088C047E050E060E071E080E0D8
:101CD0000E94990B7CC0913209F07DC0833289F457
:101CE000888D90E0982F88272F89822BA0E0B0E084
:101CF00080931B0190931C01A0931D01B0931E01C2
:101D000066C08032B1F48091E80082FFFCCFE0E051
:101D1000F1E087E08E0F8E1729F09091F10090830B
:101D20003196F9CF84E68093DF068BEF8093E8004D
:101D300006C0823209F04BC08F89809307018091E1
:101D40000103882319F0EEEFFAE002C0E0E0F8E0CA
:101D50008091000190910101A0910201B0910301D5
:101D6000803B9440A105B10509F0A0C08091070116
:101D700080FF83C09BC00E944623DC0112960D9118
:101D80001C9113970115110531F1D801ED91FC91CA
:101D90000190F081E02D6D2D7C2DC80109958111F8
:101DA00016C0F80100851185EDCF1130C1F0133058
:101DB00091F48F89882309F455C08230E9F440E812
:101DC00062E182EA91E00E945C0B882321F08EEFB1
:101DD0008093E80087C081E28093EB0083C08B8D05
:101DE0009C8D089711F4109357038091570381112C
:101DF00036C065EB71E038C0813029F440E868E016
:101E000089E991E0E0CF833031F70E944623DC017D
:101E10001296ED90FC9013978E010F5F1F4F680193
:101E2000E114F10479F0D701ED91FC910680F7817E
:101E3000E02DB801C7010995080F111DF701E084D5
:101E4000F184EECFD8011C92F60101900020E9F751
:101E50003197BF016C197D0940E0C601B4CF67EC32
:101E600071E002C065E971E06115710509F4B3CF55
:101E7000FB01449150E080E82BCFEE3F2AE0F207CF
:101E800031F0808191819093FF0A8093FE0A87E769
:101E900097E7918380839BE088E10FB6F894A8953B
:101EA000809360000FBE9093600091CF0FB6F894BE
:101EB000A895809160008861809360001092600016
:101EC0000FBEA895EE3F8AE0F80739F08091FE0A30
:101ED0009091FF0A918380837ACF1092FF0A10922B
:101EE000FE0A75CF6C960FB6F894DEBF0FBECDBF5D
:101EF000DF91CF91FF91EF91BF91AF919F918F9122
:101F00007F916F915F914F913F912F911F910F9111
:101F1000FF90EF90DF90CF900F900FBE0F901F902B
:101F200018951F920F920FB60F9211242F933F9383
:101F30008F939F93AF93BF93EF93FF938091600331
:101F400090916103A0916203B0916303892B8A2B66
:101F50008B2B51F180915D03E0915E03F0915F0363
:101F60009081892780838091600390916103A09183
:101F70006203B0916303181619061A061B064CF586
:101F80008091600390916103A0916203B09163031B
:101F90000197A109B1098093600390936103A09315
:101FA0006203B093630315C0809171008D7F8093AD
:101FB000710090915D03E0915E03F0915F03808179
:101FC000282F30E0892F90E08095909582239323ED
:101FD0008083FF91EF91BF91AF919F918F913F913E
:101FE0002F910F900FBE0F901F901895CF93DF93F6
:101FF000282F30E0F901EC5CFE4F8491F901E752A3
:10200000FE4FD491F901EA5FFD4FC491CC2391F0CA
:1020100081110E94260CEC2FF0E0EE0FFF1FEA5D0D
:10202000FE4FA591B491EC91ED2381E090E021F475
:1020300080E002C080E090E0DF91CF9108951F938F
:10204000CF93DF93282F30E0F901EC5CFE4F8491B1
:10205000F901E752FE4FD491F901EA5FFD4FC491B7
:10206000CC23C9F0162F81110E94260CEC2FF0E032
:10207000EE0FFF1FE850FE4FA591B4918FB7F89473
:10208000111105C09C91ED2FE095E92302C0EC9160
:10209000ED2BEC938FBFDF91CF911F910895CF93DC
:1020A000DF9390E0FC01E752FE4F2491FC01EA5FD0
:1020B000FD4F8491882361F190E0880F991FFC0106
:1020C000EA5DFD4FC591D491FC01E850FE4FA5910A
:1020D000B491611109C09FB7F8948881209582233B
:1020E0008883EC912E230BC0623061F49FB7F89483
:1020F0003881822F809583238883EC912E2B2C931B
:102100009FBF06C08FB7F894E8812E2B28838FBF1E
:10211000DF91CF910895823108F08251E82FF0E0ED
:10212000E65EFE4FE49180917B00E3FB222720F9DD
:1021300030E095E0220F331F9A95E1F78F7D282B31
:1021400020937B00E770E064E0937C0080917A004C
:10215000806480937A0080917A0086FDFCCF809124
:1021600078002091790090E0922B08958F929F92B1
:10217000AF92BF92CF92DF92EF92FF926B017C0100
:102180000E942B184B015C01C114D104E104F1043D
:10219000F1F00E942B18DC01CB0188199909AA09DA
:1021A000BB09883E9340A105B10570F321E0C21A36
:1021B000D108E108F10888EE880E83E0981EA11C82
:1021C000B11CC114D104E104F10419F7DDCFFF9073
:1021D000EF90DF90CF90BF90AF909F908F90089539
:1021E0008F929F92AF92BF92CF92DF92EF92FF9227
:1021F0000F931F93CF93DF935C016B018A01809152
:102200000701882309F45DC08091E006882309F462
:1022100058C08091020380FF05C08091E000826079
:102220008093E000E8018AEFF82E93E0E92E2FE397
:10223000822E3AE3932E209709F43DC08FB7F8948D
:10224000E092E9009091E80095FF06C09091F200BD
:10225000282D291B922F01C090E08FBF91110AC039
:10226000FA94FF2071F161E070E080E090E00E945C
:10227000B610E1CF292F30E0C217D3070CF49C2F02
:102280008FB7F894E092E9002091E80025FF11C093
:10229000292F30E0C21BD30BF601915020F0419161
:1022A0004093F100FACFC20ED31E9091E80095FF43
:1022B00012C08FBFC0CF84E680935C031016110656
:1022C00044F081E090E0F5019383828380E090E028
:1022D00005C0C80103C09092E800EBCFDF91CF9119
:1022E0001F910F91FF90EF90DF90CF90BF90AF9034
:1022F0009F908F9008950F931F93CF93DF93EC01DE
:1023000001E214E0D8018D919C91DC01ED91FC91EA
:102310006C2F6F770190F081E02D0995F801808195
:102320009181DC01ED91FC91CC0FCD2FCC1FDD0B09
:102330006C2F6F770190F081E02DDF91CF911F918D
:102340000F910994CF93DF93EB01A0912104B091F9
:102350002204ED91FC9111978F70682F606E0190AF
:10236000F081E02DCD010995CE01DF91CF910C9444
:102370007B118091210490912204DC01ED91FC916C
:102380000190F081E02D67EF0994809121049091F4
:102390002204DC01ED91FC910190F081E02D60EFD1
:1023A0000994EF92FF920F931F93CF93DF9300D086
:1023B0001F92CDB7DEB7162F4A835B8389830E94B5
:1023C000C511A0912104B0912204ED91FC911197C7
:1023D0000190F081E02D8981682FCD0109954A8116
:1023E000042FE42E5B81F52E8E2D801B811738F48F
:1023F000F70181917F0190E00E947B11F5CF0F9052
:102400000F900F90DF91CF911F910F91FF90EF9060
:102410000C94B911FC0101900020E9F73197BF013C
:10242000681B790BAC0181E70C94D1118F929F92BC
:10243000AF92BF92CF92DF92EF92FF924B01AA240C
:10244000BB24E82DC52ED62EE72EFF24FC2D342FDD
:102450002091E004222361F0829E40011124E92DA5
:10246000C29E60011124FD2D429FD00111243B2FFB
:10247000F090E604E090E304A091E104B091E2045E
:10248000FE1008C0AC01440F551F840F951F8A0F22
:102490009B1F14C0880F991F880F991F8A0F9B1FBD
:1024A000472F552766277727DC01AF0DB11D222363
:1024B00021F0429FA0011124452F4C932091E30469
:1024C000DC01A20FB11DEC932091E404DC01A20F0A
:1024D000B11DFC932091E504FC01E20FF11D308356
:1024E000FF90EF90DF90CF90BF90AF909F908F9034
:1024F00008952091D0039091CF03213208F046C077
:102500008091AC038111FCCF32E03093AC0331E019
:102510003093AB033FEF3093AA031092A9032093AB
:10252000A803AFEAB3E048E853E0FA013E2F341BBA
:10253000321718F43D913193F9CF1092870320910F
:102540008703990F922B9093870390918603913084
:1025500041F410928603909187039093BB0095EC11
:1025600001C095EE9093BC009091AC039230E1F3E2
:102570009091AA039F3F79F08091AA03803241F0A5
:102580008091AA03803331F084E005C081E003C06C
:1025900082E001C083E01092AE031092D00310924B
:1025A000AD0308959091AC039111FCCF91E090930D
:1025B000AC039093AB032FEF2093AA031092A903CF
:1025C000260F2093A8039093870390918703880F89
:1025D000892B8093870380918603813041F4109288
:1025E0008603809187038093BB0085EC01C085EE54
:1025F0008093BC008091AC038130E1F38091A9030A
:10260000861710F46091A903A8E8B3E026E633E04A
:10261000F9018E2F821B861718F48D918193F9CFC3
:10262000862F0895613208F060E20E94D212109263
:102630006503809364030895CF92DF92EF92FF9237
:10264000CF93DF93FC01148A158A168A178A80813A
:10265000918197FD72C04EE120E130E0F894A18DA8
:10266000B28D12969C911297808D80958923129637
:102670008C93A48DB58D11969C911197838D809527
:10268000892311968C93A48DB58D12969C911297E7
:10269000838D8095892312968C93A48DB58D119688
:1026A0009C911197838D892B11968C93A48DB58D58
:1026B00012969C911297838D8095892312968C9304
:1026C000C9010197F1F7A48DB58D11969C911197D1
:1026D000838D8095892311968C93A48DB58D129648
:1026E0009C911297838D8095892312968C93A18D4E
:1026F000B28D12969C911297808D892B12968C9395
:102700007894C48DD58D638D58815623848995899D
:10271000A689B789C084D184E284F384511111C0A1
:102720008C159D05AE05BF0560F40196A11DB11D78
:10273000848B958BA68BB78BE7CF6FEF7FEFCB01A9
:10274000D3C0C816D906EA06FB0608F45CC0F894A4
:10275000A48DB58D12969C911297838D892B12961C
:102760008C93A48DB58D11969C911197838D892B97
:1027700011968C93A48DB58D12969C911297838D92
:10278000892B12968C93A48DB58D11969C911197DF
:10279000838D8095892311968C93A48DB58D129687
:1027A0009C911297838D8095892312968C93A18D8D
:1027B000B28D12969C911297808D809589231296E6
:1027C0008C937894C48DD58D638D588156238489DC
:1027D0009589A689B789C084D184E284F38455237E
:1027E00069F08C159D05AE05BF0540F40196A11D4D
:1027F000B11D848B958BA68BB78BE7CF8C159D0570
:10280000AE05BF0528F06EEF7FEF8FEF9FEF6CC036
:10281000415009F023CFEF010E945018C888D98891
:10282000EA88FB88DC01CB018C199D09AE09BF0940
:10283000CC84DD84EE84FF84C816D906EA06FB0644
:1028400040F5CC88DD88EE88FF886A817B818C81A9
:102850009D81C616D706E806F90629F0C61AD70ADA
:10286000E80AF90A03C0C12CD12C76010E943E2A45
:102870002DEC3CEC4CEC5DE30E94CC2A0E94082A33
:10288000CB01770FAA0BBB0BC816D906EA06FB06CD
:10289000E0F08C899D89AE89BF89CA80DB80EC809D
:1028A000FD808C159D05AE05BF0520F48A839B83B2
:1028B000AC83BD83CA80DB80EC80FD80BC01CD0190
:1028C0006C197D098E099F090FC08FEF9FEFAFEF45
:1028D000BFE08A839B83AC83BD830E945018688BC2
:1028E000798B8A8B9B8BD5CFDF91CF91FF90EF9027
:1028F000DF90CF90089580911F01853009F5E5E2C2
:10290000F2E0E4918FEF80931F01E13071F050F01D
:10291000E33089F0E430A1F4809172008F7B8093E2
:1029200072000EC010926E000BC080916F008D7F00
:1029300080936F0005C0809171008D7F809371003E
:1029400060E085E00C941F10CF93DF93C82FD62F43
:1029500040E862E28EEE94E00E94721C48E064E27D
:102960008EEE94E00E94721CC13011F445E103C068
:10297000C23031F44AE268E38EEE94E00E94721CA9
:102980004D2F6AE38EEE94E00E94721C4AE06BE3E6
:102990008EEE94E00E94721C44E16CE38EEE94E0B3
:1029A0000E94721C4FEF6DE38EEE94E0DF91CF91A9
:1029B0000C94721CCF93DF93EC0163E28EEE94E0F3
:1029C0000E94C51A8F7C94E0CC0FDD1F9A95E1F729
:1029D0004C2F482B63E28EEE94E0DF91CF910C9464
:1029E000721C3F924F925F926F927F928F929F9252
:1029F000AF92BF92CF92DF92EF92FF920F931F930D
:102A0000CF93DF9300D000D0CDB7DEB720911F0168
:102A1000253021F02F3F09F084C204C0E5E2F2E046
:102A200034909FC025E020931F01E5E2F2E0E4919D
:102A3000EF3F09F476C2E13009F44AC0FCF4E11139
:102A40008FC014BC15BC24B5226024BD25B52160FF
:102A500025BDEBE0F2E0E491F0E0EE0FFF1FE8505F
:102A6000FE4F2591349130935B0620935A06EEED8C
:102A7000F1E0E491E0935906312C75C0E33009F49C
:102A80004BC0E43009F06CC01092C0001092C1003D
:102A90002091C10028602093C1002091C1002160D5
:102AA0002093C100EBE0F2E0E491F0E0EE0FFF1FB5
:102AB000E850FE4F259134913093550620935406EB
:102AC000EEEDF1E0E491E0935306B4E03B2E4BC011
:102AD0001092800010928100209181002860209344
:102AE000810020918100216020938100EBE0F2E0E1
:102AF000E491F0E0EE0FFF1FE850FE4F2591349176
:102B00003093580620935706EEEDF1E0E491E09300
:102B100056063324339427C01092900010929100EF
:102B200020919100286020939100209191002160D4
:102B300020939100EBE0F2E0E491F0E0EE0FFF1F54
:102B4000E850FE4F2591349130935F0320935E034C
:102B5000EEEDF1E0E491E0935D0303E0302E03C07D
:102B60003E2E37FCDEC12A013B018C0161E085E08D
:102B70000E944F104801A12CB12C832D8D7F09F0AC
:102B8000CCC060E079E08DE390E0A50194010E9463
:102B9000812C29833A834B835C8369017A0121E08C
:102BA000C21AD108E108F1088FEFC816D104E10478
:102BB000F10409F008F44BC060E271EA87E090E0AC
:102BC000A50194010E94812C69017A0191E0C91A42
:102BD000D108E108F108E2E03E121FC0FFEFCF1676
:102BE000D104E104F10409F008F4F4C068E478EEDB
:102BF00081E090E0A50194010E94812C69017A0195
:102C000081E0C81AD108E108F1089FEFC916D10484
:102C1000E104F10409F010F5DDC0EFEFCE16D104A8
:102C2000E104F104B1F0A8F064E274EF80E090E018
:102C3000A50194010E94812C69017A01F1E0CF1A6B
:102C4000D108E108F108332009F437C12CC181E033
:102C500001C082E0332009F45BC0BCC064E274EFC1
:102C600080E090E0A50194010E94812C69017A0125
:102C7000F1E0CF1AD108E108F1082FEFC216D10414
:102C8000E104F10409F008F4A5C062E17AE780E00C
:102C900090E0A50194010E94812C69017A0181E0F4
:102CA000C81AD108E108F1089FEFC916D104E10460
:102CB000F10409F008F48EC069E07DE380E090E063
:102CC000A50194010E94812C69017A0181E0C81A52
:102CD000D108E108F1089FEFC916D104E104F1041D
:102CE00009F008F4DEC089819A81AB81BC814AE099
:102CF000B595A795979587954A95D1F76C017D0174
:102D0000E1E0CE1AD108E108F108311063C085E096
:102D100095B5987F892B85BD5DC060E079E08DE336
:102D200090E0A50194010E94812C69017A01F1E0F3
:102D3000CF1AD108E108F108C114D10421E0E2065C
:102D4000F10488F064E274EF80E090E0A501940162
:102D50000E94812C69017A0181E0C81AD108E1083A
:102D6000F10883E001C081E091E039120FC0909139
:102D70008100987F892B8093810041145104610464
:102D8000710469F52FEF3FEFA90157C0E3E03E1250
:102D90000FC090919100987F892B809391004114EE
:102DA000510461047104D9F42FEF3FEFA90157C01A
:102DB000F4E03F120FC09091C100987F892B80935F
:102DC000C100411451046104710449F42FEF3FEF35
:102DD000A90157C0411451046104710471F0D80174
:102DE000AA0FBB1FA30192010E94A02C28EE33E082
:102DF00040E050E00E94B32C03C02FEF3FEFA90149
:102E000081E03816D1F083158CF031108AC0C7BC30
:102E100020936406309365064093660650936706D8
:102E200080916E00826080936E007BC093E03916C3
:102E3000B1F0E4E03E1629F174C0D0928900C0924E
:102E40008800209360063093610640936206509399
:102E5000630680916F00826080936F0062C0D092A1
:102E60009900C092980020936003309361034093CF
:102E700062035093630380917100826080937100BC
:102E800050C0C092CF0020935C0630935D06409303
:102E90005E0650935F06809172008064809372009A
:102EA00040C086E0D7CEEFEFCE16D104E104F104A6
:102EB00011F008F001CF84E0CDCE8FEFC816D10419
:102EC000E104F104C9F0C0F069E07DE380E090E046
:102ED000A50194010E94812C69017A01F1E0CF1AC9
:102EE000D108E108F1082FEFC216D104E104F10482
:102EF00009F020F484E00CCF83E00ACF89819A8125
:102F0000AB81BC812AE0B595A795979587952A95C1
:102F1000D1F76C017D01E1E0CE1AD108E108F1089A
:102F2000F6CE0F900F900F900F90DF91CF911F91E1
:102F30000F91FF90EF90DF90CF90BF90AF909F9058
:102F40008F907F906F905F904F903F900895CF92B9
:102F5000DF92EF92FF920F931F93CF93DF93FC01C9
:102F6000258D2F3F39F46EBD00000DB407FEFDCF57
:102F70008EB52BC0D62F8C0187E0E82EF12CC0E057
:102F8000CC24C394D12CCC0F60E0F801858D0E9435
:102F90001F10B6010E2C01C0660F0A94EAF76D23CC
:102FA000F801838D0E941F1061E0F801858D0E9459
:102FB0001F10F801848D0E94F60F892B09F0C16063
:102FC000F1E0EF1AF108F8F68C2FDF91CF911F9105
:102FD0000F91FF90EF90DF90CF9008950F931F9384
:102FE000CF93DF938C01EB0188E2FB0111928A956C
:102FF000E9F74BE050E06BE672E0CE010E94722CE4
:103000001B8641E050E060E070E04C875D876E8792
:103010007F87F80185899689A789B08D888B998BE0
:10302000AA8BBB8B4C8B5D8B6E8B7F8B1CA21DA2E6
:103030001EA21FA2188E198E1A8E1B8E1C8E1D8E1C
:103040001E8E1F8E18A219A21AA21BA2DF91CF9169
:103050001F910F9108953FB7F89480916D0690915C
:103060006E06A0916F06B091700626B5A89B05C0AC
:103070002F3F19F00196A11DB11D3FBFBA2FA92FF7
:10308000982F8827820F911DA11DB11DBC01CD0174
:1030900043E0660F771F881F991F4A95D1F708955F
:1030A0002FB7F8946091690670916A0680916B065B
:1030B00090916C062FBF08951F920F920FB60F923A
:1030C00011242F933F938F939F93AF93BF9380913E
:1030D000690690916A06A0916B06B0916C063091DA
:1030E000680626E0230F2D3720F40296A11DB11D9E
:1030F00005C029E8230F0396A11DB11D2093680682
:103100008093690690936A06A0936B06B0936C0651
:1031100080916D0690916E06A0916F06B091700639
:103120000196A11DB11D80936D0690936E06A0932C
:103130006F06B0937006BF91AF919F918F913F91B1
:103140002F910F900FBE0F901F9018950F931F9304
:10315000CF93DF93EC01162F042F81E090E0998349
:1031600088838CE291E09F838E8380EE93E9A4E0D4
:10317000B0E088879987AA87BB8780E29EE4A0E0B9
:10318000B0E08C879D87AE87BF876F3120F08FEFCF
:103190009FEF998388830F3120F08EEF9FEF998303
:1031A000888361E0812F0E944F1060E0802F0E9491
:1031B0004F1060E0812F0E941F10612F70E0FB0113
:1031C000E752FE4FE491E88FFB01EA5FFD4FE49187
:1031D000F0E0EE0FFF1FEA5DFE4F859194919A8F0C
:1031E000898F402F50E0FA01E752FE4FE491EB8FB8
:1031F000FA01EA5FFD4FE491F0E0EE0FFF1FEA5D98
:10320000FE4F859194919D8F8C8F8FEF9FEFAFEF45
:10321000BFE08A839B83AC83BD830E945018688B78
:10322000798B8A8B9B8BDF91CF911F910F910895A2
:10323000FC01158216821782DC011896885B9F4F6D
:103240001D92A817B907E1F71C92DF01A75BBF4FDA
:103250001D921C92EF54FF4F0190F081E02D3097AA
:1032600009F009940895FC014481558160E070E003
:10327000808591850C946B2CFF920F931F93CF93B5
:10328000DF93EC01FF24F394F60E2F81F21679F10F
:10329000088519852150B9F06F3F59F430E040E0BE
:1032A00050E06FEF7FEF80E090E00E94812CB90149
:1032B0000CC08F2D90E0982F88270197622F70E027
:1032C0000E947C2902C060E070E0F8014C815D81C1
:1032D000CF01801B910B8417950740F44081469FD6
:1032E000C001479F900D11249193F0CFFF82DF9191
:1032F000CF911F910F91FF9008950F931F93DC01C1
:1033000012968D919C9113976817790708F043C026
:1033100017968C911797882361F0489FA00111247C
:10332000452F289F90011124232F089F80011124ED
:10333000012F1D968C911D971A969C911A9718969D
:10334000ED91FC911997891308C0CB01880F991F43
:10335000680F791F6E0F7F1F0AC0660F771F660FF9
:10336000771F6E0F7F1FFB01E80FF11D10821A9669
:103370008C911A97FB01E80FF11D40831B968C91ED
:103380001B97FB01E80FF11D20831C968C91FB011C
:10339000E80FF11D00831F910F910895CF92DF92E6
:1033A000EF92FF920F931F93CF93DF93CDB7DEB7CA
:1033B00029970FB6F894DEBF0FBECDBF8C01DC019C
:1033C00018968D919C911997892B09F4BBC00E9486
:1033D0002B18F801C684D784E088F188DC01CB0182
:1033E0008C199D09AE09BF09C297A105B10578F3F3
:1033F000F894848195819A8389830084F185E02DF6
:103400007F01BFEFEB1AFB0A80818987F801908169
:103410008489992309F45BC01B8295B1982B988706
:1034200095B1809589238F838F818C83898587FFD0
:1034300002C088858C8358856F8149853C812B81AA
:1034400089819A81D70155B9262F35B900C046FD2B
:10345000252F65B900C055B9362F25B900C045FDE7
:10346000352F65B900C055B9262F35B900C044FDC8
:10347000252F65B900C055B9362F25B900C043FDC9
:10348000352F65B900C055B9262F35B900C042FDAA
:10349000252F65B900C055B9362F25B900C041FDAB
:1034A000352F65B900C055B9262F35B900C040FD8C
:1034B000252F65B9019755B9362F25B94D9147FD8F
:1034C000352F65B901F649873C832B8331C00288CB
:1034D000F389E02D9081982B98879081809589239E
:1034E0008F838F818E8388E08D8358856F81498596
:1034F0003D812E8189819A81D701508347FD252FF7
:103500002083262F3A9531F0441F608300C000C00D
:1035100000C0F3CF6083000038E04D91019769F758
:10352000D8015396FC93EE93529749873D832E839F
:103530009A83898378940E942B18F801668777878D
:10354000808B918B29960FB6F894DEBF0FBECDBF4E
:10355000DF91CF911F910F91FF90EF90DF90CF906F
:103560000895CF93DF93EC0188859985009711F03A
:103570000E94CE2B8E8187FD05C060E0DF91CF9148
:103580000C944F10DF91CF9108951F93CF93DF9349
:10359000EC01162F8A8D8F3FF1F4898D91E0909385
:1035A000AD038093CF031092AE031092D0038EEF41
:1035B00095E00E942F1D0E947912898D61E070E0D4
:1035C000082E000C990B0E9412138EEF95E00E94BA
:1035D000D61C182F1EC08D8D8F3F21F481E590E001
:1035E0000E94C71D60E08A8D0E941F10612F6068D5
:1035F000CE010E94A71760E0CE010E94A717182FE6
:1036000061E08A8D0E941F108D8D8F3F11F40E9402
:10361000C61D812FDF91CF911F9108958F929F92A8
:10362000AF92BF92CF92DF92EF92FF920F931F93D0
:10363000CF93DF93EC018B0184E2FB0111928A9519
:10364000E9F784E290E0A0E0B0E0FB0180839183A1
:10365000A283B3838D899E89AF89B88D8483958336
:10366000A683B78381E090E0A0E0B0E080879187F7
:10367000A287B387108A118A128A138A8A8D8F3F94
:1036800009F053C0898D91E09093AD038093CF03EF
:103690001092AE031092D00368EA8EEF95E00E947C
:1036A0002F1D0E947912898D66E070E0082E000CB3
:1036B000990B0E9412138EEF95E00E94D61C9C83FA
:1036C0008B838EEF95E00E94D61C20E030E0382FEF
:1036D0008B819C81282B392B3C832B838EEF95E0AB
:1036E0000E94D61C9E838D838EEF95E00E94D61C8F
:1036F00020E030E0382F8D819E81282B392B3E83AE
:103700002D838EEF95E00E94D61C98878F838EEFD5
:1037100095E00E94D61C20E030E0382F8F819885FC
:10372000282B392B38872F8348C08D8D8F3F21F46C
:1037300081E590E00E94C71D60E08A8D0E941F1005
:1037400068EECE010E94A7176FEFCE010E94A71767
:1037500090E09C838B836FEFCE010E94A7172B8193
:103760003C81382B3C832B836FEFCE010E94A7173F
:1037700090E09E838D836FEFCE010E94A7172D816D
:103780003E81382B3E832D836FEFCE010E94A71719
:1037900090E098878F836FEFCE010E94A7172F814B
:1037A0003885382B38872F8361E08A8D0E941F105F
:1037B0008D8D8F3F11F40E94C61D63E2CE010E94E1
:1037C000C51A90E024E0959587952A95E1F78370D6
:1037D00099278330910599F08230910551F081301D
:1037E000910551F061E070E0892B59F46CEF7FE3B3
:1037F00008C060E070E105C06EEF7FE102C065E5E2
:1038000075E080E090E00E943E2A6B017C016B81B4
:103810007C81072E000C880B990B0E94402AA7017F
:1038200096010E9496294B015C0169877A878B87F4
:103830009C876D817E81072E000C880B990B0E945E
:10384000402AA70196010E9496296D877E878F875F
:10385000988B6F817885072E000C880B990B0E943E
:10386000402AA70196010E949629698B7A8B8B8B3F
:103870009C8B2AE038EE4CE151E4C501B4010E9472
:10388000CC2AF801648B758B868B978B2AE038EEF7
:103890004CE151E46D857E858F8598890E94CC2A04
:1038A000F801608F718F828F938F2AE038EE4CE1A0
:1038B00051E469897A898B899C890E94CC2AF80114
:1038C000648F758F868F978F80E0DF91CF911F91E6
:1038D0000F91FF90EF90DF90CF90BF90AF909F90AF
:1038E0008F9008950F931F93CF93DF93EC01162FC2
:1038F000042F8A8D8F3FC9F4898D91E09093AD0399
:103900008093CF031092AE031092D0038EEF95E018
:103910000E942F1D602F8EEF95E00E942F1DDF91DA
:10392000CF911F910F910C9479128D8D8F3F21F4BF
:1039300081E590E00E94C71D60E08A8D0E941F1003
:10394000612F6F77CE010E94A717602FCE010E94D2
:10395000A71761E08A8D0E941F108D8D8F3F31F473
:10396000DF91CF911F910F910C94C61DDF91CF91E4
:103970001F910F910895089585ED8093BC0080916B
:10398000BC0084FDFCCF1092AC0308950895E09133
:10399000650380916403E81730F4F0E0EA59FC4FC6
:1039A000808190E008958FEF9FEF089590916503D7
:1039B00080916403981750F4E92FF0E0EA59FC4F26
:1039C000208130E09F5F9093650302C02FEF3FEFAF
:1039D000C90108958091640390E020916503821BE2
:1039E00091090895CF92DF92EF92FF920F931F9368
:1039F000CF93DF937C018A018091AD03882389F006
:103A0000EB016B01C40ED51ECC15DD05F1F06991FB
:103A1000D701ED91FC910190F081E02DC70109954E
:103A2000F3CF842F413288F49091AC03943069F441
:103A30004093BA06FB0128E936E0D9019A2F921B80
:103A4000981718F491919D93F9CFC801DF91CF9108
:103A50001F910F91FF90EF90DF90CF9008952091EC
:103A6000AD032223C9F02091D003203240F021E0A1
:103A700030E0FC013383228380E090E00895809160
:103A8000AE03E82FF0E0E155FC4F60838F5F809339
:103A9000AE038093D00309C08091AC03843029F435
:103AA00081E08093BA066093980681E090E00895E3
:103AB0000C94CE2B0F931F93CF93DF9381E08093D1
:103AC000960689ED94E00E94331989ED94E00E94F6
:103AD000CE1980E090E00E94DA1464E670E080E0A5
:103AE00090E00E94B61060E582E00E94A41464E6B3
:103AF00070E080E090E00E94B61010920D031092EA
:103B00000C03E8E0F1E01082329681E0E831F8073A
:103B1000D1F70E947B1480919506882329F010929A
:103B200095068FEF80931801C4E0D3E0A1E9B6E0D9
:103B3000E8E0F3E084E08E0F119219921D928E134B
:103B4000FBCF03E716E0C0E0DFEF8EEE8C0F8C308A
:103B500018F462E070E002C061E070E08C2F0E9417
:103B60000904F801D1938F01CF5FCE3171F7109224
:103B70002F0310922E03109272061092710610926B
:103B80009606DF91CF911F910F91089508958CBDF6
:103B90009DBD089508951F920F920FB60F921124A4
:103BA0002F933F934F935F936F937F938F939F9345
:103BB000AF93BF93EF93FF938091B900887F8036D6
:103BC00009F49CC068F5883209F45BC090F4803138
:103BD00009F454C038F4882309F4F3C0883009F498
:103BE0004DC0F3C0883109F44CC0803209F45DC087
:103BF000ECC0803409F468C048F4803309F455C03F
:103C0000883309F0E2C08093AA03D5C0803509F457
:103C10004FC0883509F45DC0883409F0D6C0D3C0E0
:103C2000883909F4C4C0A8F4883709F467C038F4A7
:103C3000883609F463C0803709F460C0C6C088388C
:103C400009F4B5C0803909F45FC0803809F0BDC0FF
:103C50005BC0803B09F483C038F4803A09F466C045
:103C6000883A09F47CC0B1C0803C09F4A4C0883C07
:103C700009F4A1C0883B09F487C0A7C080918703DD
:103C800010C09091A9038091A803981770F5E09156
:103C9000A90381E08E0F8093A903F0E0E857FC4F61
:103CA00080818093BB0085EC83C08093AA038BC086
:103CB000E091A90381E08E0F8093A9038091BB005E
:103CC000F0E0E857FC4F80839091A9038091A8030E
:103CD0006BC0E091A90381E08E0F8093A9038091CE
:103CE000BB00F0E0E857FC4F80838091AB0381116B
:103CF0006AC081E08093860384EA5EC083E080939B
:103D0000AC031092DE06CFCF8091DE06803208F041
:103D10004EC0E091DE0681E08E0F8093DE0680913A
:103D2000BB00F0E0E254F94F8083BDCF8091DE0606
:103D3000803230F4E091DE06F0E0E254F94F108278
:103D40000E94BC1C6091DE0670E0E091BC06F09120
:103D5000BD068EEB96E009951092DE062CC084E03D
:103D60008093AC031092BB061092BA06E091B8069D
:103D7000F091B90609958091BA06811105C081E0DC
:103D80008093BA0610929806E091BB0681E08E0FF0
:103D90008093BB06F0E0E856F94F80818093BB002A
:103DA0009091BB068091BA06981708F47CCF85E8FD
:103DB0008093BC000AC085EC8093BC001092AC03D9
:103DC00004C01092AA030E94BC1CFF91EF91BF9106
:103DD000AF919F918F917F916F915F914F913F91A3
:103DE0002F910F900FBE0F901F9018951092AC035B
:103DF00081E08093AB031092860361E082E00E9431
:103E00001F1061E083E00E941F10E9EBF0E0808169
:103E10008E7F808380818D7F808380E28093B80055
:103E200085E48093BC000895DF92EF92FF920F9398
:103E30001F93CF93DF93EC01D62E7A0189018881FD
:103E40008C3008F06AC061E08D2D0E944F1088818F
:103E5000E82FF0E09F01220F331FE20FF31FE65F10
:103E6000F94F9D2D9F732081207CD22ED92AD0829C
:103E700060E272E0AB014E195F0957FF02C04D5F6F
:103E80005F4F5595479555954795498340E659E0CD
:103E90009A01201B310B37FF02C02D5F3F4F359534
:103EA0002795359527952A836CE00E9470299CE020
:103EB000899FB001112440E050E09A01260F371F7E
:103EC000F901EE0FFF1F2E0F3F1FF901E65FF94FBB
:103ED000908196FD16C04F5F5F4F4C30510569F7DA
:103EE00081110FC01092800082E0809381001092B7
:103EF000850010928400B19A80916F008260809357
:103F00006F00E881F0E0CF01880F991FE80FF91FDB
:103F1000E65FF94F8081806480838881DF91CF9153
:103F20001F910F91FF90EF90DF9008951F920F92D5
:103F30000FB60F9211242F933F934F935F936F937C
:103F40007F938F939F93AF93BF93EF93FF93809152
:103F5000970687FF05C010928500109284001BC051
:103F600020919706022E000C330B80912E0690E0D4
:103F70002817390784F480919706082E000C990BB6
:103F8000FC01EE0FFF1F8E0F9F1FFC01E65FF94F34
:103F9000808186FD15C0809197068F5F809397067C
:103FA00020919706022E000C330B80912E0690E094
:103FB00028173907C4F4809197068C3064F113C038
:103FC00080919706082E000C990BFC01EE0FFF1F45
:103FD0008E0F9F1FFC01E65FF94F808160E08F73B9
:103FE0000E941F10D8CF8091840090918500049684
:103FF00080329E4418F480E29EE405C080918400E3
:1040000090918500049690938900809388008FEFAB
:10401000809397063BC02091840030918500809169
:104020009706082E000C990BFC01EE0FFF1F8E0F58
:104030009F1FFC01E65FF94F81819281820F931FE0
:10404000909389008093880080919706082E000C39
:10405000990BFC01EE0FFF1F8E0F9F1FFC01E65F07
:10406000F94F808186FF12C080919706082E000CC0
:10407000990BFC01EE0FFF1F8E0F9F1FFC01E65FE7
:10408000F94F808161E08F730E941F10FF91EF91C3
:10409000BF91AF919F918F917F916F915F914F9160
:1040A0003F912F910F900FBE0F901F9018950F9377
:1040B0001F93CF93DF938C018091E1049091E204F0
:1040C000009711F00E94CE2B9091E6048091E304BA
:1040D000981719F084E090E002C083E090E0809FA0
:1040E000E001819FD00D909FD00D1124D093DE046C
:1040F000C093DD04CE010E94392B9093E20480939B
:10410000E104009751F0AE0160E070E00E946B2C7A
:104110001093DC040093DB0408C01092DE041092BC
:10412000DD041092DC041092DB04DF91CF911F912B
:104130000F910895CF930E94C51180912104909111
:104140002204DC01ED91FC910190F081E02D69E702
:1041500009958091210490912204DC01ED91FC915C
:10416000A0912404B09125040190F081E02D6C9180
:1041700009958091210490912204DC01ED91FC913C
:10418000A0912404B09125040190F081E02D1196B6
:104190006C910995C2E080912304C81760F4E09106
:1041A0002404F0912504EC0FF11D808190E00E9421
:1041B0007B11CF5FF0CFCF910C94B911CF93DF93E8
:1041C000C1E2D4E088819981DC01ED91FC910190FC
:1041D000F081E02D69EF099588819981DC01ED91ED
:1041E000FC910190F081E02D62E009958881998130
:1041F000DC01ED91FC910190F081E02D65E0DF9113
:10420000CF9109940F931F93CF93DF93CDB7DEB770
:104210006E970FB6F894DEBF0FBECDBF61E08DE0A4
:104220000E944F1060E085E10E944F1060E084E042
:104230000E944F1060E083E10E944F1061E085E032
:104240000E944F1061E08EE10E944F1011E019832F
:104250001A821C821B821E821D828FEF8F8318861A
:104260001A8619861B871C8602E00D871E871F860B
:10427000188A198A1A8A85E1FE013196A9EDB4E0FF
:1042800001900D928A95E1F7CE0101960E94B11A34
:104290009091E6048091E3041093E6041093E30404
:1042A0001092E4040093E5041093D9042091E104F2
:1042B0003091E204232B41F0981731F08091DB0418
:1042C0009091DC040E9457208AE090E00E945720E1
:1042D0008091DA04882339F08091DF0487FD03C0E0
:1042E00060E00E944F1081E18093DF048091DA0446
:1042F000882341F061E081E10E944F1060E081E19C
:104300000E941F10E7E1F2E0E491F0E0EE0FFF1FE2
:10431000E850FE4F859194919093EC048093EB04C8
:10432000EAEEF1E0E491E093ED048B818093F004F8
:104330008C819D819093F2048093F1048E819F8102
:104340009093F4048093F304888599859093F60400
:104350008093F5048A859B85AC85BD858093F704A1
:104360009093F804A093F904B093FA048E859F8586
:10437000A889B9898093FB049093FC04A093FD0461
:10438000B093FE048A899B89AC89BD898093FF0420
:1043900090930005A0930105B09302058FEF9FEF66
:1043A000DC018093030590930405A0930505B09369
:1043B00006058A8D8093070588E0809308058FEFB6
:1043C0008093090580930A0580930B058091DF0493
:1043D00087FD08C061E00E944F1060E08091DF041B
:1043E0000E941F1081E08093DA0489ED94E00E941E
:1043F000CE1964E189ED94E00E943C1940E06EE141
:10440000CE0101960E94A6188EE1FE013196AEE023
:10441000B5E001900D928A95E1F741E06EE1CE01A1
:1044200001960E94A6188EE1FE013196ACE2B5E03D
:1044300001900D928A95E1F742E06EE1CE0101967E
:104440000E94A6188EE1FE013196AAE4B5E0019023
:104450000D928A95E1F743E06EE1CE0101960E944C
:10446000A6188EE1FE013196A8E6B5E001900D9206
:104470008A95E1F746E06EE1CE0101960E94A6180A
:104480008EE1FE013196A6E8B5E001900D928A9585
:10449000E1F749E06EE1CE0101960E94A6188EE197
:1044A000FE013196A4EAB5E001900D928A95E1F7FC
:1044B0004AE06EE1CE0101960E94A6188EE1FE014F
:1044C0003196A2ECB5E001900D928A95E1F74CE0AF
:1044D0006EE1CE0101960E94A6188EE1FE01319692
:1044E000A0EEB5E001900D928A95E1F788E1809306
:1044F0000705809108058F3F59F4109265031092CB
:1045000064031092AE031092D0030E94F61E4EC0B8
:1045100061E00E941F1061E0809108050E944F1029
:1045200080910B058F3F09F034C01FB7F89480913C
:10453000ED06811127C0E7E1F2E08491EAEEF1E0B7
:104540009491E82FF0E0EE0FFF1FEA5DFD4FA5917B
:10455000B491EC91E92321F461E081E10E941F1004
:1045600061E081E10E944F108CB580618CBD8CB5FB
:1045700080648CBD61E08FE00E944F1061E080E1BB
:104580000E944F108091ED068F5F8093ED061FBF54
:104590000DC061E00E944F1061E0809109050E940A
:1045A0004F1060E080910A050E944F106FE08EEE80
:1045B00094E00E94C51A833339F547E060E28EEE3D
:1045C00094E00E94721C60E28EEE94E00E94C51A94
:1045D0008F70482F406760E28EEE94E00E94721C5C
:1045E00048E863E28EEE94E00E94721C40E162E2D1
:1045F0008EEE94E00E94721C40E86FE18EEE94E033
:104600000E94721C81E001C080E06E960FB6F894A3
:10461000DEBF0FBECDBFDF91CF911F910F910895E7
:10462000A0912104B0912204ED91FC911197019089
:10463000F081E02D682FCD010994FC018091E00606
:10464000811103C08FEF9FEF08959FB7F89482E028
:104650008093E9002091F20030E01216130614F462
:1046600021E030E02115310551F084E68093DF062A
:104670008091F10080838091F200882319F09FBF20
:10468000C90108958BE68093E800F9CF8091E50693
:1046900081110DC082E08093E10684E08093E20600
:1046A0001092E4061092E30681E08093E50681EE25
:1046B00096E00895789484B5826084BD84B5816065
:1046C00084BD85B5826085BD85B5816085BD8091DD
:1046D0006E00816080936E00109281008091810055
:1046E000826080938100809181008160809381004D
:1046F0008091800081608093800080919100826031
:1047000080939100809191008160809391008091CD
:1047100090008160809390008091C10084608093BC
:10472000C1008091C10082608093C1008091C1006E
:1047300081608093C1008091C30081608093C30039
:104740008091C00082608093C0008091C20081602F
:104750008093C20080917A00846080937A00809177
:104760007A00826080937A0080917A008E7F8093B5
:104770007A0080917A00806880937A001092E00637
:1047800010920303109202038091D70081608093FE
:10479000D70080EA8093D80089B58F7E89BD89B51E
:1047A000826089BD09B400FEFDCF61E070E080E069
:1047B00090E00E94B6108091D8008F7C8061809339
:1047C000D8008091E000807F8093E0008091E1003C
:1047D0008E7E8093E1008DE08093E200EEEFFFE7B4
:1047E000859194918B3F9C4D19F481E08093010356
:1047F0000E940221811119C061E08DE00E944F10DA
:1048000060E08DE00E941F1064E670E080E090E0C0
:104810000E94B61061E08DE00E941F1064E670E017
:1048200080E090E00E94B610EBCF8EE180932304ED
:1048300080912404909125040E94CE2BC0912304E2
:10484000D0E0CE0101960E94392B909325048093ED
:104850002404FC01EC0FFD1F108222E0DC012C93EC
:1048600025E011962C93AE01425051096EE472E09E
:1048700002960E94722C87E592E09093C704809381
:10488000C6048EEA91E09093C9048093C80489E736
:1048900091E09093CB048093CA0485E296E09093D4
:1048A000CD048093CC0489E094E09093CF0480936E
:1048B000CE0486EB93E09093D1048093D0048FE0F4
:1048C00097E09093D7048093D6048AE59DE1909376
:1048D000D3048093D2048FEF9FEF9093DE038093F5
:1048E000DD0381ED93E09093220480932104809175
:1048F000D804811150C061E08DE00E944F1062ED3C
:1049000070E080E090E00E94B61061E08DE00E94CF
:104910001F1068E270E080E090E00E94B61060E056
:104920008DE00E941F1062ED70E080E090E00E9438
:10493000B61061E08DE00E941F1068E270E080E038
:1049400090E00E94B61060E08DE00E941F106AEFB8
:1049500070E080E090E00E94B610C0E062ED70E090
:1049600080E090E00E94B61061E08DE00E941F1090
:1049700068E270E080E090E00E94B61060E08DE0B8
:104980000E941F10CF5FC53049F76DE770E080E0EF
:1049900090E00E94B6100E94DE20809123048111D5
:1049A0000E949A208FE78093310380933B0380938A
:1049B0003A038093390380934C0380934A031AE0AF
:1049C00009E1C4EFD1E0F09007016AE070E080E017
:1049D00090E00E94B610F1108FC060E08DE00E9460
:1049E0001F1085E10E94F60F20914E03892B81F064
:1049F0002F5F20934E032B30E1F410924E0389ED8C
:104A000094E00E94331989ED94E00E94CE1911C000
:104A100021110AC010934E0389ED94E00E943319CE
:104A200089ED94E00E94CE1980914E0381508093CD
:104A30004E0380914E03809F402D112440954535B3
:104A400050F4942F990F490F942F909550E060E007
:104A500070E0692B19C04A3A50F44555942F990FCC
:104A6000940F492F409550E060E070E00CC04A5A26
:104A7000942F990F490F942F909550E060E070E0CB
:104A8000BA0155274427592BE82EF12C8091DB04DD
:104A90009091DC04E816F90618F4C7010E9416127A
:104AA00089ED94E00E94CE1984E00E94F60F892BD4
:104AB00081F0C701019644E650E060E070E0FC013F
:104AC000EC9FC001ED9F900DFC9F900D11240E9462
:104AD000F11483E10E94F60F892B11F06CE301C001
:104AE00064E189ED94E00E943C1964E670E080E0A6
:104AF00090E00E94B61067CF0E945A1D00E010E0BF
:104B0000FF24F39432E0E32E80910803882309F414
:104B100048C0D0910403D0FFF3C280E00E94F60F9A
:104B2000892B09F4EDC2C1E0D1FF06C081E00E94EB
:104B3000F60F892B09F0E6C2D2FF06C082E00E9480
:104B4000F60F892B09F0E0C2D3FF06C083E00E9474
:104B5000F60F892B09F0DAC2D4FF06C084E00E9468
:104B6000F60F892B09F0D4C2D5FF06C085E00E945C
:104B7000F60F892B09F0CEC2D6FF06C086E00E9450
:104B8000F60F892B09F0C8C2D7FF06C087E00E9444
:104B9000F60F892B09F0C2C240E06C2F80E00E9422
:104BA000E00580910903882309F448C0D0910503EA
:104BB000D0FFB6C288E00E94F60F892B09F4B0C27C
:104BC000C1E0D1FF06C089E00E94F60F892B09F0F1
:104BD000A9C2D2FF06C08AE00E94F60F892B09F015
:104BE000A3C2D3FF06C08BE00E94F60F892B09F009
:104BF0009DC2D4FF06C08CE00E94F60F892B09F0FD
:104C000097C2D5FF06C08DE00E94F60F892B09F0F0
:104C100091C2D6FF06C08EE00E94F60F892B09F0E4
:104C20008BC2D7FF06C08FE00E94F60F892B09F0D8
:104C300085C240E06C2F81E00E94E00580910A036C
:104C4000882309F448C0D0910603D0FF79C280E1DF
:104C50000E94F60F892B09F473C2C1E0D1FF06C090
:104C600081E10E94F60F892B09F06CC2D2FF06C0C9
:104C700082E10E94F60F892B09F066C2D3FF06C0BD
:104C800083E10E94F60F892B09F060C2D4FF06C0B1
:104C900084E10E94F60F892B09F05AC2D5FF06C0A5
:104CA00085E10E94F60F892B09F054C2D6FF06C099
:104CB00086E10E94F60F892B09F04EC2D7FF06C08D
:104CC00087E10E94F60F892B09F048C240E06C2F63
:104CD00082E00E94E00580910B03882309F448C01C
:104CE000D0910703D0FF3CC288E10E94F60F892BC8
:104CF00009F436C2C1E0D1FF06C089E10E94F60F77
:104D0000892B09F02FC2D2FF06C08AE10E94F60F5C
:104D1000892B09F029C2D3FF06C08BE10E94F60F50
:104D2000892B09F023C2D4FF06C08CE10E94F60F44
:104D3000892B09F01DC2D5FF06C08DE10E94F60F38
:104D4000892B09F017C240E06C2F83E00E94E00538
:104D50000FC08091210490912204DC01ED91FC911F
:104D60000680F781E02D09958F3FBFEF9B0771F417
:104D70008091210490912204DC01ED91FC9104804A
:104D8000F581E02D0995892B21F722C1382F20913B
:104D90006904222309F46BC0873F09F059C01092BF
:104DA000690480912904813751F0893709F042C0A4
:104DB000809123048823E1F20E949A20D9CFE091C8
:104DC000D404F091D504309799F280916A049091BF
:104DD0006B04DC011197B7FDDC015D01B594A7946C
:104DE0006A2DC9E2D4E020E030E090E02E5F3F4F32
:104DF000961788F4A9014F5D5B4FDA0117968C91E5
:104E00001797888318964C91B0E84B9F801911240E
:104E100089939F5FEBCFD501BB27AF5DBB4F179643
:104E20008C911797882311F018961C9289E294E0D0
:104E300009959ECFE091D604F091D704309709F4FC
:104E400097CF60916A0461504AE254E0099590CF8F
:104E500020916A0430916B04F901EF5DFB4F80876C
:104E60002F5F3F4F30936B0420936A0481CF2091D2
:104E70002604222309F469C087FD67C09FEF920FC3
:104E800090932604E92FF0E0EF5DFB4F80879111AE
:104E90006FCF80912704882309F46ACF803D09F4FD
:104EA00045C050F4803901F1803C09F04BC0E091DD
:104EB000CA04F091CB043EC0843F39F1853F51F1E3
:104EC000803E09F03FC0E091C604F091C7043097DE
:104ED000C9F18091290460912A0470E020E8829F42
:104EE000600D711D11242BC0E091C804F091C9041C
:104EF000309741F18091290460912A0470E030E8F4
:104F0000839F600D711D11241AC0E091CE04F091B1
:104F1000CF0404C0E091D004F091D104309791F017
:104F20006091290470E080912A040BC0E091CC04C8
:104F3000F091CD04309731F06091290470E08091B8
:104F4000280409951092270413CF303F38F4282FF6
:104F5000207F30E08F708093280402C09C013327AB
:104F6000203F310559F17CF4203C310511F124F446
:104F700020393105D9F0FCCE203D3105D1F0203E5D
:104F80003105A1F0F5CE293F3105F9F034F4C9011E
:104F9000845F9109029750F0EBCE2F3F310509F065
:104FA000E7CE81E294E00E941819E2CEE092260456
:104FB00002C0F092260420932704DACEF09269040E
:104FC00010926B0410926A04D3CE0E94DE20D0CEE1
:104FD0000E945018609353037093540380935503B9
:104FE0009093560340904F035090500360905103AC
:104FF000709052034091190150911A019A0140E0BA
:1050000050E04B015C0184189508A608B7082815E4
:1050100039054A055B0538F00115110509F474CD11
:105020000E94000071CDDA01C901840D951DA61DF5
:10503000B71D80934F0390935003A0935103B093F7
:10504000520390E3A92E93E0B92EC0E0DEEEDC0F10
:10505000DC30B8F4F5018081823099F480912E0320
:1050600090912F030D2E02C0959587950A94E2F733
:1050700080FF07C08D2F0E948B10BC018D2F0E94D6
:10508000A211CF5FFFEFAF1ABF0ACE31F9F68091C0
:10509000180187FF07C080910D038823E1F00E946B
:1050A000870519C0C0E0EC2FF0E080911801082EB0
:1050B000000C990B8E179F0774F3EE0FFF1FEE0F76
:1050C000FF1FE25FFC4F61817281438180810E94FA
:1050D000A106CF5FE8CF80910C0381110E94A0054B
:1050E000C0E0D0E0FE01E85FFE4F8081882319F028
:1050F00081810E943E052296C031D10599F78CCF5F
:10510000C0E012CDC26018CDC4601ECDC86024CDF1
:10511000C0612ACDC06230CDC06436CDC0683CCD00
:10512000C0E04FCDC26055CDC4605BCDC86061CDDD
:10513000C06167CDC0626DCDC06473CDC06879CDEC
:10514000C0E08CCDC26092CDC46098CDC8609ECDC9
:10515000C061A4CDC062AACDC064B0CDC068B6CDD8
:10516000C0E0C9CDC260CFCDC460D5CDC860DBCDB5
:10517000C061E1CDC062E7CDCF93DF931092D4033D
:105180001092D30388EE93E0A0E0B0E08093D503C3
:105190009093D603A093D703B093D80385E391E00F
:1051A0009093D2038093D1038FEF9FEF9093DE0310
:1051B0008093DD031092230410922504109224049E
:1051C00081E294E00E94181991E09093D904109222
:1051D000DA041092DC041092DB041092DE041092C8
:1051E000DD048FEF8093DF041092E0041092E2045C
:1051F0001092E1049093E3041092E40422E02093DF
:10520000E5049093E6041092E7041092E8041092EB
:10521000E9041092EA0425E431E03093EF0420938E
:10522000EE044FEF5FEFBA0140930305509304057E
:105230006093050570930605809308058093090522
:1052400080930A0580930B0510920D05C0E0D0E015
:1052500040E060E0CE01825F9A4F0E94A6186E96F1
:10526000C03FD105A9F7109201061092000688EE02
:1052700093E0A0E0B0E08093020690930306A09331
:105280000406B093050681E691E09093FF058093B4
:10529000FE0580912E06AFE2B6E09FEF4CED55E0A3
:1052A0008C3078F48C93282F30E0F901EE0FFF1F3B
:1052B0002E0F3F1FF901E65FF94F528341838F5F45
:1052C00001C09C93139626E0A335B20749F780935B
:1052D0002E06DF91CF91089589ED94E00C94B11AD8
:1052E000991B79E004C0991F961708F0961B881F38
:1052F0007A95C9F780950895AA1BBB1B51E107C099
:10530000AA1FBB1FA617B70710F0A61BB70B881F55
:10531000991F5A95A9F780959095BC01CD010895E4
:10532000EE0FFF1F0590F491E02D09940E94AA2929
:105330000C94922A0E948B2A58F00E94842A40F0F2
:1053400029F45F3F29F00C947B2A51110C94C62A52
:105350000C94812A0E94A32A68F39923B1F3552360
:1053600091F3951B550BBB27AA2762177307840778
:1053700038F09F5F5F4F220F331F441FAA1FA9F30E
:1053800035D00E2E3AF0E0E832D091505040E695FC
:10539000001CCAF72BD0FE2F29D0660F771F881F5D
:1053A000BB1F261737074807AB07B0E809F0BB0B50
:1053B000802DBF01FF2793585F4F3AF09E3F510564
:1053C00078F00C947B2A0C94C62A5F3FE4F3983E55
:1053D000D4F3869577956795B795F7959F5FC9F74D
:1053E000880F911D9695879597F90895E1E0660FCE
:1053F000771F881FBB1F621773078407BA0720F047
:10540000621B730B840BBA0BEE1F88F7E0950895AF
:105410000E940F2A6894B1110C94C62A08950E9424
:10542000AB2A88F09F5798F0B92F9927B751B0F061
:10543000E1F0660F771F881F991F1AF0BA95C9F718
:1054400014C0B13091F00E94C52AB1E008950C94C7
:10545000C52A672F782F8827B85F39F0B93FCCF37A
:10546000869577956795B395D9F73EF49095809595
:10547000709561957F4F8F4F9F4F0895E89409C0B5
:1054800097FB3EF490958095709561957F4F8F4F77
:105490009F4F9923A9F0F92F96E9BB279395F6958D
:1054A000879577956795B795F111F8CFFAF4BB0F0B
:1054B00011F460FF1BC06F5F7F4F8F4F9F4F16C06F
:1054C000882311F096E911C0772321F09EE8872FF9
:1054D000762F05C0662371F096E8862F70E060E0B5
:1054E0002AF09A95660F771F881FDAF7880F96952E
:1054F000879597F9089597F99F6780E870E060E0D5
:1055000008959FEF80EC089500240A94161617065C
:1055100018060906089500240A94121613061406A4
:1055200005060895092E0394000C11F4882352F007
:10553000BB0F40F4BF2B11F460FF04C06F5F7F4FBF
:105540008F4F9F4F089557FD9058440F551F59F0A6
:105550005F3F71F04795880F97FB991F61F09F3F60
:1055600079F087950895121613061406551FF2CF89
:105570004695F1DF08C0161617061806991FF1CFD9
:1055800086957105610508940895E894BB27662700
:105590007727CB0197F908950E94DF2A0C94922A6D
:1055A0000E94842A38F00E948B2A20F0952311F063
:1055B0000C947B2A0C94812A11240C94C62A0E94F4
:1055C000A32A70F3959FC1F3950F50E0551F629F7A
:1055D000F001729FBB27F00DB11D639FAA27F00D4C
:1055E000B11DAA1F649F6627B00DA11D661F829F73
:1055F0002227B00DA11D621F739FB00DA11D621F58
:10560000839FA00D611D221F749F3327A00D611D74
:10561000231F849F600D211D822F762F6A2F112456
:105620009F5750409AF0F1F088234AF0EE0FFF1F89
:10563000BB1F661F771F881F91505040A9F79E3FE0
:10564000510580F00C947B2A0C94C62A5F3FE4F34A
:10565000983ED4F3869577956795B795F795E79536
:105660009F5FC1F7FE2B880F911D9695879597F93F
:105670000895CF93DF938230910510F482E090E09B
:10568000E091F006F091F10620E030E0C0E0D0E0DB
:10569000309711F14081518148175907C0F04817E0
:1056A000590761F482819381209719F09B838A8343
:1056B0002BC09093F1068093F00626C0211531058A
:1056C00019F04217530718F49A01BE01DF01EF01E8
:1056D0000280F381E02DDCCF2115310509F1281B73
:1056E000390B2430310590F412968D919C911397CB
:1056F0006115710521F0FB019383828304C09093AF
:10570000F1068093F006FD01329644C0FD01E20FE0
:10571000F31F81939193225031092D933C933AC00A
:105720002091EE063091EF06232B41F420912201C7
:10573000309123013093EF062093EE062091200153
:10574000309121012115310541F42DB73EB740912B
:10575000240150912501241B350BE091EE06F091B8
:10576000EF06E217F307A0F42E1B3F0B28173907AB
:1057700078F0AC014E5F5F4F2417350748F04E0FAD
:105780005F1F5093EF064093EE068193919302C002
:10579000E0E0F0E0CF01DF91CF9108950F931F93E8
:1057A000CF93DF93009709F48CC0FC0132971382EA
:1057B00012820091F0061091F1060115110581F495
:1057C00020813181820F931F2091EE063091EF06E8
:1057D0002817390779F5F093EF06E093EE0671C0CC
:1057E000D80140E050E0AE17BF0750F412962D915B
:1057F0003C911397AD012115310509F1D901F3CF82
:105800009D01DA013383228360817181860F971FA6
:105810008217930769F4EC0128813981260F371F1D
:105820002E5F3F4F318320838A819B8193838283C4
:10583000452B29F4F093F106E093F00642C013964D
:10584000FC93EE931297ED01499159919E01240F1B
:10585000351FE217F30771F480819181840F951F42
:10586000029611969C938E938281938113969C93BA
:105870008E931297E0E0F0E0D80112968D919C9102
:105880001397009719F0F8018C01F6CF8D919C9138
:1058900098012E5F3F4F820F931F2091EE063091AB
:1058A000EF062817390769F4309729F41092F106AA
:1058B0001092F00602C0138212821093EF0600933A
:1058C000EE06DF91CF911F910F91089581E090E056
:1058D000F8940C94E42CDC0101C06D9341505040CD
:1058E000E0F70895FB01DC014150504048F0019081
:1058F0000D920020C9F701C01D9241505040E0F7C1
:105900000895052E97FB1EF400940E94982C57FDD5
:1059100007D00E94B32C07FC03D04EF40C94982CB3
:1059200050954095309521953F4F4F4F5F4F0895CB
:1059300090958095709561957F4F8F4F9F4F0895FB
:105940000E94D52CA59F900DB49F900DA49F800D13
:10595000911D11240895B7FF0C94A02C0E94A02C37
:10596000821B930B0895A1E21A2EAA1BBB1BFD01FB
:105970000DC0AA1FBB1FEE1FFF1FA217B307E4072E
:10598000F50720F0A21BB30BE40BF50B661F771F86
:10599000881F991F1A9469F7609570958095909566
:1059A0009B01AC01BD01CF010895A29FB001B39F3F
:1059B000C001A39F700D811D1124911DB29F700D18
:1059C000811D1124911D089511E0CBE1D1E004C0A7
:1059D000FE010E9490292196CC31D107C9F7F89495
:0259E000FFCFF7
:1059E20000E10000000000000000000100020003CE
:1059F20000060009000A000CFF1300FFFFFFFFFF73
:105A02000000F20680000100000000C18081000059
:105A12000000000000EB0BF0100C0CBB0C970C010B
:105A22000C00000000CA1D581DBB1C0E1BEE170007
:105A320000000000000000BB1C630C630C000000AF
:105A4200002F1DF21CEA1CD61CC71CC61C4D617817
:105A520020736572766F7320617474616368656424
:105A620000556E6B6E6F776E2070696E206D6F647D
:105A720065004932433A20546F6F206D616E792080
:105A8200627974657320726563656976656400493D
:105A920032433A20546F6F206665772062797465CD
:105AA200732072656365697665640031302D6269C1
:105AB200742061646472657373696E67206E6F74BB
:105AC20020737570706F7274656400746F6F206DEF
:105AD200616E792071756572696573002F55736502
