:100000000C9420010C9448010C9448010C94480174
:100010000C9448010C9448010C9448010C9448013C
:100020000C9448010C9496110C94EA0B0C945C0C03
:100030000C9448010C9448010C9448010C9448011C
:100040000C9448010C946B130C9448010C944801D7
:100050000C9448010C9448010C9448010C944C11E8
:100060000C9448010C94BF0E0C94990E0C9448010A
:100070000C9448010C9448010C9448010C944801DC
:100080000C9448010C9448010C9448010C944801CC
:100090000C94BB110C9448010C9448010C94480139
:1000A0000C9448010C9448010C9448014B035003F4
:1000B00055035F036903B303B303B30373037D0302
:1000C000870391039E03B303A603B004D504A104E0
:1000D000EE040F054105360541054105410568055A
:1000E000BF0439094F09A1084F09F8084F097F08D3
:1000F00029084F094F094F094F094F0903074F09B5
:10010000E0074F096B088610891078107C10821068
:10011000AA10AA10AA108D10911095109B109F1074
:10012000AA10A51000000000250028002B002E00BA
:100130003100000000002300260029002C002F00C1
:10014000040404040403040502020202040302027C
:10015000020206060606060604040202020404045D
:1001600008020110408040102040804080080204B6
:10017000018040201002011080102040402000002B
:10018000000200090F0000030401000C0000000041
:1001900000000000000000000000000000080B004C
:1001A000020202010009040000010202000005240D
:1001B00000100105240101010424020605240600A3
:1001C000010705810310004009040100020A000034
:1001D00000070502024000000705830240000004FA
:1001E00003090441726475696E6F204C4C430041F1
:1001F000726475696E6F204573706C6F7261001266
:100200000100020000004041233C80000101020384
:100210000112010002EF02014041233C8000010174
:10022000020301070605040100080A0B0C0D090072
:10023000000000240027002A002D003000009A1A38
:1002400011241FBECFEFDAE0DEBFCDBF25E0A6E46C
:10025000B2E001C01D92A93CB207E1F712E0A0E0B4
:10026000B1E0E0EEF9E302C005900D92A634B107CB
:10027000D9F711E0C0E2D1E004C02197FE010E944D
:10028000491BCF31D107C9F70E9414160C94EE1CFC
:100290000C940000A82FB0E0A352BD4F9C91292FD1
:1002A00030E0F901EE0FFF1F2E0F3F1FF901EB5653
:1002B000FA4FE081F0E09F01220F331FE20FF31F9E
:1002C000E059FA4F80818F7B80838091DB02981305
:1002D00006C0992379F091509093DB020BC08823DC
:1002E00049F0E091DC02EF5FE093DC02F0E0EB5BD1
:1002F000FD4F90838FEF8C9308958E3180F4E82F1B
:10030000F0E0DF01A950BB4F9C91913041F4EE0F1A
:10031000FF1FEB5EFA4F608371830C941A0F0895F0
:10032000CF938C3080F54091D1025091D20221E0E0
:1003300030E0672B81F4B90102C0660F771F8A9500
:10034000E2F7CB0180959095842395239093D20278
:100350008093D10218C0082E02C0220F331F0A94C6
:10036000E2F7242B352B3093D2022093D1029091C7
:100370000003911108C0C82F0E94E710BC018C2F08
:10038000CF910C946B14CF910895AF92BF92CF92FE
:10039000DF92EF92FF920F931F93CF93DF931F9201
:1003A000CDB7DEB7843008F08EC0982F990F990F23
:1003B000990F985F9F3108F09EE1D62EB82EBB0CA6
:1003C000BB0CBB0CFB2CA12CCC24C394F916F0F471
:1003D0000F2D10E0F801E950FB4F2081223098F4F6
:1003E000EE24E3948C2D8D2109F4E12C000F111FD4
:1003F000213009F055C0AC28F801EB5EFA4F2E2DE4
:1004000030E031832083CC0CF394E0CFA0FE05C014
:100410006D2D61708B2D0E941A0FA1FE06C06D2DEF
:10042000627081E08B0D0E941A0FA2FE06C06D2D36
:10043000647082E08B0D0E941A0FA3FE06C06D2D22
:10044000687083E08B0D0E941A0FA4FE06C06D2D0C
:10045000607184E08B0D0E941A0FA5FE06C06D2D01
:10046000607285E08B0D0E941A0FA6FE06C06D2DEE
:10047000607486E08B0D0E941A0FA7FE24C06D2DBC
:10048000607887E08B0D0F90DF91CF911F910F91D6
:10049000FF90EF90DF90CF90BF90AF900C941A0F29
:1004A000EE2009F4A9CFF801EB5EFA4F20813181EB
:1004B0002130310509F4A0CF62E08F2D99830E948D
:1004C000AB10998199CF0F90DF91CF911F910F9130
:1004D000FF90EF90DF90CF90BF90AF9008956F9214
:1004E0007F928F929F92AF92BF92CF92DF92EF92C4
:1004F000FF920F931F93CF93DF931F92CDB7DEB779
:10050000982F3B018E3108F03BC1082F10E0F80115
:10051000E950FB4F8081833009F48CC0843009F0AE
:100520002FC1F801E352FD4FE080F12C6701CC0CA4
:10053000DD1C603282E078070CF042C077FD05C018
:10054000653B710524F4DB0104C0A0E001C0A4EB0D
:10055000B0E0F601EE0DFF1DEB56FA4F818128E861
:1005600030E04901881A910887FD9394880C991C02
:10057000880C991C092C000CAA08BB08828128E56C
:1005800032E0281B310987FD3395220F331F220FDC
:10059000331FA901330F660B770B9A01AB012819A2
:1005A00039094A095B090E94B51C24EB30E040E0A0
:1005B00050E00E948B1C820E931EA41EB51E01C02B
:1005C0004B01F601EE0DFF1DEB56FA4F20812C304A
:1005D00008F0CFC0318188E890E0831B910937FD96
:1005E0009395880F991F880F991F8816990684F094
:1005F000828148E552E0481B510987FD5395440F1D
:10060000551F440F551FC401481559050CF4CA0164
:100610000297880F991F4FB7F89430E0F901EE0F59
:10062000FF1F2E0F3F1FF901E059FA4F928381837C
:100630004FBF9FC0933059F08BEF890F823038F055
:1006400087EF890F833018F09D3009F092C061E088
:10065000892F99830E94AB1099816114710411F460
:1006600060E005C08FEF6816710429F461E0892FFE
:100670000E941A0F7EC0F801E258FE4FE4914E2FFF
:1006800050E0FA013197EF30F10508F06CC0EA5AFA
:10069000FF4F0C94491B84B5806884BD67BC69C05A
:1006A00084B5806284BD68BC64C08091800080682D
:1006B0008093800070928900609288005AC0809177
:1006C000800080628093800070928B0060928A002C
:1006D00050C08091800088608093800070928D006F
:1006E00060928C0046C0809190008068809390005A
:1006F00070929900609298003CC080919000806256
:100700008093900070929B0060929A0032C080911A
:10071000900088608093900070929D0060929C0091
:1007200028C08091C00080688093C0008091C00084
:100730008F7B8093C0006092CF001BC08091C0006F
:1007400080628093C0006092D00013C08091C2008C
:1007500088608093C2008091C2008B7F8093C2002A
:100760006092D20006C080E8681671040CF07ECF5B
:1007700077CF000F111FF801EB5EFA4F7182608294
:100780000F90DF91CF911F910F91FF90EF90DF902D
:10079000CF90BF90AF909F908F907F906F90089573
:1007A000DB019091DB029C30A8F53091DC02682FD0
:1007B00070E0332369F0E32FF0E0EB5BFD4F8081C5
:1007C000FB01E352FD4F808331503093DC0207C0C0
:1007D000FB01E352FD4F90839F5F9093DB02FB018F
:1007E000E352FD4F808190E09C01220F331F820F66
:1007F000931F1A161B0634F4141615061CF49A01DE
:10080000AD0104C020E639E040E252E08B569A4F39
:100810000C94E91240E551E063E181E70C94821405
:10082000AF92BF92CF92DF92EF92FF920F931F93FE
:10083000CF93DF93C82ED12CE601C455DB4FFE01C8
:10084000E55BFF4F90819F3709F442C17B01182F70
:10085000963069F48091FF02882349F06630710573
:1008600009F432C11092FF028FEF80930C011E3108
:1008700000F584E0E816F104E1F0F601E352FD4FE3
:1008800080818C30B0F490E0FC01EE0FFF1F8E0FE2
:100890009F1FFC01EB56FA4F808190E0FC01EE0FA8
:1008A000FF1F8E0F9F1FFC01E059FA4F808186FDCC
:1008B000F6C00EEE010F0C3060F461E070E082E0F3
:1008C000E816F10411F060E070E0802F0E949001C2
:1008D00002C01E3120F5E12FE695E695E695412F01
:1008E0004770F0E0E356FD4FE114F10421F08BE096
:1008F000E816F10451F481E090E001C0880F4A95B8
:10090000EAF79081892B80830AC021E030E001C0A2
:10091000220F4A95EAF720958081282320835601EB
:10092000AA0CBB1CF501EB5EFA4F118210828CE021
:10093000E816F10408F0A5C0F701EB59FF4F0C943D
:10094000491B0C3008F0C4C060E0812F0E94AB103E
:10095000C55BDF4F88818F3709F4BAC082E08FC052
:100960001E3108F0B5C060E0812F0E94AB10C55B5E
:10097000DF4F88818F3709F4ABC01882A9C01E31C0
:1009800008F0A6C062E0812F0E94AB10C55BDF4F6C
:1009900088818F3711F08BE08883F501EB5EFA4F89
:1009A00081E090E09183808393C01E3108F090C075
:1009B000FE01E55BFF4F8081833021F460E0812FF1
:1009C0000E941A0F61E0812F0E94AB10C55BDF4FC0
:1009D00088818F3709F47CC081E051C0133059F011
:1009E0008BEF810F823038F087EF810F833018F062
:1009F0001D3009F06DC061E0812F0E94AB1061E0F5
:100A0000812F0E94AB1060E0812F0E941A0FC55BFE
:100A1000DF4F88818F3709F45BC083E030C01E311F
:100A200008F056C0C55BDF4F88818F3711F084E036
:100A30008883F601E352FD4F80818F3FA1F190E062
:100A4000FC01EE0FFF1F8E0F9F1FFC01EB56FA4FAC
:100A5000808190E0FC01EE0FFF1F8E0F9F1FFC01B5
:100A6000E059FA4F808186FD33C01DC0125012300C
:100A700078F5C55BDF4F88818F3751F186E0888339
:100A800027C084E691E0DF91CF911F910F91FF90F5
:100A9000EF90DF90CF90BF90AF900C94BB14812F5C
:100AA0000E944A0106CF4FEF5FEF6FEF7FEF812F7C
:100AB000DF91CF911F910F91FF90EF90DF90CF903A
:100AC000BF90AF900C94D0031E3108F4D6CEF1CE77
:100AD000DF91CF911F910F91FF90EF90DF90CF901A
:100AE000BF90AF9008950F931F93CF93082F10E0FE
:100AF000F801E356FD4F9081C62FC92305501D4FC5
:100B0000411104C0D8019C919C1771F1682F80910C
:100B1000AC049091AD04DC01ED91FC916F706069C3
:100B20000190F081E02D09958091AC049091AD0485
:100B3000DC01ED91FC916C2F6F770190F081E02D3D
:100B400009958091AC049091AD04DC01ED91FC918C
:100B50006C2F70E0660F672F661F770B0190F08196
:100B6000E02D0995F801C083CF911F910F91089551
:100B70000F931F93CF93DF93082F843008F06FC03B
:100B800090E0FC01EF55FD4F6083672B09F467C0CF
:100B9000FC01E356FD4F1081D02FDD0FDD0FDD0F7F
:100BA00010FF4DC08D2F0E94F10E892B09F447C014
:100BB000C1E011FF07C081E08D0F0E94F10E892B6B
:100BC00009F03FC012FF06C082E08D0F0E94F10EB7
:100BD000892BC9F513FF06C083E08D0F0E94F10E2B
:100BE000892B99F514FF06C084E08D0F0E94F10E49
:100BF000892B69F515FF06C085E08D0F0E94F10E67
:100C0000892B39F5D83191F016FF06C086E08D0F9B
:100C10000E94F10E892BF9F4D73140F417FF06C07A
:100C200087E08D0F0E94F10E892BB9F441E06C2F03
:100C3000802FDF91CF911F910F910C947305C0E02D
:100C4000B8CFC260BFCFC460C5CFC860CBCFC061D2
:100C5000D1CFC062D7CFC064DFCFC068E7CFDF910C
:100C6000CF911F910F910895CF92DF92EF92FF9253
:100C70000F931F93CF93DF931F92CDB7DEB7082F4B
:100C80006B01142F6F3F8FEF780709F181E080939C
:100C90009B030093BD0310929C031092BE0384E655
:100CA00095E029830E94FD0F2981822F0E943C1527
:100CB000E0919202F0919302E230F10550F0EE0FD4
:100CC000FF1FEE0FFF1F35973197F1F702C0C12CC0
:100CD000D12C80919A038111FCCF212F113208F081
:100CE00020E281E080939A03809399039FEF909391
:100CF000980310929703920F909396038093750335
:100D000080917503902F990F892B809375038091A3
:100D10007403813061F410927403809175038093A1
:100D2000BB008091BC0083FDF8CF85EC01C085EE4F
:100D30008093BC0080919A038130E1F38091970306
:100D4000821710F420919703A6E7B3E041E053E047
:100D5000FA018E2F841B821718F48D918193F9CF9D
:100D60001092220320932103E12EF12C30E0E216B1
:100D7000F3061CF485E791E005C02E153F0524F429
:100D800082E991E00E94BB1400935202C092530288
:100D9000C12CD12CCE14DF0434F490912103809126
:100DA0002203981310C062E0610F42E552E087E72A
:100DB0000F90DF91CF911F910F91FF90EF90DF90F7
:100DC000CF900C94821484E695E00E94B10FF60156
:100DD000EE5AFD4F82838FEFC81AD80ADBCFEF920D
:100DE000FF920F931F93CF93DF9390E0FC01E9569E
:100DF000F109E231F10508F052C2EA01162FEF586D
:100E0000FF4F0C94491B2981922F987125FF03C035
:100E10008EEA91E05AC0888131E026FB222720F932
:100E20002327983069F160F4911139C230939B0304
:100E30008093BD0310929C031092BE0302E007C092
:100E4000903109F43CC0983109F46DC028C20117F3
:100E500078F4FE01E00FF11D8181608120E8829F1E
:100E60006019112484E695E00E94FD0F0E5FEFCF1C
:100E700081E00E943C1583E191E00197F1F70FC2F8
:100E80004A816B81163069F430E8639FB001112408
:100E9000640F711D9D814C81E0E89E9F40191124D3
:100EA00006C0F0E86F9F401911246FEF7FEFDF91CC
:100EB000CF911F910F91FF90EF900C943406E09129
:100EC0000C01E73054F08EEC91E0DF91CF911F914F
:100ED0000F91FF90EF900C94BB149A814B81663078
:100EE00069F430E8439FA0011124490F511D3D8151
:100EF0009C8160E8369F9019112406C0F0E84F9F4E
:100F0000901911244FEF5FEFEF5FE0930C0135E094
:100F1000E302F0011124E755FD4F808352834183A2
:100F200093832483BCC120910C01121614F08FEF1F
:100F300044C090E0622F022E000C770B35E0492F61
:100F400050E06417750774F0349FF001359FF00D81
:100F50001124E755FD4F4081481302C085E026C0AB
:100F60009F5FEDCF90E0FACF9830F8F4FA01319618
:100F70008E9FD0018F9FB00D1124A755BD4F3C917E
:100F8000849FF001859FF00D1124E755FD4F3083BC
:100F900011964D915C9112975283418313963C9127
:100FA0001397338314963C9134839F5F492F50E00D
:100FB00064177507CCF68FEF820F80930C016FC119
:100FC0002881898160E8869FC0011124820F911DCC
:100FD000009721F090939302809392028091FF02F8
:100FE00081115DC1C0E08EEF8C0F823028F466E085
:100FF00070E08C2F0E941004CF5FCE31A1F781E00A
:101000008093FF02109222031092210310929C03FE
:101010001092BE0310929A03809399031092740366
:1010200061E082E00E941A0F61E083E00E941A0FE3
:101030008091B9008E7F8093B9008091B9008D7F37
:101040008093B90088E48093B80085E48093BC0065
:1010500026C1653008F423C11881F9800A81EB802C
:10106000CC811E3108F01BC1E12FF0E0E352FD4FAF
:1010700020812C30B0F430E0F901EE0FFF1F2E0F6D
:101080003F1FF901EB56FA4F208130E0F901EE0FD6
:10109000FF1F2E0F3F1FF901E059FA4F808186FD97
:1010A000FAC080E8C89FA00111244E0D511D90E8A0
:1010B000099FB00111246F0D711D812F0E94D00373
:1010C00064E070E0812FDF91CF911F910F91FF902D
:1010D000EF900C941004623008F4E1C028818981FB
:1010E000E0E88E9FC0011124820F911D009711F43A
:1010F00081E090E090930E0180930D01D0C06230AA
:1011000008F4CDC0698170E0123091F08A81F0E876
:101110008F9FC0011124682B792B133049F08B81EC
:1011200090E090E4899F902D88271124682B792BDB
:101130008881DF91CF911F910F91FF90EF900C94D8
:101140006F0280EF0E942F158CE60E942F15C0E0E1
:1011500080E00E942F1581E00E942F158BE00E94F5
:101160002F1581E00E942F1581E00E942F1581E04C
:101170000E942F158EEE8C0F8C3038F482E00E9486
:101180002F158AE00E942F1509C0C33039F483E07F
:101190000E942F1588E00E942F150AC08BEF8C0F3C
:1011A0008230A8F387EF8C0F833088F3CD3079F34A
:1011B00084E00E942F158EE00E942F158EEF8C0F79
:1011C000823030F486E00E942F1581E00E942F15B6
:1011D0008FE70E942F15CF5FCE3109F0B9CF87EF8F
:1011E000DF91CF911F910F91FF90EF900C942F15ED
:1011F000662309F454C0C88180EF0E942F158EE643
:101200000E942F158C2F0E942F15CE3140F7D0E071
:10121000FE01E950FB4F80810E942F15CC0FDD1F8E
:101220008E010B5E1A4FF80180818F770E942F1577
:10123000F801808191819C012078232B39F0880F5F
:10124000892F881F990B8F770E942F15CB5EDA4F5D
:10125000888199819C012227307C232B09F4BFCF00
:10126000990F880B990F982F881F8F770E942F1541
:10127000B6CF80EF0E942F158AE60E942F15CEEE82
:10128000CC3010F48C2F01C08FE70E942F15CF5F58
:10129000CC30B1F7A4CF812F0E944A0102CFDF9159
:1012A000CF911F910F91FF90EF9008954091970279
:1012B000509198022091950230919602421753075F
:1012C000B4F49091E8009570E1F39091E80092FDFC
:1012D00019C08093F1008091970290919802019635
:1012E0008F739927892B19F48EEF8093E8008091F2
:1012F000970290919802019690939802809397029A
:1013000081E0089580E00895DF92EF92FF920F93BD
:101310001F93CF93DF93D82E8A017B01E40EF51E35
:10132000EB01CE15DF0571F0D7FE03C0FE018491FD
:1013300001C088810E94560921968111F2CF8FEF5A
:101340009FEF01C0C801DF91CF911F910F91FF90D6
:10135000EF90DF900895615030F02091F100FC0192
:1013600020830196F8CF289884E68093720308952D
:10137000CF92DF92EF92FF920F931F93CF93DF9361
:101380006C017A018B01C0E0D0E0CE15DF0589F059
:10139000D8016D918D01D601ED91FC910190F08104
:1013A000E02DC6010995892B11F47E0102C021961A
:1013B000ECCFC701DF91CF911F910F91FF90EF907C
:1013C000DF90CF900895FC01918D828D981761F088
:1013D000828DDF01A80FB11D5D968C91928D9F5F6C
:1013E0009F73928F90E008958FEF9FEF0895FC0117
:1013F000918D828D981731F0828DE80FF11D858DCA
:1014000090E008958FEF9FEF0895FC01918D228D5C
:10141000892F90E0805C9F4F821B91098F739927E1
:1014200008958FEB93E00E94050A21E0892B09F4CF
:1014300020E0822F0895FC01848DDF01A80FB11DEB
:10144000A35ABF4F2C91848D90E001968F739927FA
:10145000848FA689B7892C93A089B1898C918064E7
:101460008C93938D848D981306C00288F389E02DA8
:1014700080818F7D80830895EF92FF920F931F9359
:10148000CF93DF93EC0181E0888F9B8D8C8D981337
:1014900005C0E889F989808185FD24C0F62E0B8D71
:1014A00010E00F5F1F4F0F731127E02E8C8DE81295
:1014B0000CC00FB607FCFACFE889F989808185FF57
:1014C000F5CFCE010E941B0AF1CF8B8DFE01E80FF4
:1014D000F11DE35AFF4FF0820B8FEA89FB8980816F
:1014E000806207C0EE89FF896083E889F98980817D
:1014F0008064808381E090E0DF91CF911F910F9114
:10150000FF90EF900895CF93DF93EC01888D8823AF
:10151000C9F0EA89FB89808185FD05C0A889B98960
:101520008C9186FD0FC00FB607FCF5CF808185FF3B
:10153000F2CFA889B9898C9185FFEDCFCE010E94A9
:101540001B0AE7CFDF91CF91089580E090E0892BCF
:1015500029F00E94110A81110C9400000895CF9384
:10156000DF931F92CDB7DEB76983DC01ED91FC916B
:101570000280F381E02D41E050E0BE016F5F7F4FBC
:1015800009950F90DF91CF91089583E08093E90052
:101590008091F200882319F08AE38093E80008958F
:1015A000FC018485958597FD0BC09FB7F89482E078
:1015B0008093E9008091F2009FBF90E0019608952A
:1015C0009FB7F89482E08093E9008091F2009FBF7A
:1015D00090E008950F931F93CF93DF931F92CDB7A1
:1015E000DEB782E0898342E450E06DE971E080E893
:1015F0000E9484090E94C315DC0112960D911C9172
:1016000013970115110569F0D801ED91FC91028045
:10161000F381E02DBE016F5F7F4FC801099597FFF1
:1016200007C089810F90DF91CF911F910F9108958D
:10163000F80100851185E5CF8F929F92AF92BF92FE
:10164000CF92DF92EF92FF920F931F93CF93DF938E
:101650005C016B018A0180910B01882309F45EC053
:1016600080917303882309F459C080919B0280FF05
:1016700005C08091E00082608093E000E8018AEF7D
:10168000F82E93E0E92E2FE3822E3AE3932E209753
:1016900009F43DC08FB7F894E092E9009091E8001A
:1016A00095FF06C09091F200282D291B922F01C0B2
:1016B00090E08FBF91110AC0FA94FF2079F161E0A8
:1016C00070E080E090E00E941211E1CF292F30E01D
:1016D000C217D3070CF49C2F8FB7F894E092E9005F
:1016E0002091E80025FF11C0292F30E0C21BD30B49
:1016F000F601915020F041914093F100FACFC20ED3
:10170000D31E9091E80095FF13C08FBFC0CF5D98A6
:1017100084E6809399021016110644F081E090E06F
:10172000F5019383828380E090E005C0C80103C087
:101730009092E800EACFDF91CF911F910F91FF9037
:10174000EF90DF90CF90BF90AF909F908F900895D3
:10175000CF93DF931F92CDB7DEB7FC0184859585CB
:1017600097FD05C02FEF3FEF358724870BC0CE01D3
:1017700001960E949915019719F4898190E002C0A1
:101780008FEF9FEF0F90DF91CF9108950F931F93ED
:10179000CF93DF931F92CDB7DEB78C01FC01848518
:1017A000958597FF0EC0CE0101960E94991501976D
:1017B00019F4298130E002C02FEF3FEFF80135879F
:1017C0002487F801848595850F90DF91CF911F9133
:1017D0000F9108951F920F920FB60F9211248F93BD
:1017E0009F938091E1009091E100937F9093E100BD
:1017F00083FF0FC01092E90091E09093EB001092EC
:10180000EC0092E39093ED001092730398E09093B4
:10181000F00082FF20C093E09093E9009091F200E5
:10182000992319F09AE39093E800909199029923F3
:1018300039F090919902915090939902992389F1EE
:1018400090917203992339F0909172039150909383
:101850007203992341F184FF10C08091E2008E7ED3
:1018600081608093E2008091E1008F7E8093E100AF
:1018700080919B028E7E806111C080FF16C0809196
:10188000E2008E7E80618093E2008091E1008E7E96
:101890008093E10080919B028E7E816080939B0209
:1018A00004C05D9ACDCF289AD6CF9F918F910F908B
:1018B0000FBE0F901F9018951F920F920FB60F92A8
:1018C0001124CF92DF92EF92FF920F931F932F93E9
:1018D0003F934F935F936F937F938F939F93AF93B8
:1018E000BF93EF93FF93CF93DF93CDB7DEB76C97A2
:1018F000DEBFCDBF1092E9008091E80083FFFAC1FE
:1019000068E0CE0145960E94AB0982EF8093E80023
:101910008D8987FF05C09091E80090FFFCCF03C040
:101920009EEF9093E800982F907609F0C6C09E89AC
:101930002F89188D91110CC0803829F480919C0258
:101940008093F10002C01092F1001092F10047C1A3
:10195000422F50E0512B913051F4811140C1413060
:10196000510509F03CC180919C028D7F0BC09330E2
:1019700061F4811134C14130510509F030C18091C9
:101980009C02826080939C022AC1953041F4809130
:10199000E80080FFFCCF20682093E30020C1963050
:1019A00009F05FC0EB8CFC8C1092E9001092980259
:1019B00010929702123091F51092960210929502B1
:1019C0000E94EA0A99E0BE016F5F7F4FDB01E92FB9
:1019D0001D92EA95E9F799831A8391E09E8390EA34
:1019E00098879AEF99872091970230919802275F04
:1019F0003F4F3C832B838D831092E9001092980215
:101A000010929702F0929602E092950249E050E01F
:101A100080E00E9484090E94EA0AE1C0F0929602E6
:101A2000E09295020E94C315DC011296ED90FC90A5
:101A30001397E114F10409F4C0C0D701ED91FC91B2
:101A40000480F581E02DBE016B5E7F4FC7010995D3
:101A5000009719F00CF0C3C0C6C0F701E084F18410
:101A6000E8CF973009F4BFC0983021F481E080932B
:101A7000F100B5C0993009F0B2C0837009F0B3C06D
:101A8000EAE1F1E081E021E036E39081992361F021
:101A90008093E9002093EB0091919093EC003093B8
:101AA000ED008F5F873089F78EE78093EA00109210
:101AB000EA008F898093730392C08B8D9C8D109266
:101AC000E9001092980210929702909396028093E8
:101AD0009502898D811156C08E899D89913A59F45C
:101AE000813209F080C047E050E064E071E080E0BE
:101AF0000E94840974C0913209F075C0833289F460
:101B0000888D90E0982F88272F89822BA0E0B0E065
:101B10008093000190930101A0930201B09303010F
:101B20005EC0803269F48091E80082FFFCCF67E0FC
:101B300084E091E00E94AB098BEF8093E80006C03F
:101B4000823209F04CC08F8980930B0180919A02F8
:101B5000882319F0EEEFFAE002C0E0E0F8E08091AF
:101B6000040190910501A0910601B0910701803B0D
:101B70009440A105B10509F088C080910B0180FF58
:101B8000A0C083C00E94C315DC0112960D911C9168
:101B900013970115110539F1D801ED91FC910190D0
:101BA000F081E02DBE016B5E7F4FC8010995811168
:101BB00016C0F80100851185ECCF1130C1F013304B
:101BC00091F48F89882309F455C08230E9F440E804
:101BD0006FE08FEE91E00E94D715882321F08EEF01
:101BE0008093E80087C081E28093EB0083C08B8DF7
:101BF0009C8D089711F410939402809194028111A6
:101C000036C06FEF71E038C0813029F440E86BE0F6
:101C100083EE91E0E0CF833031F70E94C315DC0101
:101C20001296ED90FC9013978E010F5F1F4F680185
:101C3000E114F10479F0D701ED91FC910680F78170
:101C4000E02DB801C7010995080F111DF701E084C7
:101C5000F184EECFD8011C92F60101900020E9F743
:101C60003197BF016C197D0940E0C601B4CF61E135
:101C700072E002C06FED71E06115710509F4B3CF38
:101C8000FB01449150E080E833CF0FB6F894A8955B
:101C900080916000886180936000109260000FBEA8
:101CA000A895EE3F2AE0F20739F08091FE0A909164
:101CB000FF0A9183808393CF1092FF0A1092FE0A4D
:101CC0008ECFEE3F8AE0F80731F0808191819093CA
:101CD000FF0A8093FE0A87E797E7918380839BE062
:101CE00088E10FB6F894A895809360000FBE90939A
:101CF000600075CF6C960FB6F894DEBF0FBECDBFF7
:101D0000DF91CF91FF91EF91BF91AF919F918F9113
:101D10007F916F915F914F913F912F911F910F9103
:101D2000FF90EF90DF90CF900F900FBE0F901F901D
:101D300018951F920F920FB60F9211242F933F9375
:101D40004F935F936F937F938F939F93AF93BF93C3
:101D5000EF93FF938FEB93E00E941B0AFF91EF91AB
:101D6000BF91AF919F918F917F916F915F914F91B3
:101D70003F912F910F900FBE0F901F9018951F92BB
:101D80000F920FB60F9211242F938F939F93EF937F
:101D9000FF93E091CF03F091D0038081E091D503D0
:101DA000F091D60382FD12C090818091D8038F5F9D
:101DB0008F732091D903821751F0E091D803F0E09E
:101DC000E154FC4F958F8093D80301C08081FF912F
:101DD000EF919F918F912F910F900FBE0F901F90B9
:101DE0001895CF93DF93282F30E0F901E258FE4F8A
:101DF0008491F901E15AFE4FD491F901E05CFE4F64
:101E0000C491CC2391F081110E946E10EC2FF0E070
:101E1000EE0FFF1FEE5CFE4FA591B491EC91ED2308
:101E200081E090E021F480E002C080E090E0DF916A
:101E3000CF9108951F93CF93DF93282F30E0F901BE
:101E4000E258FE4F8491F901E15AFE4FD491F90115
:101E5000E05CFE4FC491CC23C9F0162F81110E9483
:101E60006E10EC2FF0E0EE0FFF1FEC5DFE4FA59122
:101E7000B4918FB7F894111105C09C91ED2FE095A6
:101E8000E92302C0EC91ED2BEC938FBFDF91CF9152
:101E90001F9108953FB7F89480916E0390916F035E
:101EA000A0917003B091710326B5A89B05C02F3F88
:101EB00019F00196A11DB11D3FBFBA2FA92F982F70
:101EC0008827820F911DA11DB11DBC01CD0142E0EB
:101ED000660F771F881F991F4A95D1F7089585EDE2
:101EE0008093BC008091BC0084FDFCCF10929A03CB
:101EF000089540914603262F30E0240F311D2132F2
:101F00003105DCF420919A032430C9F4FC0180E00F
:101F100090E0861758F4309146032191DC01AC5DC6
:101F2000BC4FA30FB11D2C930196F3CF80914603B4
:101F3000680F6093460380E0089581E0089582E091
:101F400008950895E091220380912103E81730F469
:101F5000F0E0EF5FFC4F808190E008958FEF9FEFFE
:101F600008959091220380912103981750F4E92F4E
:101F7000F0E0EF5FFC4F208130E09F5F9093220301
:101F800002C02FEF3FEFC90108958091210390E037
:101F900020912203821B91090895CF92DF92EF9244
:101FA000FF920F931F93CF93DF937C01262F972FE0
:101FB0008A0180919B03882391F0C62FD72F6E0151
:101FC000C40ED51ECC15DD0571F06991D701ED91D8
:101FD000FC910190F081E02DC7010995F3CF642FAA
:101FE000822F0E94790FC801DF91CF911F910F912D
:101FF000FF90EF90DF90CF900895CF93DF931F92E3
:10200000CDB7DEB7698320919B032223D1F02091C5
:10201000BE03203240F021E030E0FC013383228314
:1020200080E090E015C080919C03E82FF0E0E3563B
:10203000FC4F998190838F5F80939C038093BE03B4
:1020400005C061E0CE0101960E94790F81E090E029
:102050000F90DF91CF9108950F931F93CF93DF934C
:1020600081E0809300038091FF02882329F0109281
:10207000FF028FEF80930C01CDE9D2E0ABEFB2E02D
:10208000E1EAF2E084E08E0F119219921D928E1314
:10209000FBCF0DED12E0C0E0DFEF8EEE8C0F8C3049
:1020A00018F462E070E002C061E070E08C2F0E94E2
:1020B0001004F801D1938F01CF5FCE3171F71092E8
:1020C000D2021092D1021092DC021092DB02109226
:1020D0000003DF91CF911F910F91089590E0FC01D3
:1020E0003197EF30F105B0F5ED57FF4F0C94491BD8
:1020F000809180008F7703C0809180008F7D8093D6
:102100008000089580918000877FF9CF84B58F7714
:1021100002C084B58F7D84BD0895809190008F7733
:1021200007C0809190008F7D03C080919000877FD1
:102130008093900008958091C0008F7703C08091B4
:10214000C0008F7D8093C00008958091C200877F7A
:102150008093C2000895CF93DF9390E0FC01E15A91
:10216000FE4F2491FC01E05CFE4F8491882361F1D5
:1021700090E0880F991FFC01E15DFD4FC591D4915E
:10218000FC01EC5DFE4FA591B491611109C09FB7B0
:10219000F8948881209582238883EC912E230BC0AC
:1021A000623061F49FB7F8943881822F8095832341
:1021B0008883EC912E2B2C939FBF06C08FB7F89489
:1021C000E8812E2B28838FBFDF91CF910895823134
:1021D00008F08251E82FF0E0ED5DFD4FE491809131
:1021E0007B00E3FB222720F930E095E0220F331F2C
:1021F0009A95E1F78F7D282B20937B00E770E064B0
:10220000E0937C0080917A00806480937A008091D2
:102210007A0086FDFCCF809178002091790090E0D3
:10222000922B08958F929F92AF92BF92CF92DF929E
:10223000EF92FF926B017C010E944A0F4B015C01FF
:10224000C114D104E104F104F1F00E944A0FDC0151
:10225000CB0188199909AA09BB09883E9340A105B9
:10226000B10570F321E0C21AD108E108F10888EE47
:10227000880E83E0981EA11CB11CC114D104E10496
:10228000F10419F7DDCFFF90EF90DF90CF90BF9072
:10229000AF909F908F9008951F920F920FB60F925C
:1022A00011242F933F938F939F93AF93BF9380916C
:1022B000A5029091A602A091A702B091A802309128
:1022C0006D0323E0230F2D3720F40196A11DB11DCE
:1022D00005C026E8230F0296A11DB11D20936D03B2
:1022E0008093A5029093A602A093A702B093A802A0
:1022F00080916E0390916F03A0917003B091710370
:102300000196A11DB11D80936E0390936F03A0935E
:102310007003B0937103BF91AF919F918F913F91E3
:102320002F910F900FBE0F901F9018951F920F9234
:102330000FB60F9211240F900FBE0F901F9018959B
:10234000FC01158216821782DC011896885B9F4F6C
:102350001D92A817B907E1F71C92DF01A75BBF4FD9
:102360001D921C92EF54FF4F0190F081E02D3097A9
:1023700009F0099408951F920F920FB60F9211243D
:102380002F933F934F935F936F937F938F939F937D
:10239000AF93BF93EF93FF938091B900887F80360E
:1023A00009F49CC068F5883209F45BC090F4803170
:1023B00009F454C038F4882309F4F6C0883009F4CD
:1023C0004DC0F6C0883109F44CC0803209F45DC0BC
:1023D000EFC0803409F468C048F4803309F455C074
:1023E000883309F0E5C080939803D8C0803509F49C
:1023F0004FC0883509F45DC0883409F0D9C0D6C013
:10240000883909F4C7C0A8F4883709F467C038F4DC
:10241000883609F463C0803709F460C0C9C08838C1
:1024200009F4B8C0803909F45FC0803809F0C0C031
:102430005BC0803B09F486C038F4803A09F466C07A
:10244000883A09F47FC0B4C0803C09F4A7C0883C36
:1024500009F4A4C0883B09F48AC0AAC0809175031E
:1024600010C09091970380919603981770F5E091B2
:10247000970381E08E0F80939703F0E0EA58FC4FBA
:1024800080818093BB0085EC86C0809398038EC0CA
:10249000E091970381E08E0F809397038091BB00BA
:1024A000F0E0EA58FC4F8083909197038091960367
:1024B0006EC0E091970381E08E0F80939703809127
:1024C000BB00F0E0EA58FC4F8083809199038111B2
:1024D0006DC081E08093740384EA61C083E08093DF
:1024E0009A0310926A03CFCF80916A03803208F07A
:1024F00051C0E0916A0381E08E0F80936A0380915E
:10250000BB00F0E0E65BFC4F8083BDCF85EC8093A1
:10251000BC0010929A0380916A03803230F4E091FB
:102520006A03F0E0E65BFC4F108260916A0370E0A2
:10253000E0914803F09149038AE493E009951092F1
:102540006A0336C084E080939A0310924703109286
:102550004603E0914403F0914503099580914603B9
:10256000811105C081E08093460310922403E0911D
:10257000470381E08E0F80934703F0E0EC5DFC4F52
:1025800080818093BB009091470380914603981708
:1025900008F479CF85E88093BC000AC085EC80936D
:1025A000BC0010929A0304C0109298030E946F0F0F
:1025B000FF91EF91BF91AF919F918F917F916F911B
:1025C0005F914F913F912F910F900FBE0F901F90F1
:1025D0001895DF92EF92FF920F931F93CF93DF93A3
:1025E000EC01D62E7A01890188818C3008F06AC00E
:1025F00061E08D2D0E94AB108881E82FF0E09F01F3
:10260000220F331FE20FF31FE059FA4F9D2D9F73E6
:102610002081207CD22ED92AD08260E272E0AB01E8
:102620004E195F0957FF02C04D5F5F4F55954795A3
:1026300055954795498340E659E09A01201B310B97
:1026400037FF02C02D5F3F4F35952795359527956C
:102650002A836CE00E943D1B9CE0899FB0011124FD
:1026600040E050E09A01260F371FF901EE0FFF1FDF
:102670002E0F3F1FF901E059FA4F908196FD16C0C9
:102680004F5F5F4F4C30510569F781110FC01092B9
:10269000800082E080938100109285001092840077
:1026A000B19A80916F00826080936F00E881F0E0C2
:1026B000CF01880F991FE80FF91FE059FA4F808169
:1026C000806480838881DF91CF911F910F91FF906B
:1026D000EF90DF9008951F920F920FB60F92112482
:1026E0002F933F934F935F936F937F938F939F931A
:1026F000AF93BF93EF93FF938091230387FF05C0B0
:1027000010928500109284001BC020912303022E9A
:10271000000C330B8091940590E02817390784F45E
:1027200080912303082E000C990BFC01EE0FFF1F74
:102730008E0F9F1FFC01E059FA4F808186FD15C066
:10274000809123038F5F8093230320912303022E24
:10275000000C330B8091940590E028173907C4F4DE
:10276000809123038C3064F113C080912303082EE1
:10277000000C990BFC01EE0FFF1F8E0F9F1FFC0139
:10278000E059FA4F808160E08F730E941A0FD8CF12
:102790008091840090918500049680349C4918F4BF
:1027A00080E49CE905C080918400909185000496A6
:1027B00090938900809388008FEF809323033BC020
:1027C000209184003091850080912303082E000C15
:1027D000990BFC01EE0FFF1F8E0F9F1FFC01E059AC
:1027E000FA4F81819281820F931F90938900809389
:1027F000880080912303082E000C990BFC01EE0F3A
:10280000FF1F8E0F9F1FFC01E059FA4F808186FF4A
:1028100012C080912303082E000C990BFC01EE0FCF
:10282000FF1F8E0F9F1FFC01E059FA4F808161E06E
:102830008F730E941A0FFF91EF91BF91AF919F91FB
:102840008F917F916F915F914F913F912F910F9059
:102850000FBE0F901F9018950F931F93CF93DF9388
:10286000EC010CEA14E0D8018D919C91DC01ED9112
:10287000FC916C2F6F770190F081E02D0995F801A4
:1028800080819181DC01ED91FC91CC0FCD2FCC1F8B
:10289000DD0B6C2F6F770190F081E02DDF91CF91F0
:1028A0001F910F9109948091AC049091AD04DC01CB
:1028B000ED91FC910190F081E02D67EF09948091FA
:1028C000AC049091AD04DC01ED91FC910190F0819C
:1028D000E02D60EF0994CF93DF93EB01A091AC045E
:1028E000B091AD04ED91FC9111978F70682F606EDF
:1028F0000190F081E02DCD010995CE01DF91CF91BE
:102900000C942C14EF92FF920F931F93CF93DF93AD
:1029100000D01F92CDB7DEB7162F4A835B83898321
:102920000E945F14A091AC04B091AD04ED91FC91B4
:1029300011970190F081E02D8981682FCD010995D3
:102940004A81042FE42E5B81F52E8E2D801B81178A
:1029500038F4F70181917F0190E00E942C14F5CFAB
:102960000F900F900F90DF91CF911F910F91FF90DB
:10297000EF900C945314FC0101900020E9F731977B
:10298000BF01681B790BAC0181E70C948214CF93D3
:102990000E945F148091AC049091AD04DC01ED9134
:1029A000FC910190F081E02D69E709958091AC04DC
:1029B0009091AD04DC01ED91FC91A091AF04B09138
:1029C000B0040190F081E02D6C9109958091AC04E8
:1029D0009091AD04DC01ED91FC91A091AF04B09118
:1029E000B0040190F081E02D11966C910995C2E040
:1029F0008091AE04C81760F4E091AF04F091B00488
:102A0000EC0FF11D808190E00E942C14CF5FF0CF7D
:102A1000CF910C945314CF93DF93CCEAD4E0888108
:102A20009981DC01ED91FC910190F081E02D69EF3D
:102A3000099588819981DC01ED91FC910190F081EB
:102A4000E02D62E0099588819981DC01ED91FC918E
:102A50000190F081E02D65E0DF91CF910994A09184
:102A6000AC04B091AD04ED91FC9111970190F0810F
:102A7000E02D682FCD010994382F2091BE0390914D
:102A8000BD03213208F049C080919A038111FCCF27
:102A900042E040939A03309399033FEF30939803B9
:102AA0001092970320939603ADE9B3E046E753E015
:102AB000FA013E2F341B321718F43D913193F9CFB0
:102AC0001092750320917503990F922B90937503C3
:102AD00090917403913061F4109274039091750396
:102AE0009093BB009091BC0093FDF8CF95EC01C092
:102AF00095EE9093BC0090919A039230E1F39091FF
:102B000098039F3F79F080919803803241F0809143
:102B10009803803331F084E005C081E003C082E097
:102B200001C083E010929C031092BE0310929B039D
:102B30000895FC0180917303811103C08FEF9FEF13
:102B400008959FB7F89482E08093E9002091F20005
:102B500030E01216130614F421E030E0211531059F
:102B600059F0289884E6809372038091F100808365
:102B70008091F200882319F09FBFC90108958BE668
:102B80008093E800F9CF8091BD0581110DC082E0EE
:102B90008093B90584E08093BA051092BC05109229
:102BA000BB0581E08093BD0589EB95E00895CF9248
:102BB000DF92EF92FF920F931F93CF93DF931F92B9
:102BC000CDB7DEB7182F062FE42E862F880F8E5F25
:102BD00099830E94560983E00E945609F12EC12E66
:102BE0009981D92E8C2D8F19801798F4F601E7FE64
:102BF00002C0849101C080810E945609182F80E094
:102C00000E9456098123FFEFCF1ADF0A8111EACF14
:102C100001C081E00F90DF91CF911F910F91FF9044
:102C2000EF90DF90CF900895789484B5826084BD52
:102C300084B5816084BD85B5826085BD85B58160C0
:102C400085BD80916E00816080936E00109281003E
:102C500080918100826080938100809181008160F9
:102C600080938100809180008160809380008091BA
:102C700091008260809391008091910081608093A7
:102C80009100809190008160809390008091C100BC
:102C900084608093C1008091C10082608093C100F4
:102CA0008091C10081608093C1008091C3008160E8
:102CB0008093C3008091C00082608093C0008091A7
:102CC000C20081608093C20080917A00846080930A
:102CD0007A0080917A00826080937A0080917A00F5
:102CE000816080937A0080917A00806880937A0076
:102CF0001092730310929C0210929B028091D70055
:102D000081608093D70080EA8093D80089B5806184
:102D100089BD89B5826089BD09B400FEFDCF61E03F
:102D200070E080E090E00E9412118091D8008F7CCA
:102D300080618093D8008091E000807F8093E000E4
:102D40008091E1008E7E8093E1008DE08093E2002F
:102D5000559A209AEEEFFFE7859194918B3F9C4D19
:102D600019F481E080939A0285E18093AE0480910A
:102D7000AF049091B0040E94E41BC091AE04D0E077
:102D8000CE0101960E944F1B9093B0048093AF0434
:102D9000FC01EC0FFD1F108222E0DC012C9325E0EA
:102DA00011962C93AE014250510962E372E00296F3
:102DB0000E947C1C8FE692E090935205809351050F
:102DC00085EC91E0909354058093530580E991E060
:102DD000909356058093550588EB95E090935805A0
:102DE0008093570580E194E090935A0580935905AC
:102DF0008DE791E090935C0580935B058FEE96E004
:102E000090936205809361058CE290E190935E055A
:102E100080935D058FEF9FEF909369048093680422
:102E20008CE594E09093AD048093AC0480916305AD
:102E3000811150C061E08DE00E94AB1062ED70E046
:102E400080E090E00E94121161E08DE00E941A0F74
:102E500068E270E080E090E00E94121160E08DE096
:102E60000E941A0F62ED70E080E090E00E94121163
:102E700061E08DE00E941A0F68E270E080E090E06F
:102E80000E94121160E08DE00E941A0F6AEF70E05C
:102E900080E090E00E941211C0E062ED70E080E0FE
:102EA00090E00E94121161E08DE00E941A0F68E22A
:102EB00070E080E090E00E94121160E08DE00E94DE
:102EC0001A0FCF5FC53049F76DE770E080E090E002
:102ED0000E9412110E940B158091AE0481110E9474
:102EE000C714C0910B016AE070E080E090E00E949E
:102EF0001211CC23B1F30E942C1015E0BB24B39423
:102F000002E08091A102882309F448C0F0909D025C
:102F1000F0FED4C280E00E94F10E892B09F4CEC2EB
:102F2000C1E0F1FE06C081E00E94F10E892B09F09C
:102F3000C7C2F2FE06C082E00E94F10E892B09F0A2
:102F4000C1C2F3FE06C083E00E94F10E892B09F096
:102F5000BBC2F4FE06C084E00E94F10E892B09F08A
:102F6000B5C2F5FE06C085E00E94F10E892B09F07E
:102F7000AFC2F6FE06C086E00E94F10E892B09F072
:102F8000A9C2F7FE06C087E00E94F10E892B09F066
:102F9000A3C240E06C2F80E00E9473058091A202E2
:102FA000882309F448C0F0909E02F0FE97C288E0A2
:102FB0000E94F10E892B09F491C2C1E0F1FE06C016
:102FC00089E00E94F10E892B09F08AC2F2FE06C048
:102FD0008AE00E94F10E892B09F084C2F3FE06C03C
:102FE0008BE00E94F10E892B09F07EC2F4FE06C030
:102FF0008CE00E94F10E892B09F078C2F5FE06C024
:103000008DE00E94F10E892B09F072C2F6FE06C017
:103010008EE00E94F10E892B09F06CC2F7FE06C00B
:103020008FE00E94F10E892B09F066C240E06C2F00
:1030300081E00E9473058091A302882309F448C0AF
:10304000F0909F02F0FE5AC280E10E94F10E892B9F
:1030500009F454C2C1E0F1FE06C081E10E94F10E04
:10306000892B09F04DC2F2FE06C082E10E94F10EEA
:10307000892B09F047C2F3FE06C083E10E94F10EDE
:10308000892B09F041C2F4FE06C084E10E94F10ED2
:10309000892B09F03BC2F5FE06C085E10E94F10EC6
:1030A000892B09F035C2F6FE06C086E10E94F10EBA
:1030B000892B09F02FC2F7FE06C087E10E94F10EAE
:1030C000892B09F029C240E06C2F82E00E94730531
:1030D0008091A402882309F448C0F090A002F0FE79
:1030E0001DC288E10E94F10E892B09F417C2C1E0CC
:1030F000F1FE06C089E10E94F10E892B09F010C291
:10310000F2FE06C08AE10E94F10E892B09F00AC284
:10311000F3FE06C08BE10E94F10E892B09F004C278
:10312000F4FE06C08CE10E94F10E892B09F0FEC16D
:10313000F5FE06C08DE10E94F10E892B09F0F8C161
:1031400040E06C2F83E00E9473050FC08091AC04B7
:103150009091AD04EC01E881F9810680F781E02DC2
:1031600009958F3FDFEF9D0771F48091AC0490913A
:10317000AD04DC01ED91FC910480F581E02D099511
:10318000892B21F71EC1382F2091F404222309F442
:1031900067C0873F09F055C01092F4048091B404D1
:1031A000813751F0893709F03EC08091AE04882301
:1031B000E1F20E94C714D9CFE0915F05F09160055C
:1031C000309799F22091F5043091F604C9010197E6
:1031D00097FDC90195958795F82EA4EBB4E040E0E2
:1031E00050E030E04E5F5F4F3F1570F4BA01645518
:1031F0007B4FEB012F812C936885D0E86D9F2019C0
:1032000011242D933F5FEECF9927DC01A455BB4FCE
:1032100017968C911797882311F018961C9284EBBF
:1032200094E00995A2CFE0916105F0916205309795
:1032300009F49BCF6091F504615045EB54E009958A
:1032400094CF2091F5043091F604F901E455FB4F39
:1032500080872F5F3F4F3093F6042093F50485CF8E
:103260002091B104222309F469C087FD67C09FEF54
:10327000920F9093B104E92FF0E0E455FB4F808763
:10328000911173CF8091B204882309F46ECF803DF1
:1032900009F445C050F4803901F1803C09F04BC07D
:1032A000E0915505F09156053EC0843F39F1853FC8
:1032B00051F1803E09F03FC0E0915105F091520577
:1032C0003097C9F18091B4046091B50470E020E8B2
:1032D000829F600D711D11242BC0E0915305F09168
:1032E0005405309741F18091B4046091B50470E0C9
:1032F00090E8899F600D711D11241AC0E091590555
:10330000F0915A0504C0E0915B05F0915C0530979F
:1033100091F06091B40470E08091B5040BC0E0912D
:103320005705F0915805309731F06091B40470E082
:103330008091B30409951092B20417CF303F38F44E
:10334000282F207F30E08F708093B30402C09C014F
:103350003327203F310559F17CF4203C310511F130
:1033600024F420393105D9F000CF203D3105D1F0CA
:10337000203E3105A1F0F9CE293F3105F9F034F4B2
:10338000C901845F9109029750F0EFCE2F3F3105BC
:1033900009F0EBCE8CEA94E00E94A011E6CE0093F7
:1033A000B10402C0B092B1042093B204DECEB09258
:1033B000F4041092F6041092F504D7CE0E940B1577
:1033C000D4CE8FB7F894C090A502D090A602E0901A
:1033D000A702F090A8028FBFC092D702D092D80265
:1033E000E092D902F092DA028091D3029091D40255
:1033F000A091D502B091D60240910D0150910E01DD
:1034000060E070E0C81AD90AEA0AFB0A4C155D05AB
:103410006E057F0508F04FC0840F951FA61FB71FCC
:103420008093D3029093D402A093D502B093D60296
:1034300087EFE82E84E0F82ECEEECC30B8F4F7011A
:103440008081823099F48091D1029091D2020C2E29
:1034500002C0959587950A94E2F780FF07C08C2FEC
:103460000E94E710BC018C2F0E946B14CF5FFFEF0E
:10347000EF1AFF0ACC3009F780910C0187FD1BC0C1
:10348000C0E02C2F30E080910C01082E000C990B2D
:103490008217930784F0129FF001139FF00D1124FF
:1034A000E755FD4F618172812481438180810E94B3
:1034B0003406CF5FE6CF0E94A50A23CDC0E031CD10
:1034C000C26037CDC4603DCDC86043CDC06149CD39
:1034D000C0624FCDC06455CDC0685BCDC0E06ECD3D
:1034E000C26074CDC4607ACDC86080CDC06186CD25
:1034F000C0628CCDC06492CDC06898CDC0E0ABCD29
:10350000C260B1CDC460B7CDC860BDCDC061C3CD10
:10351000C062C9CDC064CFCDC068D5CDC0E0E8CD14
:10352000C260EECDC460F4CDC860FACDC06100CEFB
:10353000C06206CECF92DF92EF92FF921092C2034A
:103540001092C10378EEC72E73E0D72EE12CF12C38
:10355000C092C303D092C403E092C503F092C603A5
:1035600084E291E09093C0038093BF038DEC90E0E0
:103570009093CC038093CB038CEC90E09093CE039C
:103580008093CD0388EC90E09093D0038093CF0399
:1035900089EC90E09093D2038093D1038AEC90E081
:1035A0009093D4038093D3038EEC90E09093D60352
:1035B0008093D5031092D8031092D9031092DA03A6
:1035C0001092DB0310925F0410925E04C0926004BC
:1035D000D0926104E0926204F092630484E391E08B
:1035E00090935D0480935C048FEF9FEF9093690448
:1035F000809368041092AE041092B0041092AF044D
:10360000109263058CEA94E00E94A0111092670565
:1036100010926605C0926805D0926905E0926A052D
:10362000F0926B0584E491E09093650580936405C6
:1036300080919405A5E9B5E09FEF48EB5BE08C3005
:1036400078F48C93282F30E0F901EE0FFF1F2E0F36
:103650003F1FF901E059FA4F528341838F5F01C048
:103660009C93139625E0A93BB20749F780939405F4
:10367000FF90EF90DF90CF900895991B79E004C000
:10368000991F961708F0961B881F7A95C9F78095A1
:103690000895EE0FFF1F0590F491E02D0994CF934C
:1036A000DF938230910510F482E090E0E091C7054D
:1036B000F091C80520E030E0C0E0D0E0309711F193
:1036C0004081518148175907C0F04817590761F4E4
:1036D00082819381209719F09B838A832BC09093DA
:1036E000C8058093C70526C02115310519F042177A
:1036F000530718F49A01BE01DF01EF010280F38144
:10370000E02DDCCF2115310509F1281B390B2430C0
:10371000310590F412968D919C9113976115710566
:1037200021F0FB019383828304C09093C8058093AA
:10373000C705FD01329644C0FD01E20FF31F8193DE
:103740009193225031092D933C933AC02091C505A5
:103750003091C605232B41F42091110130911201C3
:103760003093C6052093C50520910F0130911001BB
:103770002115310541F42DB73EB740911301509109
:103780001401241B350BE091C505F091C605E21725
:10379000F307A0F42E1B3F0B2817390778F0AC0174
:1037A0004E5F5F4F2417350748F04E0F5F1F509351
:1037B000C6054093C5058193919302C0E0E0F0E017
:1037C000CF01DF91CF9108950F931F93CF93DF9394
:1037D000009709F48CC0FC01329713821282009189
:1037E000C7051091C8050115110581F420813181AB
:1037F000820F931F2091C5053091C6052817390700
:1038000079F5F093C605E093C50571C0D80140E095
:1038100050E0AE17BF0750F412962D913C911397CC
:10382000AD012115310509F1D901F3CF9D01DA016F
:103830003383228360817181860F971F82179307DC
:1038400069F4EC0128813981260F371F2E5F3F4F25
:10385000318320838A819B8193838283452B29F442
:10386000F093C805E093C70542C01396FC93EE930E
:103870001297ED01499159919E01240F351FE217CE
:10388000F30771F480819181840F951F0296119640
:103890009C938E938281938113969C938E9312971F
:1038A000E0E0F0E0D80112968D919C91139700977B
:1038B00019F0F8018C01F6CF8D919C9198012E5F43
:1038C0003F4F820F931F2091C5053091C6052817E1
:1038D000390769F4309729F41092C8051092C7058A
:1038E00002C0138212821093C6050093C505DF91B2
:1038F000CF911F910F910895FB01DC014150504081
:1039000048F001900D920020C9F701C01D9241506E
:103910005040E0F70895052E97FB1EF400940E9496
:10392000A21C57FD07D00E94BD1C07FC03D04EF41B
:103930000C94A21C50954095309521953F4F4F4FC8
:103940005F4F089590958095709561957F4F8F4F4B
:103950009F4F08950E94DF1CA59F900DB49F900D6E
:10396000A49F800D911D11240895B7FF0C94AA1CEB
:103970000E94AA1C821B930B0895A1E21A2EAA1B77
:10398000BB1BFD010DC0AA1FBB1FEE1FFF1FA2170F
:10399000B307E407F50720F0A21BB30BE40BF50B0C
:1039A000661F771F881F991F1A9469F76095709595
:1039B000809590959B01AC01BD01CF010895A29F18
:1039C000B001B39FC001A39F700D811D1124911DF3
:1039D000B29F700D811D1124911D0895F894FFCFA1
:1039E000FFFFFFFF00E1000000000000FF130000E8
:1039F00000C90580000100000000C18081000000B6
:103A0000000000003C0AB809050AE309F709830A27
:103A100000000000AF0A1C0BD00AA80BC60BC50A99
:103A200000000000FD0FCD0FC50FB10FA20FA10FB9
:103A30004D617820736572766F7320617474616371
:103A400068656400556E6B6E6F776E2070696E20CE
:103A50006D6F6465004932433A20546F6F206D6189
:103A60006E79206279746573207265636569766525
:103A700064004932433A20546F6F206665772062B4
:103A800079746573207265636569766564003130A9
:103A90002D6269742061646472657373696E672056
:103AA0006E6F7420737570706F7274656400746FDC
:103AB0006F206D616E792071756572696573002F75
:103AC0004170706C69636174696F6E732F417264C9
:103AD00075696E6F2E6170702F436F6E74656E74B2
:103AE000732F4A6176612F6C6962726172696573C6
:103AF0002F4669726D6174612F6578616D706C65B8
:103B0000732F5374616E646172644669726D61747F
:103B1000612F5374616E646172644669726D617481
:063B2000612E696E6F00CA
:00000001FF
