:100000000C944C050C9474050C9474050C947405B4
:100010000C9474050C9474050C9474050C9474057C
:100020000C9474050C9474050C9470160C943C1587
:100030000C9474050C9474050C9474050C9474055C
:100040000C9474050C940D0F0C9474050C947405A9
:100050000C9474050C9474050C9474050C94BE10E7
:100060000C9474050C9474050C9474050C9474052C
:100070000C9474050C9474050C9474050C9474051C
:100080000C94800F0C9474050C9474050C947405F6
:100090000C9474050C9474050C9474050C947405FC
:1000A0000C9474050C9474050C947405CF11D41140
:1000B000D911E311ED11371237123712F71101126E
:1000C0000B121512221237122A1258125B124A1200
:1000D0004E1254127C127C127C125F126312671251
:1000E0006D1271127C12771200000000011F1703BD
:1000F00001030F08000000000000000000000000E5
:10010000010F0B0101031F100000000000000000A0
:1001100000000000011F170301031F100000000072
:100120000000000000000000000000000000FEFFD2
:10013000FBFFFFBFBFBF3F3E7EF8F0E0E0F0F8FC02
:10014000FEFFFFFFFF7F040C000000000000010322
:100150000303030303030303010000000000000086
:10016000000000000000000000000000000000008F
:1001700000000000000000000000000000007EF809
:10018000F0E0E0F0F0F8F8F8F8F0F0F0E0E0C0C0EF
:1001900080C0F0A8D8A8F8F8F8F8F8F0000001033B
:1001A0000303030303030303030303030303030121
:1001B000030303030303030303011C22222224106D
:1001C000122A21414141424A24241800000000FE25
:1001D000FFFFFE00C0C080FEFFFE00FFFFFFFFC06C
:1001E000FFFF7F01030383FFFFFFFF80000000F09C
:1001F000F89C8E8783878E9CF8F00000FEFF030337
:10020000030303070EFCF80000FEFF0303030303D0
:10021000070EFCF80000FFFF00000000000000FFD8
:10022000FF0000FEFF8383838383C7EE7C380000DA
:10023000F8FC0E07030303070EFCF800003F7FE005
:10024000C08080C0E07F3FFFFF010101010101018B
:10025000FFFF0000FFFF0C0C0C0C1C3E77E3C100FD
:10026000007FFFC0C0C0C0C0E0703F1F00001F3F44
:1002700070E0C0C0C0E0703F1F00007FFFC1C1C17F
:10028000C1C1E3773E1C00001F3F70E0C0C0C0E06A
:10029000703F1F000000000001FFFF010000000090
:1002A000000000003E5B4F5B3E3E6B4F6B3E1C3ED2
:1002B0007C3E1C183C7E3C181C577D571C1C5E7FE6
:1002C0005E1C00183C1800FFE7C3E7FF0018241865
:1002D00000FFE7DBE7FF30483A060E26297929269A
:1002E000407F050507407F05253F5A3CE73C5A7F84
:1002F0003E1C1C08081C1C3E7F14227F22145F5FDA
:10030000005F5F06097F017F006689956A60606013
:10031000606094A2FFA29408047E040810207E204E
:100320001008082A1C08081C2A08081E10101010A3
:100330000C1E0C1E0C30383E3830060E3E0E0600E9
:100340000000000000005F00000007000700147FAD
:10035000147F14242A7F2A12231308646236495614
:1003600020500008070300001C2241000041221C0D
:10037000002A1C7F1C2A08083E08080080703000F4
:100380000808080808000060600020100804023E09
:100390005149453E00427F4000724949494621414A
:1003A000494D331814127F1027454545393C4A49B9
:1003B00049314121110907364949493646494929F8
:1003C0001E00001400000040340000000814224108
:1003D0001414141414004122140802015909063E91
:1003E000415D594E7C1211127C7F494949363E418C
:1003F0004141227F4141413E7F494949417F0909AD
:1004000009013E414151737F0808087F00417F4147
:10041000002040413F017F081422417F404040407E
:100420007F021C027F7F0408107F3E4141413E7FD6
:10043000090909063E4151215E7F091929462649CD
:1004400049493203017F01033F4040403F1F2040A4
:10045000201F3F4038403F631408146303047804AE
:10046000036159494D43007F414141020408102076
:10047000004141417F0402010204404040404000ED
:100480000307080020545478407F284444383844F7
:10049000444428384444287F385454541800087E73
:1004A000090218A4A49C787F0804047800447D40C5
:1004B000002040403D007F1028440000417F400064
:1004C0007C047804787C080404783844444438FC7C
:1004D0001824241818242418FC7C08040408485400
:1004E00054542404043F44243C4040207C1C2040BD
:1004F000201C3C4030403C44281028444C909090B4
:100500007C4464544C4400083641000000770000ED
:10051000004136080002010204023C2623263C1E4C
:10052000A1A161123A4040207A38545455592155BE
:1005300055794121545478412155547840205455DF
:1005400079400C1E5272123955555559395454542C
:100550005939555454580000457C410002457D42AC
:100560000001457C40F0292429F0F0282528F07C62
:10057000545545002054547C547C0A097F49324923
:100580004949323248484832324A4848303A414173
:10059000217A3A42402078009DA0A07D394444440D
:1005A000393D4040403D3C24FF2424487E49436679
:1005B0002B2FFC2F2BFF0929F620C0887E09032052
:1005C000545479410000447D413048484A32384013
:1005D00040227A007A0A0A727D0D19317D26292976
:1005E0002F28262929292630484D40203808080878
:1005F0000808080808382F10C8ACBA2F102834FA99
:1006000000007B000008142A142222142A140895E2
:1006100000220095AA005500AAAA55AA55AA0000D2
:1006200000FF00101010FF00141414FF001010FF42
:1006300000FF1010F010F0141414FC001414F70054
:10064000FF0000FF00FF1414F404FC141417101F23
:1006500010101F101F1414141F00101010F00000B1
:1006600000001F101010101F10101010F0100000CC
:1006700000FF101010101010101010FF10000000DC
:10068000FF140000FF00FF00001F10170000FC0413
:10069000F414141710171414F404F40000FF00F7F6
:1006A00014141414141414F700F714141417141059
:1006B000101F101F141414F4141010F010F0000088
:1006C0001F101F0000001F14000000FC140000F0A9
:1006D00010F01010FF10FF141414FF141010101F4E
:1006E00000000000F010FFFFFFFFFFF0F0F0F0F05F
:1006F000FFFFFF0000000000FFFF0F0F0F0F0F387C
:10070000444438447C2A2A3E147E02020606027EB5
:10071000027E0263554941633844443C04407E20D4
:100720001E2006027E020299A5E7A5991C2A492AE5
:100730001C4C7201724C304A4D4D30304878483074
:10074000BC625A463D3E494949007E0101017E2A6C
:100750002A2A2A2A44445F444440514A444040449F
:100760004A51400000FF0103E080FF000008086BD1
:100770006B083612362436060F090F0600001818CB
:100780000000001010003040FF0101001F01011E99
:1007900000191D1712003C3C3C3C00000000000604
:1007A000011501260137014A015D01720188019F8F
:1007B00001B801D201EE010B022A024B026E029334
:1007C00002BA02E40210033F037003A403DC031720
:1007D0000455049704DD0427057505C80520067D2A
:1007E00006E0064907B8072D08A9082D09B9094DE3
:1007F0000AEA0A900B400CFA0CC00D910E6F0F5ACA
:100800001053115B1272139A14D41520178018F527
:1008100019801B231DDE1EB420A622B524E4263435
:1008200029A72B402E0031EA330037453ABC3D68FA
:10083000414C456B49C84D68524F57805C0062106F
:10084000111213151617181A1C1D1F2123252729ED
:100850002C2E3134373A3E4145494E52575C62683E
:100860006E757B838B939CA5AFB9C4D0DCE9F7038D
:1008700001D5F08D14A1C881CFD9F1AF20001402A9
:100880001302120215020702080204010C010601FC
:10089000000000000200090F0000030401000C002A
:1008A0000000000000000000000000000000000444
:1008B000080201104080401020408040800802045F
:1008C00001804020100201108010204040040404E8
:1008D00004040304050202020204030202020206E7
:1008E00006060606060404020202040000000025B3
:1008F0000028002B002E00310000000000240027FB
:10090000002A002D00300000C18081C112010002C8
:100910000200004041233680000101020001120163
:100920000002000000404123368000010102000166
:1009300041726475696E6F204C4C4300417264755E
:10094000696E6F204C656F6E6172646F00040309FD
:1009500004080B0002020201000904000001020267
:1009600000000524001001052401010104240206F1
:100970000524060001070581031000400904010059
:10098000020A00000007050202400000070583027A
:1009900040000000000000000000002A2B2800009A
:1009A0000000000000000000000000000000000047
:1009B0000000002C9EB4A0A1A2A434A6A7A5AE3628
:1009C0002D3738271E1F20212223242526B333B696
:1009D0002EB7B89F8485868788898A8B8C8D8E8F69
:1009E000909192939495969798999A9B9C9D2F316C
:1009F00030A3AD350405060708090A0B0C0D0E0FD0
:100A0000101112131415161718191A1B1C1DAFB14B
:100A1000B0B5000904020001030000000921010132
:100A20000001226500070584034000010501090259
:100A3000A1010901A100850105091901290315007A
:100A40002501950375018102950175058103050155
:100A50000930093109381581257F7508950381060C
:100A6000C0C005010906A1018502050719E029E7B3
:100A7000150025017501950881029501750881030E
:100A8000950675081500256505071900296581007B
:100A9000C0008E08E417371911241FBECFEFDAE02B
:100AA000DEBFCDBF11E0A0E0B1E0E4E2FAE302C0B6
:100AB00005900D92A035B107D9F726E0A0E5B1E089
:100AC00001C01D92AD31B207E1F71AE0C8E9DAE0E2
:100AD00004C02297FE010E94AF19C239D107C9F79D
:100AE0000E94ED120C94101D0C940000CF93DF9324
:100AF000C8EFDFEF82E791E00E94BD09AE016EE230
:100B000070E082E791E00E949E0C6EE071E082E767
:100B100091E00E943E1382E791E00E94A70C60E101
:100B200070E080E090E00E942B112296CC31D1053C
:100B300009F728E730E040E050E06BED73E086E72E
:100B400091E00E94930E68E770E080E090E00E94E0
:100B50002B1120E931E040E050E066E275E086E7E5
:100B600091E00E94930E40E350E06AE270E082E779
:100B700091E00E949E0C66E171E082E791E00E94A4
:100B80003E1382E791E00E94A70C60ED77E080E0E1
:100B900090E00E942B1121E030E040E050E066E25E
:100BA00075E086E791E0DF91CF910C94930E82E798
:100BB00091E00E94800B6CE382E791E00E94F208D2
:100BC0000E94760510925F0110925E0110925D0105
:100BD00010925C0182E090E090935B0180935A0157
:100BE000109259011092580110925701109256011B
:100BF000109253011092520110925501109254011B
:100C000082E890E090935101809350010895CF9233
:100C1000EF920F931F93CF93DF93809154019091A4
:100C20005501892B39F468E082E791E00E94AA0C13
:100C3000811115C08091520190915301892BB1F01F
:100C400068E082E791E00E94AA0C882379F0DF91A6
:100C5000CF911F910F91EF90CF900C94D70581E029
:100C600090E09093550180935401E4CF80917001FE
:100C700090917101019681382EE3920708F4CDC15D
:100C80001092710110927001809154019091550160
:100C9000892B09F44EC080915C0190915D01019611
:100CA00090935D0180935C0105970CF0BBC120918E
:100CB0005001309151012250310980915E01909193
:100CC0005F0164E670E00E94581980917001909174
:100CD000710181709927689FA001699F500D789FCD
:100CE000500D1124241B350B3093510120935001DA
:100CF000213F3F4FF4F42CE330E040E050E060E06F
:100D000070E0CB010E9408172091500130915101F1
:100D10008901222717FD2095322F64577F4F8F4F6F
:100D20009F4F060F171F281F391F10935101009363
:100D300050018091560190915701892B09F080C193
:100D400068E082E791E00E94AA0C882309F478C148
:100D500081E090E0909357018093560185E090E008
:100D6000909359018093580128E230E040E050E030
:100D700068EB71E086E791E00E94930E809152014A
:100D800090915301892B99F48091500190915101D8
:100D90000996499760F480915601909157010E97FA
:100DA00034F481E090E0909353018093520180915C
:100DB0005201909153010097D1F18130910539F49E
:100DC00020E530E040E050E066EF70E008C00697B4
:100DD00051F428EC30E040E050E06EEA70E086E745
:100DE00091E00E94930E80915201909153010196DF
:100DF0009093530180935201809158019091590131
:100E00008D3F2FEF92077CF00197909359018093CB
:100E10005801809150019091510101979093510197
:100E20008093500104C0109255011092540182E742
:100E300091E00E94BD0940E050E064E670E082E786
:100E400091E00E949E0C80915F018F9380915E01E2
:100E50008F938FE191E09F938F9380E691E09F9332
:100E60008F930E942F1A60E671E082E791E00E9462
:100E70003E13E0915A01F0915B0180915E019091E7
:100E80005F0120E830E0B9010E945819B901681BE0
:100E9000790BCC24C394A7E0EA2E01E12AEB31E0E0
:100EA000AF0182E791E00E94BF0980915E019091BD
:100EB0005F018F7799270F900F900F900F900F90F1
:100EC0000F90892B69F42AE030E040E050E060E0C8
:100ED00070E0CB010E94081770935B0160935A0188
:100EE0008091580190915901EE24E3940CE310E0B5
:100EF00005973CF02FE730E04CE350E060E070E015
:100F000010C023E030E04CE350E060E070E082E7A6
:100F100091E00E9422092FE730E04CE350E06CE0C2
:100F200070E082E791E00E94220960915001709187
:100F30005101CC24C394E8E1EE2E0CE02BEC31E01F
:100F400048E250E082E791E00E94BF09C091580159
:100F5000D091590148E250E04C1B5D0B8091520149
:100F600090915301892B31F062E1E62E0EE120E6EB
:100F700031E03DC0CC24C39432E1E32E04E124E20D
:100F800031E060E070E082E791E00E94BF0980916B
:100F9000540190915501892BF9F08091580190915D
:100FA0005901892BC9F4809170019091710187706A
:100FB00099274AE350E04C1B5D0B049728F025E08D
:100FC000E22E2CEF30E013C0CC24C39495E0E92E40
:100FD00004E128EE30E00BC04AE350E04C1B5D0B0F
:100FE000CC24C39485E0E82E04E120E131E060E008
:100FF00070E082E791E00E94BF0982E791E00E94E1
:10100000A70C60E170E080E090E0DF91CF911F914C
:101010000F91EF90CF900C942B11909371018093CE
:10102000700132CE10925D0110925C0180915E01E0
:1010300090915F01019690935F0180935E0137CE9E
:101040008091560190915701009709F497CE03972C
:1010500051F420E530E040E050E060E773E086E7DF
:1010600091E00E94930E8091560190915701019654
:1010700090935701809356018630910534F4809106
:10108000580190915901069641C08930910534F478
:101090008091580190915901029638C08D30910588
:1010A00034F4809158019091590101962FC08031FC
:1010B0009105B9F382319105A1F38431910519F0BD
:1010C0008631910531F48091580190915901019731
:1010D0001DC0873291054CF01092590110925801B1
:1010E000109257011092560149CE8132910534F089
:1010F0008091580190915901069708C08E31910551
:1011000054F08091580190915901029790935901A0
:101110008093580133CE4A97B4F630CE82E791E0FF
:101120000C94C808CF93CFB7F89480918C058111A7
:1011300027C0EEEDF8E08491E0ECF8E09491E82F20
:10114000F0E0EE0FFF1FE750F74FA591B4918C919F
:10115000892321F461E081E10E94B61261E081E11E
:101160000E947D128CB580618CBD8CB580648CBD75
:1011700061E08FE00E947D1261E080E10E947D12BB
:1011800080918C058F5F80938C05CFBFCF910895A0
:10119000CF93DF93EC018EE291E0998388831B82E9
:1011A0001A82CE010E94AB0F86E291E09983888378
:1011B0008CE38E8380E1898718861F821E861F86B6
:1011C000188A198A1A8AFE01EC5EFB4F118210827E
:1011D000329611821082C85EDB4F81E08883DF91F6
:1011E000CF910895FC01668370E088EE93E00E9441
:1011F0005819618708956038710518F54034510514
:1012000000F5E42FE695E695E695F0E04770552762
:10121000F695FE2FEE27F795E795E60FF71FE80FF7
:10122000F91F81E090E0042E01C0880F0A94EAF7CC
:10123000222319F09489982B03C0809594899823D0
:10124000948B08952F923F924F925F926F927F926C
:101250008F929F92AF92BF92CF92DF92EF92FF92C6
:101260000F931F93CF93DF932C01EB016A01590178
:101270009801241B350B37FF03C0319521953109A7
:10128000C5018C1B9D0B97FF03C09195819591091A
:10129000FF24F3948217930714F0F12C0AC09A2DBF
:1012A0008B2D5801092F182F9C2F8D2FE601C92E49
:1012B000D82EAC16BD0654F49C2D8D2D6801092F37
:1012C000182F9C2F8D2FE501A92EB82E15012C1A51
:1012D0003D0A38016C187D0877FE03C07194619453
:1012E0007108410137FE03C08FEF881A980A959460
:1012F0008794C016D10614F401E001C00FEF112746
:1013000007FD1095AC16BD06ACF02E2DFF2019F090
:10131000AE01B60102C0A601BE01C2010E94FB08D7
:101320008618970897FE04C0C00ED11E820C931C2D
:101330002196E8CFDF91CF911F910F91FF90EF9011
:10134000DF90CF90BF90AF909F908F907F906F90E5
:101350005F904F903F902F9008954496B62FB11113
:10136000BFEFFC010024B193B193B193B193039407
:10137000D1F7089560E00C94AD090C94BA092F924E
:101380003F924F925F926F927F928F929F92AF9215
:10139000BF92CF92DF92EF92FF920F931F93CF9362
:1013A000DF9300D000D01F92CDB7DEB7C982202EC8
:1013B000312CFB01E20DF31DF7FD13C160387105FF
:1013C0000CF00FC1FA01EE0DF11DF7FD0AC140341A
:1013D00051050CF006C1DA0157FF04C0AA27BB274C
:1013E000A41BB50BFD01E770FF27FB83EA83FA011D
:1013F00057FD3796DF0113E0B595A7951A95E1F7EC
:10140000BD83AC8357FF0CC01197BD83AC8348E00C
:1014100050E0DA01EA81FB81AE1BBF0BBB83AA83DC
:101420004E2D469546954695C42ED12C4E2D47708F
:1014300019F0FFEFCF1ADF0A49014C815D81569503
:10144000542F442757954795480F591F2C813D81AC
:10145000F8E06F2E712C8A819B81681A790AC90184
:10146000AC81BD818A1B9B0B8C159D050CF0B9C00E
:101470002830310509F4B5C02F3F9FEF39070CF430
:10148000A3C0CB0100E010E0DA01A058BF4F2D014E
:10149000021513050CF098C08038910509F494C02A
:1014A00097FD8EC02F3FBFEF3B0709F494C0D801D2
:1014B000A80DB91D7A01E80EF91EE981E13071F439
:1014C000FD01A491B0E00A8002C0AA0FBB1F0A94DC
:1014D000E2F7F701B488AB29A48B28C0F981F11198
:1014E00014C0FD01A491EA2FF0E00A8002C0EE0FC3
:1014F000FF1F0A94E2F7E095F095D7015496AC905F
:101500005497B12CEA21FB210FC0FD01A491EA2FD1
:10151000F0E00A8002C0EE0FFF1F0A94E2F7D70145
:101520005496BC905497EB255496EC93AA81BB81BA
:10153000AB2B09F445C02730310509F441C0F8014F
:10154000E80DF91DB981B13089F4E491F0E0062C81
:1015500002C0F595E7950A94E2F77201E80EF91ECC
:10156000D7015496BC905497EB2928C0B981B1118A
:1015700015C0E491F0E0062C02C0F595E7950A94B9
:10158000E2F7E095F0957201E80EF91ED701549646
:10159000AC905497B12CEA21FB2110C0E491F0E00B
:1015A000062C02C0F595E7950A94E2F77201E80E61
:1015B000F91ED7015496BC905497EB255496EC93A2
:1015C0000F5F1F4F019664CF2F5F3F4F820C931C1C
:1015D00040585F4F44CFAA81BB81AB2B09F0AFCFFE
:1015E000EFCF0F900F900F900F900F90DF91CF9152
:1015F0001F910F91FF90EF90DF90CF90BF90AF9031
:101600009F908F907F906F905F904F903F902F9022
:1016100008958F929F92AF92BF92CF92EF920F93C5
:101620001F93CF93DF935C01CEEEDFEF18E14C0107
:1016300084E1880E911C20E040E0612F6C1BC50105
:101640000E947D10C5010E94BA09CC24C39400E118
:10165000E02E08E52FEE31E0AE0164E170E0C50157
:101660000E94BF09C4010E9461106BE170E080E03C
:1016700090E00E942B11C03F31F46AEF70E080E0EF
:1016800090E00E942B112196C931D105A1F66EEE92
:1016900072E080E090E00E942B1120E040E060E0EA
:1016A000C501DF91CF911F910F91EF90CF90BF9027
:1016B000AF909F908F900C947D10CF93DF93EC01AF
:1016C0000E94DE0F0E94A3108078803849F40E94A7
:1016D00071102FEF4FEF6FEFCE010E947D10FFCF03
:1016E000CE010E94090B249665E0CE010E94740D84
:1016F0006DE0CE010E94740DDF91CF910C94CA0C65
:101700000C945D0B2F923F924F925F926F927F925B
:101710008F929F92AF92BF92CF92DF92EF92FF9201
:101720000F931F93CF93DF93CDB7DEB728970FB6F4
:10173000F894DEBF0FBECDBF9E838D832A01603833
:1017400071050CF06DC0403451050CF069C0CB013F
:10175000A5E0CA9E800D911D1124181619060CF0E3
:101760005FC0EC2DF0E0FC83EB83CA01F8E0CF9E74
:10177000800D911D1124181619060CF051C0A5E01A
:101780002A9FC00111245B0118861F8281569D4F3C
:101790009A838983BF81B53041F0E981FA818F81D5
:1017A0009885E80FF91F149101C010E0320128E07C
:1017B000D22E10FF02C0F02E01C0FE2CF1100BC083
:1017C000E01209C01695DA94AB81BC816A0E7B1ECB
:1017D000D110EFCF19C01501822D8A198C1590F701
:1017E0004301882D86198C1558F42F2DA401B101C1
:1017F0008D819E810E94FB08BFEF8B1A9B0AF1CF5F
:10180000EFEF2E1A3E0AE8CF8F81988501969887D0
:101810008F83AB81BC81AA0EBB1E069709F0BACF9D
:1018200028960FB6F894DEBF0FBECDBFDF91CF91E3
:101830001F910F91FF90EF90DF90CF90BF90AF90EE
:101840009F908F907F906F905F904F903F902F90E0
:1018500008958F929F92AF92BF92CF92EF920F9383
:10186000CF93DF93EC01262F6A3099F4FC01E85EF8
:10187000FB4F208132978081918138E0239F800D3A
:10188000911D112491838083CC5EDB4F19821882D5
:101890004BC06D3009F448C0FC01EA5EFB4F40814B
:1018A00051815C018CEEA81A8BEFB80AF5016081BA
:1018B00071814E01F8EE8F1AFBEF9F0AF401C08090
:1018C000E12C01E0CE010E94820BF4012081422F25
:1018D00050E0F50180819181F6E02F9F800D911DF0
:1018E0001124F50191838083359620812223E1F034
:1018F0006AEF64039001659F300D112420583F4F1B
:10190000281739078CF4E881F9810190F081E02DE6
:101910006AE0CE01DF91CF910F91EF90CF90BF9011
:10192000AF909F908F900994DF91CF910F91EF909E
:10193000CF90BF90AF909F908F900895FC01EC5E88
:10194000FB4F7183608332965183408308954496A0
:101950000C946110CF93DF931F92CDB7DEB76983EC
:101960000E94A3106981982F962381E0961380E04E
:101970000F90DF91CF910895E4E6F0E08081877FBA
:101980008083E5E6F0E08081877F808381E080933B
:101990008D05089510929A0582E090E00E94231C24
:1019A00081110C94BC0C0895CF92DF92EF92FF92BC
:1019B0001F93CF93DF9390919B05891708F065C023
:1019C00067FD63C0E82FF0E0E159F74F1491E62F6F
:1019D000F0E0603330F4E15CF74FE491CE2FD0E0DB
:1019E00006C0EE0FFF1FE15CF84FC591D4916E0168
:1019F000E12CF12C60E074E284EF90E0A701960105
:101A00000E948E19215031094109510921153105D2
:101A100081E04807510570F060E970ED83E090E0E7
:101A2000A70196010E948E192150310941095109DF
:101A300093E001C091E01130C9F0133031F580918D
:101A40009100887F892B8093910030939900209397
:101A50009800D0939905C093980581E080939705ED
:101A6000809171008260809371000FC0809181002D
:101A7000887F892B80938100309389002093880090
:101A800080916F00826080936F00DF91CF911F91F2
:101A9000FF90EF90DF90CF900895E82FF0E0E159AC
:101AA000F74FE491E13019F0E33069F00895809147
:101AB0006F008D7F80936F002091A505E091A605B2
:101AC000F091A70508C01092970520919E05E0911E
:101AD0009F05F091A005808190E030E02095309541
:101AE0008223932380830895CF93DF93C62F809121
:101AF0009B05823009F46BC0E82FF0E0E159F74F05
:101B0000D491A82FB0E0A456BA4F6C938F5F809306
:101B10009B0561E08C2F0E947D12D13091F1D33072
:101B200009F055C0109290001092910080919100A0
:101B300088608093910080919100816080939100F2
:101B40006C2F70E0FB01E353F74F249130E0220F3C
:101B5000331F2551374FF901859194919093A0053A
:101B600080939F05FB01E155F74F649160939E05BB
:101B70006CE380E00E94D40C80E0DF91CF910C9464
:101B80004D0D10928000109281008091810088603C
:101B900080938100809181008160809381006C2F0F
:101BA00070E0FB01E353F74F249130E0220F331F25
:101BB0002551374FF901859194919093A705809312
:101BC000A605FB01E155F74F64916093A505DF91F0
:101BD000CF910895E0918E05F0918F05BF016F5F61
:101BE0007F4F70938F0560938E05A4919A2F907FFD
:101BF0008A2F8F70903819F40E944D0DEBCF9039D9
:101C000061F4AF014E5F5F4F50938F0540938E0597
:101C1000FB0164910E94D40CDDCF903E49F4809189
:101C200090059091910590938F0580938E05D2CF6A
:101C3000903F19F410929A05089597FDCBCFAF010C
:101C40004E5F5F4F50938F0540938E05FB0164916B
:101C5000262F30E03A2BA0919805B09199050E946B
:101C6000B3196C507E4F8F4F9F4F28EE33E040E00A
:101C700050E00E946C192093920530939305409395
:101C80009405509395058091920590919305A091AC
:101C90009405B0919505892B8A2B8B2B61F481E0FB
:101CA00090E0A0E0B0E08093920590939305A0931C
:101CB0009405B0939505089580919705882349F080
:101CC00090919E05E0919F05F091A0058081892764
:101CD000808380919A05882329F1809192059091C3
:101CE0009305A0919405B0919505892B8A2B8B2B98
:101CF000C9F08091920590919305A0919405B091BF
:101D000095050197A109B1098093920590939305D8
:101D1000A0939405B0939505892B8A2B8B2B11F4F6
:101D20000C94EA0D08954F925F926F927F928F927A
:101D30009F92AF92BF92CF92DF92EF92FF92CF939A
:101D4000DF93EB0149015A0181E0809396052B0155
:101D5000612C712C60E072E18AE790E0A3019201AE
:101D60000E948E1969017A0181E0C81AD108E10840
:101D7000F108C114D10481E0E806F10488F068E4B8
:101D800078EE81E090E0A30192010E948E19690132
:101D90007A0181E0C81AD108E108F10893E001C096
:101DA00091E080918100887F892B8093810081144C
:101DB0009104A104B10471F0DE01AA0FBB1FA501BB
:101DC00094010E94C21928EE33E040E050E00E94E6
:101DD0006C1903C02FEF3FEFA901D0928900C09288
:101DE00088002093A1053093A2054093A30550934A
:101DF000A40580916F00826080936F00DF91CF9186
:101E0000FF90EF90DF90CF90BF90AF909F908F901A
:101E10007F906F905F904F9008951F920F920FB632
:101E20000F9211242F933F938F939F93AF93BF9360
:101E3000EF93FF9380919605882309F44BC080911E
:101E4000A1059091A205A091A305B091A405892BAD
:101E50008A2B8B2B51F19091A505E091A605F0916D
:101E6000A7058081892780838091A1059091A20593
:101E7000A091A305B091A405181619061A061B0611
:101E800094F58091A1059091A205A091A305B09130
:101E9000A4050197A109B1098093A1059093A2051A
:101EA000A093A305B093A4051EC01092960580913F
:101EB0006F008D7F80936F002091A505E091A605AE
:101EC000F091A705808190E030E020953095822345
:101ED000932308C09091A505E091A605F091A70570
:101EE000808189278083FF91EF91BF91AF919F916E
:101EF0008F913F912F910F900FBE0F901F901895CB
:101F00001F920F920FB60F9211242F933F934F936E
:101F10005F936F937F938F939F93AF93BF93EF9351
:101F2000FF930E945C0EFF91EF91BF91AF919F9143
:101F30008F917F916F915F914F913F912F910F9072
:101F40000FBE0F901F9018958EBD00000DB407FEB8
:101F5000FDCF8EB508950895E091AA05F091AB05E7
:101F600080819091A805892B8083E091AC05F09148
:101F7000AD0590818091A90580958923808308957E
:101F8000E091AC05F091AD0580819091A905892B78
:101F90008083E091AA05F091AB0590818091A8051E
:101FA000809589238083E091AC05F091AD05908107
:101FB0008091A9058095892380830895CF93DF932D
:101FC0000E949208CEE7D8E0BE01FE0184912296DD
:101FD0006F5F7F4FFB016491882319F00E947D128F
:101FE000F3CF61E086E00E94B61261E070E080E02D
:101FF00090E00E942B1160E086E00E94B6126AE039
:1020000070E080E090E00E942B1161E086E00E9489
:10201000B612E9EDF8E0E491F0E0EE0FFF1FE551B4
:10202000F74F859194919093AD058093AC05EBEBC0
:10203000F8E0E491E093A905E1EDF8E0E491F0E047
:10204000EE0FFF1FE551F74F859194919093AB05EB
:102050008093AA05E3EBF8E0E491E093A8058CB542
:102060008C7F8CBD8DB581608DBD0E94C00FC1E796
:10207000D8E0F8E0CE37DF0731F0FE0184910E940E
:10208000A40F2196F6CF0E94AC0F8091640081606E
:1020900080936400809164008260809364008091EA
:1020A0006400806880936400809164008064809301
:1020B000640080916500816080936500DF91CF911D
:1020C000089520E030E0FC014191CF014EBD119C0C
:1020D000119C119C2F5F3F4F2115F4E03F0799F7AA
:1020E0000895CF93DF93C0E0D4E080E00E94A40F76
:1020F0002197D9F7DF91CF9108950F931F93CF9335
:10210000DF9300D0CDB7DEB70FEF10E0C801861B1C
:102110009109BC018AE02A8349830E94A91149815F
:10212000B801641B71098BE00E94A9112A81B801D2
:10213000621B710989E00F900F90DF91CF911F9181
:102140000F910C94A9118FB14CB123B150E040957F
:1021500050954074552733E0559547953A95E1F7EA
:1021600030E02095309520713327359527953595AA
:102170002795242B8095807F822B08951F920F92A4
:102180000FB60F9211242F933F938F939F93AF938A
:10219000BF938091AF059091B005A091B105B0912A
:1021A000B2053091AE0523E0230F2D3720F40196C0
:1021B000A11DB11D05C026E8230F0296A11DB11D6A
:1021C0002093AE058093AF059093B005A093B10521
:1021D000B093B2058091B3059091B405A091B50577
:1021E000B091B6050196A11DB11D8093B3059093E2
:1021F000B405A093B505B093B605BF91AF919F917B
:102200008F913F912F910F900FBE0F901F901895B7
:102210003FB7F8948091B3059091B405A091B505AE
:10222000B091B60526B5A89B05C02F3F19F00196C1
:10223000A11DB11D3FBF6627782F892F9A2F620FEE
:10224000711D811D911D42E0660F771F881F991F28
:102250004A95D1F70895CF92DF92EF92FF92CF93F4
:10226000DF936B017C010E940811EB01C114D104C2
:10227000E104F10489F00E9424170E9408116C1BEC
:102280007D0B683E734090F381E0C81AD108E108E5
:10229000F108C851DC4FEACFDF91CF91FF90EF906A
:1022A000DF90CF900895789484B5826084BD84B522
:1022B000816084BD85B5826085BD85B5816085BD41
:1022C000EEE6F0E0808181608083E1E8F0E010825A
:1022D000808182608083808181608083E0E8F0E09B
:1022E000808181608083E1E9F0E080818260808389
:1022F000808181608083E0E9F0E08081816080837B
:10230000E1ECF0E080818460808380818260808362
:10231000808181608083E3ECF0E080818160808354
:10232000E0ECF0E0808182608083E2ECF0E080818C
:1023300081608083EAE7F0E080818460808380812F
:1023400082608083808181608083808180688083D7
:1023500008951F93CF93DF93182FEB0161E00E9444
:102360007D12209711F460E004C0CF3FD10539F40D
:1023700061E0812FDF91CF911F910C94B612E12F74
:10238000F0E0EF56F74F449150E0FA013197EF300B
:10239000F10508F06CC0EA5AFF4F0C94AD1984B5F2
:1023A000806884BDC7BD68C084B5806284BDC8BD77
:1023B00063C080918000806880938000D093890002
:1023C000C093880059C08091800080628093800013
:1023D000D0938B00C0938A004FC0809180008860AA
:1023E00080938000D0938D00C0938C0045C0809175
:1023F0009000806880939000D0939900C0939800DB
:102400003BC080919000806280939000D0939B00AD
:10241000C0939A0031C080919000886080939000B2
:10242000D0939D00C0939C0027C08091C00080681D
:102430008093C0008091C0008F7B8093C000C093C8
:10244000CF001AC08091C00080628093C000C0930A
:10245000D00012C08091C20088608093C200809139
:10246000C2008B7F8093C200C093D20005C0C038E9
:10247000D1050CF07DCF77CFDF91CF911F910895DB
:1024800090E0FC013197EF30F105B0F5EB59FF4FCB
:102490000C94AD19809180008F7703C080918000EB
:1024A0008F7D80938000089580918000877FF9CF91
:1024B00084B58F7702C084B58F7D84BD08958091E7
:1024C00090008F7707C0809190008F7D03C080912E
:1024D0009000877F8093900008958091C0008F774F
:1024E00003C08091C0008F7D8093C00008958091CB
:1024F000C200877F8093C2000895CF93DF9390E05E
:10250000FC01E155F74F2491FC01E353F74F84910F
:10251000882349F190E0880F991FFC01E750F74F9D
:10252000A591B4918551974FFC01C591D4919FB766
:10253000611108C0F8948C91209582238C93888136
:1025400082230AC0623051F4F8948C91322F309576
:1025500083238C938881822B888304C0F8948C9188
:10256000822B8C939FBFDF91CF9108950F931F9380
:10257000CF93DF931F92CDB7DEB7282F30E0F9015C
:10258000EF56F74F8491F901E155F74F1491F90196
:10259000E353F74F04910023C9F0882321F06983A6
:1025A0000E9440126981E02FF0E0EE0FFF1FE5511D
:1025B000F74FA591B4919FB7F8948C91611103C026
:1025C0001095812301C0812B8C939FBF0F90DF91C9
:1025D000CF911F910F91089508950E9453110E9469
:1025E000EC1287EB95E00E94C6160E94D705C0E06A
:1025F000D0E00E9407062097E1F30E940000F9CF87
:10260000CF92DF92EF92FF920F931F93CF93DF93BE
:102610006C017A01EB01E60EF71E00E010E0CE152A
:10262000DF0561F06991D601ED91FC910190F08197
:10263000E02DC6010995080F191FF1CFC801DF91E0
:10264000CF911F910F91FF90EF90DF90CF90089561
:102650006115710581F0DB010D900020E9F7AD01F6
:1026600041505109461B570BDC01ED91FC91028052
:10267000F381E02D099480E090E008950C942813F4
:102680004091BB055091BC052091B9053091BA0528
:1026900042175307B4F49091E8009570E1F39091DC
:1026A000E80092FD19C08093F1008091BB059091E4
:1026B000BC0501968F739927892B19F48EEF8093AF
:1026C000E8008091BB059091BC0501969093BC05F4
:1026D0008093BB0581E0089580E00895CF92DF925A
:1026E000FF920F931F93CF93DF931F92CDB7DEB767
:1026F000082F162F862F880F8E5F99830E94401314
:1027000083E00E944013F02EC02E9981D92E8C2D8B
:102710008F19811778F4F60184910E944013082FD5
:1027200080E00E9440138023FFEFCF1ADF0A81115F
:10273000EECF01C081E00F90DF91CF911F910F91FB
:10274000FF90DF90CF900895615030F02091F1001C
:10275000FC0120830196F8CF289884E68093BE057B
:1027600008952FB7FC012083F89467706093E90007
:102770000895CF93DF931F92CDB7DEB7682FCE01B8
:1027800001960E94B1138091F20099819FBF0F9032
:10279000DF91CF910895FF920F931F93CF93DF9313
:1027A00000D0CDB7DEB7F62E8A019091BD059923F2
:1027B00011F057FF03C08FEF9FEF2BC0682FCE01A2
:1027C00001967A830E94B1138091F20090E0A801F3
:1027D0007A81801791070CF4AC01EF2DF72FF40EDE
:1027E00084E6FE1639F028988093BE059091F1009A
:1027F0009193F7CF4115510521F08091F200882384
:1028000021F089818FBFCA0104C08BE68093E80064
:10281000F8CF0F900F90DF91CF911F910F91FF9004
:102820000895CF93DF931F92CDB7DEB741E050E01C
:10283000BE016F5F7F4F0E94CB13019719F489810E
:1028400090E002C08FEF9FEF0F90DF91CF9108953E
:10285000CF93DF931F92CDB7DEB7682FCE010196DD
:102860000E94B1139091E800892F807295FF04C0F7
:102870009091F20080E4891B99819FBF0F90DF91B6
:10288000CF9108956F927F928F929F92AF92BF9255
:10289000CF92DF92EF92FF920F931F93CF93DF932C
:1028A0001F92CDB7DEB7782E7B01C42EB52E809156
:1028B000BD05882369F0042F152F8AEFD82E872DA8
:1028C0008072982E9AE3A92E872D8074882E11C0CD
:1028D0008FEF9FEF57C0872D0E942814682E81111B
:1028E0000CC0DA94A9F361E070E080E090E00E940F
:1028F0002B110115110579F73BC0282F30E0021785
:1029000013070CF4602E672DCE0101960E94B113BF
:102910008091E80085FF29C0262D30E0021B130BB3
:10292000992039F06A948FEF6816B1F01092F10097
:10293000F9CFF701862D77FE07C0815058F09491AA
:102940009093F1003196F9CF815020F091919093BE
:10295000F100FACFE20EF31E8091E80085FF0FC070
:102960000115110511F481100AC089818FBFC1CFF3
:102970005D9884E68093BF058C2D9B2D03C0A092AB
:10298000E800F3CF0F90DF91CF911F910F91FF904F
:10299000EF90DF90CF90BF90AF909F908F907F90FF
:1029A0006F9008951092E9001092BC051092BB053B
:1029B0009093BA058093B9050895CF92DF92FF9264
:1029C0000F931F93CF93DF9300D0CDB7DEB7F82ED0
:1029D0008A016B0101151105B1F0F601F7FE02C085
:1029E000849101C0808149835A830E944013015021
:1029F0001109FFEFCF1ADF0A49815A818111EACF0D
:102A00008FEF9FEF01C0CA010F900F90DF91CF9120
:102A10001F910F91FF90DF90CF9008951F93CF9358
:102A2000DF931F92CDB7DEB7162F2091E80022FF6B
:102A3000FCCF612F79830E94A4138BEF8093E80071
:102A4000812F7981972F0F90DF91CF911F9108955A
:102A5000CF93DF931F92CDB7DEB71982CE010196D7
:102A60000E948417CE0101960E941F18898190E070
:102A70000F90DF91CF9108951F920F920FB60F9292
:102A80001124EF92FF920F931F932F933F934F9335
:102A90005F936F937F938F939F93AF93BF93EF93C6
:102AA000FF93CF93DF93CDB7DEB76297DEBFCDBF85
:102AB0001092E9008091E80083FFEBC068E0CE014E
:102AC0000A960E94A41382EF8093E8009A8597FFEC
:102AD00005C08091E80080FFFCCF03C08EEF80939B
:102AE000E800892F807609F0B9C08B85811105C077
:102AF0001092F1001092F100C5C0282F2D7F2130D7
:102B000009F4C0C0853049F48091E80080FFFCCF13
:102B10008C8580688093E300B5C0863009F076C06C
:102B20002D85E888F988223071F580E090E02A8BC5
:102B30000E94D2140E94281599E08E010F5F1F4F4A
:102B4000F801392F11923A95E9F799832A892A8356
:102B500091E09E8390E898879AEF99872091BB0532
:102B60003091BC05275F3F4F3C832B838D83C7018A
:102B70000E94D21449E050E0B80180E00E94DD14C8
:102B80000E9428157FC0C7012A8B0E94D2142A896F
:102B9000223241F482E290E00E942A18892B09F047
:102BA00071C074C0213069F488899989089711F43B
:102BB0002093B8058091B805811118C06EE179E0C5
:102BC0001AC0233009F062C08C85882391F08230CE
:102BD00021F460E18CE399E006C0813009F056C031
:102BE0006BE080E399E00E946E134AC06CE079E0EC
:102BF00002C06DE479E06115710509F447C0FB017D
:102C0000449150E080E80E94DD143CC0873009F414
:102C10003DC0883021F481E08093F10033C08930D9
:102C200089F5937099F5E8E0F9E081E021E096E319
:102C30008093E9002093EB0034913093EC00909363
:102C4000ED008F5F3196853099F78EE78093EA002B
:102C50001092EA008C858093BD0514C088899989FB
:102C60000E94D2148E85811105C0CE010A960E9461
:102C70008F1706C0823051F4CE010A960E94521876
:102C8000882321F08EEF8093E80003C081E28093D7
:102C9000EB0062960FB6F894DEBF0FBECDBFDF919A
:102CA000CF91FF91EF91BF91AF919F918F917F91C4
:102CB0006F915F914F913F912F911F910F91FF90D5
:102CC000EF900F900FBE0F901F9018958093E90022
:102CD0008091F200882319F08AE38093E800089538
:102CE0001F920F920FB60F9211242F933F934F9381
:102CF0005F936F937F938F939F93AF93BF93EF9364
:102D0000FF938091E1001092E10083FF0FC01092C9
:102D1000E90091E09093EB001092EC0092E3909325
:102D2000ED001092BD0598E09093F00082FF1DC069
:102D300083E00E9466168091BF05882339F0809158
:102D4000BF0581508093BF05882369F08091BE053F
:102D5000882359F08091BE0581508093BE05811172
:102D600004C0289A02C05D9AF1CFFF91EF91BF9104
:102D7000AF919F918F917F916F915F914F913F9113
:102D80002F910F900FBE0F901F9018951092BD05B8
:102D900081E08093D70080EA8093D80082E189BDEA
:102DA00009B400FEFDCF61E070E080E090E00E9499
:102DB0002B1180E98093D8008CE08093E200109280
:102DC000E000559A209A0895CF93DF9300D000D069
:102DD000CDB7DEB79B01AC01611571058105910589
:102DE00069F069833A834B835C830E941C1A2981B2
:102DF0003A814B815C810E948E1903C060E070E0D3
:102E0000CB010F900F900F900F90DF91CF9108950D
:102E1000CF92DF92EF92FF926B017C0162177307F2
:102E20008407950764F4CA01B9016C197D098E09FC
:102E30009F090E94E4166C0D7D1D8E1D9F1DFF9045
:102E4000EF90DF90CF90089508950E942A1ACF93B3
:102E5000DF931F92CDB7DEB76983DC01ED91FC9162
:102E60000280F381E02D41E050E0BE016F5F7F4FB3
:102E700009950F90DF91CF910895CF93DF93EC01E7
:102E80008C859D8597FF05C082E00E9411149D8767
:102E90008C878C859D85DF91CF91089583E00C947C
:102EA0006616FC018485958597FD06C082E00E9428
:102EB000B91390E00196089582E00E94B91390E062
:102EC0000895FC018485958597FD05C02FEF3FEFA0
:102ED00035872487089582E00C941114CF93DF93F3
:102EE000EC0180910B01882331F083E00E944214B1
:102EF0001816190634F081E090E09B838A8380E005
:102F000090E0DF91CF910895FC0120812E5F208316
:102F100042E450E061E579E080E80C94DD14FC01C6
:102F200081819081913A59F4813209F03CC047E0A7
:102F300050E064E071E080E00E94DD1443C0913213
:102F400091F5803239F467E070E084E091E00E940E
:102F50000E1506C0823209F035C0828180930B01C4
:102F60008091040190910501A0910601B0910701A3
:102F7000803B9440A105B105C1F480910B0180FD17
:102F800014C087E797E790930108809300082BE02F
:102F900088E190E00FB6F894A895809360000FBE8A
:102FA000209360000FC080E0089588E10FB6F89488
:102FB00080936000109260000FBEA89510920108E7
:102FC0001092000881E008951092C3051092C20586
:102FD00088EE93E0A0E0B0E08093C4059093C5052F
:102FE000A093C605B093C70586E391E09093C10511
:102FF0008093C0058FEF9FEF9093CD058093CC0514
:103000000895FF920F931F93CF93DF93EC01F62E59
:10301000E881F9810480F581E02D09958C01E88132
:10302000F9810680F781E02D6F2DCE010995C80149
:103030009927DF91CF911F910F91FF900895FC0187
:1030400020812F5F208349E150E063E17AE080E84E
:103050000C94DD1445E650E06CE27AE080E80C94D4
:10306000DD14EF92FF920F931F93CF93DF931F9284
:10307000CDB7DEB789838B017A0141E050E0BE0114
:103080006F5F7F4F84E00E944214A701B80184E47F
:103090000E9442140F90DF91CF911F910F91FF90EA
:1030A000EF900895FC0191818081813A31F481E0B3
:1030B000913091F0933089F411C0813271F49B30DA
:1030C00021F4828180930D0105C09A3031F4828110
:1030D00080930C0181E00895089580E0089548E010
:1030E00050E082E00C943118CF93DF93DC01683814
:1030F00018F0E8E7E60F25C0E62FF0E067FF11C003
:10310000E058F10981E090E001C0880FEA95EAF704
:1031100014969C911497982B14969C931497E0E026
:1031200010C0ED56F64FE491EE2309F440C0E7FFDE
:1031300008C014968C911497826014968C931497FF
:10314000EF7716968C9116978E1741F117968C9102
:1031500017978E1719F118968C9118978E17F1F012
:1031600019968C9119978E17C9F01A968C911A9707
:103170008E17A1F01B968C911B978E1779F080E02B
:1031800090E0ED01C80FD91F2E81211102C0EE83FE
:1031900005C0019686309105A1F709C0BD016C5F9D
:1031A0007F4FCD010E946F1881E090E008C081E060
:1031B00090E013969C938E93129780E090E0DF91BD
:1031C000CF910895683818F0E8E7E60F25C0E62F9C
:1031D000F0E067FF12C0E058F10921E030E001C0E3
:1031E000220FEA95EAF72095DC0114963C9114979A
:1031F000322314963C93E0E00FC0ED56F64FE49175
:10320000EE2329F1E7FF08C0DC0114962C911497F6
:103210002D7F14962C93EF7720E030E0EE2351F0D1
:10322000DC01A20FB31F16964C9116974E1302C0E5
:1032300016961C922F5F3F4F2630310579F7BC015F
:103240006C5F7F4F0E946F1881E090E0089580E0EE
:1032500090E00895FC01168217821086118612866E
:1032600013861482BC016C5F7F4F0C946F18109210
:103270001C06109213061092120686E491E09093B9
:103280001106809310060895AA1BBB1B51E107C0CD
:10329000AA1FBB1FA617B70710F0A61BB70B881FE6
:1032A000991F5A95A9F780959095BC01CD01089575
:1032B00097FB072E16F4009407D077FD09D00E94E3
:1032C000441907FC05D03EF4909581959F4F0895D1
:1032D000709561957F4F0895A1E21A2EAA1BBB1B22
:1032E000FD010DC0AA1FBB1FEE1FFF1FA217B307D2
:1032F000E407F50720F0A21BB30BE40BF50B661FE8
:10330000771F881F991F1A9469F7609570958095AB
:1033100090959B01AC01BD01CF010895052E97FB4F
:103320001EF400940E94A51957FD07D00E946C1945
:1033300007FC03D04EF40C94A51950954095309598
:1033400021953F4F4F4F5F4F089590958095709511
:1033500061957F4F8F4F9F4F0895EE0FFF1F059090
:10336000F491E02D0994A29FB001B39FC001A39FE7
:10337000700D811D1124911DB29F700D811D1124AE
:10338000911D08950E94B319A59F900DB49F900DB3
:10339000A49F800D911D112408958F929F92AF924A
:1033A000BF92CF92DF92EF92FF92CF93DF93EC0127
:1033B000688179818A819B816115710581059105FB
:1033C00021F464E279ED8BE597E02DE133EF41E004
:1033D00050E00E948E1949015A019B01AC01A7EAF5
:1033E000B1E40E94C2196B017C01ACEEB4EFA501FF
:1033F00094010E94D41CC60ED71EE81EF91EF7FECB
:1034000006C081E0C81AD108E10880E8F80AC8823D
:10341000D982EA82FB82C701B6019F77DF91CF9103
:10342000FF90EF90DF90CF90BF90AF909F908F90E4
:1034300008950E94CD19089580E091E00E94CD1971
:1034400008956093000170930101809302019093AD
:103450000301089581E090E0F8940C94101DAEE013
:10346000B0E0E5E3FAE10C94E71C0D891E8986E0E3
:103470008C831A8309838FEF9FE79E838D83AE0130
:10348000475E5F4F6F89788DCE0101960E94511A79
:10349000EF81F885E00FF11F10822E96E4E00C9486
:1034A000031DACE0B0E0E7E5FAE10C94D91C7C0127
:1034B0006B018A01FC0117821682838181FFBDC1E5
:1034C000CE0101964C01F7019381F60193FD8591A0
:1034D00093FF81916F01882309F4ABC1853239F4E0
:1034E00093FD859193FF81916F01853229F4B70196
:1034F00090E00E94411CE7CF512C312C20E020327B
:10350000A0F48B3269F030F4803259F0833269F4E0
:1035100020612CC08D3239F0803339F4216026C00F
:103520002260246023C0286021C027FD27C030ED21
:10353000380F3A3078F426FF06C0FAE05F9E300D6F
:103540001124532E13C08AE0389E300D1124332EDF
:1035500020620CC08E3221F426FD6BC1206406C0AF
:103560008C3611F4206802C0883641F4F60193FDD0
:10357000859193FF81916F018111C1CF982F9F7D1C
:103580009554933028F40C5F1F4FFFE3F9830DC06F
:10359000833631F0833771F0833509F05BC022C088
:1035A000F801808189830E5F1F4F44244394512C7E
:1035B000540115C03801F2E06F0E711CF801A080B3
:1035C000B18026FF03C0652D70E002C06FEF7FEF72
:1035D000C5012C870E94361C2C0183012C852F7776
:1035E000222E17C03801F2E06F0E711CF801A08086
:1035F000B18026FF03C0652D70E002C06FEF7FEF42
:10360000C5012C870E942B1C2C012C852068222EA2
:10361000830123FC1BC0832D90E048165906B0F4AB
:10362000B70180E290E00E94411C3A94F4CFF5018A
:1036300027FC859127FE81915F01B70190E00E94F0
:10364000411C31103A94F1E04F1A510841145104D1
:1036500071F7E5C0843611F0893639F5F80127FF96
:1036600007C060817181828193810C5F1F4F08C008
:1036700060817181882777FD8095982F0E5F1F4F9D
:103680002F76B22E97FF09C0909580957095619521
:103690007F4F8F4F9F4F2068B22E2AE030E0A40169
:1036A0000E94731CA82EA81844C0853729F42F7EC9
:1036B000B22E2AE030E025C0F22FF97FBF2E8F36E0
:1036C000C1F018F4883579F0B4C0803719F0883724
:1036D00021F0AFC02F2F2061B22EB4FE0DC08B2D74
:1036E0008460B82E09C024FF0AC09F2F9660B92EAF
:1036F00006C028E030E005C020E130E002C020E153
:1037000032E0F801B7FE07C0608171818281938148
:103710000C5F1F4F06C06081718180E090E00E5FFA
:103720001F4FA4010E94731CA82EA818FB2DFF7721
:10373000BF2EB6FE0BC02B2D2E7FA51450F4B4FE69
:103740000AC0B2FC08C02B2D2E7E05C07A2C2B2D72
:1037500003C07A2C01C0752C24FF0DC0FE01EA0DB8
:10376000F11D8081803311F4297E09C022FF06C03B
:103770007394739404C0822F867809F0739423FDA8
:1037800013C020FF06C05A2C731418F4530C57189A
:10379000732C731468F4B70180E290E02C870E94C8
:1037A000411C73942C85F5CF731410F4371801C0A5
:1037B000312C24FF12C0B70180E390E02C870E94D7
:1037C000411C2C8522FF17C021FF03C088E590E033
:1037D00002C088E790E0B7010CC0822F867859F0CC
:1037E00021FD02C080E201C08BE227FD8DE2B7011E
:1037F00090E00E94411CA51438F4B70180E390E0EA
:103800000E94411C5A94F7CFAA94F401EA0DF11DCD
:103810008081B70190E00E94411CA110F5CF3320B8
:1038200009F451CEB70180E290E00E94411C3A9425
:10383000F6CFF7018681978102C08FEF9FEF2C961C
:10384000E2E10C94F51CF999FECF92BD81BDF89A86
:10385000992780B50895FC010590615070400110D2
:10386000D8F7809590958E0F9F1F0895FC016150A9
:10387000704001900110D8F7809590958E0F9F1F92
:1038800008950F931F93CF93DF93182F092FEB0108
:103890008B8181FD03C08FEF9FEF20C082FF10C09E
:1038A0004E815F812C813D81421753077CF4E88172
:1038B000F9819F012F5F3F4F39832883108306C012
:1038C000E885F985812F0995892B29F72E813F817C
:1038D0002F5F3F4F3F832E83812F902FDF91CF911A
:1038E0001F910F910895FA01AA27283051F1203134
:1038F00081F1E8946F936E7F6E5F7F4F8F4F9F4F84
:10390000AF4FB1E03ED0B4E03CD0670F781F891FC5
:103910009A1FA11D680F791F8A1F911DA11D6A0F93
:10392000711D811D911DA11D20D009F468943F9146
:103930002AE0269F11243019305D3193DEF6CF0145
:103940000895462F4770405D4193B3E00FD0C9F70B
:10395000F6CF462F4F70405D4A3318F0495D31FD78
:103960004052419302D0A9F7EACFB4E0A6959795CB
:10397000879577956795BA95C9F7009761057105A1
:1039800008959B01AC010A2E0694579547953795EB
:103990002795BA95C9F7620F731F841F951FA01D45
:1039A0000895B7FF0C94C2190E94C219821B930B91
:1039B00008952F923F924F925F926F927F928F92D3
:1039C0009F92AF92BF92CF92DF92EF92FF920F93AE
:1039D0001F93CF93DF93CDB7DEB7CA1BDB0B0FB6B8
:1039E000F894DEBF0FBECDBF09942A883988488875
:1039F0005F846E847D848C849B84AA84B984C8840B
:103A0000DF80EE80FD800C811B81AA81B981CE0F01
:103A1000D11D0FB6F894DEBF0FBECDBFED010895E6
:043A2000F894FFCF48
:103A24000100000000E1000000000000010141521B
:103A34004455424F590070726573656E7473002566
:103A4400640000000000290C00130000000025178A
:103A540000130000000027176E17511761173D1758
:103A64004E1700000000011800137418E2182A19F8
:00000001FF
